:100000000C946A000C9492000C9492000C94920050
:100010000C9492000C9492000C9492000C94920018
:100020000C9492000C9492000C9492000C94920008
:100030000C9492000C9492000C9492000C949200F8
:100040000C9417190C9492000C9487190C94611954
:100050000C9492000C9492000C9492000C949200D8
:100060000C94B9190C94920000000000250028009F
:100070002B000000000023002600290000000008DB
:10008000000201000003040700000000000000005F
:1000900000000000240027002A00010204081020AC
:1000A000408001020408102001020408102004040A
:1000B0000404040404040202020202020303030310
:1000C00003037C3C3E5E2B3D3F2F5B5D3B2C2A2295
:1000D0005C00D81A11241FBECFEFD8E0DEBFCDBF21
:1000E00011E0A0E0B1E0E0EAFDE302C005900D926E
:1000F000A03FB107D9F725E0A0EFB1E001C01D9204
:10010000A53BB207E1F710E0CAE6D0E004C02197B2
:10011000FE010E94BA1CC936D107C9F70E942C1BE8
:100120000C94CE1E0C94000080E480937C0080919F
:100130007A00806480937A0080917A0086FDFCCFFB
:1001400080917800909179000895833081F028F4AF
:10015000813099F08230A9F008958730A9F0883075
:10016000C9F08430B1F4809180008F7D03C080910C
:1001700080008F7780938000089584B58F7784BD49
:10018000089584B58F7DFBCF8091B0008F778093E9
:10019000B00008958091B0008F7DF9CFCF93DF93A9
:1001A000282F30E0F901E458FF4F8491F901E65619
:1001B000FF4FD491F901E255FF4FC491CC23A1F038
:1001C00081110E94A500EC2FF0E0EE0FFF1FEE580A
:1001D000FF4FA591B491EC91ED2381E090E009F4FB
:1001E00080E0DF91CF91089580E090E0FACF1F93F7
:1001F000CF93DF93282F30E0F901E458FF4F84912B
:10020000F901E656FF4FD491F901E255FF4FC49131
:10021000CC23A9F0162F81110E94A500EC2FF0E04D
:10022000EE0FFF1FE859FF4FA591B4918FB7F894D7
:10023000EC91111108C0D095DE23DC938FBFDF91C4
:10024000CF911F910895DE2BF8CFCF93DF9390E0ED
:10025000FC01E656FF4F249182559F4FFC0184918B
:100260008823D1F090E0880F991FFC01E057FF4FE1
:10027000A591B491FC01E859FF4FC591D49161114A
:100280000EC09FB7F8948C91E22FE0958E238C934B
:100290002881E223E8839FBFDF91CF9108958FB734
:1002A000F894EC91E22BEC938FBFF6CF3FB7F89424
:1002B0008091B5029091B602A091B702B091B802B8
:1002C00026B5A89B05C02F3F19F00196A11DB11DB1
:1002D0003FBFBA2FA92F982F8827BC01CD01620FED
:1002E000711D811D911D42E0660F771F881F991FA8
:1002F0004A95D1F708958F929F92AF92BF92CF9275
:10030000DF92EF92FF924B015C010E9456016B015C
:100310007C010E9456016C197D098E099F09683E77
:10032000734081059105A8F321E0821A9108A10884
:10033000B10888EEC80E83E0D81EE11CF11C8114C0
:100340009104A104B10429F7FF90EF90DF90CF90C2
:10035000BF90AF909F908F9008952FB7F8946091C1
:10036000B1027091B2028091B3029091B4022FBF9A
:1003700008950895AF92BF92CF92DF92EF92FF92CD
:100380000F931F93CF93DF936C017B018B01040FBD
:10039000151FEB015E01AE18BF08C017D10759F059
:1003A0006991D601ED91FC910190F081E02DC6019B
:1003B0000995892B79F7C501DF91CF911F910F9195
:1003C000FF90EF90DF90CF90BF90AF900895FC0129
:1003D000538D448D252F30E0842F90E0821B930BAA
:1003E000541710F0CF96089501970895FC01918D50
:1003F000828D981761F0A28DAE0FBF2FB11D5D9653
:100400008C91928D9F5F9F73928F90E008958FEFF4
:100410009FEF0895FC01918D828D981731F0828DA8
:10042000E80FF11D858D90E008958FEF9FEF0895FF
:10043000FC01918D228D892F90E0805C9F4F821B63
:1004400091098F73992708958DEB94E00E9418020B
:1004500021E0892B09F420E0822F089580E090E0CC
:10046000892B29F00E94240281110C940000089528
:10047000FC01A48DA80FB92FB11DA35ABF4F2C9119
:10048000848D90E001968F739927848FA689B78910
:100490002C93A089B1898C91837080648C93938D07
:1004A000848D981306C00288F389E02D80818F7DAA
:1004B00080830895EF92FF920F931F93CF93DF9362
:1004C000EC0181E0888F9B8D8C8D98131AC0E88990
:1004D000F989808185FF15C09FB7F894EE89FF895F
:1004E0006083E889F98980818370806480839FBFFD
:1004F00081E090E0DF91CF911F910F91FF90EF90FD
:100500000895F62E0B8D10E00F5F1F4F0F7311270C
:10051000E02E8C8D8E110CC00FB607FCFACFE88947
:10052000F989808185FFF5CFCE010E943802F1CF95
:10053000EB8DEC0FFD2FF11DE35AFF4FF0829FB7BB
:10054000F8940B8FEA89FB8980818062CFCFCF93AB
:10055000DF93EC01888D8823B9F0AA89BB89E889EB
:10056000F9898C9185FD03C0808186FD0DC00FB691
:1005700007FCF7CF8C9185FFF2CF808185FFEDCF0F
:10058000CE010E943802E9CFDF91CF9108958FB755
:10059000F8948091AB028FBF089561E0FC018481E3
:1005A0000E94F7008091AA0281111092AA02089578
:1005B0008EBD00000DB407FEFDCF8EB508958FEF00
:1005C0000C94D8020F931F93CF93DF93EC010E94FA
:1005D000AD018B010E94DF028F3F69F00E94AD01E7
:1005E000601B710B6C177D07A8F380E0DF91CF9142
:1005F0001F910F91089581E0F9CF8CBD9DBD0895A5
:10060000CF93DF93EC018091AA02811109C081E0B0
:100610008093AA0280915A0590915B050E94FD0289
:1006200060E08C81DF91CF910C94F7008F929F92C4
:10063000AF92BF92FF920F931F93CF93DF93EC0182
:10064000F62E49015A018E81882389F08F81988581
:100650009C012F5F3F4F38872F838230924018F4E0
:100660000E94DF02F3CFCE010E94CD021E82CE0196
:100670000E9400038CE291E00E94E2028F2D8064D0
:100680000E94D80208E110E0D501C401002E04C088
:10069000B695A795979587950A94D2F70E94D802A8
:1006A00008501109083F8FEF180771F785E9FF20FF
:1006B00021F028E087E8F2128FEF0E94D80210E0C4
:1006C0000E94DF028A8787FF04C01F3F11F01F5F6F
:1006D000F7CFDF91CF911F910F91FF90BF90AF9017
:1006E0009F908F900895AF92BF92CF92DF92EF923A
:1006F000FF920F931F93CF93DF93EC016901C80121
:10070000820F931F8130924050F58E81882379F0BB
:1007100088819981AA81BB8184179507A607B707AD
:1007200031F48F819885C816D90608F042C04883F5
:1007300059836A837B838B85833039F089E0440F4A
:10074000551F661F771F8A95D1F79A01AB0161E1AA
:10075000CE010E941603882389F083E08D83CE01A9
:100760000E94CD0280E0DF91CF911F910F91FF9009
:10077000EF90DF90CF90BF90AF9008950E94AD01B1
:100780005B010E94DF028A878F3F69F40E94AD01FE
:100790006A197B096D327140A0F38FE08D83CE0121
:1007A0000E94CD02DCCF8E3F89F418861F8281E043
:1007B0008E838F8198858C159D0550F40E94DF02F1
:1007C0008F819885019698878F83F3CF8DE0E6CF50
:1007D0006701E00EF11E0E94DF02F60181936F01B6
:1007E000EE15FF05C1F78F819885080F191F18872F
:1007F0000F838985882319F001151240A0F08E819E
:10080000882389F08F8198859C012F5F3F4F38871F
:100810002F838230924018F40E94DF02F3CFCE0182
:100820000E94CD021E8281E09ECFCF92DF92EF9296
:10083000FF920F93CF93DF93EC01690182E14115A1
:1008400051056105710599F08B85833039F089E098
:10085000440F551F661F771F8A95D1F79A01AB0188
:1008600068E1CE010E941603882319F084E08D838D
:100870002DC08EEF0E94D80276018EEFD81AF701B4
:1008800081917F010E94D802EC14FD04C1F78FEF23
:100890000E94D8028FEF0E94D8020E94DF028A874E
:1008A0008F71853071F4011116C0CE010E94CD0206
:1008B00081E0DF91CF910F91FF90EF90DF90CF908B
:1008C000089581E18D83CE010E94CD02CE010E9468
:1008D000CD0280E0EECF88E592E00E94E202811135
:1008E00002C085E1C4CF20E030E0A9016DE0CE0177
:1008F0000E941603882311F084E1B9CF0E94DF0221
:100900008111FACFD2CF0F934091AC025091AD023A
:100910006091AE027091AF024115510561057105FC
:1009200099F0082F2DEB32E08091BA029091BB0232
:100930000E941504882349F01092AC021092AD0277
:100940001092AE021092AF0281E00F9108950F93C2
:10095000CF93C82F8091BC02811105C0C1E08C2FBC
:10096000CF910F9108954091000150910101609144
:100970000201709103010C2F2DEB32E08091BA023D
:100980009091BB020E941504811102C0C0E0E7CF24
:10099000CC2321F381E00E9483048823B9F31092D1
:1009A000BC02DDCF8F929F92AF92BF92EF92FF92E7
:1009B0000F931F93CF934B015C01C42F80910001D3
:1009C00090910101A0910201B09103018815990550
:1009D000AA05BB0551F181E00E94A70481110BC05B
:1009E00080E0CF911F910F91FF90EF90BF90AF905B
:1009F0009F908F9008958DEBE82E82E0F82E00E016
:100A000012E030E020E0B501A4018091BA0290919B
:100A1000BB020E947303882319F380920001909215
:100A20000101A0920201B09203014091BC024C2B43
:100A30004093BC0281E0D5CF8F929F92AF92BF923C
:100A4000CF92DF92EF92FF92CF932CE535E0309377
:100A5000BB022093BA02882309F46DC040E060E035
:100A600070E0CB010E94D20481110BC080E0CF91D5
:100A7000FF90EF90DF90CF90BF90AF909F908F90BE
:100A8000089580917B048F7789F7809187049091F6
:100A90008804A0918904B0918A0484369105A10547
:100AA000B10520F3C0908304D0908404E0908504C5
:100AB000F0908604C114D104E104F104B9F240E0DD
:100AC000C701B6010E94D204882381F28091C80236
:100AD0009091C9028115924049F6A091CD02AA23B6
:100AE00029F26091CB027091CC026115710509F475
:100AF000BDCF2091CA02222309F4B8CFA0937A0572
:100B000020936C0590E080E030E0E1E0F0E0C82F59
:100B1000AF01082E02C0440F551F0A94E2F72417B4
:100B2000350769F041E0480F01968930910579F762
:100B3000409375059BCFC12CD12C7601C0CF8093FB
:100B400075052091D3023091D40250E040E0211588
:100B5000310541F42091E1023091E2024091E3023B
:100B60005091E40220936D0530936E0540936F051C
:100B70005093700546015701860E971EA11CB11CAB
:100B800080927B0590927C05A0927D05B0927E05B7
:100B9000E091CE02F091CF02F0938105E0938005C1
:100BA000B0E00E943F1CDC01CB01880D991DAA1DFD
:100BB000BB1D8093820590938305A0938405B09319
:100BC000850525E0EE0FFF1F2A95E1F7E150FE4F66
:100BD000EF2FFF27E6958E0F9F1FA11DB11D80935C
:100BE000760590937705A0937805B093790580906A
:100BF000D0029090D102B12CA12C8114910441F427
:100C00008090DD029090DE02A090DF02B090E002C2
:100C1000C81AD90AEA0AFB0AC80CD91CEA1CFB1C30
:100C200004C0F694E794D794C794CA95D2F7C092BB
:100C30007105D0927205E0927305F092740585EF0C
:100C4000C8168FE0D806E104F10428F48CE0809304
:100C50007F0581E00CCF80E125EFC2162FEFD20691
:100C6000E104F104A0F38091E9029091EA02A091DD
:100C7000EB02B091EC028093820590938305A093E0
:100C80008405B093850580E2E2CF4F925F926F9228
:100C90007F928F929F92AF92BF92CF92DF92EF920C
:100CA000FF920F931F93CF93DF93EC0142305105D6
:100CB0006105710590F480E0DF91CF911F910F9154
:100CC000FF90EF90DF90CF90BF90AF909F908F906C
:100CD0007F906F905F904F90089589859A85AB853E
:100CE000BC850196A11DB11D84179507A607B707FE
:100CF00010F3CB88DC88ED88FE888F89803109F07D
:100D000042C0BB27A72F962F852F480159012A01E2
:100D10003B01C80ED91EEA1EFB1E80910001909176
:100D20000101A0910201B0910301C816D906EA069B
:100D3000FB0699F58F898031C1F5B301A2015527D2
:100D400066277727440F551F43545D4FFA01918260
:100D500080828091BC0281608093BC028A8982304B
:100D600080F08D819E81AF81B8858C0D9D1DAE1D5B
:100D7000BF1D8093AC029093AD02A093AE02B093DE
:100D8000AF0281E099CFDB01CA01E7E0B695A795F4
:100D900097958795EA95D1F7B8CF40E0C701B6019E
:100DA0000E94D2048111C6CF86CFB301A2014F7732
:100DB000552766277727440F551F440F551F435467
:100DC0005D4FFA0180829182A282B382C2CF8F925C
:100DD0009F92AF92BF92CF92DF92EF92FF920F93CA
:100DE0001F93CF93DF93FC0181859285A385B48502
:100DF0000196A11DB11D84179507A607B70770F4CA
:100E000080E0DF91CF911F910F91FF90EF90DF90E5
:100E1000CF90BF90AF909F908F90089583889488D3
:100E2000A588B6888789803189F5BB27A72F962F9B
:100E3000852FE9016A017B018F01BC01CD01680D9D
:100E4000791D8A1D9B1D8090000190900101A0904A
:100E50000201B090030186169706A806B90601F5AF
:100E6000F8018789803111F5DD24EE24FF24F60195
:100E7000EE0FFF1FE354FD4F80819181B0E0A0E0B1
:100E800088839983AA83BB8381E0BBCFDB01CA013E
:100E9000C7E0B695A79597958795CA95D1F7C9CF1D
:100EA00040E00E94D2048111DBCFAACFE894C7F8BA
:100EB000DD24EE24FF24F601EE0FFF1FEE0FFF1FCF
:100EC000E354FD4F80819181A281B381BF70D8CF5F
:100ED0004F925F926F927F92AF92BF92CF92DF92CA
:100EE000EF92FF920F931F93CF93DF9300D000D028
:100EF000CDB7DEB78C0149835A836B837C8359015C
:100F0000C12CD12C7601412C82E0582E612C712C01
:100F100049815A816B817C819E012F5F3F4FC801BF
:100F20000E94E706882339F1F8018585A301920123
:100F300004C0220F331F441F551F8A95D2F7DA01D0
:100F4000C901C80ED91EEA1EFB1E49815A816B8158
:100F50007C818789803111F188EF9FEFAFEFBFE08F
:100F6000481759076A077B0798F2F501C082D182BA
:100F7000E282F38281E00F900F900F900F90DF914B
:100F8000CF911F910F91FF90EF90DF90CF90BF9086
:100F9000AF907F906F905F904F90089588EF9FEF94
:100FA000A0E0B0E0DDCFCF93DF93FC0125812223C9
:100FB00021F080E0DF91CF910895EC0180917F05D1
:100FC000803159F582E08583178A108E118E128E3A
:100FD0008091800590918105B0E0A0E025E0880F28
:100FE000991FAA1FBB1F2A95D1F7838B948BA58BC2
:100FF000B68B88E695E09C8F8B8F81E08C831E8278
:101000001F82188619861A861B861C861D861E86D8
:101010001F86188A198A1A8ACDCF803251F683E04A
:10102000858340918205509183056091840570917C
:101030008505478B508F618F728F9F012D5E3F4FCB
:1010400088E695E00E9468078111D3CFB2CF8F92D6
:101050009F92AF92BF92CF92DF92EF92FF920F9347
:101060001F93CF93DF93EC018D8181110EC080E03F
:10107000DF91CF911F910F91FF90EF90DF90CF9074
:10108000BF90AF909F908F9008950B891C892D89F8
:101090003E89041715072607370748F34A015B0105
:1010A000823031F48A869B86AC86BD8681E0E0CFB3
:1010B00081149104A104B10449F41E821F82188690
:1010C00019861A861B861C861D86F0CF0A851B850D
:1010D0002C853D85EB8DFC8D858590E00996B901C9
:1010E000A8014150510961097109082E04C0769583
:1010F0006795579547950A94D2F775016401E1E029
:10110000CE1AD108E108F10804C0F694E794D79408
:10111000C7948A95D2F7C416D506E606F70620F0DE
:10112000012B022B032B11F58F89988DA98DBA8D78
:101130008E839F83A887B9878E010A5F1F4FC114D2
:10114000D104E104F10409F4ADCF4E815F816885DB
:10115000798598018B8D9C8D0E94E70691E0C91AD4
:10116000D108E108F1088111EACF81CFC41AD50A6C
:10117000E60AF70AE1CF3F924F925F926F927F9219
:101180008F929F92AF92BF92CF92DF92EF92FF9297
:101190000F931F93CF93DF93CDB7DEB72C970FB686
:1011A000F894DEBF0FBECDBF5C01DC015B968D9075
:1011B0009C905C9716964D905D906D907C901997E1
:1011C000411451046104710409F468C0BFEF4B1A63
:1011D0005B0A6B0A7B0A312CF40181859285A38519
:1011E000B4859C01AD012F5F3F4F4F4F5F4F298763
:1011F0003A874B875C87730162011D821E821F82C2
:101200001886F40181859285A385B4852D813E8160
:101210004F815885281739074A075B0708F056C0E1
:1012200089859A85AB85BC858C159D05AE05BF0566
:1012300050F482E0C82ED12CE12CF12C92E0492E02
:10124000512C612C712C9E012F5F3F4FB701A601DD
:10125000C4010E94E7068823C9F189819A81AB8184
:10126000BC81892B8A2B8B2B09F1260137019FEF3B
:10127000491A590A690A790A2D813E814F81588598
:101280002F5F3F4F4F4F5F4F2D833E834F835887D4
:101290003FEFC31AD30AE30AF30AB3CFF401408045
:1012A0005180628073803324339496CFC414D50464
:1012B000E604F70409F70FEF1FEF2FEF3FE0B70148
:1012C000A601C4010E944506811119C080E02C9638
:1012D0000FB6F894DEBF0FBECDBFDF91CF911F9147
:1012E0000F91FF90EF90DF90CF90BF90AF909F90C5
:1012F0008F907F906F905F904F903F900895D501B1
:1013000016964D915D916D917C91199741155105FE
:101310006105710539F097018601C4010E944506F7
:101320008823A1F2D5011696CD92DD92ED92FC9222
:101330001997332051F0D701C6010196A11DB11DA7
:10134000F40180839183A283B383F5018789908D13
:10135000A18DB28D892B8A2B8B2B39F48481C78A7E
:10136000D08EE18EF28E80688483F5018481806264
:10137000848381E0ACCF1F93CF93DF93FC01258161
:101380002223D1F1162FEC01848187FF2AC06685C4
:1013900077858089918941E00E94D204882361F198
:1013A000EA8980E2E89FF0011124E354FD4F309771
:1013B00019F18D81823040F48B899C89AD89BE8979
:1013C000848F958FA68FB78F8F89988D938F828FFB
:1013D0008F89988DA98DBA8DB58BA48B8C818F77D1
:1013E0008C83111103C08C818F7E8C83812FDF91C0
:1013F000CF911F910C94A70480E0DF91CF911F91B2
:101400000895FF920F931F93CF93DF93EC018D818B
:10141000813041F090E080E0DF91CF911F910F91FA
:10142000FF9008958C8181FFF5CF82FD1BC0009154
:10143000BA021091BB02C8010E9400030E94DF02A1
:10144000F82EC8010E94CD028FEFF812E3CF8C81F5
:1014500085FF1BC060E0CE010E94BB098C818F7D9F
:101460008C83D8CF4B895C896D897E898A859B85E1
:10147000AC85BD8584179507A607B707C1F2CE01D5
:101480000E9427088111D3CFC5CF4091AC02509163
:10149000AD026091AE027091AF02452B462B472BF7
:1014A00021F080E00E948304B5CF80618C832A857F
:1014B0003B85317080E092E0821B930BADCFCF93E0
:1014C000DF93EC0161E00E94BB09882311F01D82CB
:1014D00081E0DF91CF910895CF92DF92EF92FF925A
:1014E0001F93CF93DF9380918B05882321F086E8AB
:1014F00095E00E945F0A10926705109265051092B0
:101500006205109261058AE0809360050E94AD013A
:10151000EB0161E0809160050E94250161E080910E
:1015200060050E94F7001FB7F8948091B9028111FD
:1015300027C0E8EBF0E08491E4EAF0E09491E82F32
:10154000F0E0EE0FFF1FE057FF4FA591B491EC9133
:10155000E92321F461E08AE00E94F70061E08AE07B
:101560000E9425018CB580618CBD8CB580648CBDDA
:1015700061E08DE00E94250161E08BE00E94250181
:101580008091B9028F5F8093B9021FBF82E580937B
:101590005A0510925B0580915A0590915B050E9457
:1015A000FD021AE08FEF0E94D8021150D9F78CE5A6
:1015B00095E00E94000320E030E0A90160E08CE5A6
:1015C00095E00E941603182F80936605813081F004
:1015D0000E94AD016C1B7D0B613D774060F381E0A3
:1015E000809361058CE595E00E94CD0290E078C083
:1015F0002AEA31E040E050E068E08CE595E00E94A6
:10160000160382FF2AC01093670580916705C12CDD
:10161000D12C7601823029F4C12CD12CE12C80E42C
:10162000F82E20E030E0A90167E38CE595E00E9408
:101630001603A701960169E28CE595E00E94160366
:10164000809366058823C1F00E94AD016C1B7D0B61
:10165000613D774030F388E0C3CF14E00E94DF02A1
:10166000809366051150D1F78A3A11F082E0B8CF25
:1016700082E080936705C9CF809167058230D1F4FD
:1016800020E030E0A9016AE38CE595E00E941603B2
:10169000882311F086E0A4CF0E94DF02807C803C8A
:1016A00019F483E0809367050E94DF020E94DF0245
:1016B0000E94DF028CE595E00E94CD0280E58093D8
:1016C0005A0510925B0581E00E941C05882389F071
:1016D00086E895E00E94D30791E0882309F486CF3D
:1016E000892FDF91CF911F91FF90EF90DF90CF90E6
:1016F000089580E00E941C05882309F477CFE8CF85
:101700002F923F924F925F926F927F928F929F9211
:10171000AF92BF92CF92DF92EF92FF920F931F93FF
:10172000CF93DF9300D000D01F92CDB7DEB77C01FE
:101730005B01342E5D83DC0115968C911597813009
:1017400009F0CEC014962C9021FECAC022FCB4C071
:10175000C32CDD8022947FE027222094B22DB1702B
:101760002B2ED7011A964D915D916D917C911D970D
:10177000C114D10409F428C15B968D919C915C97AA
:10178000FC0174807A948A019B0169E03695279563
:10179000179507956A95D1F770228A01117071101B
:1017A00020C001151105E9F416964D915D916D91DA
:1017B0007C911997411551056105710509F099C092
:1017C00057968D919D910D90BC91A02D0097A105EC
:1017D000B10509F0B0C0C7010E94BB08882309F415
:1017E0007FC080E092E0801B910B46018C159D0527
:1017F00008F44C01D7015B964D915C915C9716966D
:101800008D919D910D90BC91A02D0297A109B109D8
:10181000FA01258504C0880F991FAA1FBB1F2A95AE
:10182000D2F74685578560897189840F951FA61F59
:10183000B71F9C01AD01270D311D411D511D29010F
:101840003A01811432E0930609F07BC080910001D7
:1018500090910101A0910201B091030184159505B9
:10186000A605B70559F48FEF9FEFDC0180930001C7
:1018700090930101A0930201B0930301022D950101
:10188000B301A2018091BA029091BB020E9415049B
:10189000882331F19EEFB91AC818D908F70182855B
:1018A0009385A485B585880D991DA11DB11D8287DD
:1018B0009387A487B58755CFF701438954896589F4
:1018C000768982859385A485B585481759076A0767
:1018D0007B0709F43DCFC7010E942708811138CF4B
:1018E00081E090E0D70113969C938E93129780E04D
:1018F00007C09E012F5F3F4F0E94E706811102C083
:1019000090E079C089819A81AB81BC81F701238DF8
:10191000348DF901278948EF5FEF60E070E02031F6
:1019200021F048EF5FEF6FEF7FE084179507A60780
:10193000B70708F050CFF70186839783A087B18758
:1019400050CF0115110599F5D7011A964D915D916A
:101950006D917C911D9753968D919D910D90BC91A9
:10196000A02D481759076A077B0708F181E00E94FC
:10197000A704882309F4B4CF4092000150920101DA
:1019800060920201709203018091BC028160809399
:10199000BC02C80183549D4FD5019C01280D391DFF
:1019A000FC012E173F0759F04D914193FACF41E0CA
:1019B000C301B2010E94D2048111EBCF91CF281B49
:1019C000390BA20EB31E68CFF70183899489A589CC
:1019D000B68984179507A607B70738F48481438B27
:1019E000548B658B768B80688483F701848183FDBB
:1019F0001AC0832D9D810F900F900F900F900F9024
:101A0000DF91CF911F910F91FF90EF90DF90CF90DA
:101A1000BF90AF909F908F907F906F905F904F900E
:101A20003F902F90089561E0C7010E94BB09882371
:101A300009F456CFDECFCF93DF931F92CDB7DEB739
:101A4000698341E050E0BE016F5F7F4F0E94800BD1
:101A50000F90DF91CF910895FC01DB0112968D91DB
:101A60009C911397938382838AE491E0918380838E
:101A700014968C911497848315968C911597858371
:101A800016964D915D916D917C9119974683578380
:101A9000608771871A964D915D916D917C911D972C
:101AA00042875387648775871E964D915D916D912E
:101AB0007C91519746875787608B718B52968C919A
:101AC0005297828B53964D915D916D917C91569773
:101AD000438B548B658B768B57964D915D916D91B1
:101AE0007C915A97478B508F618F728F5B968D9147
:101AF0009C91948F838F0895FC01818D928D009726
:101B000019F061E00C94BB090895DC015996ED9140
:101B1000FC913097B9F083899489A589B68942856B
:101B2000538564857585841B950BA60BB70B8115B2
:101B300020E89207A105B10538F08FEF9FE7A0E0FC
:101B4000B0E0089590E080E00895DC0159968D9111
:101B50009C91009739F0DC01ED91FC910480F581B6
:101B6000E02D099490E080E00895CF93DF93EC019D
:101B7000E98DFA8D309749F481E090E09B838A8368
:101B800090E080E0DF91CF91089513821282898DD9
:101B90009A8D0E94800BE98DFA8D22813381232B4F
:101BA00059F7F0CFCF93DF931F92CDB7DEB769839C
:101BB000DC01ED91FC910280F381E02D41E050E0E9
:101BC000BE016F5F7F4F09950F90DF91CF91089510
:101BD0002F923F924F925F926F927F928F929F923D
:101BE000AF92BF92CF92DF92EF92FF920F931F932B
:101BF000CF93DF9300D01F92CDB7DEB7FC01858174
:101C0000811118C08FEF9FEF0F900F900F90DF9111
:101C1000CF911F910F91FF90EF90DF90CF90BF90E9
:101C2000AF909F908F907F906F905F904F903F907C
:101C30002F900895848180FFE5CF43895489658979
:101C4000768982859385A485B585312C212C48170A
:101C500059076A077B0719F022242394312C6F015E
:101C60002101CE0101963C01DF011696BB83AA83B8
:101C70004114510409F4C5C0F601428553856485B9
:101C800075854A01F1E09F22D6015B968D919C916A
:101C90005C978A019B01E9E0369527951795079592
:101CA000EA95D1F71596EC91E230E9F5FC01628DE9
:101CB000738D848D958D600F711F821F931FA12CD2
:101CC00022E0B22EA818B9084A145B0408F45201A5
:101CD000F601248126FD04C0A114F2E0BF0671F4D0
:101CE0000091000110910101209102013091030146
:101CF000061717072807390709F05EC040E00E9461
:101D0000D204882309F47ECFC40183549D4FD301AC
:101D10009C012A0D3B1DFC012E173F0709F46CC0E6
:101D200041914D93F9CFDC011496BC90BA94B02246
:101D30008114910479F4B1100DC0452B462B472B2B
:101D400069F5F6018789908DA18DB28D8683978381
:101D5000A087B187D6015B96ED91FC915C971696B2
:101D60006D917D918D919C911997625071098109B6
:101D70009109258504C0660F771F881F991F2A9532
:101D8000D2F70685178520893189600F711F821F60
:101D9000931F6B0D711D811D911D91CFD60116965C
:101DA0004D915D916D917C9119972A813B810E94A3
:101DB000E7068111CFCF26CF730185019401AB01D6
:101DC000BC018091BA029091BB020E9473038823E8
:101DD00009F418CF6A0C7B1CF60182859385A485D3
:101DE000B5858A0D9B1DA11DB11D82879387A48790
:101DF000B5874A185B083CCF281B390B620E731E4F
:101E0000EBCF2A94232809F0FDCE898190E0FCCE07
:101E1000FC01818D928D009711F00C94E80D8FEFED
:101E20009FEF08950F931F93CF93DF93EC010E94D0
:101E3000AD01688779878A879B87CE010E94080F4A
:101E400097FF15C00E94AD01088519852A853B853D
:101E5000601B710B820B930B0C811D812E813F81C6
:101E6000601771078207930740F38FEF9FEFDF91B1
:101E7000CF911F910F9108950F931F93CF93DF93ED
:101E8000EC01898D9A8D10E000E0009799F00E9496
:101E9000E80D8C010F3F100769F0898D9A8DFC01C8
:101EA00042855385648575854150510961097109E1
:101EB0000E942708C801DF91CF911F910F910895CB
:101EC00020915E02260F3327331F21323105ECF4B7
:101ED00020918402FC0190E080E0243069F082E0EF
:101EE0000895A0915E022191AC01445C5D4FA40F66
:101EF000B52FB11D2C930196861798F380915E0241
:101F0000680F60935E0280E0089581E0089510926A
:101F1000840281E0809386021092850261E082E172
:101F20000E94F70061E083E10E94F700E9EBF0E036
:101F300080818E7F808380818D7F808388E4809301
:101F4000B80085E48093BC000895CF93DF9391E0BF
:101F500090933B028823B9F0C091B800D091BA00A9
:101F60008091BC008A7B8093BC0060E082E10E948B
:101F7000F70060E083E10E94F7000E94870FD09392
:101F8000BA00C093B800DF91CF91089508950895E5
:101F90000895E091330280913202E81730F4F0E0C6
:101FA000EE5EFD4F808190E008958FEF9FEF0895E2
:101FB00090913302809132022FEF3FEF981748F44F
:101FC000E92FF0E0EE5EFD4F208130E09F5F9093BF
:101FD0003302C90108958091320290913302891B26
:101FE000990B0895CF92DF92EF92FF920F931F9378
:101FF000CF93DF937C01CB018A0120911102222330
:1020000089F0EB016B01C40ED51ECC15DD0569F01E
:102010006991D701ED91FC910190F081E02DC7010C
:102020000995F3CF642F0E94600FC801DF91CF9113
:102030001F910F91FF90EF90DF90CF900895CF9375
:10204000DF931F92CDB7DEB769832091110222235F
:10205000F9F020913402203258F021E030E0FC0108
:102060003383228390E080E00F90DF91CF91089539
:1020700080913502E82FF0E0EF50FE4F9981908378
:102080008F5F809335028093340281E090E0ECCF43
:1020900061E0CE0101960E94600FF7CFCF92DF92F0
:1020A000EF92FF920F931F93CF93DF93FC01C481B4
:1020B00021E020931102C093F0011092350210929A
:1020C00034028385682B85EA95E00E941F10D09129
:1020D0003402D13208F092C00E9456016B017C019B
:1020E00080918402811165C082E08093840281E046
:1020F000809386028FEF809383021092A802D09380
:10210000A702A1EFB1E0E7E8F2E080E0D81385C0D4
:102110001092A9028091A902CC0FC82BC093A902EA
:1021200080918502813009F07CC0109285020E9466
:1021300056016B017C018091A9028093BB008091C4
:10214000370290913802A0913902B0913A02892B5E
:102150008A2B8B2B99F00E94560100913702109127
:1021600038022091390230913A026C197D098E09AA
:102170009F090617170728073907E0F18091BC006F
:1021800083FDD9CF85EC8093BC000E9456016B0182
:102190007C0180918402823009F445C080918302E1
:1021A0008F3F61F180918302803241F180918302FF
:1021B00025C08091370290913802A0913902B091E8
:1021C0003A02892B8A2B8B2B09F48ACF0E94560165
:1021D00000913702109138022091390230913A0271
:1021E0006C197D098E099F090617170728073907FB
:1021F00008F076CF809136020E94A50F109235022A
:102200001092340210921102DF91CF911F910F9121
:10221000FF90EF90DF90CF9008959D9191938F5F05
:1022200075CF85EEB0CF8091370290913802A091A2
:102230003902B0913A02892B8A2B8B2B09F4A9CF52
:102240000E94560100913702109138022091390204
:1022500030913A026C197D098E099F0906171707FC
:102260002807390708F095CFC5CF90E080E00895A2
:10227000CF93DF9387E00E94CE00D0E0C0E0892BAF
:1022800011F4C8E0D0E086E00E94CE00892BE1F096
:1022900090E080E0C82BD92B85E00E94CE00892BEE
:1022A000B1F090E080E0C82BD92B84E00E94CE00F2
:1022B00021E030E0892B11F030E020E0C9018C2BC7
:1022C0009D2BDF91CF91089584E090E0E3CF82E0F1
:1022D00090E0E9CF0F931F93CF93DF93EC0180E25F
:1022E000689FF0011124E354FD4F6A8B8091000137
:1022F00090910101A0910201B09103018E879F8707
:10230000A88BB98B0489158930E020E0980111274A
:1023100000270F8B188F298F3A8F828D938DB0E015
:10232000A0E0AC01BD01402B512B622B732B4F8BD6
:10233000588F698F7A8F83858871A9F4848D958DE4
:10234000A68DB78D8B8B9C8BAD8BBE8B81E08D83E7
:1023500081E08C831E821F82188619861A861B864E
:102360001C861D8603C0803131F080E0DF91CF9163
:102370001F910F9108959E012D5E3F4F8B8D9C8D77
:102380000E946807882389F384E0E1CF0F931F93AD
:10239000CF938C01C62F0E944E106C2F6460C80131
:1023A0000E944E106C2F6B7FC8010E944E1083EC70
:1023B00090E00197F1F7CF911F910F9108950F933E
:1023C0001F93CF93DF938C01D62FC42F607F642B94
:1023D0000E94C61180E1D89FB00111246C2BC80166
:1023E000DF91CF911F910F910C94C611CF93DF9382
:1023F000CDB7DEB728970FB6F894DEBF0FBECDBFBE
:1024000028E0EEE0F1E0DE01119601900D922A95B0
:10241000E1F7FC012085241708F44FEF50E0440F4A
:10242000551F21E030E02C0F3D1F420F531FFA01D2
:102430002081620F606840E028960FB6F894DEBFF6
:102440000FBECDBFDF91CF910C94DF1140E061E072
:102450000E94DF118BE39FE10197F1F7089541E0BE
:102460000E94DF1181E090E00895AF92BF92CF9279
:10247000DF92EF92FF920F931F93CF93DF93CDB72D
:10248000DEB72B970FB6F894DEBF0FBECDBF6C0141
:10249000FE013196CE010C967F0120E22193E817D0
:1024A000F907E1F7DA0120E037E09D91B92E992391
:1024B000A9F19E32B9F43A3091F480E02B960FB630
:1024C000F894DEBF0FBECDBFDF91CF911F910F916A
:1024D000FF90EF90DF90CF90BF90AF90089528E0ED
:1024E0003AE0E3CFE2ECF0E08491882321F03196EA
:1024F0009813FACFE2CF321700F38FED890F8E35A4
:10250000E0F68FE9890F8A3118F440EEB42EB90E47
:10251000F701E20FF11DB0822F5FC7CF89818032B2
:1025200061F28B01FB01838D948DF601948F838F73
:10253000FB01168217821086118612861386148676
:102540001586F80182859385A485B58543895489CC
:102550006589768984179507A607B70708F0ADCF78
:1025600025E0B695A795979587952A95D1F7F82FE9
:10257000FF70AF2EF8018581823008F49ECFC8012C
:102580000E94E80D97FD99CFF80182859385A48577
:10259000B5854F96A11DB11D82879387A487B58706
:1025A000F0E2AF9EB001112463547D4F61157105B7
:1025B00009F483CFFB018081882309F1853E19F45A
:1025C000B11032C01EC04BE050E0C7010E94A21EF5
:1025D000892B09F0B6CF6A2DC6012B960FB6F89459
:1025E000DEBF0FBECDBFDF91CF911F910F91FF9046
:1025F000EF90DF90CF90BF90AF900C946A11B11024
:102600005CCFF601A28A8091000190910101A09116
:102610000201B091030186879787A08BB18BFB01E4
:102620008081882309F449CFBB24B3948ACFFC016D
:1026300080819181009711F00C945C1D08950F9397
:102640001F93CF93DF93EC0188819981009759F014
:102650002A813B812617370730F081E0DF91CF9147
:102660001F910F9108958B016F5F7F4F0E94E51DB1
:10267000009759F0998388831B830A832C813D81BD
:10268000232B59F7FC011082E8CF80E0E7CFEF92CF
:10269000FF920F931F93CF93DF93EC017B018A018D
:1026A000BA010E941F1328813981811114C021159C
:1026B000310519F0C9010E945C1D198218821D8222
:1026C0001C821B821A82CE01DF91CF911F910F9144
:1026D000FF90EF9008951D830C83B701C9010E94FC
:1026E000B81EF1CFFB0101900020E9F73197AF014F
:1026F000461B570BDC01ED91FC910280F381E02D2C
:1027000009944F925F926F927F92AF92BF92CF9255
:10271000DF92EF92FF920F931F93CF93DF93CDB78A
:10272000DEB7A1970FB6F894DEBF0FBECDBF5C0138
:102730006A017B01F7FE47C0DC01ED91FC9101903D
:10274000F081E02D6DE209958C0122273327A90144
:102750002C193D094E095F0919A2FE01B1967F01AE
:102760009AE0492E512C612C712CCA01B901A301A8
:1027700092010E94891C605DD7016E937D01211535
:1027800031054105510589F790E080E0109721F06F
:10279000BD01C5010E947213800F911FA1960FB653
:1027A000F894DEBF0FBECDBFDF91CF911F910F9187
:1027B000FF90EF90DF90CF90BF90AF907F906F90A1
:1027C0005F904F900895AB01960119A28E010F5DA5
:1027D0001F4F8AE0C82ED12CE12CF12CCA01B9017F
:1027E000A70196010E94891C605DF80162938F0128
:1027F000211531054105510589F790E080E03097BA
:1028000069F2BF01C5010E947213C8CFCF93DF9355
:10281000FC0144815581608171818DEB94E00E94BF
:10282000BA01EC0164E671E08DEB94E00E94721352
:102830008C0F9D1FDF91CF9108950C9472136F92AE
:102840007F928F929F92AF92BF92DF92EF92FF9210
:102850000F931F93CF93DF9300D000D000D0CDB75C
:10286000DEB78C014B013A015901D12CF12CE12C3E
:10287000E614F7040CF05EC00E9438110097E1F3F3
:1028800082FF27C0DD20A1F11A8219821C821B82DF
:102890001E821D82F501608171816115710531F023
:1028A00044815581CE0101960E944713F401EE0D3B
:1028B000FF1D80818823A1F067E671E0C8010E94B6
:1028C0001D14CE0101960E941713FFEFEF1AFF0AA5
:1028D000D12C6CE271E080E090E00E947B01C8CFD7
:1028E0004D815E8169817A81C8010E94BA01E9CF78
:1028F000C8010E94261240E060E0C8010E94F61163
:102900006DE671E0C8010E941D1440E06BE0C80153
:102910000E94F611A7010F2C000C660B770BC80163
:102920000E94811341E060E0C8010E94F611DD249D
:10293000D394CFCF6CE271E080E090E00E947B0105
:1029400026960FB6F894DEBF0FBECDBFDF91CF91B4
:102950001F910F91FF90EF90DF90BF90AF909F90ED
:102960008F907F906F900895EF92FF920F931F9337
:10297000CF93DF93EC017B018A011B821A8288EEE0
:1029800093E0A0E0B0E08C839D83AE83BF8386E2BA
:1029900091E0998388838DE190E00E94C01C9A8F1A
:1029A000898F009779F02DE1F701DC0101900D92FC
:1029B0002A95E1F74CE050E0B801CE010C960E9458
:1029C000BF1E188EDF91CF911F910F91FF90EF9056
:1029D000089585ED8093BC00809137029091380274
:1029E000A0913902B0913A020796A11DB11D23E0D2
:1029F000B695A795979587952A95D1F72091BC0014
:102A000024FD03C010928402089540913702509132
:102A100038026091390270913A02452B462B472BC0
:102A200069F30097A105B10541F02AE22A95F1F773
:102A300000C00197A109B109E1CF809136020C9441
:102A4000A50F3F924F925F926F927F928F929F92CB
:102A5000AF92BF92CF92DF92EF92FF920F931F93AC
:102A6000CF93DF93CDB7DEB7C458D1090FB6F89432
:102A7000DEBF0FBECDBFE091CD04F091CE0412E0D9
:102A80001083E091C904F091CA041082E091CB0454
:102A9000F091CC0400E100831092D504E091D104C0
:102AA000F091D20486E08083E091CF04F091D004CD
:102AB000808180618083E091CF04F091D004808197
:102AC00088608083E091CF04F091D0048081806899
:102AD0008083E091CF04F091D00480818F7D80834A
:102AE00061E08AE00E94250160E087E00E94250104
:102AF00060E086E00E94250160E085E00E942501FB
:102B000060E084E00E942501E7961FAE1EAEE797C5
:102B10008AE191E0E5969FAF8EAFE59787E2E89670
:102B20008FAFE897ED960FAFED97EE961FAFEE974C
:102B3000EF961FAEEF97109233021092320210926E
:102B40003502109234020E94870F86EC9FE090932A
:102B50005D0280935C0287EC9FE09093610280931A
:102B60006002E9961FAEE997EE968FADEE97823040
:102B700020F098E0E9969FAFE997EC968FAFEC973D
:102B800062E370E080E090E00E947B01EF966FAD21
:102B9000EF97CE018D589F4F0E944E1068EE73E064
:102BA00080E090E00E947B0160E3CE018D589F4F52
:102BB0000E94C6110BE416E4C8010197F1F760E327
:102BC000CE018D589F4F0E94C611C8010197F1F7A1
:102BD00060E3CE018D589F4F0E94C61183E592E0BD
:102BE0000197F1F760E2CE018D589F4F0E94C61108
:102BF000E9966FADE997606240E0CE018D589F4F36
:102C00000E94DF1184E0EA968FAFEA9740E06CE023
:102C1000CE018D589F4F0E94DF11CE018D589F4FDE
:102C20000E94261282E0EB968FAFEB9740E066E0C1
:102C3000CE018D589F4F0E94DF1140E062E0CE012F
:102C40008D589F4F0E94DF118BE39FE10197F1F7B1
:102C500088E0EF968FAFEF9760E0CE018D589F4FE1
:102C60000E944E1040E060E0CE018D589F4F0E94C0
:102C7000F61167E771E0CE018D589F4F0E941D1439
:102C800041E060E0CE018D589F4F0E94F61161E84F
:102C900071E0CE018D589F4F0E941D140E94381183
:102CA000892BE1F3CE018D589F4F0E94261268ECCC
:102CB00070E080E090E00E947B0140E060E0CE01A7
:102CC0008D589F4F0E94F61161E971E0CE018D5839
:102CD0009F4F0E941D1402E010E040E06EE0CE0124
:102CE0008D589F4F0E94F611A801012E000C660B13
:102CF000770BCE018D589F4F0E9481130E9438118F
:102D00000097E1F381FF09C00F5F1F4F6CE271E094
:102D100080E090E00E947B01E0CF80FF06C002309F
:102D2000110519F001501109F1CF82FFEFCF6CE2CC
:102D300071E080E090E00E947B01CE018D589F4FB2
:102D40000E94261240E060E0CE018D589F4F0E9405
:102D5000F6116CE971E0CE018D589F4F0E941D1451
:102D6000EE24E394F12C40E06EE0CE018D589F4FAD
:102D70000E94F61147010F2C000CAA08BB08B501F0
:102D8000A401CE018D589F4F0E9481130E943811DB
:102D90000097E1F381FF0DC0E016F10654F42FEF28
:102DA000E21AF20A6CE271E080E090E00E947B019E
:102DB000DACF80FF08C0E1E0EE16F10421F0F1E087
:102DC000EF1AF108EFCF82FFEDCF6CE271E080E007
:102DD00090E00E947B0164EA71E08DEB94E00E9438
:102DE0001D14B501A4018DEB94E00E94811364E6EB
:102DF00071E08DEB94E00E947213C8010E94C01C28
:102E00006C015C01C8018C0D9D1DF6011192E81743
:102E1000F907E1F70E949400BC01990F880B990B08
:102E2000611571058105910511F00E94171C912C07
:102E3000812C28012FEF421A520A052C000C66083B
:102E40007708332433940E94C81BA30192010E9487
:102E5000201CF601E60FF71F8081811101C030822E
:102E60008FEF881A980A8E149F0469F7412C512C11
:102E70003201B301A2018DEB94E00E94811364E75B
:102E800071E08DEB94E00E941D14F50181915F01CA
:102E900065EB71E0811102C061EB71E08DEB94E0B4
:102EA0000E941D14FFEF4F1A5F0A6F0A7F0A401637
:102EB0005106FCF264E671E08DEB94E00E9472131F
:102EC0000E946C0AC158DF4F19821882CF57D04038
:102ED000CF57DF4F19821882C158D040CD57DF4FEE
:102EE00019821882C358D04050E040E066E671E095
:102EF000CE0181589F4F0E9447130E946C0A811196
:102F000007C069EB71E08DEB94E00E941D14FFCFC8
:102F10001C821B828AE4E82E81E0F82EFA82E98284
:102F20001E82CE0101960E94D307BE016F5F7F4FC4
:102F3000CE01CB960E942C0D19A218A2FF8EEE8E08
:102F40001BA221968FAD2197811188C06C961FAE70
:102F50001EAE6C9788EE93E0A0E0B0E0A0968CAF38
:102F60009DAFAEAFBFAFA09786E291E06A969FAFEC
:102F70008EAF6A97E3961FAE1EAEE397A5961FAE7F
:102F8000A597E396EEADFFADE397309709F442C104
:102F90008581882309F43EC10E949400BC01990FE9
:102FA000880B990B611571058105910511F00E943F
:102FB000171C0E94C81B21E339E040E050E00E944A
:102FC000201C6F5F7F4F8F4F9F4F7B011F8E1E8E88
:102FD00019A218A21BA21AA250E040E066E671E016
:102FE000CE014E960E944713B12CA12CAE14BF0403
:102FF0000CF089C01A8219821C821B821E821D82DB
:1030000050E040E066E671E0CE0101960E94471371
:10301000CE01885A9F4F0E94120F97FD41C08A30FF
:103020009105F1F18BAF1CAE8D809E802FEF821A3F
:10303000920AB401CE0101960E941F13882341F326
:1030400029813A818D819E81BE01655C7F4F820F0F
:10305000931F0E94B81E9E828D82DACF41ED51E00F
:10306000BE01655C7F4FCE014E960E9435128823CB
:1030700009F46CCFCE01CB960E945F0ABE01625E5E
:103080007F4FCE0101960E942C0D41ED51E0BE0113
:103090006F5F7F4FCE01885A9F4F0E94B41471CF4B
:1030A0008E8D9F8D0097F1F069817A816115710590
:1030B000B9F048A159A12D813E814217530780F0F4
:1030C0000E94B81E8D819E819BA38AA31E821D82B1
:1030D000CE0101960E9417138FEFA81AB80A86CF67
:1030E0000E945C1D89819A819F8F8E8F8B819C812C
:1030F00099A388A38D819E819BA38AA31A8219829A
:103100001C821B82E3CFE3968EAD9FADE3970097C1
:1031100061F00E945F0AE3968EAD9FADE3970E9437
:103120005C1DE3961FAE1EAEE397CE014E960E9445
:103130000614E3968EAD9FADE397009761F00E9471
:103140005F0AE3968EAD9FADE3970E945C1DE39608
:103150001FAE1EAEE3978E8D9F8D9CAF8BAF88A167
:1031600099A19EAF8DAF8AA19BA121969FAF8EAFF3
:1031700021971F8E1E8E19A218A21BA21AA2CE0181
:103180004E960E941713CE0181589F4F0E9417132D
:10319000CE01CB960E9406141A8219821C821B82D1
:1031A0001E821D826BAD7CAD6115710541F02196CB
:1031B0004EAD5FAD2197CE0101960E9447139E014F
:1031C0002F5F3F4FA801B601CE018D589F4F0E943F
:1031D0001F14CE0101960E941713CE01CB960E94B8
:1031E0001713CC57DF4F0FB6F894DEBF0FBECDBF1D
:1031F000DF91CF911F910F91FF90EF90DF90CF90D3
:10320000BF90AF909F908F907F906F905F904F9006
:103210003F9008956BED71E08DEB94E00E94721386
:1032200064E671E08DEB94E00E947213ACCF1F92C4
:103230000F920FB60F9211242F933F938F939F936A
:10324000AF93BF938091B1029091B202A091B3026B
:10325000B091B4023091B00223E0230F2D3758F51E
:103260000196A11DB11D2093B0028093B1029093ED
:10327000B202A093B302B093B4028091B5029091D0
:10328000B602A091B702B091B8020196A11DB11D7E
:103290008093B5029093B602A093B702B093B802A0
:1032A000BF91AF919F918F913F912F910F900FBE42
:1032B0000F901F90189526E8230F0296A11DB11DAF
:1032C000D2CF1F920F920FB60F9211242F933F93DC
:1032D0004F935F936F937F938F939F93AF93BF931E
:1032E000EF93FF938DEB94E00E943802FF91EF91F2
:1032F000BF91AF919F918F917F916F915F914F910E
:103300003F912F910F900FBE0F901F9018951F9215
:103310000F920FB60F9211242F938F939F93EF93D9
:10332000FF93E091CD04F091CE048081E091D3042D
:10333000F091D40482FD1BC090818091D6048F5FF0
:103340008F732091D704821741F0E091D604F0E00A
:10335000E354FB4F958F8093D604FF91EF919F919B
:103360008F912F910F900FBE0F901F901895808115
:10337000F4CF1F920F920FB60F9211242F933F9309
:103380004F935F936F937F938F939F93AF93BF936D
:10339000EF93FF938091B900887F803609F44AC08B
:1033A000F0F5883209F4A7C018F5803109F49BC004
:1033B000B8F4882309F4F9C0883009F494C0FF9167
:1033C000EF91BF91AF919F918F917F916F915F919D
:1033D0004F913F912F910F900FBE0F901F90189516
:1033E000883109F488C0803251F78093830214C079
:1033F000803409F49DC040F48033B9F38833F9F682
:103400008093830285ECB0C0803509F485C088358F
:1034100009F496C0883499F60E94E914D0CF88390F
:1034200009F48CC038F5883729F050F4883611F04B
:10343000803729F683E0809384021092820257C07D
:10344000883809F47BC0803919F0803809F0B7CF8B
:1034500080918202803208F071C0E091820281E0A6
:103460008E0F809382028091BB00F0E0EE59FD4FF9
:1034700080833DC0803B39F0E0F4803A09F479C0A4
:10348000883A09F09CCF84E08093840210925F0216
:1034900010925E02E0915C02F0915D0209958091CC
:1034A0005E0281110FC081E080935E0210923C02A7
:1034B00009C0803C09F4A6CF883C09F4A3CF883B1F
:1034C00009F07DCFE0915F0281E08E0F80935F0273
:1034D000F0E0E45CFD4F80818093BB0090915F023F
:1034E00080915E0229C08091A9028093BB0085EC87
:1034F0008093BC0064CF9091A8028091A702981796
:1035000058F5E091A80281E08E0F8093A802F0E0C8
:10351000E957FD4F8081E9CFE091A80281E08E0F4D
:103520008093A8028091BB00F0E0E957FD4F8083B3
:103530009091A8028091A7029817C8F285E8D8CF89
:10354000E091A80281E08E0F8093A8028091BB00D9
:10355000F0E0E957FD4F80838091860281115CCFB6
:1035600081E08093850284EA8093BC0010928402FB
:1035700026CF85EC8093BC00109284028091820259
:10358000803230F4E0918202F0E0EE59FD4F10827B
:103590006091820270E0E0916002F091610282E647
:1035A00092E00995109282020ACF1092830234CFE2
:1035B000EDEBF4E01382128288EE93E0A0E0B0E03D
:1035C00084839583A683B78328E331E03183208306
:1035D00025EC30E03587248724EC30E037872687D8
:1035E00020EC30E0318B208B21EC30E0338B228BD0
:1035F00022EC30E0358B248B26EC30E0378B268BA9
:10360000118E128E138E148EEAE5F5E020E52083EC
:103610001182ECE5F5E0158216821186138642E0F0
:1036200050E060E070E0448755876687778713A293
:1036300015A614A62AE431E033A722A717A6E5EAC7
:10364000F5E01382128284839583A683B78386E58F
:1036500091E0918380830895789484B5826084BDDD
:1036600084B5816084BD85B5826085BD85B5816086
:1036700085BD80916E00816080936E001092810004
:1036800080918100826080938100809181008160BF
:103690008093810080918000816080938000809180
:1036A000B10084608093B1008091B000816080930C
:1036B000B00080917A00846080937A0080917A00D3
:1036C000826080937A0080917A00816080937A0092
:1036D00080917A00806880937A001092C1000E94E5
:1036E0002115C0E0D0E02097F1F30E942402882346
:1036F000D1F30E940000F7CF8F929F92AF92BF92BA
:10370000CF92DF92EF92FF92CF93DF93EC0168812B
:1037100079818A819B81611571058105910521F46B
:1037200064E279ED8BE597E02DE133EF41E050E085
:103730000E94201C49015A019B01AC01A7EAB1E497
:103740000E943F1C6B017C01ACEEB4EFA50194011B
:103750000E944D1CC60ED71EE81EF91EF7FE06C0BD
:1037600081E0C81AD108E10880E8F80AC882D98245
:10377000EA82FB82C701B6019F77DF91CF91FF906C
:10378000EF90DF90CF90BF90AF909F908F90089573
:103790008F929F92AF92BF92CF92DF92EF92FF9261
:1037A00060910401709105018091060190910701DB
:1037B000611571058105910521F464E279ED8BE5D0
:1037C00097E02DE133EF41E050E00E94201C4901D9
:1037D0005A019B01AC01A7EAB1E40E943F1C6B01B6
:1037E0007C01ACEEB4EFA50194010E944D1CC60E05
:1037F000D71EE81EF91EF7FE06C081E0C81AD108E0
:10380000E10880E8F80AC0920401D0920501E09234
:103810000601F0920701C701B6019F77FF90EF9074
:10382000DF90CF90BF90AF909F908F90089560935E
:103830000401709305018093060190930701089598
:10384000052E97FB1EF400940E94371C57FD07D0ED
:103850000E94891C07FC03D04EF40C94371C509531
:103860004095309521953F4F4F4F5F4F089590956C
:103870008095709561957F4F8F4F9F4F08950E945F
:10388000AB1CA59F900DB49F900DA49F800D911D22
:1038900011240895B7FF0C943F1C0E943F1C821B0B
:1038A000930B08952F923F924F925F926F927F9267
:1038B0008F929F92AF92BF92CF92DF92EF92FF9240
:1038C0000F931F93CF93DF93CDB7DEB7CA1BDB0BEC
:1038D0000FB6F894DEBF0FBECDBF09942A88398891
:1038E00048885F846E847D848C849B84AA84B98498
:1038F000C884DF80EE80FD800C811B81AA81B981A4
:10390000CE0FD11D0FB6F894DEBF0FBECDBFED01B7
:103910000895A1E21A2EAA1BBB1BFD010DC0AA1F10
:10392000BB1FEE1FFF1FA217B307E407F50720F028
:10393000A21BB30BE40BF50B661F771F881F991FA3
:103940001A9469F760957095809590959B01AC01EC
:10395000BD01CF010895A29FB001B39FC001A39FF5
:10396000700D811D1124911DB29F700D811D1124B8
:10397000911D0895EE0FFF1F0590F491E02D09941D
:103980000F931F93CF93DF938230910510F482E061
:1039900090E0E091B305F091B40530E020E0B0E0B4
:1039A000A0E0309799F42115310509F44AC0281B8D
:1039B000390B24303105D8F58A819B816115710559
:1039C00089F1FB0193838283FE0111C04081518103
:1039D0000281138148175907E0F04817590799F4F5
:1039E000109761F012960C93129713961C933296CF
:1039F000CF01DF91CF911F910F9108950093B305EF
:103A00001093B405F4CF2115310551F04217530737
:103A100038F0A901DB019A01BD01DF01F801C1CF36
:103A2000EF01F9CF9093B4058093B305CDCFFE019C
:103A3000E20FF31F81939193225031093983288338
:103A4000D7CF2091B1053091B205232B41F42091BD
:103A50000A0130910B013093B2052093B1052091FA
:103A60000801309109012115310541F42DB73EB708
:103A700040910C0150910D01241B350BE091B105D3
:103A8000F091B205E217F307A0F42E1B3F0B2817A5
:103A9000390778F0AC014E5F5F4F2417350748F0C7
:103AA0004E0F5F1F5093B2054093B10581939193E0
:103AB0009FCFF0E0E0E09CCFCF93DF930097E9F059
:103AC000FC01329713821282A091B305B091B40524
:103AD000ED0130E020E01097A1F420813181820FC8
:103AE000931F2091B1053091B2052817390709F0CD
:103AF00061C0F093B205E093B105DF91CF910895D5
:103B0000EA01CE17DF07E8F54A815B819E01411586
:103B10005105B1F7E901FB83EA8349915991C40F3B
:103B2000D51FEC17FD0761F4808191810296840F07
:103B3000951FE90199838883828193819B838A837E
:103B4000F0E0E0E012968D919C9113970097B9F503
:103B50002D913C911197CD010296820F931F2091D8
:103B6000B1053091B2052817390739F6309751F56C
:103B70001092B4051092B305B093B205A093B105AD
:103B8000BCCFD383C28340815181840F951FC81756
:103B9000D90761F44E5F5F4F88819981480F591FA3
:103BA000518340838A819B819383828321153105D0
:103BB00009F0B0CFF093B405E093B3059ECFFD01BB
:103BC000DC01C0CF13821282D7CFB0E0A0E0EBEED1
:103BD000FDE10C94541C8C01009751F4CB010E9420
:103BE000C01C8C01C801CDB7DEB7E0E10C94701C9D
:103BF000FC01E60FF71F9C0122503109E217F30781
:103C000008F49DC0D901CD91DC911197C617D70753
:103C100098F0C530D10530F3CE0104978617970789
:103C200008F3C61BD70B2297C193D1936D937C9356
:103C3000CF010E945C1DD6CF5B01AC1ABD0A4C01BE
:103C40008C0E9D1EA091B305B091B405512C412C52
:103C5000F12CE12C109731F58091B1059091B205CE
:103C60008815990509F05CC04616570608F058C03B
:103C70008091080190910901009741F48DB79EB79A
:103C800040910C0150910D01841B950BE817F90729
:103C900008F055C0F093B205E093B105F9017183C6
:103CA0006083A0CF8D919C91119712966C90129782
:103CB00013967C901397A815B90559F56C0142E04D
:103CC000C40ED11CCA14DB0420F1AC014A195B09F3
:103CD000DA011296159780F06282738251834083D5
:103CE000D9016D937C93E114F10471F0D70113961F
:103CF000FC93EE93129776CF22968C0F9D1FF901BD
:103D000091838083F301EFCFF093B405E093B30583
:103D100069CF4816590608F42C017D01D3019ACFCA
:103D2000CB010E94C01C7C01009749F0AE01B80194
:103D30000E94AF1EC8010E945C1D870153CF10E096
:103D400000E050CFFB01DC0104C08D91019080198F
:103D500021F441505040C8F7881B990B0895FB018E
:103D6000DC0102C001900D9241505040D8F70895F7
:103D7000FB01DC0101900D920020E1F70895FB01A9
:103D8000DC014150504048F001900D920020C9F7ED
:103D900001C01D9241505040E0F70895F894FFCFC4
:103DA000FFFFFFFF010000000000B50580000000DC
:103DB000400014005400000000002F12BA01351119
:103DC000B90100000000D20DB50DA50D7C0D850DCB
:103DD000080F3C0F000000005A02BA01E701A702D9
:103DE0001802F6010A02000000001B0DBA01010AC8
:103DF000B901000000001F10F20F3511C80FEB0FC2
:103E0000D80FC90F0D0A004573706961004A7567C4
:103E100061646F723A200050726573696F6E6172EF
:103E2000006375616C717569657220626F746F6E85
:103E3000004A756761646F7265733A004573706913
:103E400061733A0053707920616D6F756E743A201A
:103E5000004E6F7420537079004661696C65642070
:103E6000696E697469616C697A696E672053440A86
:103E7000006E6F756E732E7478740046696C6520E1
:103E80006F70656E696E67206661696C65640000BD
:00000001FF
