:020000040000FA
:100000000C946A000C9492000C9492000C94920050
:100010000C9492000C9492000C9492000C94920018
:100020000C9492000C9492000C9492000C94920008
:100030000C9492000C9492000C9492000C949200F8
:100040000C947B140C9492000C94EB140C94C51437
:100050000C9492000C9492000C9492000C949200D8
:100060000C941D150C94920000000000250028003F
:100070002B000000000023002600290000000008DB
:10008000000201000003040700000000000000005F
:1000900000000000240027002A00010204081020AC
:1000A000408001020408102001020408102004040A
:1000B0000404040404040202020202020303030310
:1000C00003037C3C3E5E2B3D3F2F5B5D3B2C2A2295
:1000D0005C003C1611241FBECFEFD8E0DEBFCDBFC1
:1000E00011E0A0E0B1E0E4E4FDE302C005900D9270
:1000F000A63FB107D9F725E0A6EFB1E001C01D92F8
:10010000AB3BB207E1F710E0CAE6D0E004C02197AC
:10011000FE010E948C1CC936D107C9F70E949016B7
:100120000C94A01E0C94000080E480937C008091CD
:100130007A00806480937A0080917A0086FDFCCFFB
:1001400080917800909179000895833081F028F4AF
:10015000813099F08230A9F008958730A9F0883075
:10016000C9F08430B1F4809180008F7D03C080910C
:1001700080008F7780938000089584B58F7784BD49
:10018000089584B58F7DFBCF8091B0008F778093E9
:10019000B00008958091B0008F7DF9CFCF93DF93A9
:1001A000282F30E0F901E458FF4F8491F901E65619
:1001B000FF4FD491F901E255FF4FC491CC23A1F038
:1001C00081110E94A500EC2FF0E0EE0FFF1FEE580A
:1001D000FF4FA591B491EC91ED2381E090E009F4FB
:1001E00080E0DF91CF91089580E090E0FACF1F93F7
:1001F000CF93DF93282F30E0F901E458FF4F84912B
:10020000F901E656FF4FD491F901E255FF4FC49131
:10021000CC23A9F0162F81110E94A500EC2FF0E04D
:10022000EE0FFF1FE859FF4FA591B4918FB7F894D7
:10023000EC91111108C0D095DE23DC938FBFDF91C4
:10024000CF911F910895DE2BF8CFCF93DF9390E0ED
:10025000FC01E656FF4F249182559F4FFC0184918B
:100260008823D1F090E0880F991FFC01E057FF4FE1
:10027000A591B491FC01E859FF4FC591D49161114A
:100280000EC09FB7F8948C91E22FE0958E238C934B
:100290002881E223E8839FBFDF91CF9108958FB734
:1002A000F894EC91E22BEC938FBFF6CF3FB7F89424
:1002B0008091BB029091BC02A091BD02B091BE02A0
:1002C00026B5A89B05C02F3F19F00196A11DB11DB1
:1002D0003FBFBA2FA92F982F8827BC01CD01620FED
:1002E000711D811D911D42E0660F771F881F991FA8
:1002F0004A95D1F708958F929F92AF92BF92CF9275
:10030000DF92EF92FF924B015C010E9456016B015C
:100310007C010E9456016C197D098E099F09683E77
:10032000734081059105A8F321E0821A9108A10884
:10033000B10888EEC80E83E0D81EE11CF11C8114C0
:100340009104A104B10429F7FF90EF90DF90CF90C2
:10035000BF90AF909F908F9008952FB7F8946091C1
:10036000B7027091B8028091B9029091BA022FBF82
:100370000895089508950895AF92BF92CF92DF92A5
:10038000EF92FF920F931F93CF93DF936C017B014A
:100390008B01040F151FEB015E01AE18BF08C017DB
:1003A000D10759F06991D601ED91FC910190F0814E
:1003B000E02DC6010995892B79F7C501DF91CF9111
:1003C0001F910F91FF90EF90DF90CF90BF90AF9073
:1003D0000895FC01538D448D252F30E0842F90E04B
:1003E000821B930B541710F0CF9608950197089530
:1003F000FC01918D828D981761F0A28DAE0FBF2FF9
:10040000B11D5D968C91928D9F5F9F73928F90E04E
:1004100008958FEF9FEF0895FC01918D828D9817BD
:1004200031F0828DE80FF11D858D90E008958FEFFA
:100430009FEF0895FC01918D228D892F90E0805CC3
:100440009F4F821B91098F739927089583EC94E045
:100450000E941A0221E0892B09F420E0822F0895DE
:1004600080E090E0892B29F00E94260281110C94F3
:1004700000000895FC01A48DA80FB92FB11DA35A47
:10048000BF4F2C91848D90E001968F739927848FB4
:10049000A689B7892C93A089B1898C9183708064D7
:1004A0008C93938D848D981306C00288F389E02D78
:1004B00080818F7D80830895EF92FF920F931F9329
:1004C000CF93DF93EC0181E0888F9B8D8C8D981307
:1004D0001AC0E889F989808185FF15C09FB7F89413
:1004E000EE89FF896083E889F9898081837080645F
:1004F00080839FBF81E090E0DF91CF911F910F91AA
:10050000FF90EF900895F62E0B8D10E00F5F1F4FB8
:100510000F731127E02E8C8D8E110CC00FB607FCC7
:10052000FACFE889F989808185FFF5CFCE010E9455
:100530003A02F1CFEB8DEC0FFD2FF11DE35AFF4F87
:10054000F0829FB7F8940B8FEA89FB8980818062E3
:10055000CFCFCF93DF93EC01888D8823B9F0AA89A0
:10056000BB89E889F9898C9185FD03C0808186FD6E
:100570000DC00FB607FCF7CF8C9185FFF2CF8081BD
:1005800085FFEDCFCE010E943A02E9CFDF91CF91F6
:1005900008958FB7F8948091A9028FBF089561E004
:1005A000FC0184810E94F7008091A80281111092C1
:1005B000A80208958EBD00000DB407FEFDCF8EB5D4
:1005C00008958FEF0C94DA020F931F93CF93DF936C
:1005D000EC010E94AD018B010E94E1028F3F69F0A6
:1005E0000E94AD01601B710B6C177D07A8F380E0C2
:1005F000DF91CF911F910F91089581E0F9CF8CBDCC
:100600009DBD0895CF93DF93EC018091A8028111E5
:1006100009C081E08093A8028091600590916105F6
:100620000E94FF0260E08C81DF91CF910C94F70073
:100630008F929F92AF92BF92FF920F931F93CF938F
:10064000DF93EC01F62E49015A018E81882389F04F
:100650008F8198859C012F5F3F4F38872F83823091
:10066000924018F40E94E102F3CFCE010E94CF0223
:100670001E82CE010E9402038CE291E00E94E402FD
:100680008F2D80640E94DA0208E110E0D501C401D8
:10069000002E04C0B695A795979587950A94D2F732
:1006A0000E94DA0208501109083F8FEF180771F70E
:1006B00085E9FF2021F028E087E8F2128FEF0E9401
:1006C000DA0210E00E94E1028A8787FF04C01F3F20
:1006D00011F01F5FF7CFDF91CF911F910F91FF9026
:1006E000BF90AF909F908F900895AF92BF92CF929E
:1006F000DF92EF92FF920F931F93CF93DF93EC0162
:100700006901C801820F931F8130924050F58E819C
:10071000882379F088819981AA81BB818417950704
:10072000A607B70731F48F819885C816D90608F057
:1007300042C0488359836A837B838B85833039F039
:1007400089E0440F551F661F771F8A95D1F79A01DC
:10075000AB0161E1CE010E941803882389F083E098
:100760008D83CE010E94CF0280E0DF91CF911F9157
:100770000F91FF90EF90DF90CF90BF90AF900895D2
:100780000E94AD015B010E94E1028A878F3F69F4FC
:100790000E94AD016A197B096D327140A0F38FE0B0
:1007A0008D83CE010E94CF02DCCF8E3F89F4188664
:1007B0001F8281E08E838F8198858C159D0550F472
:1007C0000E94E1028F819885019698878F83F3CFED
:1007D0008DE0E6CF6701E00EF11E0E94E102F60116
:1007E00081936F01EE15FF05C1F78F819885080F82
:1007F000191F18870F838985882319F00115124066
:10080000A0F08E81882389F08F8198859C012F5FCD
:100810003F4F38872F838230924018F40E94E102C4
:10082000F3CFCE010E94CF021E8281E09ECFCF92F5
:10083000DF92EF92FF920F93CF93DF93EC01690168
:1008400082E1411551056105710599F08B85833071
:1008500039F089E0440F551F661F771F8A95D1F73D
:100860009A01AB0168E1CE010E941803882319F0B8
:1008700084E08D832DC08EEF0E94DA0276018EEF28
:10088000D81AF70181917F010E94DA02EC14FD046D
:10089000C1F78FEF0E94DA028FEF0E94DA020E9406
:1008A000E1028A878F71853071F4011116C0CE0183
:1008B0000E94CF0281E0DF91CF910F91FF90EF90E6
:1008C000DF90CF90089581E18D83CE010E94CF0209
:1008D000CE010E94CF0280E0EECF88E592E00E9438
:1008E000E402811102C085E1C4CF20E030E0A9011B
:1008F0006DE0CE010E941803882311F084E1B9CF86
:100900000E94E1028111FACFD2CF0F934091AA0247
:100910005091AB026091AC027091AD02411551054E
:100920006105710599F0082F23EC32E08091C00237
:100930009091C1020E941704882349F01092AA02E4
:100940001092AB021092AC021092AD0281E00F91B6
:1009500008950F93CF93C82F8091C202811105C0D3
:10096000C1E08C2FCF910F910895409100015091DB
:10097000010160910201709103010C2F23EC32E020
:100980008091C0029091C1020E941704811102C09F
:10099000C0E0E7CFCC2321F381E00E9485048823C7
:1009A000B9F31092C202DDCF8F929F92AF92BF92A5
:1009B000EF92FF920F931F93CF934B015C01C42FD3
:1009C0008091000190910101A0910201B091030179
:1009D00088159905AA05BB0551F181E00E94A9047B
:1009E00081110BC080E0CF911F910F91FF90EF908C
:1009F000BF90AF909F908F90089583ECE82E82E097
:100A0000F82E00E012E030E020E0B501A401809172
:100A1000C0029091C1020E947503882319F380924D
:100A2000000190920101A0920201B0920301409155
:100A3000C2024C2B4093C20281E0D5CF8F929F928D
:100A4000AF92BF92CF92DF92EF92FF92CF9322E6C6
:100A500035E03093C1022093C002882309F46DC0B1
:100A600040E060E070E0CB010E94D40481110BC033
:100A700080E0CF91FF90EF90DF90CF90BF90AF904C
:100A80009F908F900895809181048F7789F780914E
:100A90008D0490918E04A0918F04B09190048436BF
:100AA0009105A105B10520F3C0908904D0908A0476
:100AB000E0908B04F0908C04C114D104E104F104A3
:100AC000B9F240E0C701B6010E94D404882381F244
:100AD0008091CE029091CF028115924049F6A0916B
:100AE000D302AA2329F26091D1027091D20261153A
:100AF000710509F4BDCF2091D002222309F4B8CFAB
:100B0000A09380052093720590E080E030E0E1E062
:100B1000F0E0C82FAF01082E02C0440F551F0A9401
:100B2000E2F72417350769F041E0480F0196893054
:100B3000910579F740937B059BCFC12CD12C760191
:100B4000C0CF80937B052091D9023091DA0250E02A
:100B500040E02115310541F42091E7023091E8028F
:100B60004091E9025091EA02209373053093740595
:100B7000409375055093760546015701860E971EE2
:100B8000A11CB11C8092810590928205A0928305E0
:100B9000B0928405E091D402F091D502F0938705DC
:100BA000E0938605B0E00E94111CDC01CB01880DAA
:100BB000991DAA1DBB1D8093880590938905A0935C
:100BC0008A05B0938B0525E0EE0FFF1F2A95E1F70C
:100BD000E150FE4FEF2FFF27E6958E0F9F1FA11DBF
:100BE000B11D80937C0590937D05A0937E05B09305
:100BF0007F058090D6029090D702B12CA12C811451
:100C0000910441F48090E3029090E402A090E50208
:100C1000B090E602C81AD90AEA0AFB0AC80CD91C25
:100C2000EA1CFB1C04C0F694E794D794C794CA95B9
:100C3000D2F7C0927705D0927805E0927905F092CC
:100C40007A0585EFC8168FE0D806E104F10428F490
:100C50008CE08093850581E00CCF80E125EFC21602
:100C60002FEFD206E104F104A0F38091EF029091FE
:100C7000F002A091F102B091F20280938805909366
:100C80008905A0938A05B0938B0580E2E2CF4F924D
:100C90005F926F927F928F929F92AF92BF92CF920C
:100CA000DF92EF92FF920F931F93CF93DF93EC01AC
:100CB000423051056105710590F480E0DF91CF91DC
:100CC0001F910F91FF90EF90DF90CF90BF90AF906A
:100CD0009F908F907F906F905F904F90089589853F
:100CE0009A85AB85BC850196A11DB11D841795071A
:100CF000A607B70710F3CB88DC88ED88FE888F89BC
:100D0000803109F042C0BB27A72F962F852F4801BD
:100D100059012A013B01C80ED91EEA1EFB1E809113
:100D2000000190910101A0910201B0910301C81648
:100D3000D906EA06FB0699F58F898031C1F5B30122
:100D4000A201552766277727440F551F4D535D4F46
:100D5000FA01918280828091C20281608093C202F6
:100D60008A89823080F08D819E81AF81B8858C0D1B
:100D70009D1DAE1DBF1D8093AA029093AB02A09350
:100D8000AC02B093AD0281E099CFDB01CA01E7E08C
:100D9000B695A79597958795EA95D1F7B8CF40E096
:100DA000C701B6010E94D4048111C6CF86CFB3011A
:100DB000A2014F77552766277727440F551F440F09
:100DC000551F4D535D4FFA0180829182A282B382FA
:100DD000C2CF8F929F92AF92BF92CF92DF92EF924B
:100DE000FF920F931F93CF93DF93FC018185928530
:100DF000A385B4850196A11DB11D84179507A6078B
:100E0000B70770F480E0DF91CF911F910F91FF90B1
:100E1000EF90DF90CF90BF90AF909F908F9008950C
:100E200083889488A588B6888789803189F5BB270F
:100E3000A72F962F852FE9016A017B018F01BC0145
:100E4000CD01680D791D8A1D9B1D80900001909039
:100E50000101A0900201B090030186169706A80632
:100E6000B90601F5F8018789803111F5DD24EE24FA
:100E7000FF24F601EE0FFF1FED53FD4F808191819E
:100E8000B0E0A0E088839983AA83BB8381E0BBCFD5
:100E9000DB01CA01C7E0B695A79597958795CA95D6
:100EA000D1F7C9CF40E00E94D4048111DBCFAACF93
:100EB000E894C7F8DD24EE24FF24F601EE0FFF1FAF
:100EC000EE0FFF1FED53FD4F80819181A281B38111
:100ED000BF70D8CF4F925F926F927F92AF92BF92C6
:100EE000CF92DF92EF92FF920F931F93CF93DF93F6
:100EF00000D000D0CDB7DEB78C0149835A836B8315
:100F00007C835901C12CD12C7601412C82E0582ED2
:100F1000612C712C49815A816B817C819E012F5FEC
:100F20003F4FC8010E94E906882339F1F801858501
:100F3000A301920104C0220F331F441F551F8A953D
:100F4000D2F7DA01C901C80ED91EEA1EFB1E49817B
:100F50005A816B817C818789803111F188EF9FEF05
:100F6000AFEFBFE0481759076A077B0798F2F50112
:100F7000C082D182E282F38281E00F900F900F90C5
:100F80000F90DF91CF911F910F91FF90EF90DF9025
:100F9000CF90BF90AF907F906F905F904F900895EB
:100FA00088EF9FEFA0E0B0E0DDCFCF93DF93FC01AF
:100FB0002581222321F080E0DF91CF910895EC017B
:100FC00080918505803159F582E08583178A108EDE
:100FD000118E128E8091860590918705B0E0A0E079
:100FE00025E0880F991FAA1FBB1F2A95D1F7838B75
:100FF000948BA58BB68B8EE695E09C8F8B8F81E0D2
:101000008C831E821F82188619861A861B861C8670
:101010001D861E861F86188A198A1A8ACDCF8032AD
:1010200051F683E085834091880550918905609150
:101030008A0570918B05478B508F618F728F9F014E
:101040002D5E3F4F8EE695E00E946A078111D3CF57
:10105000B2CF8F929F92AF92BF92CF92DF92EF92D8
:10106000FF920F931F93CF93DF93EC018D8181113A
:101070000EC080E0DF91CF911F910F91FF90EF9014
:10108000DF90CF90BF90AF909F908F9008950B8985
:101090001C892D893E89041715072607370748F351
:1010A0004A015B01823031F48A869B86AC86BD861C
:1010B00081E0E0CF81149104A104B10449F41E82BF
:1010C0001F82188619861A861B861C861D86F0CFFD
:1010D0000A851B852C853D85EB8DFC8D858590E0F3
:1010E0000996B901A8014150510961097109082EF9
:1010F00004C076956795579547950A94D2F7750180
:101100006401E1E0CE1AD108E108F10804C0F694C8
:10111000E794D794C7948A95D2F7C416D506E60605
:10112000F70620F0012B022B032B11F58F89988DE8
:10113000A98DBA8D8E839F83A887B9878E010A5F98
:101140001F4FC114D104E104F10409F4ADCF4E8165
:101150005F816885798598018B8D9C8D0E94E90659
:1011600091E0C91AD108E108F1088111EACF81CFD5
:10117000C41AD50AE60AF70AE1CF3F924F925F926E
:101180006F927F928F929F92AF92BF92CF92DF9297
:10119000EF92FF920F931F93CF93DF93CDB7DEB7FC
:1011A0002C970FB6F894DEBF0FBECDBF5C01DC01FB
:1011B0005B968D909C905C9716964D905D906D908F
:1011C0007C901997411451046104710409F468C0BA
:1011D000BFEF4B1A5B0A6B0A7B0A312CF401818545
:1011E0009285A385B4859C01AD012F5F3F4F4F4F82
:1011F0005F4F29873A874B875C87730162011D82A5
:101200001E821F821886F40181859285A385B4858C
:101210002D813E814F815885281739074A075B0782
:1012200008F056C089859A85AB85BC858C159D05CF
:10123000AE05BF0550F482E0C82ED12CE12CF12C74
:1012400092E0492E512C612C712C9E012F5F3F4F53
:10125000B701A601C4010E94E9068823C9F189816A
:101260009A81AB81BC81892B8A2B8B2B09F12601BA
:1012700037019FEF491A590A690A790A2D813E817F
:101280004F8158852F5F3F4F4F4F5F4F2D833E83D8
:101290004F8358873FEFC31AD30AE30AF30AB3CF49
:1012A000F40140805180628073803324339496CF60
:1012B000C414D504E604F70409F70FEF1FEF2FEF6E
:1012C0003FE0B701A601C4010E944706811119C081
:1012D00080E02C960FB6F894DEBF0FBECDBFDF9135
:1012E000CF911F910F91FF90EF90DF90CF90BF9023
:1012F000AF909F908F907F906F905F904F903F90B6
:101300000895D50116964D915D916D917C91199737
:10131000411551056105710539F097018601C40138
:101320000E9447068823A1F2D5011696CD92DD9240
:10133000ED92FC921997332051F0D701C601019626
:10134000A11DB11DF40180839183A283B383F501B4
:101350008789908DA18DB28D892B8A2B8B2B39F4A7
:101360008481C78AD08EE18EF28E80688483F501F5
:1013700084818062848381E0ACCF1F93CF93DF931D
:10138000FC0125812223D1F1162FEC01848187FFF6
:101390002AC0668577858089918941E00E94D404BE
:1013A000882361F1EA8980E2E89FF0011124ED537E
:1013B000FD4F309719F18D81823040F48B899C89E3
:1013C000AD89BE89848F958FA68FB78F8F89988DB1
:1013D000938F828F8F89988DA98DBA8DB58BA48BB1
:1013E0008C818F778C83111103C08C818F7E8C83CD
:1013F000812FDF91CF911F910C94A90480E0DF91A0
:10140000CF911F910895FF920F931F93CF93DF9376
:10141000EC018D81813041F090E080E0DF91CF914F
:101420001F910F91FF9008958C8181FFF5CF82FD70
:101430001BC00091C0021091C102C8010E940203AA
:101440000E94E102F82EC8010E94CF028FEFF8122D
:10145000E3CF8C8185FF1BC060E0CE010E94BD09F7
:101460008C818F7D8C83D8CF4B895C896D897E89F7
:101470008A859B85AC85BD8584179507A607B70728
:10148000C1F2CE010E9429088111D3CFC5CF40916E
:10149000AA025091AB026091AC027091AD02452B53
:1014A000462B472B21F080E00E948504B5CF806158
:1014B0008C832A853B85317080E092E0821B930B00
:1014C000ADCFCF93DF93EC0161E00E94BD0988238B
:1014D00011F01D8281E0DF91CF910895CF92DF92CC
:1014E000EF92FF921F93CF93DF9380919105882312
:1014F00021F08CE895E00E94610A10926D0510922F
:101500006B0510926805109267058AE08093660566
:101510000E94AD01EB0161E0809166050E9425010A
:1015200061E0809166050E94F7001FB7F8948091F2
:10153000BF02811127C0E8EBF0E08491E4EAF0E01B
:101540009491E82FF0E0EE0FFF1FE057FF4FA591B9
:10155000B491EC91E92321F461E08AE00E94F70064
:1015600061E08AE00E9425018CB580618CBD8CB55C
:1015700080648CBD61E08DE00E94250161E08BE01C
:101580000E9425018091BF028F5F8093BF021FBF21
:1015900082E58093600510926105809160059091CD
:1015A00061050E94FF021AE08FEF0E94DA021150DB
:1015B000D9F782E695E00E94020320E030E0A9011D
:1015C00060E082E695E00E941803182F80936C0576
:1015D000813081F00E94AD016C1B7D0B613D774035
:1015E00060F381E08093670582E695E00E94CF0278
:1015F00090E078C02AEA31E040E050E068E082E61E
:1016000095E00E94180382FF2AC010936D05809117
:101610006D05C12CD12C7601823029F4C12CD12C3E
:10162000E12C80E4F82E20E030E0A90167E382E6B7
:1016300095E00E941803A701960169E282E695E011
:101640000E94180380936C058823C1F00E94AD01AD
:101650006C1B7D0B613D774030F388E0C3CF14E015
:101660000E94E10280936C051150D1F78A3A11F083
:1016700082E0B8CF82E080936D05C9CF80916D057F
:101680008230D1F420E030E0A9016AE382E695E0FF
:101690000E941803882311F086E0A4CF0E94E10283
:1016A000807C803C19F483E080936D050E94E10208
:1016B0000E94E1020E94E10282E695E00E94CF02D0
:1016C00080E5809360051092610581E00E941E050F
:1016D000882389F08CE895E00E94D50791E0882363
:1016E00009F486CF892FDF91CF911F91FF90EF9062
:1016F000DF90CF90089580E00E941E05882309F4B2
:1017000077CFE8CF2F923F924F925F926F927F9266
:101710008F929F92AF92BF92CF92DF92EF92FF9201
:101720000F931F93CF93DF9300D000D01F92CDB7BC
:10173000DEB77C015B01342E5D83DC0115968C9154
:101740001597813009F0CEC014962C9021FECAC0A6
:1017500022FCB4C0C32CDD8022947FE02722209499
:10176000B22DB1702B2ED7011A964D915D916D91CE
:101770007C911D97C114D10409F428C15B968D9109
:101780009C915C97FC0174807A948A019B0169E0CA
:1017900036952795179507956A95D1F770228A0196
:1017A0001170711020C001151105E9F416964D91C4
:1017B0005D916D917C9119974115510561057105F8
:1017C00009F099C057968D919D910D90BC91A02DD7
:1017D0000097A105B10509F0B0C0C7010E94BD087E
:1017E000882309F47FC080E092E0801B910B4601C2
:1017F0008C159D0508F44C01D7015B964D915C91C9
:101800005C9716968D919D910D90BC91A02D02979D
:10181000A109B109FA01258504C0880F991FAA1FE3
:10182000BB1F2A95D2F74685578560897189840F39
:10183000951FA61FB71F9C01AD01270D311D411D2E
:10184000511D29013A01811432E0930609F07BC051
:101850008091000190910101A0910201B0910301DA
:1018600084159505A605B70559F48FEF9FEFDC01A8
:101870008093000190930101A0930201B0930301B2
:10188000022D9501B301A2018091C0029091C10285
:101890000E941704882331F19EEFB91AC818D9089D
:1018A000F70182859385A485B585880D991DA11DB5
:1018B000B11D82879387A487B58755CFF7014389E8
:1018C00054896589768982859385A485B58548176D
:1018D00059076A077B0709F43DCFC7010E94290811
:1018E000811138CF81E090E0D70113969C938E93BD
:1018F000129780E007C09E012F5F3F4F0E94E906CC
:10190000811102C090E079C089819A81AB81BC814C
:10191000F701238D348DF901278948EF5FEF60E0EF
:1019200070E0203121F048EF5FEF6FEF7FE0841728
:101930009507A607B70708F050CFF701868397836E
:10194000A087B18750CF0115110599F5D7011A96D7
:101950004D915D916D917C911D9753968D919D91C7
:101960000D90BC91A02D481759076A077B0708F115
:1019700081E00E94A904882309F4B4CF40920001B9
:101980005092010160920201709203018091C202A3
:1019900081608093C202C8018D539D4FD5019C0187
:1019A000280D391DFC012E173F0759F04D91419329
:1019B000FACF41E0C301B2010E94D4048111EBCF00
:1019C00091CF281B390BA20EB31E68CFF701838974
:1019D0009489A589B68984179507A607B70738F4AF
:1019E0008481438B548B658B768B80688483F7016D
:1019F000848183FD1AC0832D9D810F900F900F90DD
:101A00000F900F90DF91CF911F910F91FF90EF906A
:101A1000DF90CF90BF90AF909F908F907F906F900E
:101A20005F904F903F902F90089561E0C7010E9412
:101A3000BD09882309F456CFDECFCF93DF931F92E1
:101A4000CDB7DEB7698341E050E0BE016F5F7F4FE5
:101A50000E94820B0F90DF91CF910895FC01DB0172
:101A600012968D919C911397938382838AE491E0DF
:101A70009183808314968C911497848315968C910E
:101A80001597858316964D915D916D917C9119976F
:101A900046835783608771871A964D915D916D914A
:101AA0007C911D9742875387648775871E964D9159
:101AB0005D916D917C91519746875787608B718BB3
:101AC00052968C915297828B53964D915D916D9168
:101AD0007C915697438B548B658B768B57964D91A3
:101AE0005D916D917C915A97478B508F618F728F6A
:101AF0005B968D919C91948F838F0895FC01818DCD
:101B0000928D009719F061E00C94BD090895DC01F5
:101B10005996ED91FC913097B9F083899489A58904
:101B2000B6894285538564857585841B950BA60B04
:101B3000B70B811520E89207A105B10538F08FEFAA
:101B40009FE7A0E0B0E0089590E080E00895DC0118
:101B500059968D919C91009739F0DC01ED91FC91A3
:101B60000480F581E02D099490E080E00895CF9302
:101B7000DF93EC01E98DFA8D309749F481E090E034
:101B80009B838A8390E080E0DF91CF910895138258
:101B90001282898D9A8D0E94820BE98DFA8D2281A5
:101BA0003381232B59F7F0CFCF93DF931F92CDB71B
:101BB000DEB76983DC01ED91FC910280F381E02DB9
:101BC00041E050E0BE016F5F7F4F09950F90DF91BC
:101BD000CF9108952F923F924F925F926F927F9292
:101BE0008F929F92AF92BF92CF92DF92EF92FF922D
:101BF0000F931F93CF93DF9300D01F92CDB7DEB723
:101C0000FC018581811118C08FEF9FEF0F900F901D
:101C10000F90DF91CF911F910F91FF90EF90DF9088
:101C2000CF90BF90AF909F908F907F906F905F907C
:101C30004F903F902F900895848180FFE5CF438996
:101C400054896589768982859385A485B585312CEB
:101C5000212C481759076A077B0719F0222423947F
:101C6000312C6F012101CE0101963C01DF01169656
:101C7000BB83AA834114510409F4C5C0F60142850F
:101C80005385648575854A01F1E09F22D6015B96F4
:101C90008D919C915C978A019B01E9E0369527958F
:101CA00017950795EA95D1F71596EC91E230E9F58D
:101CB000FC01628D738D848D958D600F711F821F65
:101CC000931FA12C22E0B22EA818B9084A145B0475
:101CD00008F45201F601248126FD04C0A114F2E0AB
:101CE000BF0671F4009100011091010120910201E1
:101CF00030910301061717072807390709F05EC05E
:101D000040E00E94D404882309F47ECFC4018D539F
:101D10009D4FD3019C012A0D3B1DFC012E173F074F
:101D200009F46CC041914D93F9CFDC011496BC903D
:101D3000BA94B0228114910479F4B1100DC0452BEE
:101D4000462B472B69F5F6018789908DA18DB28DC1
:101D500086839783A087B187D6015B96ED91FC912E
:101D60005C9716966D917D918D919C91199762501B
:101D7000710981099109258504C0660F771F881FA5
:101D8000991F2A95D2F70685178520893189600F1A
:101D9000711F821F931F6B0D711D811D911D91CFAE
:101DA000D60116964D915D916D917C9119972A817E
:101DB0003B810E94E9068111CFCF26CF73018501B7
:101DC0009401AB01BC018091C0029091C1020E94BC
:101DD0007503882309F418CF6A0C7B1CF6018285F1
:101DE0009385A485B5858A0D9B1DA11DB11D828794
:101DF0009387A487B5874A185B083CCF281B390B0B
:101E0000620E731EEBCF2A94232809F0FDCE898140
:101E100090E0FCCEFC01818D928D009711F00C9426
:101E2000EA0D8FEF9FEF08950F931F93CF93DF93EA
:101E3000EC010E94AD01688779878A879B87CE0174
:101E40000E940A0F97FF15C00E94AD0108851985F1
:101E50002A853B85601B710B820B930B0C811D81C6
:101E60002E813F81601771078207930740F38FEF40
:101E70009FEFDF91CF911F910F9108950F931F93C3
:101E8000CF93DF93EC01898D9A8D10E000E00097ED
:101E900099F00E94EA0D8C010F3F100769F0898DBF
:101EA0009A8DFC01428553856485758541505109A1
:101EB000610971090E942908C801DF91CF911F9122
:101EC0000F91089520915E02260F3327331F213290
:101ED0003105ECF420918202FC0190E080E0243096
:101EE00069F082E00895A0915E022191AC01425C0C
:101EF0005D4FA40FB52FB11D2C930196861798F353
:101F000080915E02680F60935E0280E0089581E038
:101F100008951092820281E08093840210928302DD
:101F200061E082E10E94F70061E083E10E94F70036
:101F3000E9EBF0E080818E7F808380818D7F8083DC
:101F400088E48093B80085E48093BC000895CF9323
:101F5000DF9391E090933D028823B9F0C091B800DF
:101F6000D091BA008091BC008A7B8093BC0060E075
:101F700082E10E94F70060E083E10E94F7000E9486
:101F8000890FD093BA00C093B800DF91CF91089524
:101F90000895E091B5028091B402E81730F4F0E0C2
:101FA000E85EFD4F808190E008958FEF9FEF0895E8
:101FB0009091B5028091B4022FEF3FEF981748F44B
:101FC000E92FF0E0E85EFD4F208130E09F5F9093C5
:101FD000B502C90108958091B4029091B502891BA0
:101FE000990B0895CF92DF92EF92FF920F931F9378
:101FF000CF93DF937C01CB018A012091170222232A
:1020000089F0EB016B01C40ED51ECC15DD0569F01E
:102010006991D701ED91FC910190F081E02DC7010C
:102020000995F3CF642F0E94620FC801DF91CF9111
:102030001F910F91FF90EF90DF90CF900895CF9375
:10204000DF931F92CDB7DEB7698320911702222359
:10205000F9F02091B202203258F021E030E0FC018A
:102060003383228390E080E00F90DF91CF91089539
:102070008091B302E82FF0E0E950FE4F9981908300
:102080008F5F8093B3028093B20281E090E0ECCF47
:1020900061E0CE0101960E94620FF7CFCF92DF92EE
:1020A000EF92FF920F931F93CF93DF93FC01C481B4
:1020B00021E020931702C093F6011092B302109210
:1020C000B2028385682B8BEA95E00E941F10D091A5
:1020D000B202D13208F092C00E9456016B017C011D
:1020E00080918202811165C082E08093820281E04A
:1020F000809384028FEF809381021092A602D09386
:10210000A502A7EFB1E0E5E8F2E080E0D81385C0D2
:102110001092A7028091A702CC0FC82BC093A702F0
:1021200080918302813009F07CC0109283020E946A
:1021300056016B017C018091A7028093BB008091C6
:10214000390290913A02A0913B02B0913C02892B56
:102150008A2B8B2B99F00E94560100913902109125
:102160003A0220913B0230913C026C197D098E09A4
:102170009F090617170728073907E0F18091BC006F
:1021800083FDD9CF85EC8093BC000E9456016B0182
:102190007C0180918202823009F445C080918102E5
:1021A0008F3F61F180918102803241F18091810203
:1021B00025C08091390290913A02A0913B02B091E2
:1021C0003C02892B8A2B8B2B09F48ACF0E94560163
:1021D0000091390210913A0220913B0230913C0269
:1021E0006C197D098E099F090617170728073907FB
:1021F00008F076CF809138020E94A70F1092B302A8
:102200001092B20210921702DF91CF911F910F919D
:10221000FF90EF90DF90CF9008959D9191938F5F05
:1022200075CF85EEB0CF8091390290913A02A0919E
:102230003B02B0913C02892B8A2B8B2B09F4A9CF4E
:102240000E9456010091390210913A0220913B02FE
:1022500030913C026C197D098E099F0906171707FA
:102260002807390708F095CFC5CF28E0FC01238760
:1022700060E00C944E1090E080E00895CF93DF93DF
:1022800087E00E94CE00D0E0C0E0892B11F4C8E0C6
:10229000D0E086E00E94CE00892BE1F090E080E063
:1022A000C82BD92B85E00E94CE00892BB1F090E09D
:1022B00080E0C82BD92B84E00E94CE0021E030E0E2
:1022C000892B11F030E020E0C9018C2B9D2BDF9190
:1022D000CF91089584E090E0E3CF82E090E0E9CFF1
:1022E0000F931F93CF93DF93EC0180E2689FF0017F
:1022F0001124ED53FD4F6A8B8091000190910101F3
:10230000A0910201B09103018E879F87A88BB98BA2
:102310000489158930E020E09801112700270F8BF0
:10232000188F298F3A8F828D938DB0E0A0E0AC0199
:10233000BD01402B512B622B732B4F8B588F698F14
:102340007A8F83858871A9F4848D958DA68DB78D3C
:102350008B8B9C8BAD8BBE8B81E08D8381E08C83DE
:102360001E821F82188619861A861B861C861D8669
:1023700003C0803131F080E0DF91CF911F910F9148
:1023800008959E012D5E3F4F8B8D9C8D0E946A07A4
:10239000882389F384E0E1CF0F931F93CF938C01BF
:1023A000C62F0E944E106C2F6460C8010E944E1010
:1023B0006C2F6B7FC8010E944E1083EC90E0019758
:1023C000F1F7CF911F910F9108950F931F93CF9322
:1023D000DF938C01D62FC42F607F642B0E94CC1119
:1023E00080E1D89FB00111246C2BC801DF91CF91FF
:1023F0001F910F910C94CC11CF93DF93CDB7DEB723
:1024000028970FB6F894DEBF0FBECDBF28E0EEE0F0
:10241000F1E0DE01119601900D922A95E1F7FC01A1
:102420002085241708F44FEF50E0440F551F21E09A
:1024300030E02C0F3D1F420F531FFA012081620F25
:10244000606840E028960FB6F894DEBF0FBECDBF9F
:10245000DF91CF910C94E51140E061E00E94E5111D
:102460008BE39FE10197F1F7089541E00E94E511A8
:1024700081E090E00895AF92BF92CF92DF92EF9209
:10248000FF920F931F93CF93DF93CDB7DEB72B97B8
:102490000FB6F894DEBF0FBECDBF6C01FE013196C2
:1024A000CE010C967F0120E22193E817F907E1F7AE
:1024B000DA0120E037E09D91B92E9923A9F19E32EF
:1024C000B9F43A3091F480E02B960FB6F894DEBF61
:1024D0000FBECDBFDF91CF911F910F91FF90EF9075
:1024E000DF90CF90BF90AF90089528E03AE0E3CF1F
:1024F000E2ECF0E08491882321F031969813FACF32
:10250000E2CF321700F38FED890F8E35E0F68FE9B9
:10251000890F8A3118F440EEB42EB90EF701E20F9C
:10252000F11DB0822F5FC7CF8981803261F28B01AC
:10253000FB01838D948DF601948F838FFB011682AE
:102540001782108611861286138614861586F80166
:1025500082859385A485B585438954896589768963
:1025600084179507A607B70708F0ADCF25E0B69505
:10257000A795979587952A95D1F7F82FFF70AF2EDD
:10258000F8018581823008F49ECFC8010E94EA0DCF
:1025900097FD99CFF80182859385A485B5854F96DF
:1025A000A11DB11D82879387A487B587F0E2AF9EF6
:1025B000B00111246D537D4F6115710509F483CF6E
:1025C000FB018081882309F1853E19F4B11032C0E6
:1025D0001EC04BE050E0C7010E94741E892B09F019
:1025E000B6CF6A2DC6012B960FB6F894DEBF0FBE8C
:1025F000CDBFDF91CF911F910F91FF90EF90DF90B2
:10260000CF90BF90AF900C947011B1105CCFF601D9
:10261000A28A8091000190910101A0910201B091E4
:10262000030186879787A08BB18BFB01808188236C
:1026300009F449CFBB24B3948ACFFC0180819181F6
:10264000009711F00C942E1D0895FB0101900020BD
:10265000E9F73197AF01461B570BDC01ED91FC9177
:102660000280F381E02D09944F925F926F927F92E6
:10267000AF92BF92CF92DF92EF92FF920F931F9390
:10268000CF93DF93CDB7DEB7A1970FB6F894DEBF37
:102690000FBECDBF5C016A017B01F7FE47C0DC01C4
:1026A000ED91FC910190F081E02D6DE209958C0196
:1026B00022273327A9012C193D094E095F0919A2C8
:1026C000FE01B1967F019AE0492E512C612C712CAC
:1026D000CA01B901A30192010E945B1C605DD70190
:1026E0006E937D01211531054105510589F790E073
:1026F00080E0109721F0BD01C5010E942513800FD5
:10270000911FA1960FB6F894DEBF0FBECDBFDF912B
:10271000CF911F910F91FF90EF90DF90CF90BF90DE
:10272000AF907F906F905F904F900895AB019601AE
:1027300019A28E010F5D1F4F8AE0C82ED12CE12C0B
:10274000F12CCA01B901A70196010E945B1C605DD2
:10275000F80162938F01211531054105510589F773
:1027600090E080E0309769F2BF01C5010E94251317
:10277000C8CF0C9425130F931F93CF93DF93EC01D5
:1027800088819981009759F02A813B812617370764
:1027900030F081E0DF91CF911F910F9108958B016F
:1027A0006F5F7F4F0E94B71D009759F09983888310
:1027B0001B830A832C813D81232B59F7FC01108256
:1027C000E8CF80E0E7CFEF92FF920F931F93CF9374
:1027D000DF93EC017B018A01BA010E94BB132881BF
:1027E0003981811114C02115310519F0C9010E94E8
:1027F0002E1D198218821D821C821B821A82CE0114
:10280000DF91CF911F910F91FF90EF9008951D835D
:102810000C83B701C9010E948A1EF1CFEF92FF928B
:102820000F931F93CF93DF93EC017B018A011B82EF
:102830001A8288EE93E0A0E0B0E08C839D83AE83A3
:10284000BF8386E291E0998388838DE190E00E94C6
:10285000921C9A8F898F009779F02DE1F701DC01A6
:1028600001900D922A95E1F74CE050E0B801CE01BD
:102870000C960E94911E188EDF91CF911F910F919F
:10288000FF90EF90089585ED8093BC008091390210
:1028900090913A02A0913B02B0913C020796A11D93
:1028A000B11D23E0B695A795979587952A95D1F701
:1028B0002091BC0024FD03C0109282020895409133
:1028C000390250913A0260913B0270913C02452BD3
:1028D000462B472B69F30097A105B10541F02AE289
:1028E0002A95F1F700C00197A109B109E1CF8091C4
:1028F00038020C94A70F1F920F920FB60F9211245B
:102900002F933F938F939F93AF93BF938091B70281
:102910009091B802A091B902B091BA023091B6027A
:1029200023E0230F2D3758F50196A11DB11D2093EB
:10293000B6028093B7029093B802A093B902B09305
:10294000BA028091BB029091BC02A091BD02B091ED
:10295000BE020196A11DB11D8093BB029093BC02E3
:10296000A093BD02B093BE02BF91AF919F918F9192
:102970003F912F910F900FBE0F901F90189526E852
:10298000230F0296A11DB11DD2CF1F920F920FB639
:102990000F9211242F933F934F935F936F937F93E5
:1029A0008F939F93AF93BF93EF93FF9383EC94E048
:1029B0000E943A02FF91EF91BF91AF919F918F9149
:1029C0007F916F915F914F913F912F910F900FBE2B
:1029D0000F901F9018951F920F920FB60F9211240F
:1029E0002F938F939F93EF93FF93E091D304F091F4
:1029F000D4048081E091D904F091DA0482FD1BC0F7
:102A000090818091DC048F5F8F732091DD048217A9
:102A100041F0E091DC04F0E0ED53FB4F958F8093A3
:102A2000DC04FF91EF919F918F912F910F900FBE3A
:102A30000F901F9018958081F4CF1F920F920FB6C0
:102A40000F9211242F933F934F935F936F937F9334
:102A50008F939F93AF93BF93EF93FF938091B900B0
:102A6000887F803609F44AC0F0F5883209F4A7C09F
:102A700018F5803109F49BC0B8F4882309F4F9C033
:102A8000883009F494C0FF91EF91BF91AF919F916D
:102A90008F917F916F915F914F913F912F910F9007
:102AA0000FBE0F901F901895883109F488C08032AE
:102AB00051F78093810214C0803409F49DC040F422
:102AC0008033B9F38833F9F68093810285ECB0C086
:102AD000803509F485C0883509F496C0883499F6A4
:102AE0000E944314D0CF883909F48CC038F5883758
:102AF00029F050F4883611F0803729F683E080936E
:102B000082021092800257C0883809F47BC0803955
:102B100019F0803809F0B7CF80918002803208F038
:102B200071C0E091800281E08E0F809380028091DD
:102B3000BB00F0E0E05AFD4F80833DC0803B39F0A0
:102B4000E0F4803A09F479C0883A09F09CCF84E037
:102B50008093820210925F0210925E02E091B002B6
:102B6000F091B102099580915E0281110FC081E060
:102B700080935E0210923E0209C0803C09F4A6CF09
:102B8000883C09F4A3CF883B09F07DCFE0915F0238
:102B900081E08E0F80935F02F0E0E25CFD4F808168
:102BA0008093BB0090915F0280915E0229C080916A
:102BB000A7028093BB0085EC8093BC0064CF90910A
:102BC000A6028091A502981758F5E091A60281E02F
:102BD0008E0F8093A602F0E0EB57FD4F8081E9CF86
:102BE000E091A60281E08E0F8093A6028091BB0047
:102BF000F0E0EB57FD4F80839091A6028091A502F3
:102C00009817C8F285E8D8CFE091A60281E08E0F30
:102C10008093A6028091BB00F0E0EB57FD4F8083CC
:102C20008091840281115CCF81E08093830284EAE9
:102C30008093BC001092820226CF85EC8093BC006A
:102C40001092820280918002803230F4E091800202
:102C5000F0E0E05AFD4F10826091800270E0E09158
:102C6000AE02F091AF0280E692E0099510928002E8
:102C70000ACF1092810234CFE3ECF4E01382128287
:102C800088EE93E0A0E0B0E084839583A683B783C9
:102C900028E331E03183208325EC30E03587248739
:102CA00024EC30E03787268720EC30E0318B208B16
:102CB00021EC30E0338B228B22EC30E0358B248BFF
:102CC00026EC30E0378B268B118E128E138E148EED
:102CD000E0E6F5E020E520831182E2E6F5E01582EA
:102CE00016821186138642E050E060E070E044876F
:102CF00055876687778713A215A614A62AE431E0C4
:102D000033A722A717A6EBEAF5E013821282848389
:102D10009583A683B78386E591E0918380830895A8
:102D2000CF93DF93CDB7DEB7C858D1090FB6F8946B
:102D3000DEBF0FBECDBF789484B5826084BD84B5FC
:102D4000816084BD85B5826085BD85B5816085BDA6
:102D500080916E00816080936E001092810080915E
:102D600081008260809381008091810081608093E6
:102D70008100809180008160809380008091B1000B
:102D800084608093B1008091B00081608093B00036
:102D900080917A00846080937A0080917A008260CA
:102DA00080937A0080917A00816080937A0080918C
:102DB0007A00806880937A001092C100E091D30479
:102DC000F091D40492E09083E091CF04F091D0048C
:102DD0001082E091D104F091D20420E1208310927E
:102DE000DB04E091D704F091D80486E08083E09181
:102DF000D504F091D604808180618083E091D50470
:102E0000F091D604808188608083E091D504F091B0
:102E1000D604808180688083E091D504F091D60447
:102E200080818F7D8083E7961FAE1EAEE7974AE1D3
:102E300051E0E5965FAF4EAFE59787E2E8968FAF3A
:102E4000E897ED962FAFED97EE969FAFEE97EF9642
:102E50001FAEEF9761E08AE00E94250160E087E005
:102E60000E94250160E086E00E94250160E085E087
:102E70000E94250160E084E00E9425011092B502C5
:102E80001092B4021092B3021092B2020E94890F03
:102E900089EB91E09093B1028093B0028AEB91E0CC
:102EA0009093AF028093AE02E9961FAEE997EE963B
:102EB0008FADEE97823020F098E0E9969FAFE997CA
:102EC000EC968FAFEC9762E370E080E090E00E94B8
:102ED0007B01EF966FADEF97CE018D589F4F0E940B
:102EE0004E1068EE73E080E090E00E947B0160E3AA
:102EF000CE018D589F4F0E94CC110BE416E4C801FF
:102F00000197F1F760E3CE018D589F4F0E94CC11DD
:102F1000C8010197F1F760E3CE018D589F4F0E94E1
:102F2000CC1183E592E00197F1F760E2CE018D5874
:102F30009F4F0E94CC11E9966FADE997606240E027
:102F4000CE018D589F4F0E94E51184E0EA968FAF25
:102F5000EA9740E06CE0CE018D589F4F0E94E5114A
:102F6000CE018D589F4F0E942C1282E0EB968FAFBE
:102F7000EB9740E066E0CE018D589F4F0E94E5112F
:102F800040E062E0CE018D589F4F0E94E5118BE337
:102F90009FE10197F1F7CE018D589F4F0E943511A7
:102FA000C158DF4F19821882CF57D040CF57DF4F1B
:102FB00019821882C158D040CD57DF4F198218822C
:102FC000C358D04050E040E069EC71E0CE01815838
:102FD0009F4F0E94E313CE018D589F4F0E942C12E9
:102FE000CE018D589F4F0E94351140E060E0CE0128
:102FF0008D589F4F0E94FC1164E671E0CE018D5800
:103000009F4F0E94B91341E060E0CE018D589F4F61
:103010000E94FC116EE671E0CE018D589F4F0E9418
:10302000B9130E943E11892BE1F3CE018D589F4FB9
:103030000E942C1264EF71E080E090E00E947B011E
:10304000CE018D589F4F0E94351140E060E0CE01C7
:103050008D589F4F0E94FC116EE771E0CE018D5894
:103060009F4F0E94B91392E0E92EF12C40E06EE0F0
:10307000CE018D589F4F0E94FC11A7010F2C000C10
:10308000660B770BCE018D589F4F0E9434130E9420
:103090003E110097E1F381FF0AC02FEFE21AF20A16
:1030A00064EF71E080E090E00E947B01DFCF80FF61
:1030B00008C032E0E316F10421F041E0E41AF1081F
:1030C000EFCF82FFEDCF64EF71E080E090E00E94EF
:1030D0007B01CE018D589F4F0E942C12CE018D583E
:1030E0009F4F0E94351140E060E0CE018D589F4F08
:1030F0000E94FC1169E871E0CE018D589F4F0E943B
:10310000B913CC24C394D12C40E06EE0CE018D588D
:103110009F4F0E94FC11A6010D2C000C660B770B33
:10312000CE018D589F4F0E9434130E943E1100978C
:10313000E1F381FF0DC0CE14DF0454F45FEFC51A34
:10314000D50A64EF71E080E090E00E947B01DCCF63
:1031500080FF08C0A1E0CA16D10421F0B1E0CB1A6B
:10316000D108EFCF82FFEDCF64EF71E080E090E017
:103170000E947B01B12CA12CC70101969C01990FE3
:10318000440B550BCB57DF4F288339834A835B832E
:10319000C558D040C7010E94921C1C01FC01C70108
:1031A000820D931D11928E179F07E1F710E000E04A
:1031B000992493940E949400BC01990F880B990B59
:1031C000611571058105910511F00E94E91B0E94AE
:1031D0009A1BCB57DF4F288139814A815B81C558C3
:1031E000D0400E94F21BF101E60FF71F8081811190
:1031F00001C090820F5F1F4FC016D106D9F60E9402
:103200006E0A0E946E0A582E811107C061E971E0B2
:1032100083EC94E00E94B913FFCF1C821B820AE466
:1032200011E01A8309831E82CE0101960E94D50700
:10323000BE016F5F7F4FCE01CB960E942E0D19A26B
:1032400018A21F8F0E8F1BA221968FAD219781117F
:1032500079C06C961FAE1EAE6C9788EE93E0A0E02E
:10326000B0E0A0968CAF9DAFAEAFBFAFA09786E2A7
:1032700091E06A969FAF8EAF6A97E3961FAE1EAE3F
:10328000E397A5961FAEA597E396EEADFFADE39746
:10329000309709F439C18581882309F435C10E942A
:1032A0009400BC01990F880B990B6115710581057C
:1032B000910511F00E94E91B0E949A1B21E339E05D
:1032C00040E050E00E94F21B6F5F7F4F8F4F9F4F97
:1032D0003B01912C812C861497040CF0A0C01A821B
:1032E00019821C821B821E821D8250E040E069EC24
:1032F00071E0CE0101960E94E313CE01885A9F4FE0
:103300000E94140F97FD40C08A309105E9F18E8F1D
:103310001F8E0D811E810F5F1F4FB801CE010196D8
:103320000E94BB13882349F329813A818D819E81B4
:10333000BE01625E7F4F820F931F0E948A1E1E8312
:103340000D83DBCF49EA51E0BE01655C7F4FCE01C2
:103350004E960E943B12882309F47BCFCE01CB9678
:103360000E94610ABE01625E7F4FCE0101960E94FB
:103370002E0D49EA51E0BE016F5F7F4FCE01885AA2
:103380009F4F0E940E1480CFC158DF4F88819981D2
:10339000CF57D040009731F169817A81611571056D
:1033A000F9F0CF57DF4F48815981C158D0402D8166
:1033B0003E8142175307A0F00E948A1E8D819E8194
:1033C000CD57DF4F99838883C358D0401E821D821A
:1033D000CE0101960E941D139FEF891A990A7BCF97
:1033E0000E942E1D89819A81C158DF4F998388835D
:1033F000CF57D0408B819C81CF57DF4F99838883F3
:10340000C158D0408D819E81CD57DF4F99838883ED
:10341000C358D0401A8219821C821B82D7CFF50173
:1034200022813381808191812115310529F0F901B3
:1034300068167906A9F733CF6816790609F42FCFF5
:103440008501A114B10409F06DC084E090E00E94F0
:10345000921C5C01DC0113961C921E9212976D92D5
:103460007C921F8E1E8E19A218A21BA21AA2C158EE
:10347000DF4F68817981CF57D0406115710551F0D8
:10348000CD57DF4F48815981C358D040CE014E9669
:103490000E94E313CE018D589F4F0E943511412C9D
:1034A00010E000E00E943E110097E1F382FFE1C0CE
:1034B0004801FFEF8F1A9F0A442009F451C01A8275
:1034C00019821C821B821E821D826E8D7F8D61156A
:1034D000710531F04AA15BA1CE0101960E94E31370
:1034E000F101E00FF11F8081882381F16AEC71E026
:1034F000CE018D589F4F0E94B913CE0101960E94B4
:103500001D138401412C57C063EB71E083EC94E000
:103510000E94251367EC71E083EC94E00E94251370
:103520008FCF8C01F801828193810097D1F784E0DD
:1035300090E00E94921CDC0113961C921E9212973E
:103540006D927C92F801938382838BCF4D815E8153
:1035500069817A81CE018D589F4F0E94BC01CDCFE9
:10356000CE018D589F4F0E942C1240E060E0CE01AA
:103570008D589F4F0E94FC1160ED71E0CE018D5877
:103580009F4F0E94B91340E06BE0CE018D589F4FD2
:103590000E94FC11A401990C660B770BCE018D588B
:1035A0009F4F0E94341341E060E0CE018D589F4F41
:1035B0000E94FC11452C6AED71E083EC94E00E94BE
:1035C000B913A801012E000C660B770B83EC94E075
:1035D0000E94341367EC71E083EC94E00E942513A1
:1035E00064EF71E080E090E00E947B010E151F0502
:1035F0000CF458CF64EF71E080E090E00E947B0112
:10360000CE014E960E941D1364EF71E080E090E0C1
:103610000E947B01CE018D589F4F0E942C12CE013B
:103620008D589F4F0E9435116FED71E0CE018D587E
:103630009F4F0E94B91341E060E0CE018D589F4F2B
:103640000E94FC116CEE71E0CE018D589F4F0E94DC
:10365000B9130E943E1182FFFCCF64EF71E080E05D
:1036600090E00E947B01CE018D589F4F0E942C124A
:1036700091CD83FFA0CF0115110509F49CCFCE0198
:103680008D589F4F0E942C120130110519F00250E5
:10369000110938CF412C10E000E08DCF8F929F921E
:1036A000AF92BF92CF92DF92EF92FF92CF93DF93D0
:1036B000EC01688179818A819B81611571058105A1
:1036C000910521F464E279ED8BE597E02DE133EF8C
:1036D00041E050E00E94F21B49015A019B01AC01FC
:1036E000A7EAB1E40E94111C6B017C01ACEEB4EFBF
:1036F000A50194010E941F1CC60ED71EE81EF91ECC
:10370000F7FE06C081E0C81AD108E10880E8F80A8F
:10371000C882D982EA82FB82C701B6019F77DF9116
:10372000CF91FF90EF90DF90CF90BF90AF909F90A0
:103730008F9008958F929F92AF92BF92CF92DF9217
:10374000EF92FF9260910401709105018091060152
:1037500090910701611571058105910521F464E2DD
:1037600079ED8BE597E02DE133EF41E050E00E94E9
:10377000F21B49015A019B01AC01A7EAB1E40E9486
:10378000111C6B017C01ACEEB4EFA50194010E9409
:103790001F1CC60ED71EE81EF91EF7FE06C081E0EC
:1037A000C81AD108E10880E8F80AC0920401D09252
:1037B0000501E0920601F0920701C701B6019F776B
:1037C000FF90EF90DF90CF90BF90AF909F908F9041
:1037D000089560930401709305018093060190930E
:1037E00007010895052E97FB1EF400940E94091C02
:1037F00057FD07D00E945B1C07FC03D04EF40C94CD
:10380000091C50954095309521953F4F4F4F5F4F84
:10381000089590958095709561957F4F8F4F9F4F3C
:1038200008950E947D1CA59F900DB49F900DA49FAC
:10383000800D911D11240895B7FF0C94111C0E9456
:10384000111C821B930B08952F923F924F925F920F
:103850006F927F928F929F92AF92BF92CF92DF92A0
:10386000EF92FF920F931F93CF93DF93CDB7DEB705
:10387000CA1BDB0B0FB6F894DEBF0FBECDBF099499
:103880002A88398848885F846E847D848C849B84F0
:10389000AA84B984C884DF80EE80FD800C811B81FE
:1038A000AA81B981CE0FD11D0FB6F894DEBF0FBE2D
:1038B000CDBFED010895A1E21A2EAA1BBB1BFD018D
:1038C0000DC0AA1FBB1FEE1FFF1FA217B307E407FF
:1038D000F50720F0A21BB30BE40BF50B661F771F57
:1038E000881F991F1A9469F7609570958095909537
:1038F0009B01AC01BD01CF010895A29FB001B39F10
:10390000C001A39F700D811D1124911DB29F700DE8
:10391000811D1124911D0895EE0FFF1F0590F49154
:10392000E02D09940F931F93CF93DF93823091057D
:1039300010F482E090E0E091B905F091BA0530E032
:1039400020E0B0E0A0E0309799F42115310509F4AA
:103950004AC0281B390B24303105D8F58A819B8158
:103960006115710589F1FB0193838283FE0111C00A
:10397000408151810281138148175907E0F04817AF
:10398000590799F4109761F012960C9312971396B9
:103990001C933296CF01DF91CF911F910F91089523
:1039A0000093B9051093BA05F4CF2115310551F0F4
:1039B0004217530738F0A901DB019A01BD01DF016D
:1039C000F801C1CFEF01F9CF9093BA058093B90503
:1039D000CDCFFE01E20FF31F819391932250310965
:1039E00039832883D7CF2091B7053091B805232B91
:1039F00041F420910A0130910B013093B8052093D6
:103A0000B70520910801309109012115310541F4D4
:103A10002DB73EB740910C0150910D01241B350B81
:103A2000E091B705F091B805E217F307A0F42E1B5B
:103A30003F0B2817390778F0AC014E5F5F4F241712
:103A4000350748F04E0F5F1F5093B8054093B705F8
:103A5000819391939FCFF0E0E0E09CCFCF93DF93F1
:103A60000097E9F0FC01329713821282A091B90508
:103A7000B091BA05ED0130E020E01097A1F420816B
:103A80003181820F931F2091B7053091B805281717
:103A9000390709F061C0F093B805E093B705DF91ED
:103AA000CF910895EA01CE17DF07E8F54A815B81DF
:103AB0009E0141155105B1F7E901FB83EA83499164
:103AC0005991C40FD51FEC17FD0761F480819181D6
:103AD0000296840F951FE9019983888382819381DF
:103AE0009B838A83F0E0E0E012968D919C9113977E
:103AF0000097B9F52D913C911197CD010296820F57
:103B0000931F2091B7053091B8052817390739F66A
:103B1000309751F51092BA051092B905B093B805D7
:103B2000A093B705BCCFD383C28340815181840F5A
:103B3000951FC817D90761F44E5F5F4F888199813F
:103B4000480F591F518340838A819B8193838283CD
:103B50002115310509F0B0CFF093BA05E093B9050E
:103B60009ECFFD01DC01C0CF13821282D7CFB0E01F
:103B7000A0E0EDEBFDE10C94261C8C01009751F4C4
:103B8000CB010E94921C8C01C801CDB7DEB7E0E1E9
:103B90000C94421CFC01E60FF71F9C0122503109D6
:103BA000E217F30708F49DC0D901CD91DC9111977C
:103BB000C617D70798F0C530D10530F3CE0104976A
:103BC0008617970708F3C61BD70B2297C193D1938B
:103BD0006D937C93CF010E942E1DD6CF5B01AC1A52
:103BE000BD0A4C018C0E9D1EA091B905B091BA057D
:103BF000512C412CF12CE12C109731F58091B70517
:103C00009091B8058815990509F05CC046165706CD
:103C100008F058C08091080190910901009741F483
:103C20008DB79EB740910C0150910D01841B950BEF
:103C3000E817F90708F055C0F093B805E093B70509
:103C4000F90171836083A0CF8D919C911197129699
:103C50006C90129713967C901397A815B90559F597
:103C60006C0142E0C40ED11CCA14DB0420F1AC018B
:103C70004A195B09DA011296159780F06282738205
:103C800051834083D9016D937C93E114F10471F069
:103C9000D7011396FC93EE93129776CF22968C0F52
:103CA0009D1FF90191838083F301EFCFF093BA0553
:103CB000E093B90569CF4816590608F42C017D0137
:103CC000D3019ACFCB010E94921C7C01009749F04E
:103CD000AE01B8010E94811EC8010E942E1D8701FD
:103CE00053CF10E000E050CFFB01DC0104C08D9108
:103CF0000190801921F441505040C8F7881B990B5E
:103D00000895FB01DC0102C001900D92415050402A
:103D1000D8F70895FB01DC0101900D920020E1F736
:103D20000895FB01DC014150504048F001900D9294
:103D30000020C9F701C01D9241505040E0F708959E
:103D4000F894FFCFFFFFFFFF010000000000BB055C
:103D500080000000400014005400000000003512F4
:103D6000BC013B11BB0100000000D40DB70DA70D35
:103D70007E0D870D0A0F3E0F000000005C02BC01A3
:103D8000E901A9021A02F8010C02000000001D0D51
:103D9000BC01030ABB01000000001F10F20F3B1121
:103DA000C80FEB0FD80FC90F50726573696F6E6142
:103DB00072006375616C717569657220626F746FF2
:103DC0006E004A756761646F7265733A004573707F
:103DD0006961733A004661696C656420696E697453
:103DE00069616C697A696E672053440A006E6F7569
:103DF0006E732E7478740046696C65206F70656E02
:103E0000696E67206661696C6564000D0A00457320
:103E1000706961004A756761646F723A20006920B9
:103E20003D200070726573696F6E6172202D3E00D7
:0A3E300070617261206F747261000E
:107E0000112484B714BE81FFF0D085E080938100F7
:107E100082E08093C00088E18093C10086E0809377
:107E2000C20080E18093C4008EE0C9D0259A86E02C
:107E300020E33CEF91E0309385002093840096BBD3
:107E4000B09BFECF1D9AA8958150A9F7CC24DD24C4
:107E500088248394B5E0AB2EA1E19A2EF3E0BF2EE7
:107E6000A2D0813461F49FD0082FAFD0023811F036
:107E7000013811F484E001C083E08DD089C08234E0
:107E800011F484E103C0853419F485E0A6D080C0E4
:107E9000853579F488D0E82EFF2485D0082F10E0AE
:107EA000102F00270E291F29000F111F8ED06801E7
:107EB0006FC0863521F484E090D080E0DECF843638
:107EC00009F040C070D06FD0082F6DD080E0C81688
:107ED00080E7D80618F4F601B7BEE895C0E0D1E017
:107EE00062D089930C17E1F7F0E0CF16F0E7DF06D8
:107EF00018F0F601B7BEE89568D007B600FCFDCFD4
:107F0000A601A0E0B1E02C9130E011968C91119780
:107F100090E0982F8827822B932B1296FA010C0160
:107F200087BEE89511244E5F5F4FF1E0A038BF0790
:107F300051F7F601A7BEE89507B600FCFDCF97BE46
:107F4000E89526C08437B1F42ED02DD0F82E2BD052
:107F50003CD0F601EF2C8F010F5F1F4F84911BD097
:107F6000EA94F801C1F70894C11CD11CFA94CF0C13
:107F7000D11C0EC0853739F428D08EE10CD085E9AC
:107F80000AD08FE07ACF813511F488E018D01DD067
:107F900080E101D065CF982F8091C00085FFFCCF94
:107FA0009093C60008958091C00087FFFCCF809118
:107FB000C00084FD01C0A8958091C6000895E0E648
:107FC000F0E098E1908380830895EDDF803219F02E
:107FD00088E0F5DFFFCF84E1DECF1F93182FE3DFCA
:107FE0001150E9F7F2DF1F91089580E0E8DFEE27F6
:047FF000FF270994CA
:027FFE00040479
:00000001FF
