:100000000C946A000C9492000C9492000C94920050
:100010000C9492000C9492000C9492000C94920018
:100020000C9492000C9492000C9492000C94920008
:100030000C9492000C9492000C9492000C949200F8
:100040000C94A5170C9492000C9415180C94EF17AF
:100050000C9492000C9492000C9492000C949200D8
:100060000C9447180C949200000000002400270014
:100070002A0000000000250028002B0000000000DE
:1000800023002600290004040404040404040202DA
:100090000202020203030303030301020408102007
:1000A0004080010204081020010204081020000012
:1000B0000008000201000003040700000000000027
:1000C00000007C3C3E5E2B3D3F2F5B5D3B2C2A229B
:1000D0005C00661911241FBECFEFD8E0DEBFCDBF94
:1000E00012E0A0E0B1E0E0E2F4E402C005900D927D
:1000F000A438B107D9F726E0A4E8B2E001C01D9208
:10010000A934B207E1F710E0CAE6D0E004C02197B5
:10011000FE010E94CC1FC936D107C9F70E94BA1947
:100120000C940E220C940000833081F028F481306E
:1001300099F08230A9F008958730A9F08830C9F08D
:100140008430B1F4809180008F7D03C08091800065
:100150008F7780938000089584B58F7784BD08954C
:1001600084B58F7DFBCF8091B0008F778093B000F6
:1001700008958091B0008F7DF9CFCF93DF93282F22
:1001800030E0F901E255FF4F8491F901E656FF4F47
:10019000D491F901EA57FF4FC491CC23A1F081110A
:1001A0000E949400EC2FF0E0EE0FFF1FE458FF4F89
:1001B000A591B491EC91ED2381E090E009F480E009
:1001C000DF91CF91089580E090E0FACF1F93CF9315
:1001D000DF93282F30E0F901E255FF4F8491F901B8
:1001E000E656FF4FD491F901EA57FF4FC491CC2353
:1001F000A9F0162F81110E949400EC2FF0E0EE0F71
:10020000FF1FEE58FF4FA591B4918FB7F894EC9172
:10021000111108C0D095DE23DC938FBFDF91CF9101
:100220001F910895DE2BF8CFCF93DF9390E0FC0170
:10023000E656FF4F24918A579F4FFC0184918823F3
:10024000D1F090E0880F991FFC01E859FF4FA5916C
:10025000B491FC01EE58FF4FC591D49161110EC0CD
:100260009FB7F8948C91E22FE0958E238C93288190
:10027000E223E8839FBFDF91CF9108958FB7F89471
:10028000EC91E22BEC938FBFF6CF3FB7F8948091BF
:100290004A0390914B03A0914C03B0914D0326B5B6
:1002A000A89B05C02F3F19F00196A11DB11D3FBFAE
:1002B000BA2FA92F982F8827BC01CD01620F711D7D
:1002C000811D911D42E0660F771F881F991F4A9577
:1002D000D1F708958F929F92AF92BF92CF92DF9203
:1002E000EF92FF924B015C010E9445016B017C0182
:1002F0000E9445016C197D098E099F09683E734073
:1003000081059105A8F321E0821A9108A108B1089E
:1003100088EEC80E83E0D81EE11CF11C8114910404
:10032000A104B10429F7FF90EF90DF90CF90BF9028
:10033000AF909F908F9008952FB7F89460914603E7
:100340007091470380914803909149032FBF08950E
:100350000895AF92BF92CF92DF92EF92FF920F93E8
:100360001F93CF93DF936C017B018B01040F151F4B
:10037000EB015E01AE18BF08C017D10759F06991B3
:10038000D601ED91FC910190F081E02DC601099517
:10039000892B79F7C501DF91CF911F910F91FF90C4
:1003A000EF90DF90CF90BF90AF900895FC01538DF8
:1003B000448D252F30E0842F90E0821B930B54173F
:1003C00010F0CF96089501970895FC01918D828DCC
:1003D000981761F0A28DAE0FBF2FB11D5D968C9165
:1003E000928D9F5F9F73928F90E008958FEF9FEFA4
:1003F0000895FC01918D828D981731F0828DE80F60
:10040000F11D858D90E008958FEF9FEF0895FC0119
:10041000918D228D892F90E0805C9F4F821B9109E6
:100420008F739927089581E595E00E94070221E0E6
:10043000892B09F420E0822F089580E090E0892B39
:1004400029F00E94130281110C9400000895FC0110
:10045000A48DA80FB92FB11DA35ABF4F2C91848D25
:1004600090E001968F739927848FA689B7892C9382
:10047000A089B1898C91837080648C93938D848DD5
:10048000981306C00288F389E02D80818F7D8083D8
:100490000895EF92FF920F931F93CF93DF93EC0198
:1004A00081E0888F9B8D8C8D98131AC0E889F9891B
:1004B000808185FF15C09FB7F894EE89FF8960831E
:1004C000E889F98980818370806480839FBF81E09F
:1004D00090E0DF91CF911F910F91FF90EF900895E1
:1004E000F62E0B8D10E00F5F1F4F0F731127E02EBC
:1004F0008C8D8E110CC00FB607FCFACFE889F989F4
:10050000808185FFF5CFCE010E942702F1CFEB8DD0
:10051000EC0FFD2FF11DE35AFF4FF0829FB7F894C7
:100520000B8FEA89FB8980818062CFCFCF93DF93E5
:10053000EC01888D8823B9F0AA89BB89E889F989FB
:100540008C9185FD03C0808186FD0DC00FB607FC30
:10055000F7CF8C9185FFF2CF808185FFEDCFCE0163
:100560000E942702E9CFDF91CF9108958FB7F894C9
:10057000809140038FBF089561E0FC0184810E9457
:10058000E60080913F03811110923F0308958EBDD4
:1005900000000DB407FEFDCF8EB508958FEF0C94CB
:1005A000C7020F931F93CF93DF93EC010E949C012E
:1005B0008B010E94CE028F3F69F00E949C01601B5C
:1005C000710B6C177D07A8F380E0DF91CF911F912D
:1005D0000F91089581E0F9CF8CBD9DBD0895CF9313
:1005E000DF93EC0180913F03811109C081E080938A
:1005F0003F038091EE059091EF050E94EC0260E0D0
:100600008C81DF91CF910C94E6008F929F92AF92F4
:10061000BF92FF920F931F93CF93DF93EC01F62EBF
:1006200049015A018E81882389F08F8198859C0128
:100630002F5F3F4F38872F838230924018F40E94FB
:10064000CE02F3CFCE010E94BC021E82CE010E94D8
:10065000EF028CE291E00E94D1028F2D80640E9413
:10066000C70208E110E0D501C401002E04C0B69510
:10067000A795979587950A94D2F70E94C7020850CC
:100680001109083F8FEF180771F785E9FF2021F066
:1006900028E087E8F2128FEF0E94C70210E00E9464
:1006A000CE028A8787FF04C01F3F11F01F5FF7CF7C
:1006B000DF91CF911F910F91FF90BF90AF909F90CE
:1006C0008F900895AF92BF92CF92DF92EF92FF92F8
:1006D0000F931F93CF93DF93EC016901C801820F41
:1006E000931F8130924050F58E81882379F0888164
:1006F0009981AA81BB8184179507A607B70731F4B2
:100700008F819885C816D90608F042C0488359835E
:100710006A837B838B85833039F089E0440F551FD2
:10072000661F771F8A95D1F79A01AB0161E1CE016F
:100730000E940503882389F083E08D83CE010E9407
:10074000BC0280E0DF91CF911F910F91FF90EF905D
:10075000DF90CF90BF90AF9008950E949C015B0105
:100760000E94CE028A878F3F69F40E949C016A1919
:100770007B096D327140A0F38FE08D83CE010E9422
:10078000BC02DCCF8E3F89F418861F8281E08E8305
:100790008F8198858C159D0550F40E94CE028F8123
:1007A0009885019698878F83F3CF8DE0E6CF670118
:1007B000E00EF11E0E94CE02F60181936F01EE154C
:1007C000FF05C1F78F819885080F191F18870F83C0
:1007D0008985882319F001151240A0F08E818823A5
:1007E00089F08F8198859C012F5F3F4F38872F8339
:1007F0008230924018F40E94CE02F3CFCE010E94C4
:10080000BC021E8281E09ECFCF92DF92EF92FF92D8
:100810000F93CF93DF93EC01690182E141155105FC
:100820006105710599F08B85833039F089E0440FBB
:10083000551F661F771F8A95D1F79A01AB0168E1B2
:10084000CE010E940503882319F084E08D832DC01A
:100850008EEF0E94C70276018EEFD81AF7018191C0
:100860007F010E94C702EC14FD04C1F78FEF0E94C4
:10087000C7028FEF0E94C7020E94CE028A878F7143
:10088000853071F4011116C0CE010E94BC0281E0D6
:10089000DF91CF910F91FF90EF90DF90CF9008956F
:1008A00081E18D83CE010E94BC02CE010E94BC0278
:1008B00080E0EECF88E592E00E94D102811102C073
:1008C00085E1C4CF20E030E0A9016DE0CE010E94B7
:1008D0000503882311F084E1B9CF0E94CE02811173
:1008E000FACFD2CF0F9340914103509142036091D0
:1008F000430370914403411551056105710599F059
:10090000082F21E533E080914E0390914F030E9420
:100910000404882349F0109241031092420310927C
:1009200043031092440381E00F9108950F93CF93F6
:10093000C82F80915003811105C0C1E08C2FCF9149
:100940000F910895409100015091010160910201C1
:10095000709103010C2F21E533E080914E039091BB
:100960004F030E940404811102C0C0E0E7CFCC23F2
:1009700021F381E00E9472048823B9F3109250039E
:10098000DDCF8F929F92AF92BF92EF92FF920F9323
:100990001F93CF934B015C01C42F80910001909174
:1009A0000101A0910201B091030188159905AA05E2
:1009B000BB0551F181E00E94960481110BC080E0DB
:1009C000CF911F910F91FF90EF90BF90AF909F90AC
:1009D0008F90089581E5E82E83E0F82E00E012E084
:1009E00030E020E0B501A40180914E0390914F03C7
:1009F0000E946203882319F3809200019092010102
:100A0000A0920201B0920301409150034C2B4093FD
:100A1000500381E0D5CF8F929F92AF92BF92CF9239
:100A2000DF92EF92FF92CF9320EF35E030934F03A8
:100A300020934E03882309F46DC040E060E070E02D
:100A4000CB010E94C10481110BC080E0CF91FF90C7
:100A5000EF90DF90CF90BF90AF909F908F900895D0
:100A600080910F058F7789F780911B0590911C0568
:100A7000A0911D05B0911E0584369105A105B10513
:100A800020F3C0901705D0901805E0901905F0905C
:100A90001A05C114D104E104F104B9F240E0C70120
:100AA000B6010E94C104882381F280915C03909179
:100AB0005D038115924049F6A0916103AA2329F2B2
:100AC00060915F03709160036115710509F4BDCFFA
:100AD00020915E03222309F4B8CFA0930E06209341
:100AE000000690E080E030E0E1E0F0E0C82FAF01E8
:100AF000082E02C0440F551F0A94E2F72417350749
:100B000069F041E0480F01968930910579F74093EB
:100B100009069BCFC12CD12C7601C0CF809309064A
:100B2000209167033091680350E040E021153105C2
:100B300041F42091750330917603409177035091F1
:100B400078032093010630930206409303065093E6
:100B5000040646015701860E971EA11CB11C809207
:100B60000F0690921006A0921106B0921206E09124
:100B70006203F0916303F0931506E0931406B0E06E
:100B80000E94511FDC01CB01880D991DAA1DBB1DC0
:100B90008093160690931706A0931806B093190633
:100BA00025E0EE0FFF1F2A95E1F7E150FE4FEF2FF2
:100BB000FF27E6958E0F9F1FA11DB11D80930A068A
:100BC00090930B06A0930C06B0930D0680906403DF
:100BD00090906503B12CA12C8114910441F4809074
:100BE000710390907203A0907303B0907403C81ABD
:100BF000D90AEA0AFB0AC80CD91CEA1CFB1C04C06F
:100C0000F694E794D794C794CA95D2F7C092050694
:100C1000D0920606E0920706F092080685EFC81605
:100C20008FE0D806E104F10428F48CE080931306E9
:100C300081E00CCF80E125EFC2162FEFD206E10450
:100C4000F104A0F380917D0390917E03A0917F0336
:100C5000B09180038093160690931706A093180610
:100C6000B093190680E2E2CF4F925F926F927F922B
:100C70008F929F92AF92BF92CF92DF92EF92FF92AC
:100C80000F931F93CF93DF93EC0142305105610521
:100C9000710590F480E0DF91CF911F910F91FF904B
:100CA000EF90DF90CF90BF90AF909F908F907F900C
:100CB0006F905F904F90089589859A85AB85BC852C
:100CC0000196A11DB11D84179507A607B70710F35C
:100CD000CB88DC88ED88FE888F89803109F042C09E
:100CE000BB27A72F962F852F480159012A013B01C9
:100CF000C80ED91EEA1EFB1E8091000190910101D1
:100D0000A0910201B0910301C816D906EA06FB06BC
:100D100099F58F898031C1F5B301A2015527662766
:100D20007727440F551F4F5A5C4FFA0191828082FA
:100D3000809150038160809350038A89823080F0D3
:100D40008D819E81AF81B8858C0D9D1DAE1DBF1D0F
:100D50008093410390934203A0934303B0934403D1
:100D600081E099CFDB01CA01E7E0B695A795979599
:100D70008795EA95D1F7B8CF40E0C701B6010E9448
:100D8000C1048111C6CF86CFB301A2014F77552789
:100D900066277727440F551F440F551F4F5A5C4F46
:100DA000FA0180829182A282B382C2CF8F929F92F7
:100DB000AF92BF92CF92DF92EF92FF920F931F9369
:100DC000CF93DF93FC0181859285A385B48501963D
:100DD000A11DB11D84179507A607B70770F480E021
:100DE000DF91CF911F910F91FF90EF90DF90CF9007
:100DF000BF90AF909F908F90089583889488A58826
:100E0000B6888789803189F5BB27A72F962F852F34
:100E1000E9016A017B018F01BC01CD01680D791DDB
:100E20008A1D9B1D8090000190900101A0900201FD
:100E3000B090030186169706A806B90601F5F801D9
:100E40008789803111F5DD24EE24FF24F601EE0FB1
:100E5000FF1FEF5AFC4F80819181B0E0A0E08883B2
:100E60009983AA83BB8381E0BBCFDB01CA01C7E0C2
:100E7000B695A79597958795CA95D1F7C9CF40E0C4
:100E80000E94C1048111DBCFAACFE894C7F8DD240A
:100E9000EE24FF24F601EE0FFF1FEE0FFF1FEF5AA7
:100EA000FC4F80819181A281B381BF70D8CF4F92D6
:100EB0005F926F927F92AF92BF92CF92DF92EF924A
:100EC000FF920F931F93CF93DF9300D000D0CDB745
:100ED000DEB78C0149835A836B837C835901C12C13
:100EE000D12C7601412C82E0582E612C712C498145
:100EF0005A816B817C819E012F5F3F4FC8010E9408
:100F0000D606882339F1F8018585A301920104C032
:100F1000220F331F441F551F8A95D2F7DA01C901EA
:100F2000C80ED91EEA1EFB1E49815A816B817C8145
:100F30008789803111F188EF9FEFAFEFBFE048174D
:100F400059076A077B0798F2F501C082D182E282D5
:100F5000F38281E00F900F900F900F90DF91CF916F
:100F60001F910F91FF90EF90DF90CF90BF90AF90C7
:100F70007F906F905F904F90089588EF9FEFA0E073
:100F8000B0E0DDCFCF93DF93FC012581222321F058
:100F900080E0DF91CF910895EC01809113068031BC
:100FA00059F582E08583178A108E118E128E8091FA
:100FB000140690911506B0E0A0E025E0880F991F77
:100FC000AA1FBB1F2A95D1F7838B948BA58BB68B59
:100FD0008CEF95E09C8F8B8F81E08C831E821F822B
:100FE000188619861A861B861C861D861E861F86F5
:100FF000188A198A1A8ACDCF803251F683E0858308
:1010000040911606509117066091180670911906C6
:10101000478B508F618F728F9F012D5E3F4F8CEFFA
:1010200095E00E9457078111D3CFB2CF8F929F9244
:10103000AF92BF92CF92DF92EF92FF920F931F93E6
:10104000CF93DF93EC018D8181110EC080E0DF91A1
:10105000CF911F910F91FF90EF90DF90CF90BF90B5
:10106000AF909F908F9008950B891C892D893E89A0
:10107000041715072607370748F34A015B0182303A
:1010800031F48A869B86AC86BD8681E0E0CF8114F0
:101090009104A104B10449F41E821F8218861986A6
:1010A0001A861B861C861D86F0CF0A851B852C851B
:1010B0003D85EB8DFC8D858590E00996B901A801F1
:1010C0004150510961097109082E04C07695679550
:1010D000579547950A94D2F775016401E1E0CE1A5D
:1010E000D108E108F10804C0F694E794D794C794B6
:1010F0008A95D2F7C416D506E606F70620F0012B2E
:10110000022B032B11F58F89988DA98DBA8D8E83B3
:101110009F83A887B9878E010A5F1F4FC114D1042E
:10112000E104F10409F4ADCF4E815F8168857985D2
:1011300098018B8D9C8D0E94D60691E0C91AD1082A
:10114000E108F1088111EACF81CFC41AD50AE60A75
:10115000F70AE1CF3F924F925F926F927F928F9208
:101160009F92AF92BF92CF92DF92EF92FF920F9336
:101170001F93CF93DF93CDB7DEB72C970FB6F894BC
:10118000DEBF0FBECDBF5C01DC015B968D909C90F5
:101190005C9716964D905D906D907C9019974114D8
:1011A00051046104710409F468C0BFEF4B1A5B0A73
:1011B0006B0A7B0A312CF40181859285A385B48565
:1011C0009C01AD012F5F3F4F4F4F5F4F29873A87FB
:1011D0004B875C87730162011D821E821F82188605
:1011E000F40181859285A385B4852D813E814F814F
:1011F0005885281739074A075B0708F056C08985C4
:101200009A85AB85BC858C159D05AE05BF0550F450
:1012100082E0C82ED12CE12CF12C92E0492E512CE9
:10122000612C712C9E012F5F3F4FB701A601C401B5
:101230000E94D6068823C9F189819A81AB81BC813D
:10124000892B8A2B8B2B09F1260137019FEF491A35
:10125000590A690A790A2D813E814F8158852F5F8D
:101260003F4F4F4F5F4F2D833E834F8358873FEF54
:10127000C31AD30AE30AF30AB3CFF40140805180C2
:10128000628073803324339496CFC414D504E6046B
:10129000F70409F70FEF1FEF2FEF3FE0B701A601AB
:1012A000C4010E943406811119C080E02C960FB64B
:1012B000F894DEBF0FBECDBFDF91CF911F910F918C
:1012C000FF90EF90DF90CF90BF90AF909F908F9066
:1012D0007F906F905F904F903F900895D501169644
:1012E0004D915D916D917C91199741155105610565
:1012F000710539F097018601C4010E9434068823E4
:10130000A1F2D5011696CD92DD92ED92FC9219973D
:10131000332051F0D701C6010196A11DB11DF40182
:1013200080839183A283B383F5018789908DA18DFA
:10133000B28D892B8A2B8B2B39F48481C78AD08E6E
:10134000E18EF28E80688483F501848180628483DB
:1013500081E0ACCF1F93CF93DF93FC012581222343
:10136000D1F1162FEC01848187FF2AC0668577852D
:101370008089918941E00E94C104882361F1EA8952
:1013800080E2E89FF0011124EF5AFC4F309719F1E9
:101390008D81823040F48B899C89AD89BE89848F90
:1013A000958FA68FB78F8F89988D938F828F8F8916
:1013B000988DA98DBA8DB58BA48B8C818F778C83FA
:1013C000111103C08C818F7E8C83812FDF91CF918F
:1013D0001F910C94960480E0DF91CF911F910895A6
:1013E000FF920F931F93CF93DF93EC018D81813098
:1013F00041F090E080E0DF91CF911F910F91FF903D
:1014000008958C8181FFF5CF82FD1BC000914E03B2
:1014100010914F03C8010E94EF020E94CE02F82EE5
:10142000C8010E94BC028FEFF812E3CF8C8185FFC8
:101430001BC060E0CE010E94AA098C818F7D8C8345
:10144000D8CF4B895C896D897E898A859B85AC85DF
:10145000BD8584179507A607B707C1F2CE010E9484
:1014600016088111D3CFC5CF40914103509142035B
:101470006091430370914403452B462B472B21F089
:1014800080E00E947204B5CF80618C832A853B8501
:10149000317080E092E0821B930BADCFCF93DF934E
:1014A000EC0161E00E94AA09882311F01D8281E00D
:1014B000DF91CF9108952F923F924F925F926F925A
:1014C0007F928F929F92AF92BF92CF92DF92EF92D4
:1014D000FF920F931F93CF93DF9300D000D01F9202
:1014E000CDB7DEB77C015B01342E5D83DC01159640
:1014F0008C911597813009F0CEC014962C9021FE66
:10150000CAC022FCB4C0C32CDD8022947FE0272215
:101510002094B22DB1702B2ED7011A964D915D916A
:101520006D917C911D97C114D10409F428C15B967B
:101530008D919C915C97FC0174807A948A019B0147
:1015400069E036952795179507956A95D1F770222A
:101550008A011170711020C001151105E9F4169669
:101560004D915D916D917C911997411551056105E2
:10157000710509F099C057968D919D910D90BC9180
:10158000A02D0097A105B10509F0B0C0C7010E94C8
:10159000AA08882309F47FC080E092E0801B910BA9
:1015A00046018C159D0508F44C01D7015B964D91C1
:1015B0005C915C9716968D919D910D90BC91A02D9C
:1015C0000297A109B109FA01258504C0880F991F66
:1015D000AA1FBB1F2A95D2F7468557856089718956
:1015E000840F951FA61FB71F9C01AD01270D311D4C
:1015F000411D511D29013A01811432E0930609F081
:101600007BC08091000190910101A0910201B091F5
:10161000030184159505A605B70559F48FEF9FEFD3
:10162000DC018093000190930101A0930201B0932B
:101630000301022D9501B301A20180914E03909107
:101640004F030E940404882331F19EEFB91AC81891
:10165000D908F70182859385A485B585880D991DE4
:10166000A11DB11D82879387A487B58755CFF70148
:10167000438954896589768982859385A485B58552
:10168000481759076A077B0709F43DCFC7010E9435
:101690001608811138CF81E090E0D70113969C9312
:1016A0008E93129780E007C09E012F5F3F4F0E94EC
:1016B000D606811102C090E079C089819A81AB8100
:1016C000BC81F701238D348DF901278948EF5FEF45
:1016D00060E070E0203121F048EF5FEF6FEF7FE0D6
:1016E00084179507A607B70708F050CFF701868340
:1016F0009783A087B18750CF0115110599F5D701C0
:101700001A964D915D916D917C911D9753968D9197
:101710009D910D90BC91A02D481759076A077B0732
:1017200008F181E00E949604882309F4B4CF409226
:1017300000015092010160920201709203018091B8
:101740005003816080935003C8018F5A9C4FD5018C
:101750009C01280D391DFC012E173F0759F04D91B2
:101760004193FACF41E0C301B2010E94C10481114B
:10177000EBCF91CF281B390BA20EB31E68CFF70118
:1017800083899489A589B68984179507A607B70721
:1017900038F48481438B548B658B768B806884838B
:1017A000F701848183FD1AC0832D9D810F900F90D6
:1017B0000F900F900F90DF91CF911F910F91FF909D
:1017C000EF90DF90CF90BF90AF909F908F907F90E1
:1017D0006F905F904F903F902F90089561E0C70108
:1017E0000E94AA09882309F456CFDECFCF93DF9356
:1017F0001F92CDB7DEB7698341E050E0BE016F5F55
:101800007F4F0E945B0A0F90DF91CF910895FC01FA
:10181000DB0112968D919C911397938382838AE4C6
:1018200091E09183808314968C911497848315960C
:101830008C911597858316964D915D916D917C9154
:10184000199746835783608771871A964D915D91EA
:101850006D917C911D9742875387648775871E968B
:101860004D915D916D917C91519746875787608B23
:10187000718B52968C915297828B53964D915D91BC
:101880006D917C915697438B548B658B768B5796D5
:101890004D915D916D917C915A97478B508F618FDF
:1018A000728F5B968D919C91948F838F0895FC012C
:1018B000818D928D009719F061E00C94AA0908952A
:1018C000DC015996ED91FC913097B9F083899489A8
:1018D000A589B6894285538564857585841B950BDA
:1018E000A60BB70B811520E89207A105B10538F0CA
:1018F0008FEF9FE7A0E0B0E0089590E080E00895CA
:10190000DC0159968D919C91009739F0DC01ED91A5
:10191000FC910480F581E02D099490E080E0089529
:10192000CF93DF93EC01E98DFA8D309749F481E094
:1019300090E09B838A8390E080E0DF91CF910895CF
:1019400013821282898D9A8D0E945B0AE98DFA8D2D
:1019500022813381232B59F7F0CFCF93DF931F924E
:10196000CDB7DEB76983DC01ED91FC910280F38194
:10197000E02D41E050E0BE016F5F7F4F09950F9071
:10198000DF91CF9108952F923F924F925F926F9285
:101990007F928F929F92AF92BF92CF92DF92EF92FF
:1019A000FF920F931F93CF93DF9300D01F92CDB779
:1019B000DEB7FC018581811118C08FEF9FEF0F907A
:1019C0000F900F90DF91CF911F910F91FF90EF90AB
:1019D000DF90CF90BF90AF909F908F907F906F904F
:1019E0005F904F903F902F900895848180FFE5CFC6
:1019F000438954896589768982859385A485B585CF
:101A0000312C212C481759076A077B0719F022242B
:101A10002394312C6F012101CE0101963C01DF019D
:101A20001696BB83AA834114510409F4C5C0F6017C
:101A300042855385648575854A01F1E09F22D60170
:101A40005B968D919C915C978A019B01E9E03695AC
:101A5000279517950795EA95D1F71596EC91E23001
:101A6000E9F5FC01628D738D848D958D600F711F7A
:101A7000821F931FA12C22E0B22EA818B9084A1485
:101A80005B0408F45201F601248126FD04C0A11470
:101A9000F2E0BF0671F40091000110910101209164
:101AA000020130910301061717072807390709F0CB
:101AB0005EC040E00E94C104882309F47ECFC401C7
:101AC0008F5A9C4FD3019C012A0D3B1DFC012E1700
:101AD0003F0709F46CC041914D93F9CFDC01149696
:101AE000BC90BA94B0228114910479F4B1100DC065
:101AF000452B462B472B69F5F6018789908DA18DE3
:101B0000B28D86839783A087B187D6015B96ED91CE
:101B1000FC915C9716966D917D918D919C91199792
:101B20006250710981099109258504C0660F771FEC
:101B3000881F991F2A95D2F7068517852089318934
:101B4000600F711F821F931F6B0D711D811D911DF1
:101B500091CFD60116964D915D916D917C9119971B
:101B60002A813B810E94D6068111CFCF26CF7301F7
:101B700085019401AB01BC0180914E0390914F030C
:101B80000E946203882309F418CF6A0C7B1CF601BB
:101B900082859385A485B5858A0D9B1DA11DB11DE8
:101BA00082879387A487B5874A185B083CCF281B98
:101BB000390B620E731EEBCF2A94232809F0FDCE59
:101BC000898190E0FCCEFC01818D928D009711F00F
:101BD0000C94C30C8FEF9FEF08950F931F93CF9337
:101BE000DF93EC010E949C01688779878A879B8735
:101BF000CE010E94E30D97FF15C00E949C0108854D
:101C000019852A853B85601B710B820B930B0C8118
:101C10001D812E813F81601771078207930740F372
:101C20008FEF9FEFDF91CF911F910F9108950F9349
:101C30001F93CF93DF93EC01898D9A8D10E000E024
:101C4000009799F00E94C30C8C010F3F100769F0B8
:101C5000898D9A8DFC014285538564857585415037
:101C60005109610971090E941608C801DF91CF91DD
:101C70001F910F9108952091F302260F3327331FF0
:101C800021323105ECF420911903FC0190E080E051
:101C9000243069F082E00895A091F3022191AC0113
:101CA0004F525D4FA40FB52FB11D2C93019686178F
:101CB00098F38091F302680F6093F30280E0089537
:101CC00081E008951092190381E080931B03109224
:101CD0001A0361E082E10E94E60061E083E10E9474
:101CE000E600E9EBF0E080818E7F808380818D7F4C
:101CF000808388E48093B80085E48093BC000895D5
:101D0000CF93DF9391E09093D0028823B9F0C091F4
:101D1000B800D091BA008091BC008A7B8093BC004F
:101D200060E082E10E94E60060E083E10E94E6005C
:101D30000E94620ED093BA00C093B800DF91CF9199
:101D40000895089508950895E091C8028091C7020A
:101D5000E81730F4F0E0E955FD4F808190E00895F8
:101D60008FEF9FEF08959091C8028091C7022FEFE7
:101D70003FEF981748F4E92FF0E0E955FD4F208137
:101D800030E09F5F9093C802C90108958091C70217
:101D90009091C802891B990B0895CF92DF92EF9220
:101DA000FF920F931F93CF93DF937C01CB018A01A6
:101DB0002091A602222389F0EB016B01C40ED51EEF
:101DC000CC15DD0569F06991D701ED91FC91019089
:101DD000F081E02DC7010995F3CF642F0E943B0EDF
:101DE000C801DF91CF911F910F91FF90EF90DF908D
:101DF000CF900895CF93DF931F92CDB7DEB769835D
:101E00002091A6022223F9F02091C902203258F035
:101E100021E030E0FC013383228390E080E00F90EA
:101E2000DF91CF9108958091CA02E82FF0E0EA5740
:101E3000FD4F998190838F5F8093CA028093C9027E
:101E400081E090E0ECCF61E0CE0101960E943B0E74
:101E5000F7CFCF92DF92EF92FF920F931F93CF9322
:101E6000DF93FC01C48121E02093A602C093850288
:101E70001092CA021092C9028385682B89E396E00A
:101E80000E94FA0ED091C902D13208F092C00E948D
:101E900045016B017C0180911903811165C082E0CD
:101EA0008093190381E080931B038FEF80931803C5
:101EB00010923D03D0933C03A6E8B2E0ECE1F3E0DE
:101EC00080E0D81385C010923E0380913E03CC0F72
:101ED000C82BC0933E0380911A03813009F07CC067
:101EE00010921A030E9445016B017C0180913E0310
:101EF0008093BB008091CC029091CD02A091CE0244
:101F0000B091CF02892B8A2B8B2B99F00E9445012F
:101F10000091CC021091CD022091CE023091CF02DF
:101F20006C197D098E099F090617170728073907BD
:101F3000E0F18091BC0083FDD9CF85EC8093BC009B
:101F40000E9445016B017C0180911903823009F4E4
:101F500045C0809118038F3F61F180911803803252
:101F600041F18091180325C08091CC029091CD025F
:101F7000A091CE02B091CF02892B8A2B8B2B09F432
:101F80008ACF0E9445010091CC021091CD02209190
:101F9000CE023091CF026C197D098E099F09061778
:101FA00017072807390708F076CF8091CB020E94E7
:101FB000800E1092CA021092C9021092A602DF91FE
:101FC000CF911F910F91FF90EF90DF90CF900895E8
:101FD0009D9191938F5F75CF85EEB0CF8091CC02AC
:101FE0009091CD02A091CE02B091CF02892B8A2B85
:101FF0008B2B09F4A9CF0E9445010091CC021091CE
:10200000CD022091CE023091CF026C197D098E094C
:102010009F09061717072807390708F095CFC5CF7E
:1020200028E0FC01238760E00C94290F90E080E019
:102030000895CF93DF9387E00E94BD00D0E0C0E019
:10204000892B11F4C8E0D0E086E00E94BD00892B06
:10205000E1F090E080E0C82BD92B85E00E94BD0024
:10206000892BB1F090E080E0C82BD92B84E00E944E
:10207000BD0021E030E0892B11F030E020E0C90103
:102080008C2B9D2BDF91CF91089584E090E0E3CFDE
:1020900082E090E0E9CF0F931F93CF93DF93EC01A1
:1020A00080E2689FF0011124EF5AFC4F6A8B809107
:1020B000000190910101A0910201B09103018E876E
:1020C0009F87A88BB98B0489158930E020E098019F
:1020D000112700270F8B188F298F3A8F828D938DB0
:1020E000B0E0A0E0AC01BD01402B512B622B732B63
:1020F0004F8B588F698F7A8F83858871A9F4848D6F
:10210000958DA68DB78D8B8B9C8BAD8BBE8B81E017
:102110008D8381E08C831E821F82188619861A8621
:102120001B861C861D8603C0803131F080E0DF9164
:10213000CF911F910F9108959E012D5E3F4F8B8D82
:102140009C8D0E945707882389F384E0E1CF0F9389
:102150001F93CF938C01C62F0E94290F6C2F6460B0
:10216000C8010E94290F6C2F6B7FC8010E94290FA4
:1021700083EC90E00197F1F7CF911F910F910895B3
:102180000F931F93CF93DF938C01D62FC42F607FC3
:10219000642B0E94A71080E1D89FB00111246C2B02
:1021A000C801DF91CF911F910F910C94A710CF938D
:1021B000DF93CDB7DEB728970FB6F894DEBF0FBE1A
:1021C000CDBF28E0EEE0F1E0DE01119601900D9226
:1021D0002A95E1F7FC012085241708F44FEF50E021
:1021E000440F551F21E030E02C0F3D1F420F531FBD
:1021F000FA012081620F606840E028960FB6F894DB
:10220000DEBF0FBECDBFDF91CF910C94C01040E078
:1022100061E00E94C0108BE39FE10197F1F7089500
:1022200041E00E94C01081E090E008950F931F9359
:10223000CF93DF93EC011092C8021092C702109264
:10224000CA021092C9020E94620E81EA9EE0909337
:10225000F2028093F10282EA9EE09093F60280936C
:10226000F5021D828A85823010F098E09D83888770
:1022700062E370E080E090E00E946A016B85CE012D
:102280000E94290F68EE73E080E090E00E946A01EE
:1022900060E3CE010E94A7100BE416E4C801019789
:1022A000F1F760E3CE010E94A710C8010197F1F792
:1022B00060E3CE010E94A71083E592E00197F1F759
:1022C00060E2CE010E94A7106D81606240E0CE0105
:1022D0000E94C01084E08E8340E06CE0CE010E943A
:1022E000C010CE010E94071182E08F8340E066E0BB
:1022F000CE010E94C01040E062E0CE010E94C010FA
:102300008BE39FE10197F1F7DF91CF911F910F913F
:102310000895AF92BF92CF92DF92EF92FF920F9308
:102320001F93CF93DF93CDB7DEB72B970FB6F894FB
:10233000DEBF0FBECDBF6C01FE013196CE010C9603
:102340007F0120E22193E817F907E1F7DA0120E0A5
:1023500037E09D91B92E9923A9F19E32B9F43A3014
:1023600091F480E02B960FB6F894DEBF0FBECDBF80
:10237000DF91CF911F910F91FF90EF90DF90CF9061
:10238000BF90AF90089528E03AE0E3CFE2ECF0E0B0
:102390008491882321F031969813FACFE2CF321737
:1023A00000F38FED890F8E35E0F68FE9890F8A31C2
:1023B00018F440EEB42EB90EF701E20FF11DB08211
:1023C0002F5FC7CF8981803261F28B01FB01838D42
:1023D000948DF601948F838FFB01168217821086ED
:1023E00011861286138614861586F80182859385D8
:1023F000A485B585438954896589768984179507AD
:10240000A607B70708F0ADCF25E0B695A795979535
:1024100087952A95D1F7F82FFF70AF2EF8018581A7
:10242000823008F49ECFC8010E94C30C97FD99CF5B
:10243000F80182859385A485B5854F96A11DB11DB0
:1024400082879387A487B587F0E2AF9EB0011124FD
:102450006F5A7C4F6115710509F483CFFB018081B0
:10246000882309F1853E19F4B11032C01EC04BE03B
:1024700050E0C7010E94CE21892B09F0B6CF6A2D0A
:10248000C6012B960FB6F894DEBF0FBECDBFDF910D
:10249000CF911F910F91FF90EF90DF90CF90BF9061
:1024A000AF900C944B10B1105CCFF601A28A8091D2
:1024B000000190910101A0910201B0910301868772
:1024C0009787A08BB18BFB018081882309F449CFCA
:1024D000BB24B3948ACFFC0180819181009711F0D5
:1024E0000C946E2008950F931F93CF93DF938C016C
:1024F000EB01FC01808191810097E1F06881798195
:1025000061157105A9F0428153812C813D814217EB
:10251000530770F00E94F8218C819D81F80195830A
:1025200084831D821C82DF91CF911F910F910895AA
:102530000E946E2088819981F801918380838A812D
:102540009B81938382838C819D819583848319826F
:1025500018821B821A82E5CF0F931F93CF93DF93CC
:10256000EC0188819981009759F02A813B812617D7
:10257000370730F081E0DF91CF911F910F910895DF
:102580008B016F5F7F4F0E94F720009759F099836E
:1025900088831B830A832C813D81232B59F7FC01FF
:1025A0001082E8CF80E0E7CFEF92FF920F931F9366
:1025B000CF93DF93EC017B018A01BA010E94AC1238
:1025C00028813981811114C02115310519F0C90103
:1025D0000E946E20198218821D821C821B821A8220
:1025E000CE01DF91CF911F910F91FF90EF90089551
:1025F0001D830C83B701C9010E94F821F1CFFC01B2
:10260000118210821382128215821482FB010190C2
:102610000020E9F73197AF01461B570B0C94D412F9
:10262000FB0101900020E9F73197AF01461B570BE2
:10263000DC01ED91FC910280F381E02D09948F92F1
:102640009F92AF92BF92EF92FF920F931F93CF93FF
:10265000DF93CDB7DEB7A1970FB6F894DEBF0FBEFC
:10266000CDBF7C01FA01CB0119A2223008F42AE087
:102670008E010F5D1F4F822E912CB12CA12CBF011A
:10268000A50194010E949B1FF901CA016A300CF553
:10269000605DD8016E938D01232B242B252B79F7B8
:1026A00090E080E0109721F0BD01C7010E94101357
:1026B000A1960FB6F894DEBF0FBECDBFDF91CF91CC
:1026C0001F910F91FF90EF90BF90AF909F908F90D0
:1026D0000895695CDECFCF92DF92EF92FF920F9365
:1026E0001F93CF93DF9377FF21C06A017B01EC0139
:1026F000E881F9810190F081E02D6DE209958C016E
:1027000044275527BA014C195D096E097F092AE053
:10271000CE010E941F13800F911FDF91CF911F9157
:102720000F91FF90EF90DF90CF9008952AE0DF9116
:10273000CF911F910F91FF90EF90DF90CF900C946D
:102740001F13CF93DF93AC01990F660B770B81E5D5
:1027500095E00E946B13EC0164E671E081E595E081
:102760000E9410138C0F9D1FDF91CF910895CF937E
:10277000DF93BC0181E595E00E941013EC0164E653
:1027800071E081E595E00E9410138C0F9D1FDF9191
:10279000CF910895CF93DF93FC01448155816081EF
:1027A000718181E595E00E94A901EC0164E671E088
:1027B00081E595E00E9410138C0F9D1FDF91CF9152
:1027C00008950C941013EF92FF920F931F93CF93E1
:1027D000DF93EC017B018A011B821A8288EE93E071
:1027E000A0E0B0E08C839D83AE83BF8386E291E05E
:1027F000998388838DE190E00E94D21F9A8F898F00
:10280000009779F02DE1F701DC0101900D922A95F6
:10281000E1F74CE050E0B801CE010C960E94FF2198
:10282000188EDF91CF911F910F91FF90EF90089537
:1028300085ED8093BC008091CC029091CD02A09157
:10284000CE02B091CF020796A11DB11D23E0B6952F
:10285000A795979587952A95D1F72091BC0024FDDF
:1028600003C01092190308954091CC025091CD02FB
:102870006091CE027091CF02452B462B472B69F316
:102880000097A105B10541F02AE22A95F1F700C0B1
:102890000197A109B109E1CF8091CB020C94800E80
:1028A0002F923F924F925F926F927F928F929F9260
:1028B000AF92BF92CF92DF92EF92FF920F931F934E
:1028C000CF93DF93CDB7DEB760970FB6F894DEBF36
:1028D0000FBECDBF8C016B012A011901DB01599696
:1028E000ED91FC91309709F4D0C08581882309F4DB
:1028F000CCC066E671E0CE0101960E94FF12BFEFE8
:102900004B1A5B0A052C000C66087708E1E04E1AAA
:102910005108610871080E94DA1EA30192010E9409
:10292000321F4B015C01FFEF8F1A9F0AAF0ABF0AEB
:10293000988A8F8667E671E081E595E00E94E11351
:10294000C4010E94A113B12CA12C8F859889A816CF
:10295000B906CCF566E671E0CE0107960E94FF123B
:10296000C6010E94ED0D97FD1FC08A309105E1F070
:102970008D871E86EB84FC849FEFE91AF90AB70164
:10298000CE0107960E94AC12882351F32F8138851F
:102990008B859C85BE01635F7F4F820F931F0E94D2
:1029A000F821FC86EB86DCCFBE01695F7F4FCE014C
:1029B00001960E947312CE0107960E946B12AFEF30
:1029C000AA1ABA0AC2CFA980BA80F101E080F180C8
:1029D000E114F10409F04CC080E891E00E94B713C3
:1029E000C980DA8084E090E00E94D21F7C01892BAC
:1029F00079F0D1018D919C91F70193838283C60177
:102A00000E94B421D7018D939C93F101F182E08261
:102A1000D80111961C921E9213961C921E92129728
:102A200015961C921E921497BE016F5F7F4FC801CE
:102A30000E947312CE0101960E946B12C80160962B
:102A40000FB6F894DEBF0FBECDBFDF91CF911F91BF
:102A50000F91FF90EF90DF90CF90BF90AF909F903D
:102A60008F907F906F905F904F903F902F90089540
:102A7000B501D7018D919C910E94EF21892B09F41A
:102A80004ACFF701E280F380A3CF8CE691E00E9469
:102A9000B713D4CF2F923F924F925F926F927F9253
:102AA0008F929F92AF92BF92CF92DF92EF92FF925E
:102AB0000F931F93CF93DF93CDB7DEB7C657D109DE
:102AC0000FB6F894DEBF0FBECDBF5C01E5967FAFB9
:102AD0006EAFE59780911F06882321F08AE196E08A
:102AE0000E944E0A1092FB051092F9051092F6050D
:102AF0001092F5058AE08093F4050E949C018B01F9
:102B000061E08091F4050E94140161E08091F40578
:102B10000E94E600FFB6F89480918402811127C0DC
:102B2000E0E9F0E08491E4EAF0E09491E82FF0E04D
:102B3000EE0FFF1FE859FF4FA591B491EC91E923E7
:102B400021F461E08AE00E94E60061E08AE00E94F0
:102B500014018CB580618CBD8CB580648CBD61E046
:102B60008DE00E94140161E08BE00E9414018091CD
:102B700084028F5F80938402FFBE82E58093EE051E
:102B80001092EF058091EE059091EF050E94EC0206
:102B90002AE0F22E8FEF0E94C702FA94F110FACFCA
:102BA00080EF95E00E94EF0220E030E0A90160E0B4
:102BB00080EF95E00E940503F82E8093FA0581E0EE
:102BC000F816A9F00E949C01601B710B613D7740D3
:102BD00058F381E08093F50580EF95E00E94BC02F8
:102BE00061E971E081E595E00E94E113FFCF2AEAF7
:102BF00031E040E050E068E080EF95E00E9405039E
:102C000082FF2AC0F092FB058091FB05C12CD12CDC
:102C10007601823029F4C12CD12CE12C80E4F82EED
:102C200020E030E0A90167E380EF95E00E94050312
:102C3000A701960169E280EF95E00E940503809369
:102C4000FA058823D1F00E949C01601B710B613D45
:102C5000774030F388E0BECF94E0F92E0E94CE0298
:102C60008093FA05FA94F110F9CF8A3A11F082E0D4
:102C7000B1CF82E08093FB05C7CF8091FB05823006
:102C8000D1F420E030E0A9016AE380EF95E00E94F2
:102C90000503882311F086E09DCF0E94CE02807C40
:102CA000803C19F483E08093FB050E94CE020E94D1
:102CB000CE020E94CE0280EF95E00E94BC0280E529
:102CC0008093EE051092EF0581E00E940B058823AA
:102CD00009F440C08AE196E00E94C207882309F403
:102CE0007FCFE596EEADFFADE5976080718019A2CC
:102CF00018A28AE491E09F8F8E8F1BA21C821B82F8
:102D00009A8389831E824E01FEE18F0E911CC401BD
:102D10000E94C20763018E010F5F1F4F240118013B
:102D20006FE270E0C6010E94E421009709F465C0DB
:102D3000D6012C912F32A9F4BFEFCB1ADB0A902FCA
:102D4000812F8201492E582E942D852D2801092F7F
:102D5000182FE6CF80E00E940B05882309F440CFAE
:102D6000B9CF8C198D3008F08CE0E82EF12CA7013A
:102D7000B601CE01885A9F4F0E94FF21E8E5F0E09E
:102D8000EC0FFD1FEE0DFF1D1082C8010E944E0AC0
:102D9000F8018581882311F11EAE1DAE8AE491E011
:102DA0009CAF8BAF21961FAE2197E796AEADBFAD1E
:102DB000E7976A0E7B1EF301808181112BC0BE0153
:102DC000655C7F4FC1010E94070C4EEA51E0B101E2
:102DD000CE01885A9F4F0E94E31343C0AE01485A68
:102DE0005F4FB201C8010E9489118823A9F2CE0C5D
:102DF000DF1CC2010E944E0AA7CFC601861997099F
:102E0000E7969FAF8EAFE797B201CE01CB960E94B7
:102E1000070CCBCF19A218A28AE491E09F8F8E8F66
:102E20001BA221968FAD2197811161C06C961FAEB8
:102E30001EAE6C9788EE93E0A0E0B0E0A0968CAF59
:102E40009DAFAEAFBFAFA09786E291E06A969FAF0D
:102E50008EAF6A97E3961FAE1EAEE397A5961FAEA0
:102E6000A5976C968EAD9FAD6C97D50113969C93EC
:102E70008E931297A0968CAD9DADAEADBFADA097D1
:102E8000F50184839583A683B783A4968CAD9DAD0D
:102E9000AEADBFADA49780879187A287B3873C96DC
:102EA000A8E5B0E0AC0FBD1F1C96C50149962D9159
:102EB0002193E817F907D9F7E396EEADFFADE39755
:102EC000D5015A96FC93EE935997309719F0858166
:102ED000811121C060EB71E081E595E00E94E11372
:102EE000E5968EAD9FADE5970E94CA13FFCFA30173
:102EF000BE01655C7F4FC4010E948911882309F4DB
:102F000095CFCE01CB960E944E0AB401C1010E941A
:102F1000070CA3015CCFCA58DF4F0FB6F894DEBF91
:102F20000FBECDBFDF91CF911F910F91FF90EF901A
:102F3000DF90CF90BF90AF909F908F907F906F90D9
:102F40005F904F903F902F9008951F920F920FB671
:102F50000F9211242F933F938F939F93AF93BF931F
:102F60008091460390914703A0914803B091490393
:102F70003091450323E0230F2D3758F50196A11D0D
:102F8000B11D209345038093460390934703A0937C
:102F90004803B093490380914A0390914B03A09159
:102FA0004C03B0914D030196A11DB11D80934A03BE
:102FB00090934B03A0934C03B0934D03BF91AF91FB
:102FC0009F918F913F912F910F900FBE0F901F9067
:102FD000189526E8230F0296A11DB11DD2CF1F928E
:102FE0000F920FB60F9211242F933F934F935F933D
:102FF0006F937F938F939F93AF93BF93EF93FF93C1
:1030000081E595E00E942702FF91EF91BF91AF917A
:103010009F918F917F916F915F914F913F912F91F0
:103020000F900FBE0F901F9018951F920F920FB622
:103030000F9211242F938F939F93EF93FF93E0911F
:103040006105F09162058081E0916705F091680566
:1030500082FD1BC0908180916A058F5F8F732091E4
:103060006B05821741F0E0916A05F0E0EF5AFA4FE4
:10307000958F80936A05FF91EF919F918F912F918A
:103080000F900FBE0F901F9018958081F4CF1F9264
:103090000F920FB60F9211242F933F934F935F938C
:1030A0006F937F938F939F93AF93BF93EF93FF9310
:1030B0008091B900887F803609F44AC0F0F58832E3
:1030C00009F4A7C018F5803109F49BC0B8F488232F
:1030D00009F4F9C0883009F494C0FF91EF91BF91D1
:1030E000AF919F918F917F916F915F914F913F91A0
:1030F0002F910F900FBE0F901F901895883109F4F3
:1031000088C0803251F78093180314C0803409F4CA
:103110009DC040F48033B9F38833F9F680931803E7
:1031200085ECB0C0803509F485C0883509F496C0B7
:10313000883499F60E941814D0CF883909F48CC0CD
:1031400038F5883729F050F4883611F0803729F6A1
:1031500083E0809319031092170357C0883809F44D
:103160007BC0803919F0803809F0B7CF8091170300
:10317000803208F071C0E091170381E08E0F8093D8
:1031800017038091BB00F0E0E950FD4F80833DC004
:10319000803B39F0E0F4803A09F479C0883A09F0CC
:1031A0009CCF84E0809319031092F4021092F302F2
:1031B000E091F102F091F20209958091F302811100
:1031C0000FC081E08093F3021092D10209C0803CCD
:1031D00009F4A6CF883C09F4A3CF883B09F07DCF42
:1031E000E091F40281E08E0F8093F402F0E0EF5260
:1031F000FD4F80818093BB009091F4028091F30297
:1032000029C080913E038093BB0085EC8093BC0075
:1032100064CF90913D0380913C03981758F5E0915D
:103220003D0381E08E0F80933D03F0E0E45EFC4FB0
:103230008081E9CFE0913D0381E08E0F80933D03D3
:103240008091BB00F0E0E45EFC4F808390913D03F1
:1032500080913C039817C8F285E8D8CFE0913D03F0
:1032600081E08E0F80933D038091BB00F0E0E45E2F
:10327000FC4F808380911B0381115CCF81E08093A0
:103280001A0384EA8093BC001092190326CF85ECC0
:103290008093BC001092190380911703803230F4A0
:1032A000E0911703F0E0E950FD4F108260911703A1
:1032B00070E0E091F502F091F60287EF92E0099557
:1032C000109217030ACF1092180334CFE1E5F5E00E
:1032D0001382128288EE93E0A0E0B0E084839583AD
:1032E000A683B78328E331E03183208325EC30E0E7
:1032F0003587248724EC30E03787268720EC30E0C0
:10330000318B208B21EC30E0338B228B22EC30E0B0
:10331000358B248B26EC30E0378B268B118E128E6A
:10332000138E148EEEEEF5E020E520831182E0EF9F
:10333000F5E0158216821186138642E050E060E0C7
:1033400070E0448755876687778713A215A614A671
:103350002AE431E033A722A717A6E9E3F6E01382B7
:10336000128284839583A683B78386E591E0918357
:1033700080830895CF93DF93CDB7DEB7CA55D109C7
:103380000FB6F894DEBF0FBECDBF789484B58260CF
:1033900084BD84B5816084BD85B5826085BD85B5F9
:1033A000816085BD80916E00816080936E00109277
:1033B00081008091810082608093810080918100F2
:1033C0008160809381008091800081608093800083
:1033D0008091B10084608093B1008091B0008160E1
:1033E0008093B00080917A00846080937A0080910D
:1033F0007A00826080937A0080917A008160809365
:103400007A0080917A00806880937A001092C100DF
:10341000E0916105F091620592E09083E0915D0595
:10342000F0915E051082E0915F05F091600520E16A
:10343000208310926905E0916505F091660586E0AC
:103440008083E0916305F0916405808180618083D1
:10345000E0916305F0916405808188608083E0914C
:103460006305F0916405808180688083E091630545
:10347000F091640580818F7D80831AAE19AE4AE198
:1034800051E058AF4FAB87E28BAF21962FAF21971A
:1034900022969FAF229723961FAE2397CE01C79601
:1034A0000E941611CE01C7960E94071161E08AE0C2
:1034B0000E94140160E087E00E94140160E086E051
:1034C0000E94140160E085E00E94140160E084E045
:1034D0000E94140128EE422E23E0522E612C712C02
:1034E000CE01C7960E94101040E060E0CE01C79662
:1034F0000E94D71061EC71E0CE01C7960E94E113E3
:1035000041E060E0CE01C7960E94D7106AEC71E0FE
:10351000CE01C7960E94E1130E9419100097E1F3B3
:1035200083FD8DC082FFF8CF01E010E00E949C0176
:10353000611571058105910511F00E94291F013067
:10354000110509F023C21F8E1E8E48A259A26AA23D
:103550007BA206E211E01D8F0C8F1EAA1DAA18A6E1
:1035600068ED71E0CE0101960E94FF12BE016F5F0F
:103570007F4FCE014C960E944A15CE0101960E94C3
:103580006B121C821B824D825E826F8278861A8348
:1035900009831B8E1A8E1D8662EE71E0CE018D5B53
:1035A0009F4F0E94FF12BE016D5B7F4FCE010196BF
:1035B0000E944A15CE018D5B9F4F0E946B12CE0177
:1035C000C7960E940711CE01C7960E941010C12C09
:1035D000D12C7601CE01C7960E94071140E060E031
:1035E000CE01C7960E94D7106CEE71E0CE01C7964F
:1035F0000E94E11340E06DE0CE01C7960E94D71013
:103600002AE0B701A601CE01C7960E941F130E94AF
:1036100019100097E1F380FF15C02BE0C216D1040A
:10362000E104F10478F08AE0C81AD108E108F10851
:1036300064EF71E080E090E00E946A01CBCF10E07F
:1036400000E074CF81FF0DC0EDEDCE16E3E0DE06A5
:10365000E104F10430F4FAE0CF0ED11CE11CF11CBE
:10366000E7CF82FFE5CF64EF71E080E090E00E9459
:103670006A01CE01C7960E940711CE01C7960E942B
:10368000101040E060E0CE01C7960E94D71064EFB2
:1036900071E0CE01C7960E94E11341E060E0CE01E7
:1036A000C7960E94D71061E072E0CE01C7960E94D3
:1036B000E11390E080E0009719F40E941910FBCF0D
:1036C00082FFF9CF64EF71E080E090E00E946A0130
:1036D000A8EEB3E0A70196010E94511F4B015C01C7
:1036E00066E671E0CE01875B9F4F0E94FF12CE011C
:1036F000C7960E940711CE01C7960E9410106196CE
:103700001FAE1EAE61970E949C016B017C01312CA3
:10371000212C0E949C016C197D098E099F09861637
:103720009706A806B90608F4A4C00E949C016B96EF
:103730006CAF7DAF8EAF9FAF6B976EE072E081E5AF
:1037400095E00E94E11369968EAD9FAD69978C1943
:103750009D090E94A113CE01C7960E941010CE01B0
:10376000C7960E94071140E060E0CE01C7960E9414
:10377000D7106BE172E0CE01C7960E94E11341E0E1
:1037800060E0CE01C7960E94D7100E94DA1E23EF98
:1037900031E040E050E00E94321F6F5F7F4F8F4F5B
:1037A0009F4F60FF40C084E292E00E94B7139E01E9
:1037B000215B3F4F4CE755E0BE01645E7F4FCE0179
:1037C0008D5B9F4F0E945014BE016D5B7F4FCE01F9
:1037D000875B9F4F0E947312CE018D5B9F4F0E94AB
:1037E0006B12CE01875B9F4F0E94CA132F964EAD7E
:1037F0005FAD2F972B966EAD7FAD2B97CE01C79601
:103800000E94A9010E9419100097E1F381FF18C0DE
:1038100064EF71E080E090E00E946A0181E090E056
:10382000280E391E76CF89E392E00E94B7139E01DD
:10383000215B3F4F4AE854E0BE016F5F7F4FBFCF2F
:1038400080FFE0CF64EF71E080E090E00E946A01C9
:1038500090E080E0E5CFF8018281938161969FAF8F
:103860008EAF6197808191810E946E20C8010E9475
:103870006E2061960EAD1FAD61970115110559F7C8
:10388000CE01875B9F4F0E946B12CE01C7960E94AC
:103890000711CE01C7960E94101040E060E0CE01F3
:1038A000C7960E94D7106EE472E0CE01C7960E94C0
:1038B000E11341E060E0CE01C7960E94D71068E5B1
:1038C00072E0CE01C7960E94E11341E06AE0CE01AA
:1038D000C7960E94D710A101330C660B770BCE015F
:1038E000C7960E946B1390E080E0009719F40E9445
:1038F0001910FBCF82FFF9CF64EF71E080E090E018
:103900000E946A01CE01C7960E940711CE01C79698
:103910000E94101040E060E0CE01C7960E94D710D0
:1039200061E672E0CE01C7960E94E11390E080E06C
:10393000009719F40E941910FBCF82FF07C064EFB3
:1039400071E080E090E00E946A01CACE83FFF0CF70
:1039500064EF71E080E090E00E946A018DA99EA969
:10396000009741F00E944E0A8DA99EA90E946E20E8
:103970001EAA1DAA8A8D9B8D009709F4B1CD0E94C5
:103980004E0A8A8D9B8D0E946E20AACDCE01C796CD
:103990000E941611CE01C7960E94101067961FAEA6
:1039A0001EAE679766E671E0CE01815B9F4F0E9475
:1039B000FF121C821B8288EE93E0A0E0B0E08D83B2
:1039C0009E83AF83B88786E291E09A8389831B8EBA
:1039D0001A8E1D8668ED71E0CE014C960E94FF1292
:1039E000BE01645E7F4FCE0101960E944A15CE0152
:1039F0004C960E946B12CE01C7960E94101040E0B8
:103A000060E0CE01C7960E94D71067E672E0CE0153
:103A1000C7960E94E11392E0C92ED12C40E06EE0DF
:103A2000CE01C7960E94D710A6010D2C000C660B84
:103A3000770BCE01C7960E946B130E941910009756
:103A4000E1F381FF0AC0FFEFCF1ADF0A64EF71E0F4
:103A500080E090E00E946A01E1CF80FF08C022E090
:103A6000C216D10421F081E0C81AD108EFCF82FF3D
:103A7000EDCF64EF71E080E090E00E946A01CE013A
:103A8000C7960E940711CE01C7960E94101040E011
:103A900060E0CE01C7960E94D71062E772E0CE01C7
:103AA000C7960E94E113AA24A394B12C40E06EE0D3
:103AB000CE01C7960E94D710A5010B2C000C660BF7
:103AC000770BCE01C7960E946B130E9419100097C6
:103AD000E1F381FF0DC0AC14BD0454F4EFEFAE1A56
:103AE000BE0A64EF71E080E090E00E946A01DECFE0
:103AF00080FF08C0F1E0AF16B10421F021E0A21A66
:103B0000B108EFCF82FFEDCF64EF71E080E090E08D
:103B10000E946A0126018FEF481A580A052C000CF2
:103B200066087708E1E04E1A510861087108C6017D
:103B30000E94D21F4C01FC01C601880D991D1192F3
:103B4000E817F907E1F778010E94DA1EA301920154
:103B50000E94321F6F5F7F4F8F4F9F4FF401E60F20
:103B6000F71F8081811102C021E020838FEFE81AC6
:103B7000F80AAE14BF0441F79E012B5A3F4F4CE7A1
:103B800055E0BE016F5F7F4FCE01875B9F4F0E9464
:103B9000501425961FAE1EAE259727961FAE1EAE5B
:103BA000279729961FAE1EAE29972B966EAD7FAD37
:103BB0002B976115710549F02F964EAD5FAD2F978C
:103BC000CE018D5B9F4F0E94D412CE01C7960E94FA
:103BD0001010780168961FAE68970E941910009720
:103BE000E1F382FF88C01701EFEF2E1A3E0A6896B4
:103BF000FFAD6897FF2399F11D8E1C8E1F8E1E8EC0
:103C000019A218A225966EAD7FAD25976115710595
:103C100041F029964EAD5FAD2997CE014C960E949A
:103C2000D412F401EE0DFF1D8081882379F064EC3D
:103C300071E0CE01C7960E94E113CE014C960E941E
:103C40006B12710168961FAE689731C048A159A1E7
:103C50006C8D7D8DCE01C7960E94A901EECFCE015D
:103C6000C7960E94071140E060E0CE01C7960E940F
:103C7000D7106AE772E0CE01C7960E94E11340E0D8
:103C80006BE0CE01C7960E94D710A101330C660BE2
:103C9000770BCE01C7960E946B1341E060E0CE0126
:103CA000C7960E94D71021E068962FAF689767E605
:103CB00071E081E595E00E94E113C7010E94A11324
:103CC00064EF71E080E090E00E946A01EC14FD0472
:103CD0000CF483CF64EF71E080E090E00E946A0111
:103CE000CE018D5B9F4F0E946B12CE01875B9F4F71
:103CF0000E946B121CCF83FFDACFE114F104B9F2FA
:103D0000CE01C7960E94071181E0E816F10421F068
:103D1000E2E0EE1AF10896CF780194CF8F929F924D
:103D2000AF92BF92CF92DF92EF92FF92CF93DF9349
:103D3000EC01688179818A819B816115710581051A
:103D4000910521F464E279ED8BE597E02DE133EF05
:103D500041E050E00E94321F49015A019B01AC0131
:103D6000A7EAB1E40E94511F6B017C01ACEEB4EFF5
:103D7000A50194010E945F1FC60ED71EE81EF91E02
:103D8000F7FE06C081E0C81AD108E10880E8F80A09
:103D9000C882D982EA82FB82C701B6019F77DF9190
:103DA000CF91FF90EF90DF90CF90BF90AF909F901A
:103DB0008F9008958F929F92AF92BF92CF92DF9291
:103DC000EF92FF92609104017091050180910601CC
:103DD00090910701611571058105910521F464E257
:103DE00079ED8BE597E02DE133EF41E050E00E9463
:103DF000321F49015A019B01AC01A7EAB1E40E94BC
:103E0000511F6B017C01ACEEB4EFA50194010E943F
:103E10005F1FC60ED71EE81EF91EF7FE06C081E022
:103E2000C81AD108E10880E8F80AC0920401D092CB
:103E30000501E0920601F0920701C701B6019F77E4
:103E4000FF90EF90DF90CF90BF90AF909F908F90BA
:103E50000895609304017093050180930601909387
:103E600007010895052E97FB1EF400940E94491F38
:103E700057FD07D00E949B1F07FC03D04EF40C9403
:103E8000491F50954095309521953F4F4F4F5F4FBB
:103E9000089590958095709561957F4F8F4F9F4FB6
:103EA00008950E94BD1FA59F900DB49F900DA49FE3
:103EB000800D911D11240895B7FF0C94511F0E948D
:103EC000511F821B930B08952F923F924F925F9246
:103ED0006F927F928F929F92AF92BF92CF92DF921A
:103EE000EF92FF920F931F93CF93DF93CDB7DEB77F
:103EF000CA1BDB0B0FB6F894DEBF0FBECDBF099413
:103F00002A88398848885F846E847D848C849B8469
:103F1000AA84B984C884DF80EE80FD800C811B8177
:103F2000AA81B981CE0FD11D0FB6F894DEBF0FBEA6
:103F3000CDBFED010895A1E21A2EAA1BBB1BFD0106
:103F40000DC0AA1FBB1FEE1FFF1FA217B307E40778
:103F5000F50720F0A21BB30BE40BF50B661F771FD0
:103F6000881F991F1A9469F76095709580959095B0
:103F70009B01AC01BD01CF010895A29FB001B39F89
:103F8000C001A39F700D811D1124911DB29F700D62
:103F9000811D1124911D0895EE0FFF1F0590F491CE
:103FA000E02D09940F931F93CF93DF9382309105F7
:103FB00010F482E090E0E0914706F091480630E08E
:103FC00020E0B0E0A0E0309799F42115310509F424
:103FD0004AC0281B390B24303105D8F58A819B81D2
:103FE0006115710589F1FB0193838283FE0111C084
:103FF000408151810281138148175907E0F0481729
:10400000590799F4109761F012960C931297139632
:104010001C933296CF01DF91CF911F910F9108959C
:104020000093470610934806F4CF2115310551F04F
:104030004217530738F0A901DB019A01BD01DF01E6
:10404000F801C1CFEF01F9CF90934806809347065E
:10405000CDCFFE01E20FF31F8193919322503109DE
:1040600039832883D7CF2091450630914606232BEC
:1040700041F420910A0130910B01309346062093C0
:10408000450620910801309109012115310541F4BF
:104090002DB73EB740910C0150910D01241B350BFB
:1040A000E0914506F0914606E217F307A0F42E1BB7
:1040B0003F0B2817390778F0AC014E5F5F4F24178C
:1040C000350748F04E0F5F1F509346064093450654
:1040D000819391939FCFF0E0E0E09CCFCF93DF936B
:1040E0000097E9F0FC01329713821282A0914706F3
:1040F000B0914806ED0130E020E01097A1F4208156
:104100003181820F931F2091450630914606281772
:10411000390709F061C0F0934606E0934506DF9148
:10412000CF910895EA01CE17DF07E8F54A815B8158
:104130009E0141155105B1F7E901FB83EA834991DD
:104140005991C40FD51FEC17FD0761F4808191814F
:104150000296840F951FE901998388838281938158
:104160009B838A83F0E0E0E012968D919C911397F7
:104170000097B9F52D913C911197CD010296820FD0
:10418000931F20914506309146062817390739F6C6
:10419000309751F51092480610924706B0934606A4
:1041A000A0934506BCCFD383C28340815181840F45
:1041B000951FC817D90761F44E5F5F4F88819981B9
:1041C000480F591F518340838A819B819383828347
:1041D0002115310509F0B0CFF0934806E09347066A
:1041E0009ECFFD01DC01C0CF13821282D7CFB0E099
:1041F000A0E0EDEFF0E20C94661F8C01009751F403
:10420000CB010E94D21F8C01C801CDB7DEB7E0E11F
:104210000C94821FFC01E60FF71F9C01225031090C
:10422000E217F30708F49DC0D901CD91DC911197F5
:10423000C617D70798F0C530D10530F3CE010497E3
:104240008617970708F3C61BD70B2297C193D19304
:104250006D937C93CF010E946E20D6CF5B01AC1A88
:10426000BD0A4C018C0E9D1EA0914706B0914806D8
:10427000512C412CF12CE12C109731F58091450601
:10428000909146068815990509F05CC046165706B8
:1042900008F058C08091080190910901009741F4FD
:1042A0008DB79EB740910C0150910D01841B950B69
:1042B000E817F90708F055C0F0934606E093450665
:1042C000F90171836083A0CF8D919C911197129613
:1042D0006C90129713967C901397A815B90559F511
:1042E0006C0142E0C40ED11CCA14DB0420F1AC0105
:1042F0004A195B09DA011296159780F0628273827F
:1043000051834083D9016D937C93E114F10471F0E2
:10431000D7011396FC93EE93129776CF22968C0FCB
:104320009D1FF90191838083F301EFCFF09348063D
:10433000E093470669CF4816590608F42C017D0121
:10434000D3019ACFCB010E94D21F7C01009749F084
:10435000AE01B8010E94DB21C8010E946E208701D6
:1043600053CF10E000E050CF0F931F93CF93DF9314
:104370008C01FC0101900020E9F7CF01801B910B1B
:104380000E94D21FEC01009719F0B8010E94F82199
:10439000CE01DF91CF911F910F910895FB01DC01B8
:1043A00004C08D910190801921F441505040C8F70C
:1043B000881B990B0895FB01DC0102C001900D924E
:1043C00041505040D8F70895FC018191861721F0A3
:1043D0008823D9F7992708953197CF010895FB01D4
:1043E000DC018D91019080190110D9F3990B08958A
:1043F000FB01DC0101900D920020E1F70895FB0123
:10440000DC014150504048F001900D920020C9F766
:1044100001C01D9241505040E0F70895F894FFCF3D
:10442000FFFFFFFF010000000000490680000000C0
:10443000400014005400000000001011A9011610E3
:10444000A80100000000AD0C900C800C570C600C13
:10445000E30D170E000000004902A901D6019602E3
:104460000702E501F90100000000F60BA901F009BF
:10447000A80100000000FA0ECD0E1610A30EC60E05
:10448000B30EA40E0D0A0069203D200046696C653C
:104490002072656164696E67206661696C6564009D
:1044A000457320636F6E2061646420666972737463
:1044B000004661696C656420696E697469616C6944
:1044C0007A696E6720534420636172640A002F008A
:1044D0004661696C6564206F70656E696E673A202D
:1044E000003C2D204573706961002D3E20446967B2
:1044F000616C6F202E2E2E006E6F756E732E747889
:10450000740076657262732E747874005469656DF8
:10451000706F3A002B20706172612073756D61724B
:10452000002D207061726120706173617200646996
:1045300066666572656E63653A200050616C616203
:1045400072613A0066696C652073656C65637465B9
:10455000643A206E6F756E730066696C65207365D2
:104560006C65637465643A207665726273005365A6
:1045700020616361626F210050756E74616A653AF3
:10458000004F7472613F004A756761646F726573B2
:104590003A004573706961733A004A756761646FE8
:0445A000723A20004B
:00000001FF
