:020000040000FA
:100000000C946A000C9492000C9492000C94920050
:100010000C9492000C9492000C9492000C94920018
:100020000C9492000C9492000C9492000C94920008
:100030000C9492000C9492000C9492000C949200F8
:100040000C949D170C9492000C940D180C94E717C7
:100050000C9492000C9492000C9492000C949200D8
:100060000C943F180C94920000000000240027001C
:100070002A0000000000250028002B0000000000DE
:1000800023002600290004040404040404040202DA
:100090000202020203030303030301020408102007
:1000A0004080010204081020010204081020000012
:1000B0000008000201000003040700000000000027
:1000C00000007C3C3E5E2B3D3F2F5B5D3B2C2A229B
:1000D0005C005E1911241FBECFEFD8E0DEBFCDBF9C
:1000E00012E0A0E0B1E0E8EFF3E402C005900D9269
:1000F000AC39B107D9F726E0ACE9B2E001C01D92F6
:10010000A136B207E1F710E0CAE6D0E004C02197BB
:10011000FE010E94B81FC936D107C9F70E94B21963
:100120000C94FA210C940000833081F028F4813083
:1001300099F08230A9F008958730A9F08830C9F08D
:100140008430B1F4809180008F7D03C08091800065
:100150008F7780938000089584B58F7784BD08954C
:1001600084B58F7DFBCF8091B0008F778093B000F6
:1001700008958091B0008F7DF9CFCF93DF93282F22
:1001800030E0F901E255FF4F8491F901E656FF4F47
:10019000D491F901EA57FF4FC491CC23A1F081110A
:1001A0000E949400EC2FF0E0EE0FFF1FE458FF4F89
:1001B000A591B491EC91ED2381E090E009F480E009
:1001C000DF91CF91089580E090E0FACF1F93CF9315
:1001D000DF93282F30E0F901E255FF4F8491F901B8
:1001E000E656FF4FD491F901EA57FF4FC491CC2353
:1001F000A9F0162F81110E949400EC2FF0E0EE0F71
:10020000FF1FEE58FF4FA591B4918FB7F894EC9172
:10021000111108C0D095DE23DC938FBFDF91CF9101
:100220001F910895DE2BF8CFCF93DF9390E0FC0170
:10023000E656FF4F24918A579F4FFC0184918823F3
:10024000D1F090E0880F991FFC01E859FF4FA5916C
:10025000B491FC01EE58FF4FC591D49161110EC0CD
:100260009FB7F8948C91E22FE0958E238C93288190
:10027000E223E8839FBFDF91CF9108958FB7F89471
:10028000EC91E22BEC938FBFF6CF3FB7F8948091BF
:10029000620390916303A0916403B091650326B556
:1002A000A89B05C02F3F19F00196A11DB11D3FBFAE
:1002B000BA2FA92F982F8827BC01CD01620F711D7D
:1002C000811D911D42E0660F771F881F991F4A9577
:1002D000D1F708958F929F92AF92BF92CF92DF9203
:1002E000EF92FF924B015C010E9445016B017C0182
:1002F0000E9445016C197D098E099F09683E734073
:1003000081059105A8F321E0821A9108A108B1089E
:1003100088EEC80E83E0D81EE11CF11C8114910404
:10032000A104B10429F7FF90EF90DF90CF90BF9028
:10033000AF909F908F9008952FB7F89460915E03CF
:1003400070915F0380916003909161032FBF0895C6
:100350000895AF92BF92CF92DF92EF92FF920F93E8
:100360001F93CF93DF936C017B018B01040F151F4B
:10037000EB015E01AE18BF08C017D10759F06991B3
:10038000D601ED91FC910190F081E02DC601099517
:10039000892B79F7C501DF91CF911F910F91FF90C4
:1003A000EF90DF90CF90BF90AF900895FC01538DF8
:1003B000448D252F30E0842F90E0821B930B54173F
:1003C00010F0CF96089501970895FC01918D828DCC
:1003D000981761F0A28DAE0FBF2FB11D5D968C9165
:1003E000928D9F5F9F73928F90E008958FEF9FEFA4
:1003F0000895FC01918D828D981731F0828DE80F60
:10040000F11D858D90E008958FEF9FEF0895FC0119
:10041000918D228D892F90E0805C9F4F821B9109E6
:100420008F739927089589E695E00E94070221E0DD
:10043000892B09F420E0822F089580E090E0892B39
:1004400029F00E94130281110C9400000895FC0110
:10045000A48DA80FB92FB11DA35ABF4F2C91848D25
:1004600090E001968F739927848FA689B7892C9382
:10047000A089B1898C91837080648C93938D848DD5
:10048000981306C00288F389E02D80818F7D8083D8
:100490000895EF92FF920F931F93CF93DF93EC0198
:1004A00081E0888F9B8D8C8D98131AC0E889F9891B
:1004B000808185FF15C09FB7F894EE89FF8960831E
:1004C000E889F98980818370806480839FBF81E09F
:1004D00090E0DF91CF911F910F91FF90EF900895E1
:1004E000F62E0B8D10E00F5F1F4F0F731127E02EBC
:1004F0008C8D8E110CC00FB607FCFACFE889F989F4
:10050000808185FFF5CFCE010E942702F1CFEB8DD0
:10051000EC0FFD2FF11DE35AFF4FF0829FB7F894C7
:100520000B8FEA89FB8980818062CFCFCF93DF93E5
:10053000EC01888D8823B9F0AA89BB89E889F989FB
:100540008C9185FD03C0808186FD0DC00FB607FC30
:10055000F7CF8C9185FFF2CF808185FFEDCFCE0163
:100560000E942702E9CFDF91CF9108958FB7F894C9
:10057000809158038FBF089561E0FC0184810E943F
:10058000E6008091570381111092570308958EBDA4
:1005900000000DB407FEFDCF8EB508958FEF0C94CB
:1005A000C7020F931F93CF93DF93EC010E949C012E
:1005B0008B010E94CE028F3F69F00E949C01601B5C
:1005C000710B6C177D07A8F380E0DF91CF911F912D
:1005D0000F91089581E0F9CF8CBD9DBD0895CF9313
:1005E000DF93EC0180915703811109C081E0809372
:1005F000570380910606909107060E94EC0260E086
:100600008C81DF91CF910C94E6008F929F92AF92F4
:10061000BF92FF920F931F93CF93DF93EC01F62EBF
:1006200049015A018E81882389F08F8198859C0128
:100630002F5F3F4F38872F838230924018F40E94FB
:10064000CE02F3CFCE010E94BC021E82CE010E94D8
:10065000EF028CE291E00E94D1028F2D80640E9413
:10066000C70208E110E0D501C401002E04C0B69510
:10067000A795979587950A94D2F70E94C7020850CC
:100680001109083F8FEF180771F785E9FF2021F066
:1006900028E087E8F2128FEF0E94C70210E00E9464
:1006A000CE028A8787FF04C01F3F11F01F5FF7CF7C
:1006B000DF91CF911F910F91FF90BF90AF909F90CE
:1006C0008F900895AF92BF92CF92DF92EF92FF92F8
:1006D0000F931F93CF93DF93EC016901C801820F41
:1006E000931F8130924050F58E81882379F0888164
:1006F0009981AA81BB8184179507A607B70731F4B2
:100700008F819885C816D90608F042C0488359835E
:100710006A837B838B85833039F089E0440F551FD2
:10072000661F771F8A95D1F79A01AB0161E1CE016F
:100730000E940503882389F083E08D83CE010E9407
:10074000BC0280E0DF91CF911F910F91FF90EF905D
:10075000DF90CF90BF90AF9008950E949C015B0105
:100760000E94CE028A878F3F69F40E949C016A1919
:100770007B096D327140A0F38FE08D83CE010E9422
:10078000BC02DCCF8E3F89F418861F8281E08E8305
:100790008F8198858C159D0550F40E94CE028F8123
:1007A0009885019698878F83F3CF8DE0E6CF670118
:1007B000E00EF11E0E94CE02F60181936F01EE154C
:1007C000FF05C1F78F819885080F191F18870F83C0
:1007D0008985882319F001151240A0F08E818823A5
:1007E00089F08F8198859C012F5F3F4F38872F8339
:1007F0008230924018F40E94CE02F3CFCE010E94C4
:10080000BC021E8281E09ECFCF92DF92EF92FF92D8
:100810000F93CF93DF93EC01690182E141155105FC
:100820006105710599F08B85833039F089E0440FBB
:10083000551F661F771F8A95D1F79A01AB0168E1B2
:10084000CE010E940503882319F084E08D832DC01A
:100850008EEF0E94C70276018EEFD81AF7018191C0
:100860007F010E94C702EC14FD04C1F78FEF0E94C4
:10087000C7028FEF0E94C7020E94CE028A878F7143
:10088000853071F4011116C0CE010E94BC0281E0D6
:10089000DF91CF910F91FF90EF90DF90CF9008956F
:1008A00081E18D83CE010E94BC02CE010E94BC0278
:1008B00080E0EECF88E592E00E94D102811102C073
:1008C00085E1C4CF20E030E0A9016DE0CE010E94B7
:1008D0000503882311F084E1B9CF0E94CE02811173
:1008E000FACFD2CF0F934091590350915A036091A0
:1008F0005B0370915C03411551056105710599F029
:10090000082F29E633E080916603909167030E94E7
:100910000404882349F01092590310925A0310924C
:100920005B0310925C0381E00F9108950F93CF93C6
:10093000C82F80916803811105C0C1E08C2FCF9131
:100940000F910895409100015091010160910201C1
:10095000709103010C2F29E633E08091660390919A
:1009600067030E940404811102C0C0E0E7CFCC23DA
:1009700021F381E00E9472048823B9F31092680386
:10098000DDCF8F929F92AF92BF92EF92FF920F9323
:100990001F93CF934B015C01C42F80910001909174
:1009A0000101A0910201B091030188159905AA05E2
:1009B000BB0551F181E00E94960481110BC080E0DB
:1009C000CF911F910F91FF90EF90BF90AF909F90AC
:1009D0008F90089589E6E82E83E0F82E00E012E07B
:1009E00030E020E0B501A401809166039091670397
:1009F0000E946203882319F3809200019092010102
:100A0000A0920201B0920301409168034C2B4093E5
:100A1000680381E0D5CF8F929F92AF92BF92CF9221
:100A2000DF92EF92FF92CF9328E036E03093670396
:100A300020936603882309F46DC040E060E070E015
:100A4000CB010E94C10481110BC080E0CF91FF90C7
:100A5000EF90DF90CF90BF90AF909F908F900895D0
:100A6000809127058F7789F7809133059091340520
:100A7000A0913505B091360584369105A105B105E3
:100A800020F3C0902F05D0903005E0903105F09014
:100A90003205C114D104E104F104B9F240E0C70108
:100AA000B6010E94C104882381F280917403909161
:100AB00075038115924049F6A0917903AA2329F282
:100AC00060917703709178036115710509F4BDCFCA
:100AD00020917603222309F4B8CFA0932606209311
:100AE000180690E080E030E0E1E0F0E0C82FAF01D0
:100AF000082E02C0440F551F0A94E2F72417350749
:100B000069F041E0480F01968930910579F74093EB
:100B100021069BCFC12CD12C7601C0CF809321061A
:100B200020917F033091800350E040E02115310592
:100B300041F420918D0330918E0340918F035091A9
:100B400090032093190630931A0640931B06509386
:100B50001C0646015701860E971EA11CB11C8092EF
:100B6000270690922806A0922906B0922A06E091C4
:100B70007A03F0917B03F0932D06E0932C06B0E00E
:100B80000E943D1FDC01CB01880D991DAA1DBB1DD4
:100B900080932E0690932F06A0933006B0933106D3
:100BA00025E0EE0FFF1F2A95E1F7E150FE4FEF2FF2
:100BB000FF27E6958E0F9F1FA11DB11D8093220672
:100BC00090932306A0932406B093250680907C037F
:100BD00090907D03B12CA12C8114910441F480905C
:100BE000890390908A03A0908B03B0908C03C81A5D
:100BF000D90AEA0AFB0AC80CD91CEA1CFB1C04C06F
:100C0000F694E794D794C794CA95D2F7C0921D067C
:100C1000D0921E06E0921F06F092200685EFC816BD
:100C20008FE0D806E104F10428F48CE080932B06D1
:100C300081E00CCF80E125EFC2162FEFD206E10450
:100C4000F104A0F38091950390919603A0919703EE
:100C5000B091980380932E0690932F06A0933006B0
:100C6000B093310680E2E2CF4F925F926F927F9213
:100C70008F929F92AF92BF92CF92DF92EF92FF92AC
:100C80000F931F93CF93DF93EC0142305105610521
:100C9000710590F480E0DF91CF911F910F91FF904B
:100CA000EF90DF90CF90BF90AF909F908F907F900C
:100CB0006F905F904F90089589859A85AB85BC852C
:100CC0000196A11DB11D84179507A607B70710F35C
:100CD000CB88DC88ED88FE888F89803109F042C09E
:100CE000BB27A72F962F852F480159012A013B01C9
:100CF000C80ED91EEA1EFB1E8091000190910101D1
:100D0000A0910201B0910301C816D906EA06FB06BC
:100D100099F58F898031C1F5B301A2015527662766
:100D20007727440F551F47595C4FFA019182808203
:100D3000809168038160809368038A89823080F0A3
:100D40008D819E81AF81B8858C0D9D1DAE1DBF1D0F
:100D50008093590390935A03A0935B03B0935C0371
:100D600081E099CFDB01CA01E7E0B695A795979599
:100D70008795EA95D1F7B8CF40E0C701B6010E9448
:100D8000C1048111C6CF86CFB301A2014F77552789
:100D900066277727440F551F440F551F47595C4F4F
:100DA000FA0180829182A282B382C2CF8F929F92F7
:100DB000AF92BF92CF92DF92EF92FF920F931F9369
:100DC000CF93DF93FC0181859285A385B48501963D
:100DD000A11DB11D84179507A607B70770F480E021
:100DE000DF91CF911F910F91FF90EF90DF90CF9007
:100DF000BF90AF909F908F90089583889488A58826
:100E0000B6888789803189F5BB27A72F962F852F34
:100E1000E9016A017B018F01BC01CD01680D791DDB
:100E20008A1D9B1D8090000190900101A0900201FD
:100E3000B090030186169706A806B90601F5F801D9
:100E40008789803111F5DD24EE24FF24F601EE0FB1
:100E5000FF1FE759FC4F80819181B0E0A0E08883BB
:100E60009983AA83BB8381E0BBCFDB01CA01C7E0C2
:100E7000B695A79597958795CA95D1F7C9CF40E0C4
:100E80000E94C1048111DBCFAACFE894C7F8DD240A
:100E9000EE24FF24F601EE0FFF1FEE0FFF1FE759B0
:100EA000FC4F80819181A281B381BF70D8CF4F92D6
:100EB0005F926F927F92AF92BF92CF92DF92EF924A
:100EC000FF920F931F93CF93DF9300D000D0CDB745
:100ED000DEB78C0149835A836B837C835901C12C13
:100EE000D12C7601412C82E0582E612C712C498145
:100EF0005A816B817C819E012F5F3F4FC8010E9408
:100F0000D606882339F1F8018585A301920104C032
:100F1000220F331F441F551F8A95D2F7DA01C901EA
:100F2000C80ED91EEA1EFB1E49815A816B817C8145
:100F30008789803111F188EF9FEFAFEFBFE048174D
:100F400059076A077B0798F2F501C082D182E282D5
:100F5000F38281E00F900F900F900F90DF91CF916F
:100F60001F910F91FF90EF90DF90CF90BF90AF90C7
:100F70007F906F905F904F90089588EF9FEFA0E073
:100F8000B0E0DDCFCF93DF93FC012581222321F058
:100F900080E0DF91CF910895EC0180912B068031A4
:100FA00059F582E08583178A108E118E128E8091FA
:100FB0002C0690912D06B0E0A0E025E0880F991F47
:100FC000AA1FBB1F2A95D1F7838B948BA58BB68B59
:100FD00084E196E09C8F8B8F81E08C831E821F8240
:100FE000188619861A861B861C861D861E861F86F5
:100FF000188A198A1A8ACDCF803251F683E0858308
:1010000040912E0650912F06609130067091310666
:10101000478B508F618F728F9F012D5E3F4F84E110
:1010200096E00E9457078111D3CFB2CF8F929F9243
:10103000AF92BF92CF92DF92EF92FF920F931F93E6
:10104000CF93DF93EC018D8181110EC080E0DF91A1
:10105000CF911F910F91FF90EF90DF90CF90BF90B5
:10106000AF909F908F9008950B891C892D893E89A0
:10107000041715072607370748F34A015B0182303A
:1010800031F48A869B86AC86BD8681E0E0CF8114F0
:101090009104A104B10449F41E821F8218861986A6
:1010A0001A861B861C861D86F0CF0A851B852C851B
:1010B0003D85EB8DFC8D858590E00996B901A801F1
:1010C0004150510961097109082E04C07695679550
:1010D000579547950A94D2F775016401E1E0CE1A5D
:1010E000D108E108F10804C0F694E794D794C794B6
:1010F0008A95D2F7C416D506E606F70620F0012B2E
:10110000022B032B11F58F89988DA98DBA8D8E83B3
:101110009F83A887B9878E010A5F1F4FC114D1042E
:10112000E104F10409F4ADCF4E815F8168857985D2
:1011300098018B8D9C8D0E94D60691E0C91AD1082A
:10114000E108F1088111EACF81CFC41AD50AE60A75
:10115000F70AE1CF3F924F925F926F927F928F9208
:101160009F92AF92BF92CF92DF92EF92FF920F9336
:101170001F93CF93DF93CDB7DEB72C970FB6F894BC
:10118000DEBF0FBECDBF5C01DC015B968D909C90F5
:101190005C9716964D905D906D907C9019974114D8
:1011A00051046104710409F468C0BFEF4B1A5B0A73
:1011B0006B0A7B0A312CF40181859285A385B48565
:1011C0009C01AD012F5F3F4F4F4F5F4F29873A87FB
:1011D0004B875C87730162011D821E821F82188605
:1011E000F40181859285A385B4852D813E814F814F
:1011F0005885281739074A075B0708F056C08985C4
:101200009A85AB85BC858C159D05AE05BF0550F450
:1012100082E0C82ED12CE12CF12C92E0492E512CE9
:10122000612C712C9E012F5F3F4FB701A601C401B5
:101230000E94D6068823C9F189819A81AB81BC813D
:10124000892B8A2B8B2B09F1260137019FEF491A35
:10125000590A690A790A2D813E814F8158852F5F8D
:101260003F4F4F4F5F4F2D833E834F8358873FEF54
:10127000C31AD30AE30AF30AB3CFF40140805180C2
:10128000628073803324339496CFC414D504E6046B
:10129000F70409F70FEF1FEF2FEF3FE0B701A601AB
:1012A000C4010E943406811119C080E02C960FB64B
:1012B000F894DEBF0FBECDBFDF91CF911F910F918C
:1012C000FF90EF90DF90CF90BF90AF909F908F9066
:1012D0007F906F905F904F903F900895D501169644
:1012E0004D915D916D917C91199741155105610565
:1012F000710539F097018601C4010E9434068823E4
:10130000A1F2D5011696CD92DD92ED92FC9219973D
:10131000332051F0D701C6010196A11DB11DF40182
:1013200080839183A283B383F5018789908DA18DFA
:10133000B28D892B8A2B8B2B39F48481C78AD08E6E
:10134000E18EF28E80688483F501848180628483DB
:1013500081E0ACCF1F93CF93DF93FC012581222343
:10136000D1F1162FEC01848187FF2AC0668577852D
:101370008089918941E00E94C104882361F1EA8952
:1013800080E2E89FF0011124E759FC4F309719F1F2
:101390008D81823040F48B899C89AD89BE89848F90
:1013A000958FA68FB78F8F89988D938F828F8F8916
:1013B000988DA98DBA8DB58BA48B8C818F778C83FA
:1013C000111103C08C818F7E8C83812FDF91CF918F
:1013D0001F910C94960480E0DF91CF911F910895A6
:1013E000FF920F931F93CF93DF93EC018D81813098
:1013F00041F090E080E0DF91CF911F910F91FF903D
:1014000008958C8181FFF5CF82FD1BC0009166039A
:1014100010916703C8010E94EF020E94CE02F82ECD
:10142000C8010E94BC028FEFF812E3CF8C8185FFC8
:101430001BC060E0CE010E94AA098C818F7D8C8345
:10144000D8CF4B895C896D897E898A859B85AC85DF
:10145000BD8584179507A607B707C1F2CE010E9484
:1014600016088111D3CFC5CF4091590350915A032B
:1014700060915B0370915C03452B462B472B21F059
:1014800080E00E947204B5CF80618C832A853B8501
:10149000317080E092E0821B930BADCFCF93DF934E
:1014A000EC0161E00E94AA09882311F01D8281E00D
:1014B000DF91CF9108952F923F924F925F926F925A
:1014C0007F928F929F92AF92BF92CF92DF92EF92D4
:1014D000FF920F931F93CF93DF9300D000D01F9202
:1014E000CDB7DEB77C015B01342E5D83DC01159640
:1014F0008C911597813009F0CEC014962C9021FE66
:10150000CAC022FCB4C0C32CDD8022947FE0272215
:101510002094B22DB1702B2ED7011A964D915D916A
:101520006D917C911D97C114D10409F428C15B967B
:101530008D919C915C97FC0174807A948A019B0147
:1015400069E036952795179507956A95D1F770222A
:101550008A011170711020C001151105E9F4169669
:101560004D915D916D917C911997411551056105E2
:10157000710509F099C057968D919D910D90BC9180
:10158000A02D0097A105B10509F0B0C0C7010E94C8
:10159000AA08882309F47FC080E092E0801B910BA9
:1015A00046018C159D0508F44C01D7015B964D91C1
:1015B0005C915C9716968D919D910D90BC91A02D9C
:1015C0000297A109B109FA01258504C0880F991F66
:1015D000AA1FBB1F2A95D2F7468557856089718956
:1015E000840F951FA61FB71F9C01AD01270D311D4C
:1015F000411D511D29013A01811432E0930609F081
:101600007BC08091000190910101A0910201B091F5
:10161000030184159505A605B70559F48FEF9FEFD3
:10162000DC018093000190930101A0930201B0932B
:101630000301022D9501B301A201809166039091EF
:1016400067030E940404882331F19EEFB91AC81879
:10165000D908F70182859385A485B585880D991DE4
:10166000A11DB11D82879387A487B58755CFF70148
:10167000438954896589768982859385A485B58552
:10168000481759076A077B0709F43DCFC7010E9435
:101690001608811138CF81E090E0D70113969C9312
:1016A0008E93129780E007C09E012F5F3F4F0E94EC
:1016B000D606811102C090E079C089819A81AB8100
:1016C000BC81F701238D348DF901278948EF5FEF45
:1016D00060E070E0203121F048EF5FEF6FEF7FE0D6
:1016E00084179507A607B70708F050CFF701868340
:1016F0009783A087B18750CF0115110599F5D701C0
:101700001A964D915D916D917C911D9753968D9197
:101710009D910D90BC91A02D481759076A077B0732
:1017200008F181E00E949604882309F4B4CF409226
:1017300000015092010160920201709203018091B8
:101740006803816080936803C80187599C4FD50165
:101750009C01280D391DFC012E173F0759F04D91B2
:101760004193FACF41E0C301B2010E94C10481114B
:10177000EBCF91CF281B390BA20EB31E68CFF70118
:1017800083899489A589B68984179507A607B70721
:1017900038F48481438B548B658B768B806884838B
:1017A000F701848183FD1AC0832D9D810F900F90D6
:1017B0000F900F900F90DF91CF911F910F91FF909D
:1017C000EF90DF90CF90BF90AF909F908F907F90E1
:1017D0006F905F904F903F902F90089561E0C70108
:1017E0000E94AA09882309F456CFDECFCF93DF9356
:1017F0001F92CDB7DEB7698341E050E0BE016F5F55
:101800007F4F0E945B0A0F90DF91CF910895FC01FA
:10181000DB0112968D919C911397938382838AE4C6
:1018200091E09183808314968C911497848315960C
:101830008C911597858316964D915D916D917C9154
:10184000199746835783608771871A964D915D91EA
:101850006D917C911D9742875387648775871E968B
:101860004D915D916D917C91519746875787608B23
:10187000718B52968C915297828B53964D915D91BC
:101880006D917C915697438B548B658B768B5796D5
:101890004D915D916D917C915A97478B508F618FDF
:1018A000728F5B968D919C91948F838F0895FC012C
:1018B000818D928D009719F061E00C94AA0908952A
:1018C000DC015996ED91FC913097B9F083899489A8
:1018D000A589B6894285538564857585841B950BDA
:1018E000A60BB70B811520E89207A105B10538F0CA
:1018F0008FEF9FE7A0E0B0E0089590E080E00895CA
:10190000DC0159968D919C91009739F0DC01ED91A5
:10191000FC910480F581E02D099490E080E0089529
:10192000CF93DF93EC01E98DFA8D309749F481E094
:1019300090E09B838A8390E080E0DF91CF910895CF
:1019400013821282898D9A8D0E945B0AE98DFA8D2D
:1019500022813381232B59F7F0CFCF93DF931F924E
:10196000CDB7DEB76983DC01ED91FC910280F38194
:10197000E02D41E050E0BE016F5F7F4F09950F9071
:10198000DF91CF9108952F923F924F925F926F9285
:101990007F928F929F92AF92BF92CF92DF92EF92FF
:1019A000FF920F931F93CF93DF9300D01F92CDB779
:1019B000DEB7FC018581811118C08FEF9FEF0F907A
:1019C0000F900F90DF91CF911F910F91FF90EF90AB
:1019D000DF90CF90BF90AF909F908F907F906F904F
:1019E0005F904F903F902F900895848180FFE5CFC6
:1019F000438954896589768982859385A485B585CF
:101A0000312C212C481759076A077B0719F022242B
:101A10002394312C6F012101CE0101963C01DF019D
:101A20001696BB83AA834114510409F4C5C0F6017C
:101A300042855385648575854A01F1E09F22D60170
:101A40005B968D919C915C978A019B01E9E03695AC
:101A5000279517950795EA95D1F71596EC91E23001
:101A6000E9F5FC01628D738D848D958D600F711F7A
:101A7000821F931FA12C22E0B22EA818B9084A1485
:101A80005B0408F45201F601248126FD04C0A11470
:101A9000F2E0BF0671F40091000110910101209164
:101AA000020130910301061717072807390709F0CB
:101AB0005EC040E00E94C104882309F47ECFC401C7
:101AC00087599C4FD3019C012A0D3B1DFC012E1709
:101AD0003F0709F46CC041914D93F9CFDC01149696
:101AE000BC90BA94B0228114910479F4B1100DC065
:101AF000452B462B472B69F5F6018789908DA18DE3
:101B0000B28D86839783A087B187D6015B96ED91CE
:101B1000FC915C9716966D917D918D919C91199792
:101B20006250710981099109258504C0660F771FEC
:101B3000881F991F2A95D2F7068517852089318934
:101B4000600F711F821F931F6B0D711D811D911DF1
:101B500091CFD60116964D915D916D917C9119971B
:101B60002A813B810E94D6068111CFCF26CF7301F7
:101B700085019401AB01BC018091660390916703DC
:101B80000E946203882309F418CF6A0C7B1CF601BB
:101B900082859385A485B5858A0D9B1DA11DB11DE8
:101BA00082879387A487B5874A185B083CCF281B98
:101BB000390B620E731EEBCF2A94232809F0FDCE59
:101BC000898190E0FCCEFC01818D928D009711F00F
:101BD0000C94C30C8FEF9FEF08950F931F93CF9337
:101BE000DF93EC010E949C01688779878A879B8735
:101BF000CE010E94E30D97FF15C00E949C0108854D
:101C000019852A853B85601B710B820B930B0C8118
:101C10001D812E813F81601771078207930740F372
:101C20008FEF9FEFDF91CF911F910F9108950F9349
:101C30001F93CF93DF93EC01898D9A8D10E000E024
:101C4000009799F00E94C30C8C010F3F100769F0B8
:101C5000898D9A8DFC014285538564857585415037
:101C60005109610971090E941608C801DF91CF91DD
:101C70001F910F91089520910B03260F3327331FD7
:101C800021323105ECF420913103FC0190E080E039
:101C9000243069F082E00895A0910B032191AC01FA
:101CA00047515D4FA40FB52FB11D2C930196861798
:101CB00098F380910B03680F60930B0380E0089505
:101CC00081E008951092310381E0809333031092F4
:101CD000320361E082E10E94E60061E083E10E945C
:101CE000E600E9EBF0E080818E7F808380818D7F4C
:101CF000808388E48093B80085E48093BC000895D5
:101D0000CF93DF9391E09093E8028823B9F0C091DC
:101D1000B800D091BA008091BC008A7B8093BC004F
:101D200060E082E10E94E60060E083E10E94E6005C
:101D30000E94620ED093BA00C093B800DF91CF9199
:101D40000895089508950895E091E0028091DF02DA
:101D5000E81730F4F0E0E154FD4F808190E0089501
:101D60008FEF9FEF08959091E0028091DF022FEFB7
:101D70003FEF981748F4E92FF0E0E154FD4F208140
:101D800030E09F5F9093E002C90108958091DF02E7
:101D90009091E002891B990B0895CF92DF92EF9208
:101DA000FF920F931F93CF93DF937C01CB018A01A6
:101DB0002091BE02222389F0EB016B01C40ED51ED7
:101DC000CC15DD0569F06991D701ED91FC91019089
:101DD000F081E02DC7010995F3CF642F0E943B0EDF
:101DE000C801DF91CF911F910F91FF90EF90DF908D
:101DF000CF900895CF93DF931F92CDB7DEB769835D
:101E00002091BE022223F9F02091E102203258F005
:101E100021E030E0FC013383228390E080E00F90EA
:101E2000DF91CF9108958091E202E82FF0E0E25631
:101E3000FD4F998190838F5F8093E2028093E1024E
:101E400081E090E0ECCF61E0CE0101960E943B0E74
:101E5000F7CFCF92DF92EF92FF920F931F93CF9322
:101E6000DF93FC01C48121E02093BE02C0939D0258
:101E70001092E2021092E1028385682B81E596E0E0
:101E80000E94FA0ED091E102D13208F092C00E9475
:101E900045016B017C0180913103811165C082E0B5
:101EA0008093310381E0809333038FEF809330037D
:101EB00010925503D0935403AEE9B2E0E4E3F3E0AB
:101EC00080E0D81385C01092560380915603CC0F42
:101ED000C82BC093560380913203813009F07CC037
:101EE000109232030E9445016B017C0180915603E0
:101EF0008093BB008091E4029091E502A091E602FC
:101F0000B091E702892B8A2B8B2B99F00E94450117
:101F10000091E4021091E5022091E6023091E7027F
:101F20006C197D098E099F090617170728073907BD
:101F3000E0F18091BC0083FDD9CF85EC8093BC009B
:101F40000E9445016B017C0180913103823009F4CC
:101F500045C0809130038F3F61F180913003803222
:101F600041F18091300325C08091E4029091E50217
:101F7000A091E602B091E702892B8A2B8B2B09F402
:101F80008ACF0E9445010091E4021091E502209160
:101F9000E6023091E7026C197D098E099F09061748
:101FA00017072807390708F076CF8091E3020E94CF
:101FB000800E1092E2021092E1021092BE02DF91B6
:101FC000CF911F910F91FF90EF90DF90CF900895E8
:101FD0009D9191938F5F75CF85EEB0CF8091E40294
:101FE0009091E502A091E602B091E702892B8A2B3D
:101FF0008B2B09F4A9CF0E9445010091E4021091B6
:10200000E5022091E6023091E7026C197D098E0904
:102010009F09061717072807390708F095CFC5CF7E
:1020200028E0FC01238760E00C94290F90E080E019
:102030000895CF93DF9387E00E94BD00D0E0C0E019
:10204000892B11F4C8E0D0E086E00E94BD00892B06
:10205000E1F090E080E0C82BD92B85E00E94BD0024
:10206000892BB1F090E080E0C82BD92B84E00E944E
:10207000BD0021E030E0892B11F030E020E0C90103
:102080008C2B9D2BDF91CF91089584E090E0E3CFDE
:1020900082E090E0E9CF0F931F93CF93DF93EC01A1
:1020A00080E2689FF0011124E759FC4F6A8B809110
:1020B000000190910101A0910201B09103018E876E
:1020C0009F87A88BB98B0489158930E020E098019F
:1020D000112700270F8B188F298F3A8F828D938DB0
:1020E000B0E0A0E0AC01BD01402B512B622B732B63
:1020F0004F8B588F698F7A8F83858871A9F4848D6F
:10210000958DA68DB78D8B8B9C8BAD8BBE8B81E017
:102110008D8381E08C831E821F82188619861A8621
:102120001B861C861D8603C0803131F080E0DF9164
:10213000CF911F910F9108959E012D5E3F4F8B8D82
:102140009C8D0E945707882389F384E0E1CF0F9389
:102150001F93CF938C01C62F0E94290F6C2F6460B0
:10216000C8010E94290F6C2F6B7FC8010E94290FA4
:1021700083EC90E00197F1F7CF911F910F910895B3
:102180000F931F93CF93DF938C01D62FC42F607FC3
:10219000642B0E94A71080E1D89FB00111246C2B02
:1021A000C801DF91CF911F910F910C94A710CF938D
:1021B000DF93CDB7DEB728970FB6F894DEBF0FBE1A
:1021C000CDBF28E0EEE0F1E0DE01119601900D9226
:1021D0002A95E1F7FC012085241708F44FEF50E021
:1021E000440F551F21E030E02C0F3D1F420F531FBD
:1021F000FA012081620F606840E028960FB6F894DB
:10220000DEBF0FBECDBFDF91CF910C94C01040E078
:1022100061E00E94C0108BE39FE10197F1F7089500
:1022200041E00E94C01081E090E008950F931F9359
:10223000CF93DF93EC011092E0021092DF02109234
:10224000E2021092E1020E94620E81EA9EE0909307
:102250000A038093090382EA9EE090930E03809321
:102260000D031D828A85823010F098E09D83888757
:1022700062E370E080E090E00E946A016B85CE012D
:102280000E94290F68EE73E080E090E00E946A01EE
:1022900060E3CE010E94A7100BE416E4C801019789
:1022A000F1F760E3CE010E94A710C8010197F1F792
:1022B00060E3CE010E94A71083E592E00197F1F759
:1022C00060E2CE010E94A7106D81606240E0CE0105
:1022D0000E94C01084E08E8340E06CE0CE010E943A
:1022E000C010CE010E94071182E08F8340E066E0BB
:1022F000CE010E94C01040E062E0CE010E94C010FA
:102300008BE39FE10197F1F7DF91CF911F910F913F
:102310000895AF92BF92CF92DF92EF92FF920F9308
:102320001F93CF93DF93CDB7DEB72B970FB6F894FB
:10233000DEBF0FBECDBF6C01FE013196CE010C9603
:102340007F0120E22193E817F907E1F7DA0120E0A5
:1023500037E09D91B92E9923A9F19E32B9F43A3014
:1023600091F480E02B960FB6F894DEBF0FBECDBF80
:10237000DF91CF911F910F91FF90EF90DF90CF9061
:10238000BF90AF90089528E03AE0E3CFE2ECF0E0B0
:102390008491882321F031969813FACFE2CF321737
:1023A00000F38FED890F8E35E0F68FE9890F8A31C2
:1023B00018F440EEB42EB90EF701E20FF11DB08211
:1023C0002F5FC7CF8981803261F28B01FB01838D42
:1023D000948DF601948F838FFB01168217821086ED
:1023E00011861286138614861586F80182859385D8
:1023F000A485B585438954896589768984179507AD
:10240000A607B70708F0ADCF25E0B695A795979535
:1024100087952A95D1F7F82FFF70AF2EF8018581A7
:10242000823008F49ECFC8010E94C30C97FD99CF5B
:10243000F80182859385A485B5854F96A11DB11DB0
:1024400082879387A487B587F0E2AF9EB0011124FD
:1024500067597C4F6115710509F483CFFB018081B9
:10246000882309F1853E19F4B11032C01EC04BE03B
:1024700050E0C7010E94BA21892B09F0B6CF6A2D1E
:10248000C6012B960FB6F894DEBF0FBECDBFDF910D
:10249000CF911F910F91FF90EF90DF90CF90BF9061
:1024A000AF900C944B10B1105CCFF601A28A8091D2
:1024B000000190910101A0910201B0910301868772
:1024C0009787A08BB18BFB018081882309F449CFCA
:1024D000BB24B3948ACFFC0180819181009711F0D5
:1024E0000C945A2008950F931F93CF93DF938C0180
:1024F000EB01FC01808191810097E1F06881798195
:1025000061157105A9F0428153812C813D814217EB
:10251000530770F00E94E4218C819D81F80195831E
:1025200084831D821C82DF91CF911F910F910895AA
:102530000E945A2088819981F801918380838A8141
:102540009B81938382838C819D819583848319826F
:1025500018821B821A82E5CF0F931F93CF93DF93CC
:10256000EC0188819981009759F02A813B812617D7
:10257000370730F081E0DF91CF911F910F910895DF
:102580008B016F5F7F4F0E94E320009759F0998382
:1025900088831B830A832C813D81232B59F7FC01FF
:1025A0001082E8CF80E0E7CFEF92FF920F931F9366
:1025B000CF93DF93EC017B018A01BA010E94AC1238
:1025C00028813981811114C02115310519F0C90103
:1025D0000E945A20198218821D821C821B821A8234
:1025E000CE01DF91CF911F910F91FF90EF90089551
:1025F0001D830C83B701C9010E94E421F1CFFC01C6
:10260000118210821382128215821482FB010190C2
:102610000020E9F73197AF01461B570B0C94D412F9
:10262000FB0101900020E9F73197AF01461B570BE2
:10263000DC01ED91FC910280F381E02D09948F92F1
:102640009F92AF92BF92EF92FF920F931F93CF93FF
:10265000DF93CDB7DEB7A1970FB6F894DEBF0FBEFC
:10266000CDBF7C01FA01CB0119A2223008F42AE087
:102670008E010F5D1F4F822E912CB12CA12CBF011A
:10268000A50194010E94871FF901CA016A300CF567
:10269000605DD8016E938D01232B242B252B79F7B8
:1026A00090E080E0109721F0BD01C7010E94101357
:1026B000A1960FB6F894DEBF0FBECDBFDF91CF91CC
:1026C0001F910F91FF90EF90BF90AF909F908F90D0
:1026D0000895695CDECFCF92DF92EF92FF920F9365
:1026E0001F93CF93DF9377FF21C06A017B01EC0139
:1026F000E881F9810190F081E02D6DE209958C016E
:1027000044275527BA014C195D096E097F092AE053
:10271000CE010E941F13800F911FDF91CF911F9157
:102720000F91FF90EF90DF90CF9008952AE0DF9116
:10273000CF911F910F91FF90EF90DF90CF900C946D
:102740001F13CF93DF93BC0189E695E00E9410131D
:10275000EC0164E671E089E695E00E9410138C0FAD
:102760009D1FDF91CF910895CF93DF93FC014481AA
:1027700055816081718189E695E00E94A901EC0193
:1027800064E671E089E695E00E9410138C0F9D1FAE
:10279000DF91CF9108950C941013EF92FF920F9355
:1027A0001F93CF93DF93EC017B018A011B821A8276
:1027B00088EE93E0A0E0B0E08C839D83AE83BF837E
:1027C00086E291E0998388838DE190E00E94BE1FAC
:1027D0009A8F898F009779F02DE1F701DC01019044
:1027E0000D922A95E1F74CE050E0B801CE010C962D
:1027F0000E94EB21188EDF91CF911F910F91FF90D6
:10280000EF90089585ED8093BC008091E402909153
:10281000E502A091E602B091E7020796A11DB11D65
:1028200023E0B695A795979587952A95D1F720919E
:10283000BC0024FD03C01092310308954091E402CE
:102840005091E5026091E6027091E702452B462B1C
:10285000472B69F30097A105B10541F02AE22A95BB
:10286000F1F700C00197A109B109E1CF8091E3021E
:102870000C94800E2F923F924F925F926F927F92B4
:102880008F929F92AF92BF92CF92DF92EF92FF9280
:102890000F931F93CF93DF93CDB7DEB72E970FB66D
:1028A000F894DEBF0FBECDBF8C017B012A01490128
:1028B000DB015996ED91FC91309709F4DEC08581DA
:1028C000882309F4DAC066E671E0CE0101960E9421
:1028D000FF12BFEF4B1A5B0A052C000C6608770845
:1028E000E1E04E1A5108610871080E94C61EA3015A
:1028F00092010E941E1F5B016C01FFEFAF1ABF0A1D
:10290000CF0ADF0A150167E671E089E695E00E94CB
:10291000CB13B601A50189E695E00E946B1364E62E
:1029200071E089E695E00E941013B12CA12CA2144D
:10293000B304CCF566E671E0CE0107960E94FF1263
:10294000C7010E94ED0D97FD1FC08A309105E1F08F
:102950008D871E86CB84DC842FEFC21AD20AB60183
:10296000CE0107960E94AC12882351F32F8138853F
:102970008B859C85BE01635F7F4F820F931F0E94F2
:10298000E421DC86CB86DCCFBE01695F7F4FCE01C0
:1029900001960E947312CE0107960E946B128FEF70
:1029A000A81AB80AC4CFA980BA80D4012C90119675
:1029B0003C90F101C280D380C114D10409F053C00E
:1029C00084E090E00E94BE1F6C01892B61F0F6014B
:1029D00022823382C5010E94A021D6018D939C934F
:1029E000F401D182C082D70159968D919C910097B4
:1029F00029F040E050E0BA010E9416086CE671E050
:102A000089E695E00E94CB13CE0101960E94B41393
:102A1000F801118210821382128215821482BE0183
:102A20006F5F7F4FC8010E947312CE0101960E9412
:102A30006B12C8012E960FB6F894DEBF0FBECDBF45
:102A4000DF91CF911F910F91FF90EF90DF90CF908A
:102A5000BF90AF909F908F907F906F905F904F90BE
:102A60003F902F900895B501808191810E94DB21D4
:102A7000F601892B09F09ECF38CF8AE791E00E94BA
:102A8000A113D7CF2F923F924F925F926F927F9276
:102A90008F929F92AF92BF92CF92DF92EF92FF926E
:102AA0000F931F93CF93DF93CDB7DEB7C657D109EE
:102AB0000FB6F894DEBF0FBECDBF5C01E5967FAFC9
:102AC0006EAFE59780913706882321F082E396E088
:102AD0000E944E0A109213061092110610920E06D2
:102AE00010920D068AE080930C060E949C018B01D7
:102AF00061E080910C060E94140161E080910C0657
:102B00000E94E600FFB6F89480919C02811127C0D4
:102B1000E0E9F0E08491E4EAF0E09491E82FF0E05D
:102B2000EE0FFF1FE859FF4FA591B491EC91E923F7
:102B300021F461E08AE00E94E60061E08AE00E9400
:102B400014018CB580618CBD8CB580648CBD61E056
:102B50008DE00E94140161E08BE00E9414018091DD
:102B60009C028F5F80939C02FFBE82E580930606E5
:102B70001092070680910606909107060E94EC02CB
:102B80002AE0F22E8FEF0E94C702FA94F110FACFDA
:102B900088E096E00E94EF0220E030E0A90160E0CA
:102BA00088E096E00E940503F82E8093120681E0EB
:102BB000F816A9F00E949C01601B710B613D7740E3
:102BC00058F381E080930D0688E096E00E94BC02F5
:102BD0006EE871E089E695E00E94CB13FFCF2AEA08
:102BE00031E040E050E068E088E096E00E940503B4
:102BF00082FF2AC0F092130680911306C12CD12CBB
:102C00007601823029F4C12CD12CE12C80E4F82EFD
:102C100020E030E0A90167E388E096E00E94050328
:102C2000A701960169E288E096E00E94050380937F
:102C300012068823D1F00E949C01601B710B613D3C
:102C4000774030F388E0BECF94E0F92E0E94CE02A8
:102C500080931206FA94F110F9CF8A3A11F082E0CB
:102C6000B1CF82E080931306C7CF809113068230E4
:102C7000D1F420E030E0A9016AE388E096E00E9408
:102C80000503882311F086E09DCF0E94CE02807C50
:102C9000803C19F483E0809313060E94CE020E94C8
:102CA000CE020E94CE0288E096E00E94BC0280E53F
:102CB000809306061092070681E00E940B05882388
:102CC00009F440C082E396E00E94C207882309F419
:102CD0007FCFE596EEADFFADE5976080718019A2DC
:102CE00018A28AE491E09F8F8E8F1BA21C821B8208
:102CF0009A8389831E824E01FEE18F0E911CC401CE
:102D00000E94C20763018E010F5F1F4F240118014B
:102D10006FE270E0C6010E94D021009709F465C0FF
:102D2000D6012C912F32A9F4BFEFCB1ADB0A902FDA
:102D3000812F8201492E582E942D852D2801092F8F
:102D4000182FE6CF80E00E940B05882309F440CFBE
:102D5000B9CF8C198D3008F08CE0E82EF12CA7014A
:102D6000B601CE01885A9F4F0E94EB21E8E5F0E0C2
:102D7000EC0FFD1FEE0DFF1D1082C8010E944E0AD0
:102D8000F8018581882311F11EAE1DAE8AE491E021
:102D90009CAF8BAF21961FAE2197E796AEADBFAD2E
:102DA000E7976A0E7B1EF301808181112BC0BE0163
:102DB000655C7F4FC1010E94070C4BEA51E0B101F5
:102DC000CE01885A9F4F0E94CD1343C0AE01485A8E
:102DD0005F4FB201C8010E9489118823A9F2CE0C6D
:102DE000DF1CC2010E944E0AA7CFC60186199709AF
:102DF000E7969FAF8EAFE797B201CE01CB960E94C8
:102E0000070CCBCF19A218A28AE491E09F8F8E8F76
:102E10001BA221968FAD2197811161C06C961FAEC8
:102E20001EAE6C9788EE93E0A0E0B0E0A0968CAF69
:102E30009DAFAEAFBFAFA09786E291E06A969FAF1D
:102E40008EAF6A97E3961FAE1EAEE397A5961FAEB0
:102E5000A5976C968EAD9FAD6C97D50113969C93FC
:102E60008E931297A0968CAD9DADAEADBFADA097E1
:102E7000F50184839583A683B783A4968CAD9DAD1D
:102E8000AEADBFADA49780879187A287B3873C96EC
:102E9000A8E5B0E0AC0FBD1F1C96C50149962D9169
:102EA0002193E817F907D9F7E396EEADFFADE39765
:102EB000D5015A96FC93EE935997309719F0858176
:102EC000811121C06DEA71E089E695E00E94CB1383
:102ED000E5968EAD9FADE5970E94B413FFCFA30199
:102EE000BE01655C7F4FC4010E948911882309F4EB
:102EF00095CFCE01CB960E944E0AB401C1010E942B
:102F0000070CA3015CCFCA58DF4F0FB6F894DEBFA1
:102F10000FBECDBFDF91CF911F910F91FF90EF902A
:102F2000DF90CF90BF90AF909F908F907F906F90E9
:102F30005F904F903F902F9008951F920F920FB681
:102F40000F9211242F933F938F939F93AF93BF932F
:102F500080915E0390915F03A0916003B091610343
:102F600030915D0323E0230F2D3758F50196A11D05
:102F7000B11D20935D0380935E0390935F03A09344
:102F80006003B09361038091620390916303A09109
:102F90006403B09165030196A11DB11D8093620386
:102FA00090936303A0936403B0936503BF91AF91C3
:102FB0009F918F913F912F910F900FBE0F901F9077
:102FC000189526E8230F0296A11DB11DD2CF1F929E
:102FD0000F920FB60F9211242F933F934F935F934D
:102FE0006F937F938F939F93AF93BF93EF93FF93D1
:102FF00089E695E00E942702FF91EF91BF91AF9182
:103000009F918F917F916F915F914F913F912F9100
:103010000F900FBE0F901F9018951F920F920FB632
:103020000F9211242F938F939F93EF93FF93E0912F
:103030007905F0917A058081E0917F05F091800516
:1030400082FD1BC09081809182058F5F8F732091DC
:103050008305821741F0E0918205F0E0E759FA4FCD
:10306000958F80938205FF91EF919F918F912F9182
:103070000F900FBE0F901F9018958081F4CF1F9274
:103080000F920FB60F9211242F933F934F935F939C
:103090006F937F938F939F93AF93BF93EF93FF9320
:1030A0008091B900887F803609F44AC0F0F58832F3
:1030B00009F4A7C018F5803109F49BC0B8F488233F
:1030C00009F4F9C0883009F494C0FF91EF91BF91E1
:1030D000AF919F918F917F916F915F914F913F91B0
:1030E0002F910F900FBE0F901F901895883109F403
:1030F00088C0803251F78093300314C0803409F4C3
:103100009DC040F48033B9F38833F9F680933003DF
:1031100085ECB0C0803509F485C0883509F496C0C7
:10312000883499F60E940214D0CF883909F48CC0F3
:1031300038F5883729F050F4883611F0803729F6B1
:1031400083E08093310310922F0357C0883809F42D
:103150007BC0803919F0803809F0B7CF80912F03F8
:10316000803208F071C0E0912F0381E08E0F8093D0
:103170002F038091BB00F0E0E15FFC4F80833DC0F6
:10318000803B39F0E0F4803A09F479C0883A09F0DC
:103190009CCF84E08093310310920C0310920B03B8
:1031A000E0910903F0910A03099580910B038111C5
:1031B0000FC081E080930B031092E90209C0803CAC
:1031C00009F4A6CF883C09F4A3CF883B09F07DCF52
:1031D000E0910C0381E08E0F80930C03F0E0E75147
:1031E000FD4F80818093BB0090910C0380910B0375
:1031F00029C0809156038093BB0085EC8093BC006E
:1032000064CF9091550380915403981758F5E0913D
:10321000550381E08E0F80935503F0E0EC5CFC4F8A
:103220008081E9CFE091550381E08E0F80935503B3
:103230008091BB00F0E0EC5CFC4F808390915503E3
:10324000809154039817C8F285E8D8CFE0915503D0
:1032500081E08E0F809355038091BB00F0E0EC5C21
:10326000FC4F80838091330381115CCF81E0809398
:10327000320384EA8093BC001092310326CF85ECA0
:103280008093BC001092310380912F03803230F480
:10329000E0912F03F0E0E15FFC4F108260912F037B
:1032A00070E0E0910D03F0910E038FE093E009953B
:1032B00010922F030ACF1092300334CFE9E6F5E0E5
:1032C0001382128288EE93E0A0E0B0E084839583BD
:1032D000A683B78328E331E03183208325EC30E0F7
:1032E0003587248724EC30E03787268720EC30E0D0
:1032F000318B208B21EC30E0338B228B22EC30E0C1
:10330000358B248B26EC30E0378B268B118E128E7A
:10331000138E148EE6E0F6E020E520831182E8E0CB
:10332000F6E0158216821186138642E050E060E0D6
:1033300070E0448755876687778713A215A614A681
:103340002AE431E033A722A717A6E1E5F6E01382CD
:10335000128284839583A683B78386E591E0918367
:1033600080830895CF93DF93CDB7DEB7CC55D109D5
:103370000FB6F894DEBF0FBECDBF789484B58260DF
:1033800084BD84B5816084BD85B5826085BD85B509
:10339000816085BD80916E00816080936E00109287
:1033A0008100809181008260809381008091810002
:1033B0008160809381008091800081608093800093
:1033C0008091B10084608093B1008091B0008160F1
:1033D0008093B00080917A00846080937A0080911D
:1033E0007A00826080937A0080917A008160809375
:1033F0007A0080917A00806880937A001092C100F0
:10340000E0917905F0917A0592E09083E09175055D
:10341000F09176051082E0917705F091780520E132
:10342000208310928105E0917D05F0917E0586E074
:103430008083E0917B05F0917C05808180618083B1
:10344000E0917B05F0917C05808188608083E0912C
:103450007B05F0917C05808180688083E0917B050D
:10346000F0917C0580818F7D80831AAE19AE4AE190
:1034700051E058AF4FAB87E28BAF21962FAF21972A
:1034800022969FAF229723961FAE2397CE01C79611
:103490000E941611CE01C7960E94071161E08AE0D2
:1034A0000E94140160E087E00E94140160E086E061
:1034B0000E94140160E085E00E94140160E084E055
:1034C0000E9414011F8E1E8E28EEC22E23E0D22EE3
:1034D000E12CF12CC8A2D9A2EAA2FBA206E211E0DB
:1034E0001D8F0C8F1EAA1DAA18A66EEB71E0CE01CF
:1034F00001960E94FF12BE016F5F7F4FCE014C9676
:103500000E944215CE0101960E946B121C821B8202
:10351000CD82DE82EF82F8861A8309831B8E1A8E93
:103520001D8668EC71E0CE018D5B9F4F0E94FF12FB
:10353000BE016D5B7F4FCE0101960E944215CE0108
:103540008D5B9F4F0E946B12CE01C7960E94101098
:1035500040E060E0CE01C7960E94D71062ED71E0B6
:10356000CE01C7960E94CB1341E060E0CE01C79622
:103570000E94D7106BED71E0CE01C7960E94CB136D
:103580000E9419100097E1F383FF56C064EF71E0C9
:1035900080E090E00E946A01D12CC12C0E949C0125
:1035A000611571058105910511F00E94151FCE016D
:1035B000C79621E0C216D10409F0E2C10E940711AA
:1035C000CE01C7960E941010C12CD12C7601CE01DD
:1035D000C7960E94071140E060E0CE01C7960E94A6
:1035E000D71069EE71E0CE01C7960E94CB1340E080
:1035F0006DE0CE01C7960E94D7102AE0B701A60160
:10360000CE01C7960E941F130E9419100097E1F384
:1036100080FF1EC0EBE0CE16D104E104F104C0F03F
:10362000FAE0CF1AD108E108F10864EF71E080E018
:1036300090E00E946A01CBCF82FFA2CF64EF71E0DD
:1036400080E090E00E946A01CC24C394D12CA6CFE4
:1036500081FF0DC02DEDC21623E0D206E104F10476
:1036600030F48AE0C80ED11CE11CF11CDECF82FFD1
:10367000DCCF64EF71E080E090E00E946A01CE014F
:10368000C7960E940711CE01C7960E94101040E015
:1036900060E0CE01C7960E94D71061EF71E0CE01C5
:1036A000C7960E94CB1341E060E0CE01C7960E940E
:1036B000D7106EEF71E0CE01C7960E94CB1390E059
:1036C00080E0009719F40E941910FBCF82FFF9CF18
:1036D00064EF71E080E090E00E946A01A8EEB3E040
:1036E000A70196010E943D1F4B015C0166E671E057
:1036F000CE01875B9F4F0E94FF12CE01C7960E94AA
:103700000711CE01C7960E94101061961FAE1EAE23
:1037100061970E949C012B013C0110E000E00E9497
:103720009C01641975098609970986169706A806EB
:10373000B90608F4A7C00E949C016B016BE072E01F
:1037400089E695E00E94CB13C418D508A601DD0CCC
:10375000660B770B89E695E00E946B1364E671E0D7
:1037600089E695E00E941013CE01C7960E941010C2
:10377000CE01C7960E94071140E060E0CE01C796D7
:103780000E94D71068E172E0CE01C7960E94CB1369
:1037900041E060E0CE01C7960E94D7100E94C61E8D
:1037A00023EF31E040E050E00E941E1F6F5F7F4F2B
:1037B0008F4F9F4F60FF40C081E292E00E94A113B3
:1037C0009E01215B3F4F4CE755E0BE01645E7F4F99
:1037D000CE018D5B9F4F0E943A14BE016D5B7F4FFF
:1037E000CE01875B9F4F0E947312CE018D5B9F4F6E
:1037F0000E946B12CE01875B9F4F0E94B4132F96DD
:103800004EAD5FAD2F972B966EAD7FAD2B97CE0152
:10381000C7960E94A9010E9419100097E1F381FF49
:1038200018C064EF71E080E090E00E946A0181E0DE
:1038300090E0080F191F73CF86E392E00E94A11356
:103840009E01215B3F4F4AE854E0BE016F5F7F4F0E
:10385000BFCF80FFE0CF64EF71E080E090E00E9496
:103860006A0190E080E0E5CFF70182819381619663
:103870009FAF8EAF6197808191810E945A20C701CE
:103880000E945A206196EEACFFAC6197E114F104FE
:1038900059F7CE01875B9F4F0E946B12CE01C796EE
:1038A0000E940711CE01C7960E94101040E060E010
:1038B000CE01C7960E94D7106BE472E0CE01C79686
:1038C0000E94CB1341E060E0CE01C7960E94D71062
:1038D00065E572E0CE01C7960E94CB1341E06AE035
:1038E000CE01C7960E94D710A801110F660B770B67
:1038F000CE01C7960E946B1390E080E0009719F408
:103900000E941910FBCF82FFF9CF64EF71E080E0D5
:1039100090E00E946A01CE01C7960E940711CE0175
:10392000C7960E94101040E060E0CE01C7960E944A
:10393000D7106EE572E0CE01C7960E94CB1390E0DF
:1039400080E0009719F40E941910FBCF82FF07C096
:1039500064EF71E080E090E00E946A01C7CE83FFCF
:10396000F0CF64EF71E080E090E00E946A01CE0148
:10397000C7960E940711CE01C7960E941010E4CD91
:103980000E941611CE01C7960E9410106D961FAEB0
:103990001EAE6D9766E671E0CE018B5A9F4F0E9476
:1039A000FF12CE01C7960E94101040E060E0CE01E9
:1039B000C7960E94D71064E672E0CE01C7960E94B7
:1039C000CB1302E010E040E06EE0CE01C7960E940B
:1039D000D710A801012E000C660B770BCE01C796FD
:1039E0000E946B130E9419100097E1F381FF09C038
:1039F0000F5F1F4F64EF71E080E090E00E946A016A
:103A0000E2CF80FF06C00230110519F00150110904
:103A1000F1CF82FFEFCF64EF71E080E090E00E9491
:103A20006A01CE01C7960E940711CE01C7960E9477
:103A3000101040E060E0CE01C7960E94D7106FE6FC
:103A400072E0CE01C7960E94CB13EE24E394F12CD2
:103A500040E06EE0CE01C7960E94D710A7010F2C60
:103A6000000C660B770BCE01C7960E946B130E9469
:103A700019100097E1F381FF0DC0E016F10654F430
:103A8000FFEFEF1AFF0A64EF71E080E090E00E9420
:103A90006A01DECF80FF08C021E0E216F10421F0C8
:103AA00081E0E81AF108EFCF82FFEDCF64EF71E01B
:103AB00080E090E00E946A01C8010E94BE1F5C0184
:103AC000FC01C8018A0D9B1D1192E817F907E1F767
:103AD00046012801EFEF4E1A5E0A052C000C66081D
:103AE0007708F1E04F1A51086108710833243394C4
:103AF0000E94C61EA30192010E941E1F6F5F7F4F8E
:103B00008F4F9F4FF501E60FF71F8081811101C094
:103B100030822FEF821A920A8E149F0449F79E0179
:103B2000255A3F4F4CE755E0BE01645E7F4FCE0102
:103B3000815B9F4F0E943A142B961FAE1EAE2B97AF
:103B40002D961FAE1EAE2D972F961FAE1EAE2F9731
:103B500061966EAD7FAD61976115710549F065960F
:103B60004EAD5FAD6597CE01875B9F4F0E94D4122B
:103B7000CE01C7960E9410107601712C0E94191078
:103B80000097E1F382FFA3C047018FEF881A980ADC
:103B90007720E9F125961FAE1EAE259727961FAE1A
:103BA0001EAE279729961FAE1EAE29972B966EAD97
:103BB0007FAD2B976115710549F02F964EAD5FAD26
:103BC0002F97CE018D5B9F4F0E94D412F501EE0D11
:103BD000FF1D8081882371F065ED71E0CE01C796ED
:103BE0000E94CB13CE018D5B9F4F0E946B1274011C
:103BF000712C33C029964EAD5FAD299725966EADD9
:103C00007FAD2597CE01C7960E94A901EBCFCE01CB
:103C1000C7960E94071140E060E0CE01C7960E945F
:103C2000D71067E772E0CE01C7960E94CB1340E041
:103C30006BE0CE01C7960E94D710A401990C660BC9
:103C4000770BCE01C7960E946B1341E060E0CE0176
:103C5000C7960E94D7107724739464EF71E080E0D8
:103C600090E00E946A01E016F1060CF487CF64EF41
:103C700071E080E090E00E946A01CE01875B9F4F77
:103C80000E946B1264EF71E080E090E00E946A0194
:103C9000CE01C7960E940711CE01C7960E94101050
:103CA00061E872E0CE01C7960E94CB1341E060E06C
:103CB000CE01C7960E94D7106EE872E0CE01C7967B
:103CC0000E94CB130E941910892BE1F7FFCF83FFCD
:103CD000C4CFE114F10409F2CE01C7960E94071186
:103CE000E1E0EE16F10421F0F2E0EF1AF10880CFE6
:103CF00076017ECF8F929F92AF92BF92CF92DF924A
:103D0000EF92FF92CF93DF93EC01688179818A81F2
:103D10009B81611571058105910521F464E279EDBE
:103D20008BE597E02DE133EF41E050E00E941E1F4C
:103D300049015A019B01AC01A7EAB1E40E943D1F71
:103D40006B017C01ACEEB4EFA50194010E944B1F06
:103D5000C60ED71EE81EF91EF7FE06C081E0C81A7F
:103D6000D108E10880E8F80AC882D982EA82FB8299
:103D7000C701B6019F77DF91CF91FF90EF90DF9061
:103D8000CF90BF90AF909F908F9008958F929F9209
:103D9000AF92BF92CF92DF92EF92FF9260910401B7
:103DA00070910501809106019091070161157105DF
:103DB0008105910521F464E279ED8BE597E02DE131
:103DC00033EF41E050E00E941E1F49015A019B0160
:103DD000AC01A7EAB1E40E943D1F6B017C01ACEE8F
:103DE000B4EFA50194010E944B1FC60ED71EE81E1A
:103DF000F91EF7FE06C081E0C81AD108E10880E884
:103E0000F80AC0920401D0920501E0920601F092F6
:103E10000701C701B6019F77FF90EF90DF90CF9029
:103E2000BF90AF909F908F9008956093040170931E
:103E3000050180930601909307010895052E97FBD5
:103E40001EF400940E94351F57FD07D00E94871F63
:103E500007FC03D04EF40C94351F509540953095D7
:103E600021953F4F4F4F5F4F0895909580957095E6
:103E700061957F4F8F4F9F4F08950E94A91FA59F67
:103E8000900DB49F900DA49F800D911D1124089555
:103E9000B7FF0C943D1F0E943D1F821B930B08959A
:103EA0002F923F924F925F926F927F928F929F924A
:103EB000AF92BF92CF92DF92EF92FF920F931F9338
:103EC000CF93DF93CDB7DEB7CA1BDB0B0FB6F894E9
:103ED000DEBF0FBECDBF09942A88398848885F8429
:103EE0006E847D848C849B84AA84B984C884DF809A
:103EF000EE80FD800C811B81AA81B981CE0FD11D7E
:103F00000FB6F894DEBF0FBECDBFED010895A1E25C
:103F10001A2EAA1BBB1BFD010DC0AA1FBB1FEE1F43
:103F2000FF1FA217B307E407F50720F0A21BB30B8E
:103F3000E40BF50B661F771F881F991F1A9469F70A
:103F400060957095809590959B01AC01BD01CF0166
:103F50000895A29FB001B39FC001A39F700D811D62
:103F60001124911DB29F700D811D1124911D089582
:103F7000EE0FFF1F0590F491E02D09940F931F930E
:103F8000CF93DF938230910510F482E090E0E091CE
:103F90005F06F091600630E020E0B0E0A0E03097EE
:103FA00099F42115310509F44AC0281B390B243036
:103FB0003105D8F58A819B816115710589F1FB0175
:103FC00093838283FE0111C040815181028113815C
:103FD00048175907E0F04817590799F4109761F00E
:103FE00012960C93129713961C933296CF01DF9181
:103FF000CF911F910F91089500935F061093600673
:10400000F4CF2115310551F04217530738F0A901BB
:10401000DB019A01BD01DF01F801C1CFEF01F9CF4A
:104020009093600680935F06CDCFFE01E20FF31FF1
:10403000819391932250310939832883D7CF2091DE
:104040005D0630915E06232B41F420910A013091E8
:104050000B0130935E0620935D062091080130919C
:1040600009012115310541F42DB73EB740910C01EE
:1040700050910D01241B350BE0915D06F0915E0619
:10408000E217F307A0F42E1B3F0B2817390778F02F
:10409000AC014E5F5F4F2417350748F04E0F5F1F8E
:1040A00050935E0640935D06819391939FCFF0E01D
:1040B000E0E09CCFCF93DF930097E9F0FC013297CB
:1040C00013821282A0915F06B0916006ED0130E08C
:1040D00020E01097A1F420813181820F931F20915D
:1040E0005D0630915E062817390709F061C0F0932C
:1040F0005E06E0935D06DF91CF910895EA01CE1749
:10410000DF07E8F54A815B819E0141155105B1F752
:10411000E901FB83EA8349915991C40FD51FEC173C
:10412000FD0761F4808191810296840F951FE9015A
:1041300099838883828193819B838A83F0E0E0E086
:1041400012968D919C9113970097B9F52D913C9102
:104150001197CD010296820F931F20915D06309139
:104160005E062817390739F6309751F51092600628
:1041700010925F06B0935E06A0935D06BCCFD3831A
:10418000C28340815181840F951FC817D90761F4FC
:104190004E5F5F4F88819981480F591F518340833B
:1041A0008A819B81938382832115310509F0B0CFE9
:1041B000F0936006E0935F069ECFFD01DC01C0CF67
:1041C00013821282D7CFB0E0A0E0E9EEF0E20C94C7
:1041D000521F8C01009751F4CB010E94BE1F8C012D
:1041E000C801CDB7DEB7E0E10C946E1FFC01E60F0D
:1041F000F71F9C0122503109E217F30708F49DC014
:10420000D901CD91DC911197C617D70798F0C53029
:10421000D10530F3CE0104978617970708F3C61B24
:10422000D70B2297C193D1936D937C93CF010E94BA
:104230005A20D6CF5B01AC1ABD0A4C018C0E9D1ED4
:10424000A0915F06B0916006512C412CF12CE12C1D
:10425000109731F580915D0690915E06881599055D
:1042600009F05CC04616570608F058C08091080156
:1042700090910901009741F48DB79EB740910C01D0
:1042800050910D01841B950BE817F90708F055C0F4
:10429000F0935E06E0935D06F90171836083A0CF21
:1042A0008D919C91119712966C90129713967C9019
:1042B0001397A815B90559F56C0142E0C40ED11C3D
:1042C000CA14DB0420F1AC014A195B09DA01129629
:1042D000159780F06282738251834083D9016D9378
:1042E0007C93E114F10471F0D7011396FC93EE93E3
:1042F000129776CF22968C0F9D1FF90191838083B0
:10430000F301EFCFF0936006E0935F0669CF4816A4
:10431000590608F42C017D01D3019ACFCB010E94EC
:10432000BE1F7C01009749F0AE01B8010E94C72171
:10433000C8010E945A20870153CF10E000E050CFFF
:104340000F931F93CF93DF938C01FC01019000200A
:10435000E9F7CF01801B910B0E94BE1FEC01009773
:1043600019F0B8010E94E421CE01DF91CF911F9195
:104370000F910895FB01DC0104C08D91019080191B
:1043800021F441505040C8F7881B990B0895FB0158
:10439000DC0102C001900D9241505040D8F70895C1
:1043A000FC018191861721F08823D9F79927089578
:1043B0003197CF010895FB01DC018D9101908019A7
:1043C0000110D9F3990B0895FB01DC0101900D92C6
:1043D0000020E1F70895FB01DC014150504048F016
:1043E00001900D920020C9F701C01D92415050402C
:1043F000E0F70895F894FFCFFFFFFFFF01000000F2
:10440000000061068000000040001400540000001D
:1044100000001011A9011610A80100000000AD0C49
:10442000900C800C570C600CE30D170E0000000080
:104430004902A901D60196020702E501F90100002F
:104440000000F60BA901F009A80100000000FA0E17
:10445000CD0E1610A30EC60EB30EA40E0D0A0069E3
:10446000203D2000576F72642063686F73656E3A59
:10447000200046696C652072656164696E6720661C
:1044800061696C6564004661696C656420696E6988
:104490007469616C697A696E672053442063617244
:1044A000640A002F004661696C6564206F70656E58
:1044B000696E673A20006E6F756E732E74787400A3
:1044C00076657262732E747874003C2D204573708B
:1044D0006961002D3E20446967616C6F202E2E2E8D
:1044E000005469656D706F3A002B20706172612015
:1044F00073756D6172002D2070617261207061733F
:10450000617200646966666572656E63653A200073
:1045100050616C616272613A0066696C6520736516
:104520006C65637465643A206E6F756E73006669BE
:104530006C652073656C65637465643A207665729A
:10454000627300536520616361626F210050756E74
:1045500074616A653A004F7472613F004A75676121
:10456000646F7265733A004573706961733A004A0B
:10457000756761646F723A20002D3E207061726130
:10458000206F747261003C2D207061726120736134
:044590006C697200E0
:107E0000112484B714BE81FFF0D085E080938100F7
:107E100082E08093C00088E18093C10086E0809377
:107E2000C20080E18093C4008EE0C9D0259A86E02C
:107E300020E33CEF91E0309385002093840096BBD3
:107E4000B09BFECF1D9AA8958150A9F7CC24DD24C4
:107E500088248394B5E0AB2EA1E19A2EF3E0BF2EE7
:107E6000A2D0813461F49FD0082FAFD0023811F036
:107E7000013811F484E001C083E08DD089C08234E0
:107E800011F484E103C0853419F485E0A6D080C0E4
:107E9000853579F488D0E82EFF2485D0082F10E0AE
:107EA000102F00270E291F29000F111F8ED06801E7
:107EB0006FC0863521F484E090D080E0DECF843638
:107EC00009F040C070D06FD0082F6DD080E0C81688
:107ED00080E7D80618F4F601B7BEE895C0E0D1E017
:107EE00062D089930C17E1F7F0E0CF16F0E7DF06D8
:107EF00018F0F601B7BEE89568D007B600FCFDCFD4
:107F0000A601A0E0B1E02C9130E011968C91119780
:107F100090E0982F8827822B932B1296FA010C0160
:107F200087BEE89511244E5F5F4FF1E0A038BF0790
:107F300051F7F601A7BEE89507B600FCFDCF97BE46
:107F4000E89526C08437B1F42ED02DD0F82E2BD052
:107F50003CD0F601EF2C8F010F5F1F4F84911BD097
:107F6000EA94F801C1F70894C11CD11CFA94CF0C13
:107F7000D11C0EC0853739F428D08EE10CD085E9AC
:107F80000AD08FE07ACF813511F488E018D01DD067
:107F900080E101D065CF982F8091C00085FFFCCF94
:107FA0009093C60008958091C00087FFFCCF809118
:107FB000C00084FD01C0A8958091C6000895E0E648
:107FC000F0E098E1908380830895EDDF803219F02E
:107FD00088E0F5DFFFCF84E1DECF1F93182FE3DFCA
:107FE0001150E9F7F2DF1F91089580E0E8DFEE27F6
:047FF000FF270994CA
:027FFE00040479
:00000001FF
