:100000000C946A000C9492000C9492000C94920050
:100010000C9492000C9492000C9492000C94920018
:100020000C9492000C9492000C9492000C94920008
:100030000C9492000C9492000C9492000C949200F8
:100040000C948F150C9492000C94FF150C94D915F8
:100050000C9492000C9492000C9492000C949200D8
:100060000C9431160C94920000000000240027002C
:100070002A0000000000250028002B0000000000DE
:1000800023002600290004040404040404040202DA
:100090000202020203030303030301020408102007
:1000A0004080010204081020010204081020000012
:1000B0000008000201000003040700000000000027
:1000C00000007C3C3E5E2B3D3F2F5B5D3B2C2A229B
:1000D0005C00131911241FBECFEFD8E0DEBFCDBFE7
:1000E00011E0A0E0B1E0E2EDF1E402C005900D9274
:1000F000A63FB107D9F725E0A6EFB1E001C01D92F8
:10010000AF3FB207E1F710E0CAE6D0E004C02197A4
:10011000FE010E94A51EC936D107C9F70E94921997
:100120000C94E7200C94000008950895833081F02A
:1001300028F4813099F08230A9F008958730A9F031
:100140008830C9F08430B1F4809180008F7D03C085
:10015000809180008F7780938000089584B58F7799
:1001600084BD089584B58F7DFBCF8091B0008F77DB
:100170008093B00008958091B0008F7DF9CFCF9328
:10018000DF93282F30E0F901E255FF4F8491F90108
:10019000E656FF4FD491F901EA57FF4FC491CC23A3
:1001A000A1F081110E949600EC2FF0E0EE0FFF1FEE
:1001B000E458FF4FA591B491EC91ED2381E090E0DC
:1001C00009F480E0DF91CF91089580E090E0FACFCC
:1001D0001F93CF93DF93282F30E0F901E255FF4FB3
:1001E0008491F901E656FF4FD491F901EA57FF4F88
:1001F000C491CC23A9F0162F81110E949600EC2FF8
:10020000F0E0EE0FFF1FEE58FF4FA591B4918FB7AE
:10021000F894EC91111108C0D095DE23DC938FBFC8
:10022000DF91CF911F910895DE2BF8CFCF93DF930D
:1002300090E0FC01E656FF4F24918A579F4FFC0146
:1002400084918823D1F090E0880F991FFC01E85930
:10025000FF4FA591B491FC01EE58FF4FC591D49189
:1002600061110EC09FB7F8948C91E22FE0958E2318
:100270008C932881E223E8839FBFDF91CF9108957B
:100280008FB7F894EC91E22BEC938FBFF6CF3FB78A
:10029000F8948091B6029091B702A091B802B09103
:1002A000B90226B5A89B05C02F3F19F00196A11DE4
:1002B000B11D3FBFBA2FA92F982F8827BC01CD01B0
:1002C000620F711D811D911D42E0660F771F881F0F
:1002D000991F4A95D1F708958F929F92AF92BF923E
:1002E000CF92DF92EF92FF924B015C010E94470197
:1002F0006B017C010E9447016C197D098E099F09E1
:10030000683E734081059105A8F321E0821A9108A7
:10031000A108B10888EEC80E83E0D81EE11CF11CCC
:1003200081149104A104B10429F7FF90EF90DF90AC
:10033000CF90BF90AF909F908F9008952FB7F89473
:100340006091B2027091B3028091B4029091B502B3
:100350002FBF08950895AF92BF92CF92DF92EF9290
:10036000FF920F931F93CF93DF936C017B018B015F
:10037000040F151FEB015E01AE18BF08C017D107AF
:1003800059F06991D601ED91FC910190F081E02D39
:10039000C6010995892B79F7C501DF91CF911F918E
:1003A0000F91FF90EF90DF90CF90BF90AF900895A6
:1003B000FC01538D448D252F30E0842F90E0821B6B
:1003C000930B541710F0CF96089501970895FC01F0
:1003D000918D828D981761F0A28DAE0FBF2FB11D48
:1003E0005D968C91928D9F5F9F73928F90E00895A0
:1003F0008FEF9FEF0895FC01918D828D981731F05A
:10040000828DE80FF11D858D90E008958FEF9FEFAD
:100410000895FC01918D228D892F90E0805C9F4F83
:10042000821B91098F739927089585EC94E00E94AF
:10043000090221E0892B09F420E0822F089580E051
:1004400090E0892B29F00E94150281110C94000084
:100450000895FC01A48DA80FB92FB11DA35ABF4F59
:100460002C91848D90E001968F739927848FA689B3
:10047000B7892C93A089B1898C91837080648C9307
:10048000938D848D981306C00288F389E02D8081B6
:100490008F7D80830895EF92FF920F931F93CF93E8
:1004A000DF93EC0181E0888F9B8D8C8D98131AC0AF
:1004B000E889F989808185FF15C09FB7F894EE8996
:1004C000FF896083E889F9898081837080648083F3
:1004D0009FBF81E090E0DF91CF911F910F91FF903E
:1004E000EF900895F62E0B8D10E00F5F1F4F0F73E6
:1004F0001127E02E8C8D8E110CC00FB607FCFACFA1
:10050000E889F989808185FFF5CFCE010E94290213
:10051000F1CFEB8DEC0FFD2FF11DE35AFF4FF08271
:100520009FB7F8940B8FEA89FB8980818062CFCFD7
:10053000CF93DF93EC01888D8823B9F0AA89BB891A
:10054000E889F9898C9185FD03C0808186FD0DC005
:100550000FB607FCF7CF8C9185FFF2CF808185FF26
:10056000EDCFCE010E942902E9CFDF91CF9108950E
:100570008FB7F8948091AA028FBF089561E0FC01C3
:1005800084810E94E8008091A90281111092A90241
:1005900008958EBD00000DB407FEFDCF8EB5089501
:1005A0008FEF0C94C9020F931F93CF93DF93EC014D
:1005B0000E949E018B010E94D0028F3F69F00E9431
:1005C0009E01601B710B6C177D07A8F380E0DF9123
:1005D000CF911F910F91089581E0F9CF8CBD9DBD02
:1005E0000895CF93DF93EC018091A902811109C096
:1005F00081E08093A90280916205909163050E9439
:10060000EE0260E08C81DF91CF910C94E8008F9234
:100610009F92AF92BF92FF920F931F93CF93DF935E
:10062000EC01F62E49015A018E81882389F08F81D1
:1006300098859C012F5F3F4F38872F8382309240EF
:1006400018F40E94D002F3CFCE010E94BE021E8297
:10065000CE010E94F1028CE291E00E94D3028F2D24
:1006600080640E94C90208E110E0D501C401002E97
:1006700004C0B695A795979587950A94D2F70E94DE
:10068000C90208501109083F8FEF180771F785E973
:10069000FF2021F028E087E8F2128FEF0E94C902C4
:1006A00010E00E94D0028A8787FF04C01F3F11F02C
:1006B0001F5FF7CFDF91CF911F910F91FF90BF90F8
:1006C000AF909F908F900895AF92BF92CF92DF929C
:1006D000EF92FF920F931F93CF93DF93EC01690189
:1006E000C801820F931F8130924050F58E8188237C
:1006F00079F088819981AA81BB8184179507A60723
:10070000B70731F48F819885C816D90608F042C022
:10071000488359836A837B838B85833039F089E0F2
:10072000440F551F661F771F8A95D1F79A01AB01B9
:1007300061E1CE010E940703882389F083E08D8365
:10074000CE010E94BE0280E0DF91CF911F910F91F8
:10075000FF90EF90DF90CF90BF90AF9008950E94F0
:100760009E015B010E94D0028A878F3F69F40E943C
:100770009E016A197B096D327140A0F38FE08D8371
:10078000CE010E94BE02DCCF8E3F89F418861F8204
:1007900081E08E838F8198858C159D0550F40E9491
:1007A000D0028F819885019698878F83F3CF8DE053
:1007B000E6CF6701E00EF11E0E94D002F6018193A0
:1007C0006F01EE15FF05C1F78F819885080F191F7E
:1007D00018870F838985882319F001151240A0F02E
:1007E0008E81882389F08F8198859C012F5F3F4FF0
:1007F00038872F838230924018F40E94D002F3CFC2
:10080000CE010E94BE021E8281E09ECFCF92DF9277
:10081000EF92FF920F93CF93DF93EC01690182E196
:10082000411551056105710599F08B85833039F0CB
:1008300089E0440F551F661F771F8A95D1F79A01EB
:10084000AB0168E1CE010E940703882319F084E020
:100850008D832DC08EEF0E94C90276018EEFD81ACB
:10086000F70181917F010E94C902EC14FD04C1F7D8
:100870008FEF0E94C9028FEF0E94C9020E94D0022E
:100880008A878F71853071F4011116C0CE010E94E4
:10089000BE0281E0DF91CF910F91FF90EF90DF904A
:1008A000CF90089581E18D83CE010E94BE02CE01DA
:1008B0000E94BE0280E0EECF88E592E00E94D30263
:1008C000811102C085E1C4CF20E030E0A9016DE0D4
:1008D000CE010E940703882311F084E1B9CF0E9462
:1008E000D0028111FACFD2CF0F934091AB02509139
:1008F000AC026091AD027091AE02411551056105E7
:10090000710599F0082F25EC32E08091C202909198
:10091000C3020E940604882349F01092AB02109291
:10092000AC021092AD021092AE0281E00F910895D8
:100930000F93CF93C82F8091C402811105C0C1E0ED
:100940008C2FCF910F91089540910001509101019A
:1009500060910201709103010C2F25EC32E080912F
:10096000C2029091C3020E940604811102C0C0E03D
:10097000E7CFCC2321F381E00E9474048823B9F3EC
:100980001092C402DDCF8F929F92AF92BF92EF92EE
:10099000FF920F931F93CF934B015C01C42F809163
:1009A000000190910101A0910201B091030188150D
:1009B0009905AA05BB0551F181E00E9498048111B7
:1009C0000BC080E0CF911F910F91FF90EF90BF90EF
:1009D000AF909F908F90089585ECE82E82E0F82EDE
:1009E00000E012E030E020E0B501A4018091C202F5
:1009F0009091C3020E946403882319F3809200013E
:100A000090920101A0920201B09203014091C402B0
:100A10004C2B4093C40281E0D5CF8F929F92AF922E
:100A2000BF92CF92DF92EF92FF92CF9324E635E010
:100A30003093C3022093C202882309F46DC040E0C2
:100A400060E070E0CB010E94C30481110BC080E024
:100A5000CF91FF90EF90DF90CF90BF90AF909F909D
:100A60008F900895809183048F7789F780918F0408
:100A700090919004A0919104B091920484369105D4
:100A8000A105B10520F3C0908B04D0908C04E090B8
:100A90008D04F0908E04C114D104E104F104B9F284
:100AA00040E0C701B6010E94C304882381F280910F
:100AB000D0029091D1028115924049F6A091D502C1
:100AC000AA2329F26091D3027091D40261157105B5
:100AD00009F4BDCF2091D202222309F4B8CFA0930C
:100AE00082052093740590E080E030E0E1E0F0E0E2
:100AF000C82FAF01082E02C0440F551F0A94E2F719
:100B00002417350769F041E0480F019689309105B7
:100B100079F740937D059BCFC12CD12C7601C0CFB6
:100B200080937D052091DB023091DC0250E040E0B3
:100B30002115310541F42091E9023091EA024091FA
:100B4000EB025091EC0220937505309376054093AB
:100B500077055093780546015701860E971EA11C14
:100B6000B11C8092830590928405A0928505B09275
:100B70008605E091D602F091D702F0938905E093C3
:100B80008805B0E00E942A1EDC01CB01880D991D6A
:100B9000AA1DBB1D80938A0590938B05A0938C059D
:100BA000B0938D0525E0EE0FFF1F2A95E1F7E15088
:100BB000FE4FEF2FFF27E6958E0F9F1FA11DB11D42
:100BC00080937E0590937F05A0938005B093810567
:100BD0008090D8029090D902B12CA12C811491045C
:100BE00041F48090E5029090E602A090E702B09078
:100BF000E802C81AD90AEA0AFB0AC80CD91CEA1C7E
:100C0000FB1C04C0F694E794D794C794CA95D2F716
:100C1000C0927905D0927A05E0927B05F0927C052E
:100C200085EFC8168FE0D806E104F10428F48CE0C3
:100C30008093870581E00CCF80E125EFC2162FEF6E
:100C4000D206E104F104A0F38091F1029091F20246
:100C5000A091F302B091F40280938A0590938B05E2
:100C6000A0938C05B0938D0580E2E2CF4F925F9206
:100C70006F927F928F929F92AF92BF92CF92DF92AC
:100C8000EF92FF920F931F93CF93DF93EC014230CB
:100C900051056105710590F480E0DF91CF911F91BE
:100CA0000F91FF90EF90DF90CF90BF90AF909F900B
:100CB0008F907F906F905F904F90089589859A856F
:100CC000AB85BC850196A11DB11D84179507A607AC
:100CD000B70710F3CB88DC88ED88FE888F898031D8
:100CE00009F042C0BB27A72F962F852F4801590135
:100CF0002A013B01C80ED91EEA1EFB1E809100018D
:100D000090910101A0910201B0910301C816D9068A
:100D1000EA06FB0699F58F898031C1F5B301A2017E
:100D2000552766277727440F551F4B535D4FFA0110
:100D3000918280828091C40281608093C4028A89FA
:100D4000823080F08D819E81AF81B8858C0D9D1D94
:100D5000AE1DBF1D8093AB029093AC02A093AD0279
:100D6000B093AE0281E099CFDB01CA01E7E0B6950E
:100D7000A79597958795EA95D1F7B8CF40E0C70139
:100D8000B6010E94C3048111C6CF86CFB301A20170
:100D90004F77552766277727440F551F440F551F58
:100DA0004B535D4FFA0180829182A282B382C2CFFF
:100DB0008F929F92AF92BF92CF92DF92EF92FF926B
:100DC0000F931F93CF93DF93FC0181859285A385B9
:100DD000B4850196A11DB11D84179507A607B70715
:100DE00070F480E0DF91CF911F910F91FF90EF9011
:100DF000DF90CF90BF90AF909F908F9008958388A1
:100E00009488A588B6888789803189F5BB27A72F64
:100E1000962F852FE9016A017B018F01BC01CD016D
:100E2000680D791D8A1D9B1D809000019090010125
:100E3000A0900201B090030186169706A806B90695
:100E400001F5F8018789803111F5DD24EE24FF24B6
:100E5000F601EE0FFF1FEB53FD4F80819181B0E053
:100E6000A0E088839983AA83BB8381E0BBCFDB01A9
:100E7000CA01C7E0B695A79597958795CA95D1F70A
:100E8000C9CF40E00E94C3048111DBCFAACFE89410
:100E9000C7F8DD24EE24FF24F601EE0FFF1FEE0F4E
:100EA000FF1FEB53FD4F80819181A281B381BF7001
:100EB000D8CF4F925F926F927F92AF92BF92CF92B4
:100EC000DF92EF92FF920F931F93CF93DF9300D0A7
:100ED00000D0CDB7DEB78C0149835A836B837C8306
:100EE0005901C12CD12C7601412C82E0582E612C65
:100EF000712C49815A816B817C819E012F5F3F4F0C
:100F0000C8010E94D806882339F1F8018585A3011C
:100F1000920104C0220F331F441F551F8A95D2F738
:100F2000DA01C901C80ED91EEA1EFB1E49815A8189
:100F30006B817C818789803111F188EF9FEFAFEF62
:100F4000BFE0481759076A077B0798F2F501C0828E
:100F5000D182E282F38281E00F900F900F900F9088
:100F6000DF91CF911F910F91FF90EF90DF90CF9085
:100F7000BF90AF907F906F905F904F90089588EFF3
:100F80009FEFA0E0B0E0DDCFCF93DF93FC012581A0
:100F9000222321F080E0DF91CF910895EC01809130
:100FA0008705803159F582E08583178A108E118E6E
:100FB000128E8091880590918905B0E0A0E025E02F
:100FC000880F991FAA1FBB1F2A95D1F7838B948B7B
:100FD000A58BB68B80E795E09C8F8B8F81E08C830F
:100FE0001E821F82188619861A861B861C861D86FD
:100FF0001E861F86188A198A1A8ACDCF803251F62A
:1010000083E0858340918A0550918B0560918C0522
:1010100070918D05478B508F618F728F9F012D5E70
:101020003F4F80E795E00E9459078111D3CFB2CF9F
:101030008F929F92AF92BF92CF92DF92EF92FF92E8
:101040000F931F93CF93DF93EC018D8181110EC01D
:1010500080E0DF91CF911F910F91FF90EF90DF9093
:10106000CF90BF90AF909F908F9008950B891C896F
:101070002D893E89041715072607370748F34A01CB
:101080005B01823031F48A869B86AC86BD8681E026
:10109000E0CF81149104A104B10449F41E821F829F
:1010A000188619861A861B861C861D86F0CF0A852F
:1010B0001B852C853D85EB8DFC8D858590E0099603
:1010C000B901A8014150510961097109082E04C0F4
:1010D00076956795579547950A94D2F775016401FF
:1010E000E1E0CE1AD108E108F10804C0F694E794D3
:1010F000D794C7948A95D2F7C416D506E606F706A4
:1011000020F0012B022B032B11F58F89988DA98DCF
:10111000BA8D8E839F83A887B9878E010A5F1F4F80
:10112000C114D104E104F10409F4ADCF4E815F8113
:101130006885798598018B8D9C8D0E94D80691E0F9
:10114000C91AD108E108F1088111EACF81CFC41A88
:10115000D50AE60AF70AE1CF3F924F925F926F926B
:101160007F928F929F92AF92BF92CF92DF92EF9237
:10117000FF920F931F93CF93DF93CDB7DEB72C97DA
:101180000FB6F894DEBF0FBECDBF5C01DC015B96ED
:101190008D909C905C9716964D905D906D907C9094
:1011A0001997411451046104710409F468C0BFEF38
:1011B0004B1A5B0A6B0A7B0A312CF40181859285FC
:1011C000A385B4859C01AD012F5F3F4F4F4F5F4F0B
:1011D00029873A874B875C87730162011D821E82D3
:1011E0001F821886F40181859285A385B4852D819F
:1011F0003E814F815885281739074A075B0708F059
:1012000056C089859A85AB85BC858C159D05AE0534
:10121000BF0550F482E0C82ED12CE12CF12C92E0D5
:10122000492E512C612C712C9E012F5F3F4FB7012D
:10123000A601C4010E94D8068823C9F189819A8138
:10124000AB81BC81892B8A2B8B2B09F126013701BD
:101250009FEF491A590A690A790A2D813E814F8107
:1012600058852F5F3F4F4F4F5F4F2D833E834F83F6
:1012700058873FEFC31AD30AE30AF30AB3CFF40146
:1012800040805180628073803324339496CFC4149D
:10129000D504E604F70409F70FEF1FEF2FEF3FE047
:1012A000B701A601C4010E943606811119C080E071
:1012B0002C960FB6F894DEBF0FBECDBFDF91CF9155
:1012C0001F910F91FF90EF90DF90CF90BF90AF9064
:1012D0009F908F907F906F905F904F903F90089578
:1012E000D50116964D915D916D917C91199741159F
:1012F00051056105710539F097018601C4010E940D
:1013000036068823A1F2D5011696CD92DD92ED9294
:10131000FC921997332051F0D701C6010196A11D07
:10132000B11DF40180839183A283B383F501878982
:10133000908DA18DB28D892B8A2B8B2B39F48481D2
:10134000C78AD08EE18EF28E80688483F501848115
:101350008062848381E0ACCF1F93CF93DF93FC0145
:1013600025812223D1F1162FEC01848187FF2AC029
:10137000668577858089918941E00E94C30488232E
:1013800061F1EA8980E2E89FF0011124EB53FD4FFF
:10139000309719F18D81823040F48B899C89AD8919
:1013A000BE89848F958FA68FB78F8F89988D938FE5
:1013B000828F8F89988DA98DBA8DB58BA48B8C81E6
:1013C0008F778C83111103C08C818F7E8C83812F4A
:1013D000DF91CF911F910C94980480E0DF91CF9121
:1013E0001F910895FF920F931F93CF93DF93EC010A
:1013F0008D81813041F090E080E0DF91CF911F91AD
:101400000F91FF9008958C8181FFF5CF82FD1BC065
:101410000091C2021091C302C8010E94F1020E9411
:10142000D002F82EC8010E94BE028FEFF812E3CF5F
:101430008C8185FF1BC060E0CE010E94AC098C81CD
:101440008F7D8C83D8CF4B895C896D897E898A8515
:101450009B85AC85BD8584179507A607B707C1F2A4
:10146000CE010E9418088111D3CFC5CF4091AB02A5
:101470005091AC026091AD027091AE02452B462BAB
:10148000472B21F080E00E947404B5CF80618C83EB
:101490002A853B85317080E092E0821B930BADCFB3
:1014A000CF93DF93EC0161E00E94AC09882311F037
:1014B0001D8281E0DF91CF9108952F923F924F924C
:1014C0005F926F927F928F929F92AF92BF92CF92D4
:1014D000DF92EF92FF920F931F93CF93DF9300D091
:1014E00000D01F92CDB7DEB77C015B01342E5D8347
:1014F000DC0115968C911597813009F0CEC01496B9
:101500002C9021FECAC022FCB4C0C32CDD802294E2
:101510007FE027222094B22DB1702B2ED7011A968E
:101520004D915D916D917C911D97C114D10409F489
:1015300028C15B968D919C915C97FC0174807A9494
:101540008A019B0169E036952795179507956A955D
:10155000D1F770228A011170711020C00115110598
:10156000E9F416964D915D916D917C911997411515
:1015700051056105710509F099C057968D919D91AE
:101580000D90BC91A02D0097A105B10509F0B0C048
:10159000C7010E94AC08882309F47FC080E092E074
:1015A000801B910B46018C159D0508F44C01D70159
:1015B0005B964D915C915C9716968D919D910D90E7
:1015C000BC91A02D0297A109B109FA01258504C09B
:1015D000880F991FAA1FBB1F2A95D2F746855785EA
:1015E00060897189840F951FA61FB71F9C01AD01EB
:1015F000270D311D411D511D29013A01811432E091
:10160000930609F07BC08091000190910101A091A7
:101610000201B091030184159505A605B70559F49B
:101620008FEF9FEFDC018093000190930101A09365
:101630000201B0930301022D9501B301A201809133
:10164000C2029091C3020E940604882331F19EEFEA
:10165000B91AC818D908F70182859385A485B5857C
:10166000880D991DA11DB11D82879387A487B58719
:1016700055CFF70143895489658976898285938599
:10168000A485B585481759076A077B0709F43DCF3C
:10169000C7010E941808811138CF81E090E0D7017E
:1016A00013969C938E93129780E007C09E012F5F44
:1016B0003F4F0E94D806811102C090E079C0898115
:1016C0009A81AB81BC81F701238D348DF901278983
:1016D00048EF5FEF60E070E0203121F048EF5FEF0E
:1016E0006FEF7FE084179507A607B70708F050CF84
:1016F000F70186839783A087B18750CF0115110525
:1017000099F5D7011A964D915D916D917C911D9738
:1017100053968D919D910D90BC91A02D481759071E
:101720006A077B0708F181E00E949804882309F486
:10173000B4CF409200015092010160920201709278
:1017400003018091C40281608093C402C8018B535D
:101750009D4FD5019C01280D391DFC012E173F0717
:1017600059F04D914193FACF41E0C301B2010E947B
:10177000C3048111EBCF91CF281B390BA20EB31EEE
:1017800068CFF70183899489A589B689841795075D
:10179000A607B70738F48481438B548B658B768B0F
:1017A00080688483F701848183FD1AC0832D9D8125
:1017B0000F900F900F900F900F90DF91CF911F918E
:1017C0000F91FF90EF90DF90CF90BF90AF909F90E0
:1017D0008F907F906F905F904F903F902F900895E3
:1017E00061E0C7010E94AC09882309F456CFDECF1F
:1017F000CF93DF931F92CDB7DEB7698341E050E00E
:10180000BE016F5F7F4F0E945D0A0F90DF91CF9105
:101810000895FC01818D928D009719F061E00C9480
:10182000AC090895DC015996ED91FC913097B9F01F
:1018300083899489A589B689428553856485758590
:10184000841B950BA60BB70B811520E89207A10509
:10185000B10538F08FEF9FE7A0E0B0E0089590E089
:1018600080E00895DC0159968D919C91009739F0A4
:10187000DC01ED91FC910480F581E02D099490E06C
:1018800080E00895CF93DF93EC01E98DFA8D3097D6
:1018900049F481E090E09B838A8390E080E0DF91CF
:1018A000CF91089513821282898D9A8D0E945D0ACC
:1018B000E98DFA8D22813381232B59F7F0CFCF9315
:1018C000DF931F92CDB7DEB76983DC01ED91FC9108
:1018D0000280F381E02D41E050E0BE016F5F7F4F59
:1018E00009950F90DF91CF9108952F923F924F92DB
:1018F0005F926F927F928F929F92AF92BF92CF92A0
:10190000DF92EF92FF920F931F93CF93DF9300D05C
:101910001F92CDB7DEB7FC018581811118C08FEF12
:101920009FEF0F900F900F90DF91CF911F910F912C
:10193000FF90EF90DF90CF90BF90AF909F908F90EF
:101940007F906F905F904F903F902F90089584818B
:1019500080FFE5CF4389548965897689828593859F
:10196000A485B585312C212C481759076A077B07B8
:1019700019F022242394312C6F012101CE0101960C
:101980003C01DF011696BB83AA834114510409F47C
:10199000C5C0F60142855385648575854A01F1E02D
:1019A0009F22D6015B968D919C915C978A019B0149
:1019B000E9E03695279517950795EA95D1F715969D
:1019C000EC91E230E9F5FC01628D738D848D958D8B
:1019D000600F711F821F931FA12C22E0B22EA81846
:1019E000B9084A145B0408F45201F601248126FD6B
:1019F00004C0A114F2E0BF0671F40091000110913F
:101A000001012091020130910301061717072807F1
:101A1000390709F05EC040E00E94C304882309F43E
:101A20007ECFC4018B539D4FD3019C012A0D3B1DDA
:101A3000FC012E173F0709F46CC041914D93F9CF7B
:101A4000DC011496BC90BA94B0228114910479F40C
:101A5000B1100DC0452B462B472B69F5F601878940
:101A6000908DA18DB28D86839783A087B187D60193
:101A70005B96ED91FC915C9716966D917D918D91A1
:101A80009C9119976250710981099109258504C0BB
:101A9000660F771F881F991F2A95D2F7068517852D
:101AA00020893189600F711F821F931F6B0D711D7B
:101AB000811D911D91CFD60116964D915D916D912D
:101AC0007C9119972A813B810E94D8068111CFCF42
:101AD00026CF730185019401AB01BC018091C20244
:101AE0009091C3020E946403882309F418CF6A0C02
:101AF0007B1CF60182859385A485B5858A0D9B1D87
:101B0000A11DB11D82879387A487B5874A185B08FA
:101B10003CCF281B390B620E731EEBCF2A9423286F
:101B200009F0FDCE898190E0FCCEFC01818D928D83
:101B3000009711F00C94750C8FEF9FEF08950F93A1
:101B40001F93CF93DF93EC010E949E0168877987F2
:101B50008A879B87CE010E94950D97FF15C00E9432
:101B60009E01088519852A853B85601B710B820BB8
:101B7000930B0C811D812E813F81601771078207B5
:101B8000930740F38FEF9FEFDF91CF911F910F915C
:101B900008950F931F93CF93DF93EC01898D9A8D56
:101BA00010E000E0009799F00E94750C8C010F3F47
:101BB000100769F0898D9A8DFC01428553856485F3
:101BC000758541505109610971090E941808C801C1
:101BD000DF91CF911F910F91089520915F02260F01
:101BE0003327331F21323105ECF420918302FC01AD
:101BF00090E080E0243069F082E00895A0915F02D7
:101C00002191AC01415C5D4FA40FB52FB11D2C9308
:101C10000196861798F380915F02680F60935F02C8
:101C200080E0089581E008951092830281E080931E
:101C300085021092840261E082E10E94E80061E086
:101C400083E10E94E800E9EBF0E080818E7F8083F1
:101C500080818D7F808388E48093B80085E48093C1
:101C6000BC000895CF93DF9391E090933E028823C8
:101C7000B9F0C091B800D091BA008091BC008A7BC5
:101C80008093BC0060E082E10E94E80060E083E1B4
:101C90000E94E8000E94140ED093BA00C093B800CE
:101CA000DF91CF9108950895E091C1028091C00223
:101CB000E81730F4F0E0E75EFD4F808190E0089592
:101CC0008FEF9FEF08959091C1028091C0022FEF96
:101CD0003FEF981748F4E92FF0E0E75EFD4F2081D1
:101CE00030E09F5F9093C102C90108958091C002C6
:101CF0009091C102891B990B0895CF92DF92EF92C8
:101D0000FF920F931F93CF93DF937C01CB018A0146
:101D100020911802222389F0EB016B01C40ED51E1D
:101D2000CC15DD0569F06991D701ED91FC91019029
:101D3000F081E02DC7010995F3CF642F0E94ED0DCE
:101D4000C801DF91CF911F910F91FF90EF90DF902D
:101D5000CF900895CF93DF931F92CDB7DEB76983FD
:101D6000209118022223F9F02091BE02203258F06F
:101D700021E030E0FC013383228390E080E00F908B
:101D8000DF91CF9108958091BF02E82FF0E0E850F5
:101D9000FE4F998190838F5F8093BF028093BE0234
:101DA00081E090E0ECCF61E0CE0101960E94ED0D64
:101DB000F7CFCF92DF92EF92FF920F931F93CF93C3
:101DC000DF93FC01C48121E020931802C093F70146
:101DD0001092BF021092BE028385682B8DEA95E0B7
:101DE0000E94AA0ED091BE02D13208F092C00E9489
:101DF00047016B017C0180918302811165C082E003
:101E00008093830281E0809385028FEF809382022A
:101E10001092A702D093A602A8EFB1E0E6E8F2E0A4
:101E200080E0D81385C01092A8028091A802CC0F40
:101E3000C82BC093A80280918402813009F07CC035
:101E4000109284020E9447016B017C018091A802DC
:101E50008093BB0080913A0290913B02A0913C029A
:101E6000B0913D02892B8A2B8B2B99F00E94470160
:101E700000913A0210913B0220913C0230913D02C8
:101E80006C197D098E099F0906171707280739075E
:101E9000E0F18091BC0083FDD9CF85EC8093BC003C
:101EA0000E9447016B017C0180918302823009F41A
:101EB00045C0809182028F3F61F180918202803221
:101EC00041F18091820225C080913A0290913B02BB
:101ED000A0913C02B0913D02892B8A2B8B2B09F4F7
:101EE0008ACF0E94470100913A0210913B02209153
:101EF0003C0230913D026C197D098E099F0906173D
:101F000017072807390708F076CF809139020E9419
:101F1000320E1092BF021092BE0210921802DF9190
:101F2000CF911F910F91FF90EF90DF90CF90089588
:101F30009D9191938F5F75CF85EEB0CF80913A02DE
:101F400090913B02A0913C02B0913D02892B8A2BDB
:101F50008B2B09F4A9CF0E94470100913A021091FE
:101F60003B0220913C0230913D026C197D098E09A3
:101F70009F09061717072807390708F095CFC5CF1F
:101F800088E08093FA0560E08FEE95E00C94D90E1E
:101F900090E080E00895CF93DF9387E00E94BF0038
:101FA000D0E0C0E0892B11F4C8E0D0E086E00E94C8
:101FB000BF00892BE1F090E080E0C82BD92B85E0B1
:101FC0000E94BF00892BB1F090E080E0C82BD92B94
:101FD00084E00E94BF0021E030E0892B11F030E066
:101FE00020E0C9018C2B9D2BDF91CF91089584E0D7
:101FF00090E0E3CF82E090E0E9CF8F929F92AF92A2
:10200000BF920F931F93CF93DF93CDB7DEB7A19706
:102010000FB6F894DEBF0FBECDBF19A2423008F450
:102020004AE08E010F5D1F4F842E912CB12CA12C04
:10203000A50194010E94741EE62FB901CA01EA307D
:1020400044F5E05DD801EE938D01232B242B252B45
:1020500079F790E080E0109769F0FD010190002091
:10206000E9F73197AF014A1B5B0BBD018FEE95E09D
:102070000E94AB01A1960FB6F894DEBF0FBECDBF94
:10208000DF91CF911F910F91BF90AF909F908F9054
:102090000895E95CD7CFFC0101900020E9F7319762
:1020A000AF01481B590BBC018FEE95E00C94AB01BE
:1020B0000F931F93CF938C01C62F0E94D90E6C2FC4
:1020C0006460C8010E94D90E6C2F6B7FC8010E940A
:1020D000D90E83EC90E00197F1F7CF911F910F910A
:1020E00008950F931F93CF93DF938C01D62FC42FA6
:1020F000607F642B0E94581080E1D89FB0011124AA
:102100006C2BC801DF91CF911F910F910C94581047
:10211000CF93DF93CDB7DEB728970FB6F894DEBF25
:102120000FBECDBF98E0EEE0F1E0DE011196019028
:102130000D929A95E1F79091F705961708F46FEFD5
:10214000262F30E0220F331F41E050E04C0F5D1F7F
:10215000240F351FF9016081680F606840E08FEE41
:1021600095E028960FB6F894DEBF0FBECDBFDF9185
:10217000CF910C94711040E061E08FEE95E00E94E9
:1021800071108BE39FE10197F1F7089541E00E9400
:10219000711081E090E00895CF92DF92EF92FF926C
:1021A00097FF18C06B017C0141E06DE28FEE95E076
:1021B0000E94711066277727CB016C197D098E0963
:1021C0009F094AE00E94FD0F0196FF90EF90DF907B
:1021D000CF9008954AE0FF90EF90DF90CF900C945D
:1021E000FD0FCF93DF931092C1021092C0021092A4
:1021F000BF021092BE020E94140E84E990E09093F8
:10220000BD028093BC0285E990E09093BB0280936D
:10221000BA021092F4058091F905823018F098E026
:102220009093F4058093F70562E370E080E090E01E
:102230000E946C016091FA058FEE95E00E94D90E24
:1022400068EE73E080E090E00E946C0160E38FEE46
:1022500095E00E945810CBE4D6E4CE010197F1F747
:1022600060E38FEE95E00E9458102197F1F760E34C
:102270008FEE95E00E94581083E592E00197F1F708
:1022800060E28FEE95E00E9458106091F405606264
:1022900040E08FEE95E00E94711084E08093F50598
:1022A00040E06CE08FEE95E00E9471100E94BB1040
:1022B00082E08093F60540E066E08FEE95E00E94B4
:1022C000711040E062E08FEE95E00E9471108BE3A8
:1022D0009FE10197F1F7DF91CF910895FC01808193
:1022E0009181009711F00C94471F08950F931F934D
:1022F000CF93DF938C01F801C081D181209729F41D
:10230000DF91CF911F910F9108958A819B81F801F0
:1023100091838083888199810E94471FCE010E940A
:10232000471FE9CF0F931F93CF93DF938C01EB01EE
:10233000FC01808191810097E1F0688179816115CC
:102340007105A9F0428153812C813D8142175307C9
:1023500070F00E94D1208C819D81F8019583848347
:102360001D821C82DF91CF911F910F9108950E94D1
:10237000471F88819981F801918380838A819B819D
:10238000938382838C819D819583848319821882B3
:102390001B821A82E5CF0F931F93CF93DF93EC013B
:1023A00088819981009759F02A813B812617370748
:1023B00030F081E0DF91CF911F910F9108958B0153
:1023C0006F5F7F4F0E94D01F009759F099838883D9
:1023D0001B830A832C813D81232B59F7FC0110823A
:1023E000E8CF80E0E7CFEF92FF920F931F93CF9358
:1023F000DF93EC017B018A01BA010E94CB11288195
:102400003981811114C02115310519F0C9010E94CB
:10241000471F198218821D821C821B821A82CE01DC
:10242000DF91CF911F910F91FF90EF9008951D8341
:102430000C83B701C9010E94D120F1CFFC011182A8
:1024400010821382128215821482FB0101900020F7
:10245000E9F73197AF01461B570B0C94F31185ED4B
:102460008093BC0080913A0290913B02A0913C0283
:10247000B0913D020796A11DB11D23E0B695A79529
:10248000979587952A95D1F72091BC0024FD03C02C
:1024900010928302089540913A0250913B0260915C
:1024A0003C0270913D02452B462B472B69F3009768
:1024B000A105B10541F02AE22A95F1F700C0019784
:1024C000A109B109E1CF809139020C94320E2F920B
:1024D0003F924F925F926F927F928F929F92AF92B4
:1024E000BF92CF92DF92EF92FF920F931F93CF9301
:1024F000DF93CDB7DEB72E970FB6F894DEBF0FBED1
:10250000CDBF8C017B012A014901DB015996ED9178
:10251000FC91309709F49EC08581882309F49AC004
:1025200061EF71E0CE0101960E941E12BFEF4B1ABF
:102530005B0A052C000C66087708E1E04E1A51088A
:10254000610871080E94B31DA30192010E940B1E35
:102550006F5F7F4F8F4F9F4F1B01B12CA12CA21497
:10256000B304CCF561EF71E0CE0107960E941E1214
:10257000C7010E949F0D97FD1FC08A309105E1F0B1
:102580008D871E86CB84DC84FFEFCF1ADF0AB6016D
:10259000CE0107960E94CB11882351F32F813885F5
:1025A0008B859C85BE01635F7F4F820F931F0E94C6
:1025B000D120DC86CB86DCCFBE01695F7F4FCE01A8
:1025C00001960E949211CE0107960E946E118FEF24
:1025D000A81AB80AC4CFD70159968D919C9100973B
:1025E00029F040E050E0BA010E941808A980BA80A2
:1025F000F40130802180E32DF22DC280D380C114FC
:10260000D10409F041C084E090E00E94AB1E7C013F
:10261000892B79F0D70112963C92129713962C923F
:10262000C5010E948D20F70191838083D401ED9232
:10263000FC92F80111821082138212821582148298
:10264000BE016F5F7F4FC8010E949211CE010196BB
:102650000E946E11C8012E960FB6F894DEBF0FBE11
:10266000CDBFDF91CF911F910F91FF90EF90DF9041
:10267000CF90BF90AF909F908F907F906F905F9022
:102680004F903F902F900895B501808191810E94D5
:10269000C820F601892B09F0B0CF54CF2F923F927A
:1026A0004F925F926F927F928F929F92AF92BF9262
:1026B000CF92DF92EF92FF920F931F93CF93DF930E
:1026C000CDB7DEB7C457D1090FB6F894DEBF0FBE41
:1026D000CDBF5C017B0180919305882321F08EE8BA
:1026E00095E00E94500A10926F0510926D051092AD
:1026F0006A05109269058AE0809368050E949E0130
:102700008B0161E0809168050E94160161E0809173
:1027100068050E94E800DFB6F8948091F601811107
:1027200027C0E0E9F0E08491E4EAF0E09491E82F3A
:10273000F0E0EE0FFF1FE859FF4FA591B491EC9127
:10274000E92321F461E08AE00E94E80061E08AE088
:102750000E9416018CB580618CBD8CB580648CBDE7
:1027600061E08DE00E94160161E08BE00E9416019D
:102770008091F6018F5F8093F601DFBE82E5809342
:1027800062051092630580916205909163050E9435
:10279000EE022AE0D22E8FEF0E94C902DA94D11005
:1027A000FACF84E695E00E94F10220E030E0A90132
:1027B00060E084E695E00E940703D82E80936E05C2
:1027C00081E0D81679F00E949E01601B710B613D7B
:1027D000774058F381E08093690584E695E00E9494
:1027E000BE02FFCF2AEA31E040E050E068E084E634
:1027F00095E00E94070382FF2AC0D0926F05809166
:102800006F05412C512C3201823029F4412C512C7E
:10281000612C80E4782E20E030E0A90167E384E6B3
:1028200095E00E940703A301920169E284E695E026
:102830000E94070380936E058823D1F00E949E01B9
:10284000601B710B613D774030F388E0C4CF94E0AA
:10285000D92E0E94D00280936E05DA94D110F9CF60
:102860008A3A11F082E0B7CF82E080936F05C7CF3C
:1028700080916F058230D1F420E030E0A9016AE355
:1028800084E695E00E940703882311F086E0A3CF39
:102890000E94D002807C803C19F483E080936F0515
:1028A0000E94D0020E94D0020E94D00284E695E0ED
:1028B0000E94BE0280E5809362051092630581E06C
:1028C0000E940D05882339F08EE895E00E94C40728
:1028D000811107C086CF80E00E940D058111F4CFE1
:1028E00080CFF7016080718019A218A28CE291E07C
:1028F0009F8F8E8F1BA21C821B829A8389831E82CC
:102900004E01FEE18F0E911CC4010E94C4076301B9
:102910008E010F5F1F4F240118016FE270E0C601A6
:102920000E94BD20009709F45EC0D6012C912F3281
:1029300071F4BFEFCB1ADB0A902F812F8201492E51
:10294000582E942D852D2801092F182FE6CF8C198C
:102950008D3008F08CE0E82EF12CA701B601CE01F5
:10296000885A9F4F0E94D820E8E5F0E0EC0FFD1F49
:10297000EE0DFF1D1082C8010E94500AF8018581EA
:10298000882311F11EAE1DAE8CE291E09CAF8BAF9F
:1029900021961FAE2197E596AEADBFADE5976A0EC5
:1029A0007B1EF301808181112BC0BE01655C7F4FCE
:1029B000C1010E94501744E651E0B101CE01885A8E
:1029C0009F4F0E94DE1843C0AE01485A5F4FB201CC
:1029D000C8010E94FC178823A9F2CE0CDF1CC2019B
:1029E0000E94500AAECFC60186199709E5969FAF9F
:1029F0008EAFE597B201CE01CB960E945017CBCF98
:102A000019A218A28CE291E09F8F8E8F1BA22196B3
:102A10008FAD2197811155C06C961FAE1EAE6C977D
:102A200088EE93E0A0E0B0E0A0968CAF9DAFAEAF93
:102A3000BFAFA0978AE491E06A969FAF8EAF6A9786
:102A4000E3961FAE1EAEE397A5961FAEA5976C96B4
:102A50008EAD9FAD6C97D50113969C938E93129774
:102A6000A0968CAD9DADAEADBFADA097F5018483B2
:102A70009583A683B783A4968CAD9DADAEADBFAD57
:102A8000A49780879187A287B3873C96A8E5B0E09A
:102A9000AC0FBD1F1C96C50149962D9121938E1731
:102AA0009F07D9F7E396EEADFFADE397D5015A96B0
:102AB000FC93EE935997309719F08581811115C0D9
:102AC000FFCFA301BE01655C7F4FC4010E94FC17CC
:102AD000882309F4A1CFCE01CB960E94500AB401FD
:102AE000C1010E945017A30168CFCC58DF4F0FB629
:102AF000F894DEBF0FBECDBFDF91CF911F910F9134
:102B0000FF90EF90DF90CF90BF90AF909F908F900D
:102B10007F906F905F904F903F902F9008951F92FD
:102B20000F920FB60F9211242F933F938F939F9381
:102B3000AF93BF938091B2029091B302A091B4027F
:102B4000B091B5023091B10223E0230F2D3758F533
:102B50000196A11DB11D2093B1028093B202909302
:102B6000B302A093B402B093B5028091B6029091E3
:102B7000B702A091B802B091B9020196A11DB11D92
:102B80008093B6029093B702A093B802B093B902B3
:102B9000BF91AF919F918F913F912F910F900FBE59
:102BA0000F901F90189526E8230F0296A11DB11DC6
:102BB000D2CF1F920F920FB60F9211242F933F93F3
:102BC0004F935F936F937F938F939F93AF93BF9335
:102BD000EF93FF9385EC94E00E942902FF91EF911F
:102BE000BF91AF919F918F917F916F915F914F9125
:102BF0003F912F910F900FBE0F901F9018951F922D
:102C00000F920FB60F9211242F938F939F93EF93F0
:102C1000FF93E091D504F091D6048081E091DB042C
:102C2000F091DC0482FD1BC090818091DE048F5FF7
:102C30008F732091DF04821741F0E091DE04F0E011
:102C4000EB53FB4F958F8093DE04FF91EF919F91A3
:102C50008F912F910F900FBE0F901F90189580812C
:102C6000F4CF1F920F920FB60F9211242F933F9320
:102C70004F935F936F937F938F939F93AF93BF9384
:102C8000EF93FF938091B900887F803609F44AC0A2
:102C9000F0F5883209F4A7C018F5803109F49BC01B
:102CA000B8F4882309F4F9C0883009F494C0FF917E
:102CB000EF91BF91AF919F918F917F916F915F91B4
:102CC0004F913F912F910F900FBE0F901F9018952D
:102CD000883109F488C0803251F78093820214C091
:102CE000803409F49DC040F48033B9F38833F9F699
:102CF0008093820285ECB0C0803509F485C08835A8
:102D000009F496C0883499F60E942F12D0CF8839E2
:102D100009F48CC038F5883729F050F4883611F062
:102D2000803729F683E0809383021092810257C096
:102D3000883809F47BC0803919F0803809F0B7CFA2
:102D400080918102803208F071C0E091810281E0BF
:102D50008E0F809381028091BB00F0E0EF59FD4F10
:102D600080833DC0803B39F0E0F4803A09F479C0BB
:102D7000883A09F09CCF84E080938302109260022D
:102D800010925F02E091BC02F091BD020995809122
:102D90005F0281110FC081E080935F0210923F02B9
:102DA00009C0803C09F4A6CF883C09F4A3CF883B36
:102DB00009F07DCFE091600281E08E0F8093600288
:102DC000F0E0E15CFD4F80818093BB009091600258
:102DD00080915F0229C08091A8028093BB0085EC9E
:102DE0008093BC0064CF9091A7028091A6029817AF
:102DF00058F5E091A70281E08E0F8093A702F0E0E2
:102E0000EA57FD4F8081E9CFE091A70281E08E0F64
:102E10008093A7028091BB00F0E0EA57FD4F8083CA
:102E20009091A7028091A6029817C8F285E8D8CFA2
:102E3000E091A70281E08E0F8093A7028091BB00F2
:102E4000F0E0EA57FD4F80838091850281115CCFCD
:102E500081E08093840284EA8093BC001092830214
:102E600026CF85EC8093BC00109283028091810272
:102E7000803230F4E0918102F0E0EF59FD4F108292
:102E80006091810270E0E091BA02F091BB0281E6AC
:102E900092E00995109281020ACF1092820234CFFB
:102EA000FC01DB0112968D919C9113979383828391
:102EB0008CE291E09183808314968C9114978483A3
:102EC00015968C911597858316964D915D916D9110
:102ED0007C91199746835783608771871A964D9125
:102EE0005D916D917C911D974287538764877587AB
:102EF0001E964D915D916D917C91519746875787B4
:102F0000608B718B52968C915297828B53964D9118
:102F10005D916D917C915697438B548B658B768B2D
:102F200057964D915D916D917C915A97478B508F3B
:102F3000618F728F5B968D919C91948F838F089592
:102F40000F931F93CF93DF93EC0180E2689FF00112
:102F50001124EB53FD4F6A8B809100019091010188
:102F6000A0910201B09103018E879F87A88BB98B36
:102F70000489158930E020E09801112700270F8B84
:102F8000188F298F3A8F828D938DB0E0A0E0AC012D
:102F9000BD01402B512B622B732B4F8B588F698FA8
:102FA0007A8F83858871A9F4848D958DA68DB78DD0
:102FB0008B8B9C8BAD8BBE8B81E08D8381E08C8372
:102FC0001E821F82188619861A861B861C861D86FD
:102FD00003C0803131F080E0DF91CF911F910F91DC
:102FE00008959E012D5E3F4F8B8D9C8D0E94590749
:102FF000882389F384E0E1CFAF92BF92CF92DF9232
:10300000EF92FF920F931F93CF93DF93CDB7DEB76D
:103010002B970FB6F894DEBF0FBECDBF6C01FE013B
:103020003196CE010C967F0120E22193E817F90733
:10303000E1F7DA0120E037E09D91B92E9923A9F15B
:103040009E32B9F43A3091F480E02B960FB6F894A2
:10305000DEBF0FBECDBFDF91CF911F910F91FF90CB
:10306000EF90DF90CF90BF90AF90089528E03AE0C6
:10307000E3CFE2ECF0E08491882321F031969813BD
:10308000FACFE2CF321700F38FED890F8E35E0F6DD
:103090008FE9890F8A3118F440EEB42EB90EF7018A
:1030A000E20FF11DB0822F5FC7CF8981803261F2BC
:1030B0008B01FB01838D948DF601948F838FFB012F
:1030C000168217821086118612861386148615863C
:1030D000F80182859385A485B585438954896589DE
:1030E000768984179507A607B70708F0ADCF25E0C6
:1030F000B695A795979587952A95D1F7F82FFF70E4
:10310000AF2EF8018581823008F49ECFC8010E945D
:10311000750C97FD99CFF80182859385A485B585B7
:103120004F96A11DB11D82879387A487B587F0E2D2
:10313000AF9EB00111246B537D4F6115710509F4E9
:1031400083CFFB018081882309F1853E19F4B110FA
:1031500032C01EC04BE050E0C7010E94A720892B5F
:1031600009F0B6CF6A2DC6012B960FB6F894DEBFD4
:103170000FBECDBFDF91CF911F910F91FF90EF90C8
:10318000DF90CF90BF90AF900C94A017B1105CCFA0
:10319000F601A28A8091000190910101A0910201A3
:1031A000B091030186879787A08BB18BFB0180814B
:1031B000882309F449CFBB24B3948ACFEF92FF92BE
:1031C0000F931F93CF93DF93EC017B018A011B8246
:1031D0001A8288EE93E0A0E0B0E08C839D83AE83FA
:1031E000BF838AE491E0998388838DE190E00E9417
:1031F000AB1E9A8F898F009779F02DE1F701DC01E2
:1032000001900D922A95E1F74CE050E0B801CE0113
:103210000C960E94D820188EDF91CF911F910F91AC
:10322000FF90EF900895E5ECF4E01382128288EEAF
:1032300093E0A0E0B0E084839583A683B7832AE17E
:1032400031E03183208325EC30E03587248724EC7E
:1032500030E03787268720EC30E0318B208B21EC63
:1032600030E0338B228B22EC30E0358B248B26EC44
:1032700030E0378B268B118E128E138E148EE2E681
:10328000F5E020E520831182E4E6F5E01582168260
:103290001186138642E050E060E070E04487558775
:1032A0006687778713A215A614A62CE231E033A710
:1032B00022A717A6EDEAF5E0138212828483958394
:1032C000A683B78328E331E031832083EFEEF5E076
:1032D000138212822CE531E03183208327E224839C
:1032E00020E1218722E022871386E4EDF5E01382B6
:1032F000128284839583A683B7832AE431E03183E5
:103300002083128E118E1486E9EBF5E0138212826F
:1033100084839583A683B78331832083128E118E95
:1033200014860895CF93DF93CDB7DEB76A970FB6B3
:10333000F894DEBF0FBECDBF789484B5826084BDA3
:1033400084B5816084BD85B5826085BD85B58160A9
:1033500085BD80916E00816080936E001092810027
:1033600080918100826080938100809181008160E2
:1033700080938100809180008160809380008091A3
:10338000B10084608093B1008091B000816080932F
:10339000B00080917A00846080937A0080917A00F6
:1033A000826080937A0080917A00816080937A00B5
:1033B00080917A00806880937A001092C1000E9408
:1033C000F1100E94BB1061E08AE00E94160160E0EB
:1033D00087E00E94160160E086E00E94160160E02E
:1033E00085E00E94160160E084E00E94160166E616
:1033F00071E0CE0101960E941E12BE016F5F7F4FE9
:1034000084ED95E00E944E13CE0101960E946E114C
:1034100060E771E0CE0101960E941E12BE016F5F4F
:103420007F4F89EB95E00E944E13CE0101960E94DA
:103430006E110E94C00F60E080E00E9488108AE751
:1034400091E00E944B1061E080E00E94881083E8C8
:1034500091E00E944B100E94CB0F0097E1F383FF95
:1034600057C064EF71E080E090E00E946C0190E052
:1034700080E09093B0028093AF020E949E0161159C
:1034800071058105910511F00E94021E8091AF0225
:103490009091B002019709F084C10E949E016115CC
:1034A00071058105910511F00E94021E0E94BB105A
:1034B0000E94C00FC12CD12C76010E94BB1060E08D
:1034C00080E00E9488108DE891E00E944B1060E03F
:1034D0008DE00E9488104AE0C701B6010E94FD0FEE
:1034E0000E94CB0F0097E1F380FF2AC02BE0C216A9
:1034F000D104E104F10420F18AE0C81AD108E108FE
:10350000F10864EF71E080E090E00E946C01D5CF9B
:1035100082FF09C064EF71E080E090E00E946C01DE
:1035200081E090E0A6CF80FF96CF88E198E00FB6CB
:10353000F894A895809360000FBE90936000FFCF31
:1035400081FF0DC02DEDC21623E0D206E104F10487
:1035500030F48AE0C80ED11CE11CF11CD2CF82FFEE
:10356000D0CF64EF71E080E090E00E946C010E9497
:10357000BB100E94C00F60E080E00E94881085E9C7
:1035800091E00E944B1061E080E00E94881082EA86
:1035900091E00E944B1090E080E0009719F40E94A7
:1035A000CB0FFBCF82FFF9CF64EF71E080E090E0BA
:1035B0000E946C01A8EEB3E0A70196010E942A1EAA
:1035C0006B017C0161EF71E0CE0107960E941E1233
:1035D0000E94BB100E94C00F1E861D860E949E0185
:1035E0004B015C0110E000E00E949E01681979091E
:1035F0008A099B09C616D706E806F90608F45FC0D3
:103600000E949E010E94C00F0E94BB1060E080E0FB
:103610000E9488108FEA91E00E944B1061E080E0E8
:103620000E9488100E94B31D23EF31E040E050E07B
:103630000E940B1E6F5F7F4F8F4F9F4F9E01235F36
:103640003F4F60FF2CC04CE755E064ED75E0CE01C4
:1036500001960E946712BE016F5F7F4FCE010796F1
:103660000E949211CE0101960E946E114B855C85DD
:103670006F8178858FEE95E00E94AB010E94CB0FA1
:103680000097E1F381FF10C064EF71E080E090E00B
:103690000E946C0181E090E0080F191FA5CF4AE855
:1036A00054E069EB75E0D3CF80FFE8CF64EF71E0C1
:1036B00080E090E00E946C0190E080E0EDCFCE01D0
:1036C0000D960E947611CE0107960E946E110E94FF
:1036D000BB100E94C00F60E080E00E94881088EB61
:1036E00091E00E944B1061E080E00E94881082EC23
:1036F00091E00E944B1061E08AE00E948810B801BE
:10370000110F880B990B0E94CC1090E080E000977D
:1037100019F40E94CB0FFBCF82FFF9CF64EF71E069
:1037200080E090E00E946C010E94BB100E94C00FDC
:1037300060E080E00E9488108BEC91E00E944B10CA
:1037400061E08CE00E94881081ED91E00E944B10B6
:1037500090E080E0009719F40E94CB0FFBCF82FF2E
:1037600007C064EF71E080E090E00E946C012ACF16
:1037700083FFF0CF64EF71E080E090E00E946C0185
:103780000E94BB100E94C00F80E090E0892B09F4DA
:1037900050CE0E941502882309F44BCE0E940000EF
:1037A00048CE0E94F1100E94C00F1A8E198E61EF50
:1037B00071E0CE0143960E941E120E94C00F60E08D
:1037C00080E00E94881085ED91E00E944B1092E00D
:1037D000E92EF12C60E08EE00E94881027010F2C6A
:1037E000000C66087708C301B2010E94CC100E9449
:1037F000CB0F0097E1F381FF0AC02FEFE21AF20A24
:1038000064EF71E080E090E00E946C01E3CF80FF04
:1038100008C022E0E216F10421F081E0E81AF10884
:10382000EFCF82FFEDCF64EF71E080E090E00E9487
:103830006C010E94BB100E94C00F60E080E00E94FB
:10384000881080EE91E00E944B10CC24C394D12CC0
:1038500060E08EE00E948810B6010D2C000C880BF1
:10386000990B0E94CC100E94CB0F0097E1F381FFCF
:103870000DC0CE14DF0454F42FEFC21AD20A64EF45
:1038800071E080E090E00E946C01E2CF80FF08C010
:1038900021E0C216D10421F081E0C81AD108EFCF8F
:1038A00082FFEDCF64EF71E080E090E00E946C0158
:1038B0000E949E01611571058105910511F00E941C
:1038C000021E222423940E94BB100E94C00F0E945B
:1038D0009E01611571058105910511F00E94021E7E
:1038E000C7010E94AB1E5C01FC018E0D9F1D119251
:1038F0008E179F07E1F710E000E0C016D10681F0B7
:103900000E94B31DA30192010E940B1EF501E60F58
:10391000F71F80818111F1CF20820F5F1F4FEDCF04
:103920009E01275E3F4F4CE755E064ED75E0CE0108
:103930000D960E94671218861F821A8619861C86A9
:103940001B866D857E856115710531F049895A891F
:10395000CE0107960E94F3110E94C00F312C10E097
:1039600000E00E94CB0F0097E1F382FF91C0480175
:103970002FEF821A920A332059F11A8219821C827F
:103980001B821E821D826F8178856115710531F061
:103990004B855C85CE0101960E94F311F501E00F85
:1039A000F11F8081882359F08DE791E00E944B1030
:1039B000CE0101960E946E118401312C23C04D81ED
:1039C0005E8169817A818FEE95E00E94AB01F0CF34
:1039D0000E94BB1060E080E00E94881088EE91E0B9
:1039E0000E944B1060E08BE00E948810B401990C9B
:1039F000880B990B0E94CC1061E080E00E94881037
:103A00003324339464EF71E080E090E00E946C0115
:103A10000E151F050CF4A5CF64EF71E080E090E077
:103A20000E946C01CE0107960E946E1164EF71E056
:103A300080E090E00E946C010E94BB100E94C00FC9
:103A40008BEC91E00E944B1061E08CE00E948810AA
:103A500082EF91E00E944B100E94CB0F0097E1F3A0
:103A600083FF28C064EF71E080E090E00E946C0169
:103A7000C5010E94471FCE010D960E946E11CE0116
:103A800049960E947611CE0143960E946E1178CE1F
:103A900083FFB8CF0115110509F4B4CF0E94BB1004
:103AA0000130110519F00250110987CF312C10E0B7
:103AB00000E0A8CF82FFD2CF64EF71E080E090E019
:103AC0000E946C01CE010D960E946E11FCCE8F9269
:103AD0009F92AF92BF92CF92DF92EF92FF92CF93DD
:103AE000DF93EC01688179818A819B816115710581
:103AF0008105910521F464E279ED8BE597E02DE1F4
:103B000033EF41E050E00E940B1E49015A019B0136
:103B1000AC01A7EAB1E40E942A1E6B017C01ACEE65
:103B2000B4EFA50194010E94381EC60ED71EE81EF0
:103B3000F91EF7FE06C081E0C81AD108E10880E846
:103B4000F80AC882D982EA82FB82C701B6019F7750
:103B5000DF91CF91FF90EF90DF90CF90BF90AF902B
:103B60009F908F9008958F929F92AF92BF92CF9225
:103B7000DF92EF92FF9260910401709105018091B4
:103B8000060190910701611571058105910521F4E8
:103B900064E279ED8BE597E02DE133EF41E050E011
:103BA0000E940B1E49015A019B01AC01A7EAB1E436
:103BB0000E942A1E6B017C01ACEEB4EFA5019401BA
:103BC0000E94381EC60ED71EE81EF91EF7FE06C05C
:103BD00081E0C81AD108E10880E8F80AC09204011F
:103BE000D0920501E0920601F0920701C701B601EB
:103BF0009F77FF90EF90DF90CF90BF90AF909F9016
:103C00008F900895609304017093050180930601DD
:103C1000909307010895052E97FB1EF400940E94CF
:103C2000221E57FD07D00E94741E07FC03D04EF4DD
:103C30000C94221E50954095309521953F4F4F4F43
:103C40005F4F089590958095709561957F4F8F4F48
:103C50009F4F08950E94961EA59F900DB49F900DB2
:103C6000A49F800D911D11240895B7FF0C942A1E66
:103C70000E942A1E821B930B08952F923F924F920F
:103C80005F926F927F928F929F92AF92BF92CF92EC
:103C9000DF92EF92FF920F931F93CF93DF93CDB7F5
:103CA000DEB7CA1BDB0B0FB6F894DEBF0FBECDBF6D
:103CB00009942A88398848885F846E847D848C843E
:103CC0009B84AA84B984C884DF80EE80FD800C8147
:103CD0001B81AA81B981CE0FD11D0FB6F894DEBF2A
:103CE0000FBECDBFED010895A1E21A2EAA1BBB1B8A
:103CF000FD010DC0AA1FBB1FEE1FFF1FA217B307B8
:103D0000E407F50720F0A21BB30BE40BF50B661FCD
:103D1000771F881F991F1A9469F760957095809591
:103D200090959B01AC01BD01CF010895A29FB00108
:103D3000B39FC001A39F700D811D1124911DB29FDF
:103D4000700D811D1124911D0895EE0FFF1F059028
:103D5000F491E02D09940F931F93CF93DF9382305A
:103D6000910510F482E090E0E091FD05F091FE05F0
:103D700030E020E0B0E0A0E0309799F42115310563
:103D800009F44AC0281B390B24303105D8F58A8143
:103D90009B816115710589F1FB0193838283FE018B
:103DA00011C0408151810281138148175907E0F009
:103DB0004817590799F4109761F012960C931297CF
:103DC00013961C933296CF01DF91CF911F910F91E3
:103DD00008950093FD051093FE05F4CF21153105DC
:103DE00051F04217530738F0A901DB019A01BD01D8
:103DF000DF01F801C1CFEF01F9CF9093FE05809369
:103E0000FD05CDCFFE01E20FF31F81939193225068
:103E1000310939832883D7CF2091FB053091FC05E8
:103E2000232B41F420910A0130910B013093FC05C2
:103E30002093FB05209108013091090121153105DE
:103E400041F42DB73EB740910C0150910D01241B58
:103E5000350BE091FB05F091FC05E217F307A0F4A8
:103E60002E1B3F0B2817390778F0AC014E5F5F4FD0
:103E70002417350748F04E0F5F1F5093FC05409301
:103E8000FB05819391939FCFF0E0E0E09CCFCF932F
:103E9000DF930097E9F0FC01329713821282A09120
:103EA000FD05B091FE05ED0130E020E01097A1F492
:103EB00020813181820F931F2091FB053091FC05F9
:103EC0002817390709F061C0F093FC05E093FB0562
:103ED000DF91CF910895EA01CE17DF07E8F54A8117
:103EE0005B819E0141155105B1F7E901FB83EA832E
:103EF00049915991C40FD51FEC17FD0761F48081DA
:103F000091810296840F951FE901998388838281AC
:103F100093819B838A83F0E0E0E012968D919C91DF
:103F200013970097B9F52D913C911197CD01029609
:103F3000820F931F2091FB053091FC05281739074C
:103F400039F6309751F51092FE051092FD05B093A9
:103F5000FC05A093FB05BCCFD383C2834081518174
:103F6000840F951FC817D90761F44E5F5F4F888192
:103F70009981480F591F518340838A819B81938384
:103F800082832115310509F0B0CFF093FE05E0934F
:103F9000FD059ECFFD01DC01C0CF13821282D7CF79
:103FA000B0E0A0E0E6EDFFE10C943F1E8C0100972D
:103FB00051F4CB010E94AB1E8C01C801CDB7DEB716
:103FC000E0E10C945B1EFC01E60FF71F9C01225000
:103FD0003109E217F30708F49DC0D901CD91DC91B6
:103FE0001197C617D70798F0C530D10530F3CE0129
:103FF00004978617970708F3C61BD70B2297C19320
:10400000D1936D937C93CF010E94471FD6CF5B0164
:10401000AC1ABD0A4C018C0E9D1EA091FD05B091FD
:10402000FE05512C412CF12CE12C109731F580919B
:10403000FB059091FC058815990509F05CC04616B2
:10404000570608F058C08091080190910901009727
:1040500041F48DB79EB740910C0150910D01841B26
:10406000950BE817F90708F055C0F093FC05E093AD
:10407000FB05F90171836083A0CF8D919C9111970D
:1040800012966C90129713967C901397A815B90509
:1040900059F56C0142E0C40ED11CCA14DB0420F1B6
:1040A000AC014A195B09DA011296159780F0628219
:1040B000738251834083D9016D937C93E114F104A1
:1040C00071F0D7011396FC93EE93129776CF229658
:1040D0008C0F9D1FF90191838083F301EFCFF09343
:1040E000FE05E093FD0569CF4816590608F42C013A
:1040F0007D01D3019ACFCB010E94AB1E7C010097BA
:1041000049F0AE01B8010E94B420C8010E94471FC7
:10411000870153CF10E000E050CF0F931F93CF9350
:10412000DF938C01FC0101900020E9F7CF01801B97
:10413000910B0E94AB1EEC01009719F0B8010E9490
:10414000D120CE01DF91CF911F910F910895FB01F6
:10415000DC0104C08D910190801921F44150504040
:10416000C8F7881B990B0895FB01DC0102C0019080
:104170000D9241505040D8F70895FC018191861767
:1041800021F08823D9F7992708953197CF01089511
:10419000FB01DC018D91019080190110D9F3990B7D
:1041A0000895FB01DC0101900D920020E1F70895D4
:1041B000FB01DC014150504048F001900D9200207D
:1041C000C9F701C01D9241505040E0F70895F8949E
:0241D000FFCF1F
:1041D200FFFFFFFF010000000000FF05800000005C
:1041E200400014005400000000004B02AB01D80153
:1041F20098020902E701FB0100000000F80BAB0185
:10420200F209AA0100000000AA0E7D0EC80F530E8B
:10421200760E630E540E000000005F0C420C320C4E
:10422200090C120C950DC90D00000000C610AB015F
:10423200C80FAA012F006E6F756E732E747874000A
:1042420076657262732E747874003C2D204573700B
:104252006961002D3E20446967616C6F0054696595
:104262006D706F3A002B20706172612073756D6101
:1042720072002D2070617261207061736172005052
:10428200616C616272613A00536520616361626FC1
:10429200210050756E74616A653A004F7472613F15
:1042A200003B2D29004A756761646F7265733A009D
:1042B2004573706961733A004A756761646F723A57
:0642C20020003A2D290046
:00000001FF
