:100000000C946A000C9492000C9492000C94920050
:100010000C9492000C9492000C9492000C94920018
:100020000C9492000C9492000C9492000C94920008
:100030000C9492000C9492000C9492000C949200F8
:100040000C94BC170C9492000C942C180C94061869
:100050000C9492000C9492000C9492000C949200D8
:100060000C945E180C9492000000000024002700FD
:100070002A0000000000250028002B0000000000DE
:1000800023002600290004040404040404040202DA
:100090000202020203030303030301020408102007
:1000A0004080010204081020010204081020000012
:1000B0000008000201000003040700000000000027
:1000C00000007C3C3E5E2B3D3F2F5B5D3B2C2A229B
:1000D0005C007D1911241FBECFEFD8E0DEBFCDBF7D
:1000E00012E0A0E0B1E0EEE7F4E402C005900D926A
:1000F000A638B107D9F726E0A6E8B2E001C01D9204
:10010000AB34B207E1F710E0CAE6D0E004C02197B3
:10011000FE010E94FB1FC936D107C9F70E94D11901
:100120000C943D220C940000833081F028F481303F
:1001300099F08230A9F008958730A9F08830C9F08D
:100140008430B1F4809180008F7D03C08091800065
:100150008F7780938000089584B58F7784BD08954C
:1001600084B58F7DFBCF8091B0008F778093B000F6
:1001700008958091B0008F7DF9CFCF93DF93282F22
:1001800030E0F901E255FF4F8491F901E656FF4F47
:10019000D491F901EA57FF4FC491CC23A1F081110A
:1001A0000E949400EC2FF0E0EE0FFF1FE458FF4F89
:1001B000A591B491EC91ED2381E090E009F480E009
:1001C000DF91CF91089580E090E0FACF1F93CF9315
:1001D000DF93282F30E0F901E255FF4F8491F901B8
:1001E000E656FF4FD491F901EA57FF4FC491CC2353
:1001F000A9F0162F81110E949400EC2FF0E0EE0F71
:10020000FF1FEE58FF4FA591B4918FB7F894EC9172
:10021000111108C0D095DE23DC938FBFDF91CF9101
:100220001F910895DE2BF8CFCF93DF9390E0FC0170
:10023000E656FF4F24918A579F4FFC0184918823F3
:10024000D1F090E0880F991FFC01E859FF4FA5916C
:10025000B491FC01EE58FF4FC591D49161110EC0CD
:100260009FB7F8948C91E22FE0958E238C93288190
:10027000E223E8839FBFDF91CF9108958FB7F89471
:10028000EC91E22BEC938FBFF6CF3FB7F8948091BF
:100290004C0390914D03A0914E03B0914F0326B5AE
:1002A000A89B05C02F3F19F00196A11DB11D3FBFAE
:1002B000BA2FA92F982F8827BC01CD01620F711D7D
:1002C000811D911D42E0660F771F881F991F4A9577
:1002D000D1F708958F929F92AF92BF92CF92DF9203
:1002E000EF92FF924B015C010E9445016B017C0182
:1002F0000E9445016C197D098E099F09683E734073
:1003000081059105A8F321E0821A9108A108B1089E
:1003100088EEC80E83E0D81EE11CF11C8114910404
:10032000A104B10429F7FF90EF90DF90CF90BF9028
:10033000AF909F908F9008952FB7F89460914803E5
:100340007091490380914A0390914B032FBF089508
:100350000895AF92BF92CF92DF92EF92FF920F93E8
:100360001F93CF93DF936C017B018B01040F151F4B
:10037000EB015E01AE18BF08C017D10759F06991B3
:10038000D601ED91FC910190F081E02DC601099517
:10039000892B79F7C501DF91CF911F910F91FF90C4
:1003A000EF90DF90CF90BF90AF900895FC01538DF8
:1003B000448D252F30E0842F90E0821B930B54173F
:1003C00010F0CF96089501970895FC01918D828DCC
:1003D000981761F0A28DAE0FBF2FB11D5D968C9165
:1003E000928D9F5F9F73928F90E008958FEF9FEFA4
:1003F0000895FC01918D828D981731F0828DE80F60
:10040000F11D858D90E008958FEF9FEF0895FC0119
:10041000918D228D892F90E0805C9F4F821B9109E6
:100420008F739927089583E595E00E94070221E0E4
:10043000892B09F420E0822F089580E090E0892B39
:1004400029F00E94130281110C9400000895FC0110
:10045000A48DA80FB92FB11DA35ABF4F2C91848D25
:1004600090E001968F739927848FA689B7892C9382
:10047000A089B1898C91837080648C93938D848DD5
:10048000981306C00288F389E02D80818F7D8083D8
:100490000895EF92FF920F931F93CF93DF93EC0198
:1004A00081E0888F9B8D8C8D98131AC0E889F9891B
:1004B000808185FF15C09FB7F894EE89FF8960831E
:1004C000E889F98980818370806480839FBF81E09F
:1004D00090E0DF91CF911F910F91FF90EF900895E1
:1004E000F62E0B8D10E00F5F1F4F0F731127E02EBC
:1004F0008C8D8E110CC00FB607FCFACFE889F989F4
:10050000808185FFF5CFCE010E942702F1CFEB8DD0
:10051000EC0FFD2FF11DE35AFF4FF0829FB7F894C7
:100520000B8FEA89FB8980818062CFCFCF93DF93E5
:10053000EC01888D8823B9F0AA89BB89E889F989FB
:100540008C9185FD03C0808186FD0DC00FB607FC30
:10055000F7CF8C9185FFF2CF808185FFEDCFCE0163
:100560000E942702E9CFDF91CF9108958FB7F894C9
:10057000809142038FBF089561E0FC0184810E9455
:10058000E6008091410381111092410308958EBDD0
:1005900000000DB407FEFDCF8EB508958FEF0C94CB
:1005A000C7020F931F93CF93DF93EC010E949C012E
:1005B0008B010E94CE028F3F69F00E949C01601B5C
:1005C000710B6C177D07A8F380E0DF91CF911F912D
:1005D0000F91089581E0F9CF8CBD9DBD0895CF9313
:1005E000DF93EC0180914103811109C081E0809388
:1005F00041038091F0059091F1050E94EC0260E0CA
:100600008C81DF91CF910C94E6008F929F92AF92F4
:10061000BF92FF920F931F93CF93DF93EC01F62EBF
:1006200049015A018E81882389F08F8198859C0128
:100630002F5F3F4F38872F838230924018F40E94FB
:10064000CE02F3CFCE010E94BC021E82CE010E94D8
:10065000EF028CE291E00E94D1028F2D80640E9413
:10066000C70208E110E0D501C401002E04C0B69510
:10067000A795979587950A94D2F70E94C7020850CC
:100680001109083F8FEF180771F785E9FF2021F066
:1006900028E087E8F2128FEF0E94C70210E00E9464
:1006A000CE028A8787FF04C01F3F11F01F5FF7CF7C
:1006B000DF91CF911F910F91FF90BF90AF909F90CE
:1006C0008F900895AF92BF92CF92DF92EF92FF92F8
:1006D0000F931F93CF93DF93EC016901C801820F41
:1006E000931F8130924050F58E81882379F0888164
:1006F0009981AA81BB8184179507A607B70731F4B2
:100700008F819885C816D90608F042C0488359835E
:100710006A837B838B85833039F089E0440F551FD2
:10072000661F771F8A95D1F79A01AB0161E1CE016F
:100730000E940503882389F083E08D83CE010E9407
:10074000BC0280E0DF91CF911F910F91FF90EF905D
:10075000DF90CF90BF90AF9008950E949C015B0105
:100760000E94CE028A878F3F69F40E949C016A1919
:100770007B096D327140A0F38FE08D83CE010E9422
:10078000BC02DCCF8E3F89F418861F8281E08E8305
:100790008F8198858C159D0550F40E94CE028F8123
:1007A0009885019698878F83F3CF8DE0E6CF670118
:1007B000E00EF11E0E94CE02F60181936F01EE154C
:1007C000FF05C1F78F819885080F191F18870F83C0
:1007D0008985882319F001151240A0F08E818823A5
:1007E00089F08F8198859C012F5F3F4F38872F8339
:1007F0008230924018F40E94CE02F3CFCE010E94C4
:10080000BC021E8281E09ECFCF92DF92EF92FF92D8
:100810000F93CF93DF93EC01690182E141155105FC
:100820006105710599F08B85833039F089E0440FBB
:10083000551F661F771F8A95D1F79A01AB0168E1B2
:10084000CE010E940503882319F084E08D832DC01A
:100850008EEF0E94C70276018EEFD81AF7018191C0
:100860007F010E94C702EC14FD04C1F78FEF0E94C4
:10087000C7028FEF0E94C7020E94CE028A878F7143
:10088000853071F4011116C0CE010E94BC0281E0D6
:10089000DF91CF910F91FF90EF90DF90CF9008956F
:1008A00081E18D83CE010E94BC02CE010E94BC0278
:1008B00080E0EECF88E592E00E94D102811102C073
:1008C00085E1C4CF20E030E0A9016DE0CE010E94B7
:1008D0000503882311F084E1B9CF0E94CE02811173
:1008E000FACFD2CF0F9340914303509144036091CC
:1008F000450370914603411551056105710599F055
:10090000082F23E533E080915003909151030E941A
:100910000404882349F01092430310924403109278
:1009200045031092460381E00F9108950F93CF93F2
:10093000C82F80915203811105C0C1E08C2FCF9147
:100940000F910895409100015091010160910201C1
:10095000709103010C2F23E533E0809150039091B7
:1009600051030E940404811102C0C0E0E7CFCC23F0
:1009700021F381E00E9472048823B9F3109252039C
:10098000DDCF8F929F92AF92BF92EF92FF920F9323
:100990001F93CF934B015C01C42F80910001909174
:1009A0000101A0910201B091030188159905AA05E2
:1009B000BB0551F181E00E94960481110BC080E0DB
:1009C000CF911F910F91FF90EF90BF90AF909F90AC
:1009D0008F90089583E5E82E83E0F82E00E012E082
:1009E00030E020E0B501A4018091500390915103C3
:1009F0000E946203882319F3809200019092010102
:100A0000A0920201B0920301409152034C2B4093FB
:100A1000520381E0D5CF8F929F92AF92BF92CF9237
:100A2000DF92EF92FF92CF9322EF35E030935103A4
:100A300020935003882309F46DC040E060E070E02B
:100A4000CB010E94C10481110BC080E0CF91FF90C7
:100A5000EF90DF90CF90BF90AF909F908F900895D0
:100A6000809111058F7789F780911D0590911E0562
:100A7000A0911F05B091200584369105A105B1050F
:100A800020F3C0901905D0901A05E0901B05F09056
:100A90001C05C114D104E104F104B9F240E0C7011E
:100AA000B6010E94C104882381F280915E03909177
:100AB0005F038115924049F6A0916303AA2329F2AE
:100AC00060916103709162036115710509F4BDCFF6
:100AD00020916003222309F4B8CFA093100620933D
:100AE000020690E080E030E0E1E0F0E0C82FAF01E6
:100AF000082E02C0440F551F0A94E2F72417350749
:100B000069F041E0480F01968930910579F74093EB
:100B10000B069BCFC12CD12C7601C0CF80930B0646
:100B20002091690330916A0350E040E021153105BE
:100B300041F42091770330917803409179035091EB
:100B40007A032093030630930406409305065093DE
:100B5000060646015701860E971EA11CB11C809205
:100B6000110690921206A0921306B0921406E0911C
:100B70006403F0916503F0931706E0931606B0E066
:100B80000E94801FDC01CB01880D991DAA1DBB1D91
:100B90008093180690931906A0931A06B0931B062B
:100BA00025E0EE0FFF1F2A95E1F7E150FE4FEF2FF2
:100BB000FF27E6958E0F9F1FA11DB11D80930C0688
:100BC00090930D06A0930E06B0930F0680906603D7
:100BD00090906703B12CA12C8114910441F4809072
:100BE000730390907403A0907503B0907603C81AB5
:100BF000D90AEA0AFB0AC80CD91CEA1CFB1C04C06F
:100C0000F694E794D794C794CA95D2F7C092070692
:100C1000D0920806E0920906F0920A0685EFC816FF
:100C20008FE0D806E104F10428F48CE080931506E7
:100C300081E00CCF80E125EFC2162FEFD206E10450
:100C4000F104A0F380917F0390918003A091810330
:100C5000B09182038093180690931906A0931A0608
:100C6000B0931B0680E2E2CF4F925F926F927F9229
:100C70008F929F92AF92BF92CF92DF92EF92FF92AC
:100C80000F931F93CF93DF93EC0142305105610521
:100C9000710590F480E0DF91CF911F910F91FF904B
:100CA000EF90DF90CF90BF90AF909F908F907F900C
:100CB0006F905F904F90089589859A85AB85BC852C
:100CC0000196A11DB11D84179507A607B70710F35C
:100CD000CB88DC88ED88FE888F89803109F042C09E
:100CE000BB27A72F962F852F480159012A013B01C9
:100CF000C80ED91EEA1EFB1E8091000190910101D1
:100D0000A0910201B0910301C816D906EA06FB06BC
:100D100099F58F898031C1F5B301A2015527662766
:100D20007727440F551F4D5A5C4FFA0191828082FC
:100D3000809152038160809352038A89823080F0CF
:100D40008D819E81AF81B8858C0D9D1DAE1DBF1D0F
:100D50008093430390934403A0934503B0934603C9
:100D600081E099CFDB01CA01E7E0B695A795979599
:100D70008795EA95D1F7B8CF40E0C701B6010E9448
:100D8000C1048111C6CF86CFB301A2014F77552789
:100D900066277727440F551F440F551F4D5A5C4F48
:100DA000FA0180829182A282B382C2CF8F929F92F7
:100DB000AF92BF92CF92DF92EF92FF920F931F9369
:100DC000CF93DF93FC0181859285A385B48501963D
:100DD000A11DB11D84179507A607B70770F480E021
:100DE000DF91CF911F910F91FF90EF90DF90CF9007
:100DF000BF90AF909F908F90089583889488A58826
:100E0000B6888789803189F5BB27A72F962F852F34
:100E1000E9016A017B018F01BC01CD01680D791DDB
:100E20008A1D9B1D8090000190900101A0900201FD
:100E3000B090030186169706A806B90601F5F801D9
:100E40008789803111F5DD24EE24FF24F601EE0FB1
:100E5000FF1FED5AFC4F80819181B0E0A0E08883B4
:100E60009983AA83BB8381E0BBCFDB01CA01C7E0C2
:100E7000B695A79597958795CA95D1F7C9CF40E0C4
:100E80000E94C1048111DBCFAACFE894C7F8DD240A
:100E9000EE24FF24F601EE0FFF1FEE0FFF1FED5AA9
:100EA000FC4F80819181A281B381BF70D8CF4F92D6
:100EB0005F926F927F92AF92BF92CF92DF92EF924A
:100EC000FF920F931F93CF93DF9300D000D0CDB745
:100ED000DEB78C0149835A836B837C835901C12C13
:100EE000D12C7601412C82E0582E612C712C498145
:100EF0005A816B817C819E012F5F3F4FC8010E9408
:100F0000D606882339F1F8018585A301920104C032
:100F1000220F331F441F551F8A95D2F7DA01C901EA
:100F2000C80ED91EEA1EFB1E49815A816B817C8145
:100F30008789803111F188EF9FEFAFEFBFE048174D
:100F400059076A077B0798F2F501C082D182E282D5
:100F5000F38281E00F900F900F900F90DF91CF916F
:100F60001F910F91FF90EF90DF90CF90BF90AF90C7
:100F70007F906F905F904F90089588EF9FEFA0E073
:100F8000B0E0DDCFCF93DF93FC012581222321F058
:100F900080E0DF91CF910895EC01809115068031BA
:100FA00059F582E08583178A108E118E128E8091FA
:100FB000160690911706B0E0A0E025E0880F991F73
:100FC000AA1FBB1F2A95D1F7838B948BA58BB68B59
:100FD0008EEF95E09C8F8B8F81E08C831E821F8229
:100FE000188619861A861B861C861D861E861F86F5
:100FF000188A198A1A8ACDCF803251F683E0858308
:10100000409118065091190660911A0670911B06BE
:10101000478B508F618F728F9F012D5E3F4F8EEFF8
:1010200095E00E9457078111D3CFB2CF8F929F9244
:10103000AF92BF92CF92DF92EF92FF920F931F93E6
:10104000CF93DF93EC018D8181110EC080E0DF91A1
:10105000CF911F910F91FF90EF90DF90CF90BF90B5
:10106000AF909F908F9008950B891C892D893E89A0
:10107000041715072607370748F34A015B0182303A
:1010800031F48A869B86AC86BD8681E0E0CF8114F0
:101090009104A104B10449F41E821F8218861986A6
:1010A0001A861B861C861D86F0CF0A851B852C851B
:1010B0003D85EB8DFC8D858590E00996B901A801F1
:1010C0004150510961097109082E04C07695679550
:1010D000579547950A94D2F775016401E1E0CE1A5D
:1010E000D108E108F10804C0F694E794D794C794B6
:1010F0008A95D2F7C416D506E606F70620F0012B2E
:10110000022B032B11F58F89988DA98DBA8D8E83B3
:101110009F83A887B9878E010A5F1F4FC114D1042E
:10112000E104F10409F4ADCF4E815F8168857985D2
:1011300098018B8D9C8D0E94D60691E0C91AD1082A
:10114000E108F1088111EACF81CFC41AD50AE60A75
:10115000F70AE1CF3F924F925F926F927F928F9208
:101160009F92AF92BF92CF92DF92EF92FF920F9336
:101170001F93CF93DF93CDB7DEB72C970FB6F894BC
:10118000DEBF0FBECDBF5C01DC015B968D909C90F5
:101190005C9716964D905D906D907C9019974114D8
:1011A00051046104710409F468C0BFEF4B1A5B0A73
:1011B0006B0A7B0A312CF40181859285A385B48565
:1011C0009C01AD012F5F3F4F4F4F5F4F29873A87FB
:1011D0004B875C87730162011D821E821F82188605
:1011E000F40181859285A385B4852D813E814F814F
:1011F0005885281739074A075B0708F056C08985C4
:101200009A85AB85BC858C159D05AE05BF0550F450
:1012100082E0C82ED12CE12CF12C92E0492E512CE9
:10122000612C712C9E012F5F3F4FB701A601C401B5
:101230000E94D6068823C9F189819A81AB81BC813D
:10124000892B8A2B8B2B09F1260137019FEF491A35
:10125000590A690A790A2D813E814F8158852F5F8D
:101260003F4F4F4F5F4F2D833E834F8358873FEF54
:10127000C31AD30AE30AF30AB3CFF40140805180C2
:10128000628073803324339496CFC414D504E6046B
:10129000F70409F70FEF1FEF2FEF3FE0B701A601AB
:1012A000C4010E943406811119C080E02C960FB64B
:1012B000F894DEBF0FBECDBFDF91CF911F910F918C
:1012C000FF90EF90DF90CF90BF90AF909F908F9066
:1012D0007F906F905F904F903F900895D501169644
:1012E0004D915D916D917C91199741155105610565
:1012F000710539F097018601C4010E9434068823E4
:10130000A1F2D5011696CD92DD92ED92FC9219973D
:10131000332051F0D701C6010196A11DB11DF40182
:1013200080839183A283B383F5018789908DA18DFA
:10133000B28D892B8A2B8B2B39F48481C78AD08E6E
:10134000E18EF28E80688483F501848180628483DB
:1013500081E0ACCF1F93CF93DF93FC012581222343
:10136000D1F1162FEC01848187FF2AC0668577852D
:101370008089918941E00E94C104882361F1EA8952
:1013800080E2E89FF0011124ED5AFC4F309719F1EB
:101390008D81823040F48B899C89AD89BE89848F90
:1013A000958FA68FB78F8F89988D938F828F8F8916
:1013B000988DA98DBA8DB58BA48B8C818F778C83FA
:1013C000111103C08C818F7E8C83812FDF91CF918F
:1013D0001F910C94960480E0DF91CF911F910895A6
:1013E000FF920F931F93CF93DF93EC018D81813098
:1013F00041F090E080E0DF91CF911F910F91FF903D
:1014000008958C8181FFF5CF82FD1BC000915003B0
:1014100010915103C8010E94EF020E94CE02F82EE3
:10142000C8010E94BC028FEFF812E3CF8C8185FFC8
:101430001BC060E0CE010E94AA098C818F7D8C8345
:10144000D8CF4B895C896D897E898A859B85AC85DF
:10145000BD8584179507A607B707C1F2CE010E9484
:1014600016088111D3CFC5CF409143035091440357
:101470006091450370914603452B462B472B21F085
:1014800080E00E947204B5CF80618C832A853B8501
:10149000317080E092E0821B930BADCFCF93DF934E
:1014A000EC0161E00E94AA09882311F01D8281E00D
:1014B000DF91CF9108952F923F924F925F926F925A
:1014C0007F928F929F92AF92BF92CF92DF92EF92D4
:1014D000FF920F931F93CF93DF9300D000D01F9202
:1014E000CDB7DEB77C015B01342E5D83DC01159640
:1014F0008C911597813009F0CEC014962C9021FE66
:10150000CAC022FCB4C0C32CDD8022947FE0272215
:101510002094B22DB1702B2ED7011A964D915D916A
:101520006D917C911D97C114D10409F428C15B967B
:101530008D919C915C97FC0174807A948A019B0147
:1015400069E036952795179507956A95D1F770222A
:101550008A011170711020C001151105E9F4169669
:101560004D915D916D917C911997411551056105E2
:10157000710509F099C057968D919D910D90BC9180
:10158000A02D0097A105B10509F0B0C0C7010E94C8
:10159000AA08882309F47FC080E092E0801B910BA9
:1015A00046018C159D0508F44C01D7015B964D91C1
:1015B0005C915C9716968D919D910D90BC91A02D9C
:1015C0000297A109B109FA01258504C0880F991F66
:1015D000AA1FBB1F2A95D2F7468557856089718956
:1015E000840F951FA61FB71F9C01AD01270D311D4C
:1015F000411D511D29013A01811432E0930609F081
:101600007BC08091000190910101A0910201B091F5
:10161000030184159505A605B70559F48FEF9FEFD3
:10162000DC018093000190930101A0930201B0932B
:101630000301022D9501B301A20180915003909105
:1016400051030E940404882331F19EEFB91AC8188F
:10165000D908F70182859385A485B585880D991DE4
:10166000A11DB11D82879387A487B58755CFF70148
:10167000438954896589768982859385A485B58552
:10168000481759076A077B0709F43DCFC7010E9435
:101690001608811138CF81E090E0D70113969C9312
:1016A0008E93129780E007C09E012F5F3F4F0E94EC
:1016B000D606811102C090E079C089819A81AB8100
:1016C000BC81F701238D348DF901278948EF5FEF45
:1016D00060E070E0203121F048EF5FEF6FEF7FE0D6
:1016E00084179507A607B70708F050CFF701868340
:1016F0009783A087B18750CF0115110599F5D701C0
:101700001A964D915D916D917C911D9753968D9197
:101710009D910D90BC91A02D481759076A077B0732
:1017200008F181E00E949604882309F4B4CF409226
:1017300000015092010160920201709203018091B8
:101740005203816080935203C8018D5A9C4FD5018A
:101750009C01280D391DFC012E173F0759F04D91B2
:101760004193FACF41E0C301B2010E94C10481114B
:10177000EBCF91CF281B390BA20EB31E68CFF70118
:1017800083899489A589B68984179507A607B70721
:1017900038F48481438B548B658B768B806884838B
:1017A000F701848183FD1AC0832D9D810F900F90D6
:1017B0000F900F900F90DF91CF911F910F91FF909D
:1017C000EF90DF90CF90BF90AF909F908F907F90E1
:1017D0006F905F904F903F902F90089561E0C70108
:1017E0000E94AA09882309F456CFDECFCF93DF9356
:1017F0001F92CDB7DEB7698341E050E0BE016F5F55
:101800007F4F0E945B0A0F90DF91CF910895FC01FA
:10181000DB0112968D919C911397938382838AE4C6
:1018200091E09183808314968C911497848315960C
:101830008C911597858316964D915D916D917C9154
:10184000199746835783608771871A964D915D91EA
:101850006D917C911D9742875387648775871E968B
:101860004D915D916D917C91519746875787608B23
:10187000718B52968C915297828B53964D915D91BC
:101880006D917C915697438B548B658B768B5796D5
:101890004D915D916D917C915A97478B508F618FDF
:1018A000728F5B968D919C91948F838F0895FC012C
:1018B000818D928D009719F061E00C94AA0908952A
:1018C000DC015996ED91FC913097B9F083899489A8
:1018D000A589B6894285538564857585841B950BDA
:1018E000A60BB70B811520E89207A105B10538F0CA
:1018F0008FEF9FE7A0E0B0E0089590E080E00895CA
:10190000DC0159968D919C91009739F0DC01ED91A5
:10191000FC910480F581E02D099490E080E0089529
:10192000CF93DF93EC01E98DFA8D309749F481E094
:1019300090E09B838A8390E080E0DF91CF910895CF
:1019400013821282898D9A8D0E945B0AE98DFA8D2D
:1019500022813381232B59F7F0CFCF93DF931F924E
:10196000CDB7DEB76983DC01ED91FC910280F38194
:10197000E02D41E050E0BE016F5F7F4F09950F9071
:10198000DF91CF9108952F923F924F925F926F9285
:101990007F928F929F92AF92BF92CF92DF92EF92FF
:1019A000FF920F931F93CF93DF9300D01F92CDB779
:1019B000DEB7FC018581811118C08FEF9FEF0F907A
:1019C0000F900F90DF91CF911F910F91FF90EF90AB
:1019D000DF90CF90BF90AF909F908F907F906F904F
:1019E0005F904F903F902F900895848180FFE5CFC6
:1019F000438954896589768982859385A485B585CF
:101A0000312C212C481759076A077B0719F022242B
:101A10002394312C6F012101CE0101963C01DF019D
:101A20001696BB83AA834114510409F4C5C0F6017C
:101A300042855385648575854A01F1E09F22D60170
:101A40005B968D919C915C978A019B01E9E03695AC
:101A5000279517950795EA95D1F71596EC91E23001
:101A6000E9F5FC01628D738D848D958D600F711F7A
:101A7000821F931FA12C22E0B22EA818B9084A1485
:101A80005B0408F45201F601248126FD04C0A11470
:101A9000F2E0BF0671F40091000110910101209164
:101AA000020130910301061717072807390709F0CB
:101AB0005EC040E00E94C104882309F47ECFC401C7
:101AC0008D5A9C4FD3019C012A0D3B1DFC012E1702
:101AD0003F0709F46CC041914D93F9CFDC01149696
:101AE000BC90BA94B0228114910479F4B1100DC065
:101AF000452B462B472B69F5F6018789908DA18DE3
:101B0000B28D86839783A087B187D6015B96ED91CE
:101B1000FC915C9716966D917D918D919C91199792
:101B20006250710981099109258504C0660F771FEC
:101B3000881F991F2A95D2F7068517852089318934
:101B4000600F711F821F931F6B0D711D811D911DF1
:101B500091CFD60116964D915D916D917C9119971B
:101B60002A813B810E94D6068111CFCF26CF7301F7
:101B700085019401AB01BC01809150039091510308
:101B80000E946203882309F418CF6A0C7B1CF601BB
:101B900082859385A485B5858A0D9B1DA11DB11DE8
:101BA00082879387A487B5874A185B083CCF281B98
:101BB000390B620E731EEBCF2A94232809F0FDCE59
:101BC000898190E0FCCEFC01818D928D009711F00F
:101BD0000C94C30C8FEF9FEF08950F931F93CF9337
:101BE000DF93EC010E949C01688779878A879B8735
:101BF000CE010E94E30D97FF15C00E949C0108854D
:101C000019852A853B85601B710B820B930B0C8118
:101C10001D812E813F81601771078207930740F372
:101C20008FEF9FEFDF91CF911F910F9108950F9349
:101C30001F93CF93DF93EC01898D9A8D10E000E024
:101C4000009799F00E94C30C8C010F3F100769F0B8
:101C5000898D9A8DFC014285538564857585415037
:101C60005109610971090E941608C801DF91CF91DD
:101C70001F910F9108952091F502260F3327331FEE
:101C800021323105ECF420911B03FC0190E080E04F
:101C9000243069F082E00895A091F5022191AC0111
:101CA0004D525D4FA40FB52FB11D2C930196861791
:101CB00098F38091F502680F6093F50280E0089533
:101CC00081E0089510921B0381E080931D03109220
:101CD0001C0361E082E10E94E60061E083E10E9472
:101CE000E600E9EBF0E080818E7F808380818D7F4C
:101CF000808388E48093B80085E48093BC000895D5
:101D0000CF93DF9391E09093D2028823B9F0C091F2
:101D1000B800D091BA008091BC008A7B8093BC004F
:101D200060E082E10E94E60060E083E10E94E6005C
:101D30000E94620ED093BA00C093B800DF91CF9199
:101D40000895089508950895E091CA028091C90206
:101D5000E81730F4F0E0E755FD4F808190E00895FA
:101D60008FEF9FEF08959091CA028091C9022FEFE3
:101D70003FEF981748F4E92FF0E0E755FD4F208139
:101D800030E09F5F9093CA02C90108958091C90213
:101D90009091CA02891B990B0895CF92DF92EF921E
:101DA000FF920F931F93CF93DF937C01CB018A01A6
:101DB0002091A802222389F0EB016B01C40ED51EED
:101DC000CC15DD0569F06991D701ED91FC91019089
:101DD000F081E02DC7010995F3CF642F0E943B0EDF
:101DE000C801DF91CF911F910F91FF90EF90DF908D
:101DF000CF900895CF93DF931F92CDB7DEB769835D
:101E00002091A8022223F9F02091CB02203258F031
:101E100021E030E0FC013383228390E080E00F90EA
:101E2000DF91CF9108958091CC02E82FF0E0E85740
:101E3000FD4F998190838F5F8093CC028093CB027A
:101E400081E090E0ECCF61E0CE0101960E943B0E74
:101E5000F7CFCF92DF92EF92FF920F931F93CF9322
:101E6000DF93FC01C48121E02093A802C093870284
:101E70001092CC021092CB028385682B8BE396E004
:101E80000E94FA0ED091CB02D13208F092C00E948B
:101E900045016B017C0180911B03811165C082E0CB
:101EA00080931B0381E080931D038FEF80931A03BF
:101EB00010923F03D0933E03A8E8B2E0EEE1F3E0D6
:101EC00080E0D81385C01092400380914003CC0F6E
:101ED000C82BC093400380911C03813009F07CC063
:101EE00010921C030E9445016B017C01809140030C
:101EF0008093BB008091CE029091CF02A091D0023E
:101F0000B091D102892B8A2B8B2B99F00E9445012D
:101F10000091CE021091CF022091D0023091D102D7
:101F20006C197D098E099F090617170728073907BD
:101F3000E0F18091BC0083FDD9CF85EC8093BC009B
:101F40000E9445016B017C0180911B03823009F4E2
:101F500045C080911A038F3F61F180911A0380324E
:101F600041F180911A0325C08091CE029091CF0259
:101F7000A091D002B091D102892B8A2B8B2B09F42E
:101F80008ACF0E9445010091CE021091CF0220918C
:101F9000D0023091D1026C197D098E099F09061774
:101FA00017072807390708F076CF8091CD020E94E5
:101FB000800E1092CC021092CB021092A802DF91F8
:101FC000CF911F910F91FF90EF90DF90CF900895E8
:101FD0009D9191938F5F75CF85EEB0CF8091CE02AA
:101FE0009091CF02A091D002B091D102892B8A2B7F
:101FF0008B2B09F4A9CF0E9445010091CE021091CC
:10200000CF022091D0023091D1026C197D098E0946
:102010009F09061717072807390708F095CFC5CF7E
:1020200028E0FC01238760E00C94290F90E080E019
:102030000895CF93DF9387E00E94BD00D0E0C0E019
:10204000892B11F4C8E0D0E086E00E94BD00892B06
:10205000E1F090E080E0C82BD92B85E00E94BD0024
:10206000892BB1F090E080E0C82BD92B84E00E944E
:10207000BD0021E030E0892B11F030E020E0C90103
:102080008C2B9D2BDF91CF91089584E090E0E3CFDE
:1020900082E090E0E9CF0F931F93CF93DF93EC01A1
:1020A00080E2689FF0011124ED5AFC4F6A8B809109
:1020B000000190910101A0910201B09103018E876E
:1020C0009F87A88BB98B0489158930E020E098019F
:1020D000112700270F8B188F298F3A8F828D938DB0
:1020E000B0E0A0E0AC01BD01402B512B622B732B63
:1020F0004F8B588F698F7A8F83858871A9F4848D6F
:10210000958DA68DB78D8B8B9C8BAD8BBE8B81E017
:102110008D8381E08C831E821F82188619861A8621
:102120001B861C861D8603C0803131F080E0DF9164
:10213000CF911F910F9108959E012D5E3F4F8B8D82
:102140009C8D0E945707882389F384E0E1CF0F9389
:102150001F93CF938C01C62F0E94290F6C2F6460B0
:10216000C8010E94290F6C2F6B7FC8010E94290FA4
:1021700083EC90E00197F1F7CF911F910F910895B3
:102180000F931F93CF93DF938C01D62FC42F607FC3
:10219000642B0E94A71080E1D89FB00111246C2B02
:1021A000C801DF91CF911F910F910C94A710CF938D
:1021B000DF93CDB7DEB728970FB6F894DEBF0FBE1A
:1021C000CDBF28E0EEE0F1E0DE01119601900D9226
:1021D0002A95E1F7FC012085241708F44FEF50E021
:1021E000440F551F21E030E02C0F3D1F420F531FBD
:1021F000FA012081620F606840E028960FB6F894DB
:10220000DEBF0FBECDBFDF91CF910C94C01040E078
:1022100061E00E94C0108BE39FE10197F1F7089500
:1022200041E00E94C01081E090E008950F931F9359
:10223000CF93DF93EC011092CA021092C902109260
:10224000CC021092CB020E94620E81EA9EE0909333
:10225000F4028093F30282EA9EE09093F802809366
:10226000F7021D828A85823010F098E09D8388876E
:1022700062E370E080E090E00E946A016B85CE012D
:102280000E94290F68EE73E080E090E00E946A01EE
:1022900060E3CE010E94A7100BE416E4C801019789
:1022A000F1F760E3CE010E94A710C8010197F1F792
:1022B00060E3CE010E94A71083E592E00197F1F759
:1022C00060E2CE010E94A7106D81606240E0CE0105
:1022D0000E94C01084E08E8340E06CE0CE010E943A
:1022E000C010CE010E94071182E08F8340E066E0BB
:1022F000CE010E94C01040E062E0CE010E94C010FA
:102300008BE39FE10197F1F7DF91CF911F910F913F
:102310000895AF92BF92CF92DF92EF92FF920F9308
:102320001F93CF93DF93CDB7DEB72B970FB6F894FB
:10233000DEBF0FBECDBF6C01FE013196CE010C9603
:102340007F0120E22193E817F907E1F7DA0120E0A5
:1023500037E09D91B92E9923A9F19E32B9F43A3014
:1023600091F480E02B960FB6F894DEBF0FBECDBF80
:10237000DF91CF911F910F91FF90EF90DF90CF9061
:10238000BF90AF90089528E03AE0E3CFE2ECF0E0B0
:102390008491882321F031969813FACFE2CF321737
:1023A00000F38FED890F8E35E0F68FE9890F8A31C2
:1023B00018F440EEB42EB90EF701E20FF11DB08211
:1023C0002F5FC7CF8981803261F28B01FB01838D42
:1023D000948DF601948F838FFB01168217821086ED
:1023E00011861286138614861586F80182859385D8
:1023F000A485B585438954896589768984179507AD
:10240000A607B70708F0ADCF25E0B695A795979535
:1024100087952A95D1F7F82FFF70AF2EF8018581A7
:10242000823008F49ECFC8010E94C30C97FD99CF5B
:10243000F80182859385A485B5854F96A11DB11DB0
:1024400082879387A487B587F0E2AF9EB0011124FD
:102450006D5A7C4F6115710509F483CFFB018081B2
:10246000882309F1853E19F4B11032C01EC04BE03B
:1024700050E0C7010E94FD21892B09F0B6CF6A2DDB
:10248000C6012B960FB6F894DEBF0FBECDBFDF910D
:10249000CF911F910F91FF90EF90DF90CF90BF9061
:1024A000AF900C944B10B1105CCFF601A28A8091D2
:1024B000000190910101A0910201B0910301868772
:1024C0009787A08BB18BFB018081882309F449CFCA
:1024D000BB24B3948ACFFC0180819181009711F0D5
:1024E0000C949D2008950F931F93CF93DF938C013D
:1024F000F801C081D181209729F4DF91CF911F91FC
:102500000F9108958A819B81F8019183808388814E
:1025100099810E949D20CE010E949D20E9CF0F93BA
:102520001F93CF93DF938C01EB01FC01808191819C
:102530000097E1F06881798161157105A9F0428108
:1025400053812C813D814217530770F00E9427224E
:102550008C819D81F801958384831D821C82DF918B
:10256000CF911F910F9108950E949D20888199819C
:10257000F801918380838A819B81938382838C81FC
:102580009D8195838483198218821B821A82E5CFEC
:102590000F931F93CF93DF93EC018881998100976C
:1025A00059F02A813B812617370730F081E0DF910F
:1025B000CF911F910F9108958B016F5F7F4F0E9404
:1025C0002621009759F0998388831B830A832C81E5
:1025D0003D81232B59F7FC011082E8CF80E0E7CF43
:1025E000EF92FF920F931F93CF93DF93EC017B0148
:1025F0008A01BA010E94C81228813981811114C050
:102600002115310519F0C9010E949D2019821882F7
:102610001D821C821B821A82CE01DF91CF911F91F5
:102620000F91FF90EF9008951D830C83B701C901AE
:102630000E942722F1CFFC011182108213821282A4
:1026400015821482FB0101900020E9F73197AF0158
:10265000461B570B0C94F012FB0101900020E9F788
:102660003197AF01461B570BDC01ED91FC910280C5
:10267000F381E02D09948F929F92AF92BF92EF92D7
:10268000FF920F931F93CF93DF93CDB7DEB7A19740
:102690000FB6F894DEBF0FBECDBF7C01FA01CB01AF
:1026A00019A2223008F42AE08E010F5D1F4F822EFE
:1026B000912CB12CA12CBF01A50194010E94CA1F2D
:1026C000F901CA016A300CF5605DD8016E938D0185
:1026D000232B242B252B79F790E080E0109721F015
:1026E000BD01C7010E942C13A1960FB6F894DEBF5E
:1026F0000FBECDBFDF91CF911F910F91FF90EF9053
:10270000BF90AF909F908F900895695CDECFCF927D
:10271000DF92EF92FF920F931F93CF93DF9377FF98
:1027200021C06A017B01EC01E881F9810190F0810F
:10273000E02D6DE209958C0144275527BA014C190B
:102740005D096E097F092AE0CE010E943B13800FCC
:10275000911FDF91CF911F910F91FF90EF90DF902C
:10276000CF9008952AE0DF91CF911F910F91FF90B4
:10277000EF90DF90CF900C943B13CF93DF93BC018D
:1027800083E595E00E942C13EC0164E671E083E59B
:1027900095E00E942C138C0F9D1FDF91CF9108951F
:1027A000CF93DF93FC01448155816081718183E582
:1027B00095E00E94A901EC0164E671E083E595E0F3
:1027C0000E942C138C0F9D1FDF91CF9108950C94C4
:1027D0002C13EF92FF920F931F93CF93DF93EC0193
:1027E0007B018A011B821A8288EE93E0A0E0B0E0B0
:1027F0008C839D83AE83BF8386E291E09983888337
:102800008DE190E00E9401209A8F898F009779F0E6
:102810002DE1F701DC0101900D922A95E1F74CE0E2
:1028200050E0B801CE010C960E942E22188EDF9146
:10283000CF911F910F91FF90EF90089585ED8093B8
:10284000BC008091CE029091CF02A091D002B091B5
:10285000D1020796A11DB11D23E0B695A7959795C6
:1028600087952A95D1F72091BC0024FD03C01092D2
:102870001B0308954091CE025091CF026091D00287
:102880007091D102452B462B472B69F30097A10588
:10289000B10541F02AE22A95F1F700C00197A1099C
:1028A000B109E1CF8091CD020C94800E2F923F921E
:1028B0004F925F926F927F928F929F92AF92BF9250
:1028C000CF92DF92EF92FF920F931F93CF93DF93FC
:1028D000CDB7DEB72E970FB6F894DEBF0FBECDBFD3
:1028E0008C017B012A014901DB015996ED91FC9194
:1028F000309709F4E1C08581882309F4DDC066E6DC
:1029000071E0CE0101960E941B13BFEF4B1A5B0AC8
:10291000052C000C66087708E1E04E1A51086108A2
:1029200071080E94091FA30192010E94611F5B01AF
:102930006C01FFEFAF1ABF0ACF0ADF0A150167E685
:1029400071E083E595E00E94E713B601A50183E5F8
:1029500095E00E94871364E671E083E595E00E94AC
:102960002C13B12CA12CA214B304CCF566E671E0B3
:10297000CE0107960E941B13C7010E94ED0D97FD23
:102980001FC08A309105E1F08D871E86CB84DC84E0
:102990002FEFC21AD20AB601CE0107960E94C812C2
:1029A000882351F32F8138858B859C85BE01635F19
:1029B0007F4F820F931F0E942722DC86CB86DCCFBD
:1029C000BE01695F7F4FCE0101960E948F12CE013A
:1029D00007960E946B128FEFA81AB80AC4CFD701CE
:1029E00059968D919C91009729F040E050E0BA01F2
:1029F0000E941608A980BA80F40130802180E32D5E
:102A0000F22DC280D380C114D10409F04BC084E000
:102A100090E00E9401207C01892B79F0D701129669
:102A20003C92129713962C92C5010E94E321F70164
:102A300091838083D401ED92FC926CE671E083E592
:102A400095E00E94E713CE0101960E94D013F80191
:102A5000118210821382128215821482BE016F5F6E
:102A60007F4FC8010E948F12CE0101960E946B1207
:102A7000C8012E960FB6F894DEBF0FBECDBFDF9112
:102A8000CF911F910F91FF90EF90DF90CF90BF906B
:102A9000AF909F908F907F906F905F904F903F90FE
:102AA0002F900895B501808191810E941E22F60128
:102AB000892B09F0A6CF35CF8AE791E00E94BD139C
:102AC000D7CF2F923F924F925F926F927F928F92C9
:102AD0009F92AF92BF92CF92DF92EF92FF920F93AD
:102AE0001F93CF93DF93CDB7DEB7C657D1090FB68B
:102AF000F894DEBF0FBECDBF5C01E5967FAF6EAF31
:102B0000E59780912106882321F08CE196E00E94D0
:102B10004E0A1092FD051092FB051092F8051092D6
:102B2000F7058AE08093F6050E949C018B0161E025
:102B30008091F6050E94140161E08091F6050E94E3
:102B4000E600FFB6F89480918602811127C0E0E983
:102B5000F0E08491E4EAF0E09491E82FF0E0EE0FE9
:102B6000FF1FE859FF4FA591B491EC91E92321F49F
:102B700061E08AE00E94E60061E08AE00E941401C0
:102B80008CB580618CBD8CB580648CBD61E08DE0BE
:102B90000E94140161E08BE00E9414018091860282
:102BA0008F5F80938602FFBE82E58093F0051092CE
:102BB000F1058091F0059091F1050E94EC022AE068
:102BC000F22E8FEF0E94C702FA94F110FACF82EF33
:102BD00095E00E94EF0220E030E0A90160E082EF82
:102BE00095E00E940503F82E8093FC0581E0F8161D
:102BF000A9F00E949C01601B710B613D774058F366
:102C000081E08093F70582EF95E00E94BC026EE8B8
:102C100071E083E595E00E94E713FFCF2AEA31E0F7
:102C200040E050E068E082EF95E00E94050382FFFB
:102C30002AC0F092FD058091FD05C12CD12C7601B2
:102C4000823029F4C12CD12CE12C80E4F82E20E034
:102C500030E0A90167E382EF95E00E940503A70138
:102C6000960169E282EF95E00E9405038093FC05DE
:102C70008823D1F00E949C01601B710B613D77405D
:102C800030F388E0BECF94E0F92E0E94CE0280930C
:102C9000FC05FA94F110F9CF8A3A11F082E0B1CF35
:102CA00082E08093FD05C7CF8091FD058230D1F48D
:102CB00020E030E0A9016AE382EF95E00E9405037D
:102CC000882311F086E09DCF0E94CE02807C803C5C
:102CD00019F483E08093FD050E94CE020E94CE028B
:102CE0000E94CE0282EF95E00E94BC0280E58093B4
:102CF000F0051092F10581E00E940B05882309F48C
:102D000040C08CE196E00E94C207882309F47FCF7F
:102D1000E596EEADFFADE5976080718019A218A22F
:102D20008AE491E09F8F8E8F1BA21C821B829A8364
:102D300089831E824E01FEE18F0E911CC4010E9408
:102D4000C20763018E010F5F1F4F240118016FE25C
:102D500070E0C6010E941322009709F465C0D601F5
:102D60002C912F32A9F4BFEFCB1ADB0A902F812FC1
:102D70008201492E582E942D852D2801092F182FB8
:102D8000E6CF80E00E940B05882309F440CFB9CF3D
:102D90008C198D3008F08CE0E82EF12CA701B601DB
:102DA000CE01885A9F4F0E942E22E8E5F0E0EC0FFA
:102DB000FD1FEE0DFF1D1082C8010E944E0AF80192
:102DC0008581882311F11EAE1DAE8AE491E09CAF8F
:102DD0008BAF21961FAE2197E796AEADBFADE797BB
:102DE0006A0E7B1EF301808181112BC0BE01655CE0
:102DF0007F4FC1010E94070C4BEA51E0B101CE01A7
:102E0000885A9F4F0E94E91343C0AE01485A5F4F52
:102E1000B201C8010E9489118823A9F2CE0CDF1CDF
:102E2000C2010E944E0AA7CFC60186199709E796EC
:102E30009FAF8EAFE797B201CE01CB960E94070CF1
:102E4000CBCF19A218A28AE491E09F8F8E8F1BA28C
:102E500021968FAD2197811161C06C961FAE1EAE79
:102E60006C9788EE93E0A0E0B0E0A0968CAF9DAFA9
:102E7000AEAFBFAFA09786E291E06A969FAF8EAFEC
:102E80006A97E3961FAE1EAEE397A5961FAEA59771
:102E90006C968EAD9FAD6C97D50113969C938E93D7
:102EA0001297A0968CAD9DADAEADBFADA097F501CC
:102EB00084839583A683B783A4968CAD9DADAEAD78
:102EC000BFADA49780879187A287B3873C96A8E57A
:102ED000B0E0AC0FBD1F1C96C50149962D91219302
:102EE000E817F907D9F7E396EEADFFADE397D50103
:102EF0005A96FC93EE935997309719F0858181117A
:102F000021C06DEA71E083E595E00E94E713E59644
:102F10008EAD9FADE5970E94D013FFCFA301BE01F8
:102F2000655C7F4FC4010E948911882309F495CF05
:102F3000CE01CB960E944E0AB401C1010E94070C3B
:102F4000A3015CCFCA58DF4F0FB6F894DEBF0FBEA7
:102F5000CDBFDF91CF911F910F91FF90EF90DF9048
:102F6000CF90BF90AF909F908F907F906F905F9029
:102F70004F903F902F9008951F920F920FB60F928F
:102F800011242F933F938F939F93AF93BF9380917F
:102F9000480390914903A0914A03B0914B033091AB
:102FA000470323E0230F2D3758F50196A11DB11DCE
:102FB000209347038093480390934903A0934A03C7
:102FC000B0934B0380914C0390914D03A0914E031D
:102FD000B0914F030196A11DB11D80934C039093B6
:102FE0004D03A0934E03B0934F03BF91AF919F91B8
:102FF0008F913F912F910F900FBE0F901F901895BA
:1030000026E8230F0296A11DB11DD2CF1F920F9269
:103010000FB60F9211242F933F934F935F936F93AB
:103020007F938F939F93AF93BF93EF93FF9383E52A
:1030300095E00E942702FF91EF91BF91AF919F9180
:103040008F917F916F915F914F913F912F910F9051
:103050000FBE0F901F9018951F920F920FB60F92F0
:1030600011242F938F939F93EF93FF93E091630528
:10307000F09164058081E0916905F0916A0582FD17
:103080001BC0908180916C058F5F8F7320916D05BF
:10309000821741F0E0916C05F0E0ED5AFA4F958F00
:1030A00080936C05FF91EF919F918F912F910F90DD
:1030B0000FBE0F901F9018958081F4CF1F920F9232
:1030C0000FB60F9211242F933F934F935F936F93FB
:1030D0007F938F939F93AF93BF93EF93FF938091D1
:1030E000B900887F803609F44AC0F0F5883209F4C7
:1030F000A7C018F5803109F49BC0B8F4882309F4FF
:10310000F9C0883009F494C0FF91EF91BF91AF915D
:103110009F918F917F916F915F914F913F912F91EF
:103120000F900FBE0F901F901895883109F488C03A
:10313000803251F780931A0314C0803409F49DC083
:1031400040F48033B9F38833F9F680931A0385ECA1
:10315000B0C0803509F485C0883509F496C088343C
:1031600099F60E941E14D0CF883909F48CC038F526
:10317000883729F050F4883611F0803729F683E03B
:1031800080931B031092190357C0883809F47BC041
:10319000803919F0803809F0B7CF80911903803257
:1031A00008F071C0E091190381E08E0F809319033C
:1031B0008091BB00F0E0E750FD4F80833DC0803B35
:1031C00039F0E0F4803A09F479C0883A09F09CCFEC
:1031D00084E080931B031092F6021092F502E091B6
:1031E000F302F091F40209958091F50281110FC06C
:1031F00081E08093F5021092D30209C0803C09F46B
:10320000A6CF883C09F4A3CF883B09F07DCFE0919D
:10321000F60281E08E0F8093F602F0E0ED52FD4F52
:1032200080818093BB009091F6028091F50229C0C5
:10323000809140038093BB0085EC8093BC0064CFF9
:1032400090913F0380913E03981758F5E0913F031A
:1032500081E08E0F80933F03F0E0E25EFC4F8081BF
:10326000E9CFE0913F0381E08E0F80933F0380918F
:10327000BB00F0E0E25EFC4F808390913F038091C1
:103280003E039817C8F285E8D8CFE0913F0381E06C
:103290008E0F80933F038091BB00F0E0E25EFC4F15
:1032A000808380911D0381115CCF81E080931C039A
:1032B00084EA8093BC0010921B0326CF85EC809398
:1032C000BC0010921B0380911903803230F4E0910E
:1032D0001903F0E0E750FD4F10826091190370E090
:1032E000E091F702F091F80289EF92E009951092CF
:1032F00019030ACF10921A0334CFE3E5F5E01382E5
:10330000128288EE93E0A0E0B0E084839583A683E8
:10331000B78328E331E03183208325EC30E0358723
:10332000248724EC30E03787268720EC30E0318B8F
:10333000208B21EC30E0338B228B22EC30E0358B7C
:10334000248B26EC30E0378B268B118E128E138E59
:10335000148EE0EFF5E020E520831182E2EFF5E046
:10336000158216821186138642E050E060E070E01C
:10337000448755876687778713A215A614A62AE483
:1033800031E033A722A717A6EBE3F6E013821282FF
:1033900084839583A683B78386E591E091838083B8
:1033A0000895CF93DF93CDB7DEB7C056D1090FB6DE
:1033B000F894DEBF0FBECDBF789484B5826084BD23
:1033C00084B5816084BD85B5826085BD85B5816029
:1033D00085BD80916E00816080936E0010928100A7
:1033E0008091810082608093810080918100816062
:1033F0008093810080918000816080938000809123
:10340000B10084608093B1008091B00081608093AE
:10341000B00080917A00846080937A0080917A0075
:10342000826080937A0080917A00816080937A0034
:1034300080917A00806880937A001092C100E091B8
:103440006305F091640592E09083E0915F05F0914F
:1034500060051082E0916105F091620520E1208312
:1034600010926B05E0916705F091680586E0808316
:10347000E0916505F0916605808180618083E0912F
:103480006505F0916605808188608083E09165051F
:10349000F0916605808180688083E0916505F091F8
:1034A000660580818F7D80831AAE19AE4AE151E0B6
:1034B00058AF4FAB87E28BAF21962FAF2197229663
:1034C0009FAF229723961FAE2397CE01C7960E94E7
:1034D0001611CE01C7960E94071161E08AE00E9492
:1034E000140160E087E00E94140160E086E00E9421
:1034F000140160E085E00E94140160E084E00E9415
:1035000014011F8E1E8E38EEC32E33E0D32EE12C15
:10351000F12CC8A2D9A2EAA2FBA206E211E01D8FFB
:103520000C8F1EAA1DAA18A66EEB71E0CE010196A3
:103530000E941B13BE016F5F7F4FCE014C960E940D
:103540006115CE0101960E946B121C821B82CD82F6
:10355000DE82EF82F8861A8309831B8E1A8E1D86FF
:103560001E0123E4220E311C68EC71E0C1010E94AF
:103570001B13B101CE0101960E946115C1010E9489
:103580006B12CE01C7960E94101040E060E0CE01A1
:10359000C7960E94D71062ED71E0CE01C7960E94D7
:1035A000E71341E060E0CE01C7960E94D7106BEDB3
:1035B00071E0CE01C7960E94E7130E941910009790
:1035C000E1F383FF56C064EF71E080E090E00E9479
:1035D0006A01512C412C0E949C01611571058105E5
:1035E000910511F00E94581F81E04816510409F01E
:1035F000DAC1CE01C7960E940711CE01C7960E947C
:103600001010C12CD12C7601CE01C7960E94071153
:1036100040E060E0CE01C7960E94D71065EE71E0F1
:10362000CE01C7960E94E71340E06DE0CE01C79639
:103630000E94D7102AE0B701A601CE01C7960E94CA
:103640003B130E9419100097E1F380FF1EC0ABE00E
:10365000CA16D104E104F104C0F0BAE0CB1AD108D3
:10366000E108F10864EF71E080E090E00E946A01F7
:10367000CBCF82FFA2CF64EF71E080E090E00E94A8
:103680006A0144244394512CA6CF81FF0DC0EDED77
:10369000CE16E3E0DE06E104F10430F4FAE0CF0EEA
:1036A000D11CE11CF11CDECF82FFDCCF64EF71E0A6
:1036B00080E090E00E946A01CE01C7960E94071147
:1036C000CE01C7960E94101040E060E0CE01C79680
:1036D0000E94D7106DEE71E0CE01C7960E94E713ED
:1036E00041E060E0CE01C7960E94D7106AEF71E01A
:1036F000CE01C7960E94E71390E080E0009719F48E
:103700000E941910FBCF82FFF9CF64EF71E080E0D7
:1037100090E00E946A01A8EEB3E0A70196010E9422
:10372000801F2B013C0166E671E0CE01875B9F4F55
:103730000E941B13CE01C7960E940711CE01C796A7
:103740000E94101061961FAE1EAE61970E949C01F0
:103750004B015C0110E000E00E949C0168197909AE
:103760008A099B09461657066806790608F493C02D
:103770000E949C016B0167E072E083E595E00E9486
:10378000E713C818D908A601DD0C660B770B83E593
:1037900095E00E94871364E671E083E595E00E945E
:1037A0002C13CE01C7960E941010CE01C7960E941E
:1037B000071140E060E0CE01C7960E94D71064E197
:1037C00072E0CE01C7960E94E71341E060E0CE01AF
:1037D000C7960E94D7100E94091F23EF31E040E0F6
:1037E00050E00E94611F6F5F7F4F8F4F9F4F60FFC0
:1037F0003AC08DE192E00E94BD139E01215B3F4FD4
:103800004CE755E0BE01645E7F4FC1010E94561433
:10381000B101CE01875B9F4F0E948F12C1010E94B0
:103820006B12CE01875B9F4F0E94D0132F964EAD37
:103830005FAD2F972B966EAD7FAD2B97CE01C796C0
:103840000E94A9010E9419100097E1F381FF18C09E
:1038500064EF71E080E090E00E946A0181E090E016
:10386000080F191F79CF82E392E00E94BD139E01D9
:10387000215B3F4F4AE854E0BE016F5F7F4FC5CFE9
:1038800080FFE0CF64EF71E080E090E00E946A0189
:1038900090E080E0E5CFCE01815B9F4F0E947312E4
:1038A000CE01875B9F4F0E946B12CE01C7960E948C
:1038B0000711CE01C7960E94101040E060E0CE01D3
:1038C000C7960E94D71067E472E0CE01C7960E94A7
:1038D000E71341E060E0CE01C7960E94D71061E592
:1038E00072E0CE01C7960E94E71341E06AE0CE0184
:1038F000C7960E94D710A801110F660B770BCE0157
:10390000C7960E94871390E080E0009719F40E9408
:103910001910FBCF82FFF9CF64EF71E080E090E0F7
:103920000E946A01CE01C7960E940711CE01C79678
:103930000E94101040E060E0CE01C7960E94D710B0
:103940006AE572E0CE01C7960E94E71341E06CE0A1
:10395000CE01C7960E94D71060E672E0CE01C796EE
:103960000E94E71390E080E0009719F40E9419107C
:10397000FBCF82FF07C064EF71E080E090E00E941F
:103980006A01D1CE83FFF0CF64EF71E080E090E078
:103990000E946A01CE01C7960E940711CE01C79608
:1039A0000E941010EECDCE01C7960E941611CE01D6
:1039B000C7960E9410106D961FAE1EAE6D9766E6FC
:1039C00071E0CE018B5A9F4F0E941B13CE01C79608
:1039D0000E94101040E060E0CE01C7960E94D71010
:1039E00064E672E0CE01C7960E94E71392E0E92EEA
:1039F000F12C40E06EE0CE01C7960E94D710C701BF
:103A00000F2C000CAA0BBB0BA1968CAF9DAFAEAFD9
:103A1000BFAFA197AC01BD01CE01C7960E9487132D
:103A20000E9419100097E1F381FF0AC09FEFE91A85
:103A3000F90A64EF71E080E090E00E946A01D9CF5A
:103A400080FF08C0A2E0EA16F10421F0B1E0EB1A11
:103A5000F108EFCF82FFEDCF64EF71E080E090E0FE
:103A60000E946A01CE01C7960E940711CE01C79637
:103A70000E94101040E060E0CE01C7960E94D7106F
:103A80006FE672E0CE01C7960E94E713CC24C39480
:103A9000D12C40E06EE0CE01C7960E94D710A6015F
:103AA0000D2C000C660B770BCE01C7960E94871376
:103AB0000E9419100097E1F381FF0DC0CE14DF04BE
:103AC00054F4EFEFCE1ADE0A64EF71E080E090E08C
:103AD0000E946A01DECF80FF08C0F1E0CF16D1045A
:103AE00021F021E0C21AD108EFCF82FFEDCF64EFC1
:103AF00071E080E090E00E946A0166246394CE0148
:103B0000C7960E940711CE01C7960E9410100E940E
:103B10009C01611571058105910511F00E94581FE6
:103B2000C7010E9401204C01FC018E0D9F1D1192C6
:103B30008E179F07E1F78201C016D106A1F00E94FF
:103B4000091FA1962CAD3DAD4EAD5FADA1970E9472
:103B5000611FF401E60FF71F80818111EDCF6082B4
:103B60000F5F1F4FE9CF9E01255A3F4F4CE755E0AD
:103B7000BE01645E7F4FCE01815B9F4F0E94561451
:103B80002B961FAE1EAE2B972D961FAE1EAE2D97F9
:103B90002F961FAE1EAE2F9761966EAD7FAD6197CB
:103BA0006115710549F065964EAD5FAD6597CE0123
:103BB000875B9F4F0E94F012CE01C7960E941010A3
:103BC0008201712C0E9419100097E1F382FFB5C0A9
:103BD00058018FEFA81AB80A7720C1F125961FAEB9
:103BE0001EAE259727961FAE1EAE279729961FAEAD
:103BF0001EAE29972B966EAD7FAD2B976115710583
:103C000039F02F964EAD5FAD2F97C1010E94F01293
:103C1000F401E00FF11F8081882361F065ED71E010
:103C2000CE01C7960E94E713C1010E946B12850165
:103C3000712C32C0D10114964D915C9115976D9104
:103C40007C91CE01C7960E94A901EECFCE01C79606
:103C50000E94071140E060E0CE01C7960E94D71095
:103C600067E772E0CE01C7960E94E71340E06BE081
:103C7000CE01C7960E94D710A501BB0C660B770B2F
:103C8000CE01C7960E94871341E060E0CE01C7963F
:103C90000E94D7107724739464EF71E080E090E085
:103CA0000E946A010E151F050CF48CCF64EF71E0C1
:103CB00080E090E00E946A01CE01875B9F4F0E94E6
:103CC0006B1264EF71E080E090E00E946A01CE0127
:103CD000C7960E940711CE01C7960E9410106AE590
:103CE00072E0CE01C7960E94E71341E06CE0CE017E
:103CF000C7960E94D71061E872E0CE01C7960E9475
:103D0000E7130E9419100097E1F383FF28C064EFC6
:103D100071E080E090E00E946A01CE01815B9F4FDC
:103D20000E946B12CE01855A9F4F0E947312CE01E2
:103D30008B5A9F4F0E946B122DCE83FFADCF011582
:103D4000110509F4A9CFCE01C7960E9407110130D1
:103D5000110519F0025011096BCF820169CF82FF62
:103D6000D2CF64EF71E080E090E00E946A01CE0162
:103D7000815B9F4F0E946B12C2CE8F929F92AF9237
:103D8000BF92CF92DF92EF92FF92CF93DF93EC013D
:103D9000688179818A819B81611571058105910511
:103DA00021F464E279ED8BE597E02DE133EF41E01A
:103DB00050E00E94611F49015A019B01AC01A7EA32
:103DC000B1E40E94801F6B017C01ACEEB4EFA50151
:103DD00094010E948E1FC60ED71EE81EF91EF7FE24
:103DE00006C081E0C81AD108E10880E8F80AC88254
:103DF000D982EA82FB82C701B6019F77DF91CF911A
:103E0000FF90EF90DF90CF90BF90AF909F908F90FA
:103E100008958F929F92AF92BF92CF92DF92EF92CE
:103E2000FF926091040170910501809106019091CB
:103E30000701611571058105910521F464E279EDB1
:103E40008BE597E02DE133EF41E050E00E94611FE8
:103E500049015A019B01AC01A7EAB1E40E94801F0D
:103E60006B017C01ACEEB4EFA50194010E948E1FA2
:103E7000C60ED71EE81EF91EF7FE06C081E0C81A5E
:103E8000D108E10880E8F80AC0920401D092050147
:103E9000E0920601F0920701C701B6019F77FF90FB
:103EA000EF90DF90CF90BF90AF909F908F9008954C
:103EB00060930401709305018093060190930701BC
:103EC0000895052E97FB1EF400940E94781F57FD5D
:103ED00007D00E94CA1F07FC03D04EF40C94781F31
:103EE00050954095309521953F4F4F4F5F4F089526
:103EF00090958095709561957F4F8F4F9F4F089556
:103F00000E94EC1FA59F900DB49F900DA49F800D63
:103F1000911D11240895B7FF0C94801F0E94801FEB
:103F2000821B930B08952F923F924F925F926F9254
:103F30007F928F929F92AF92BF92CF92DF92EF9239
:103F4000FF920F931F93CF93DF93CDB7DEB7CA1BBA
:103F5000DB0B0FB6F894DEBF0FBECDBF09942A88E5
:103F6000398848885F846E847D848C849B84AA848D
:103F7000B984C884DF80EE80FD800C811B81AA811A
:103F8000B981CE0FD11D0FB6F894DEBF0FBECDBFE5
:103F9000ED010895A1E21A2EAA1BBB1BFD010DC065
:103FA000AA1FBB1FEE1FFF1FA217B307E407F507E9
:103FB00020F0A21BB30BE40BF50B661F771F881FC5
:103FC000991F1A9469F760957095809590959B015B
:103FD000AC01BD01CF010895A29FB001B39FC00104
:103FE000A39F700D811D1124911DB29F700D811D25
:103FF0001124911D0895EE0FFF1F0590F491E02DFF
:1040000009940F931F93CF93DF938230910510F49F
:1040100082E090E0E0914906F0914A0630E020E02D
:10402000B0E0A0E0309799F42115310509F44AC0B9
:10403000281B390B24303105D8F58A819B81611505
:10404000710589F1FB0193838283FE0111C04081D8
:1040500051810281138148175907E0F04817590729
:1040600099F4109761F012960C93129713961C9383
:104070003296CF01DF91CF911F910F910895009358
:10408000490610934A06F4CF2115310551F0421725
:10409000530738F0A901DB019A01BD01DF01F801E6
:1040A000C1CFEF01F9CF90934A0680934906CDCF57
:1040B000FE01E20FF31F819391932250310939835E
:1040C0002883D7CF2091470630914806232B41F40F
:1040D00020910A0130910B01309348062093470646
:1040E00020910801309109012115310541F42DB7C6
:1040F0003EB740910C0150910D01241B350BE0910E
:104100004706F0914806E217F307A0F42E1B3F0B79
:104110002817390778F0AC014E5F5F4F2417350739
:1041200048F04E0F5F1F5093480640934706819317
:1041300091939FCFF0E0E0E09CCFCF93DF93009787
:10414000E9F0FC01329713821282A0914906B091E6
:104150004A06ED0130E020E01097A1F42081318182
:10416000820F931F20914706309148062817390780
:1041700009F061C0F0934806E0934706DF91CF91C4
:104180000895EA01CE17DF07E8F54A815B819E01B9
:1041900041155105B1F7E901FB83EA834991599132
:1041A000C40FD51FEC17FD0761F480819181029641
:1041B000840F951FE90199838883828193819B8372
:1041C0008A83F0E0E0E012968D919C91139700971E
:1041D000B9F52D913C911197CD010296820F931F55
:1041E00020914706309148062817390739F630974D
:1041F00051F510924A0610924906B0934806A093D2
:104200004706BCCFD383C28340815181840F951F61
:10421000C817D90761F44E5F5F4F88819981480FB5
:10422000591F518340838A819B8193838283211507
:10423000310509F0B0CFF0934A06E09349069ECFCE
:10424000FD01DC01C0CF13821282D7CFB0E0A0E025
:10425000ECE2F1E20C94951F8C01009751F4CB0134
:104260000E9401208C01C801CDB7DEB7E0E10C94BB
:10427000B11FFC01E60FF71F9C0122503109E21724
:10428000F30708F49DC0D901CD91DC911197C617B1
:10429000D70798F0C530D10530F3CE0104978617C3
:1042A000970708F3C61BD70B2297C193D1936D9341
:1042B0007C93CF010E949D20D6CF5B01AC1ABD0A32
:1042C0004C018C0E9D1EA0914906B0914A06512CBE
:1042D000412CF12CE12C109731F5809147069091FB
:1042E00048068815990509F05CC04616570608F07F
:1042F00058C08091080190910901009741F48DB751
:104300009EB740910C0150910D01841B950BE8174D
:10431000F90708F055C0F0934806E0934706F90105
:1043200071836083A0CF8D919C91119712966C90B0
:10433000129713967C901397A815B90559F56C013F
:1043400042E0C40ED11CCA14DB0420F1AC014A19AE
:104350005B09DA011296159780F0628273825183AD
:104360004083D9016D937C93E114F10471F0D7017E
:104370001396FC93EE93129776CF22968C0F9D1F87
:10438000F90191838083F301EFCFF0934A06E09324
:10439000490669CF4816590608F42C017D01D3015E
:1043A0009ACFCB010E9401207C01009749F0AE0119
:1043B000B8010E940A22C8010E949D20870153CFA4
:1043C00010E000E050CF0F931F93CF93DF938C0149
:1043D000FC0101900020E9F7CF01801B910B0E94A6
:1043E0000120EC01009719F0B8010E942722CE01AC
:1043F000DF91CF911F910F910895FB01DC0104C063
:104400008D910190801921F441505040C8F7881BCC
:10441000990B0895FB01DC0102C001900D924150FF
:104420005040D8F70895FC018191861721F0882328
:10443000D9F7992708953197CF010895FB01DC0141
:104440008D91019080190110D9F3990B0895FB010A
:10445000DC0101900D920020E1F70895FB01DC01E1
:104460004150504048F001900D920020C9F701C022
:0E4470001D9241505040E0F70895F894FFCFA0
:10447E00FFFFFFFF0100000000004B068000000060
:10448E00400014005400000000001011A901161085
:10449E00A80100000000AD0C900C800C570C600CB5
:1044AE00E30D170E000000004902A901D601960285
:1044BE000702E501F90100000000F60BA901F00961
:1044CE00A80100000000FA0ECD0E1610A30EC60EA7
:1044DE00B30EA40E0D0A0069203D2000576F7264C2
:1044EE002063686F73656E3A200046696C652072B2
:1044FE00656164696E67206661696C65640046611A
:10450E00696C656420696E697469616C697A696E3B
:10451E006720534420636172640A002F004661696C
:10452E006C6564206F70656E696E673A20006E6F01
:10453E00756E732E7478740076657262732E74784D
:10454E0074003C2D204573706961002D3E20446936
:10455E0067616C6F005469656D706F3A002B207047
:10456E006172612073756D6172002D2070617261D0
:10457E0020706173617200646966666572656E6350
:10458E00653A200050616C616272613A0066696C36
:10459E00652073656C65637465643A206E6F756E25
:1045AE00730066696C652073656C65637465643A47
:1045BE0020766572627300536520616361626F21BC
:1045CE000050756E74616A653A004F7472613F00F7
:1045DE003B2D29004A756761646F7265733A004519
:1045EE0073706961733A004A756761646F723A203D
:0645FE00003A2D29000027
:00000001FF
