:020000040000FA
:100000000C946A000C9492000C9492000C94920050
:100010000C9492000C9492000C9492000C94920018
:100020000C9492000C9492000C9492000C94920008
:100030000C9492000C9492000C9492000C949200F8
:100040000C94BF150C9492000C942F160C94091666
:100050000C9492000C9492000C9492000C949200D8
:100060000C9461160C9492000000000024002700FC
:100070002A0000000000250028002B0000000000DE
:1000800023002600290004040404040404040202DA
:100090000202020203030303030301020408102007
:1000A0004080010204081020010204081020000012
:1000B0000008000201000003040700000000000027
:1000C00000007C3C3E5E2B3D3F2F5B5D3B2C2A229B
:1000D0005C00801711241FBECFEFD8E0DEBFCDBF7C
:1000E00012E0A0E0B1E0E6EEFEE302C005900D9262
:1000F000A431B107D9F725E0A4E1B2E001C01D9217
:10010000A93DB207E1F710E0CAE6D0E004C02197AC
:10011000FE010E942F1DC936D107C9F70E94D417CE
:100120000C94711F0C94000080E480937C008091FB
:100130007A00806480937A0080917A0086FDFCCFFB
:1001400080917800909179000895833081F028F4AF
:10015000813099F08230A9F008958730A9F0883075
:10016000C9F08430B1F4809180008F7D03C080910C
:1001700080008F7780938000089584B58F7784BD49
:10018000089584B58F7DFBCF8091B0008F778093E9
:10019000B00008958091B0008F7DF9CFCF93DF93A9
:1001A000282F30E0F901E255FF4F8491F901E6561E
:1001B000FF4FD491F901EA57FF4FC491CC23A1F02E
:1001C00081110E94A500EC2FF0E0EE0FFF1FE45814
:1001D000FF4FA591B491EC91ED2381E090E009F4FB
:1001E00080E0DF91CF91089580E090E0FACF1F93F7
:1001F000CF93DF93282F30E0F901E255FF4F849130
:10020000F901E656FF4FD491F901EA57FF4FC49127
:10021000CC23A9F0162F81110E94A500EC2FF0E04D
:10022000EE0FFF1FEE58FF4FA591B4918FB7F894D2
:10023000EC91111108C0D095DE23DC938FBFDF91C4
:10024000CF911F910895DE2BF8CFCF93DF9390E0ED
:10025000FC01E656FF4F24918A579F4FFC01849181
:100260008823D1F090E0880F991FFC01E859FF4FD7
:10027000A591B491FC01EE58FF4FC591D491611145
:100280000EC09FB7F8948C91E22FE0958E238C934B
:100290002881E223E8839FBFDF91CF9108958FB734
:1002A000F894EC91E22BEC938FBFF6CF3FB7F89424
:1002B0008091DA029091DB02A091DC02B091DD0224
:1002C00026B5A89B05C02F3F19F00196A11DB11DB1
:1002D0003FBFBA2FA92F982F8827BC01CD01620FED
:1002E000711D811D911D42E0660F771F881F991FA8
:1002F0004A95D1F708958F929F92AF92BF92CF9275
:10030000DF92EF92FF924B015C010E9456016B015C
:100310007C010E9456016C197D098E099F09683E77
:10032000734081059105A8F321E0821A9108A10884
:10033000B10888EEC80E83E0D81EE11CF11C8114C0
:100340009104A104B10429F7FF90EF90DF90CF90C2
:10035000BF90AF909F908F9008952FB7F8946091C1
:10036000D6027091D7028091D8029091D9022FBF06
:100370000895089508950895AF92BF92CF92DF92A5
:10038000EF92FF920F931F93CF93DF936C017B014A
:100390008B01040F151FEB015E01AE18BF08C017DB
:1003A000D10759F06991D601ED91FC910190F0814E
:1003B000E02DC6010995892B79F7C501DF91CF9111
:1003C0001F910F91FF90EF90DF90CF90BF90AF9073
:1003D0000895FC01538D448D252F30E0842F90E04B
:1003E000821B930B541710F0CF9608950197089530
:1003F000FC01918D828D981761F0A28DAE0FBF2FF9
:10040000B11D5D968C91928D9F5F9F73928F90E04E
:1004100008958FEF9FEF0895FC01918D828D9817BD
:1004200031F0828DE80FF11D858D90E008958FEFFA
:100430009FEF0895FC01918D228D892F90E0805CC3
:100440009F4F821B91098F739927089581EE94E045
:100450000E941A0221E0892B09F420E0822F0895DE
:1004600080E090E0892B29F00E94260281110C94F3
:1004700000000895FC01A48DA80FB92FB11DA35A47
:10048000BF4F2C91848D90E001968F739927848FB4
:10049000A689B7892C93A089B1898C9183708064D7
:1004A0008C93938D848D981306C00288F389E02D78
:1004B00080818F7D80830895EF92FF920F931F9329
:1004C000CF93DF93EC0181E0888F9B8D8C8D981307
:1004D0001AC0E889F989808185FF15C09FB7F89413
:1004E000EE89FF896083E889F9898081837080645F
:1004F00080839FBF81E090E0DF91CF911F910F91AA
:10050000FF90EF900895F62E0B8D10E00F5F1F4FB8
:100510000F731127E02E8C8D8E110CC00FB607FCC7
:10052000FACFE889F989808185FFF5CFCE010E9455
:100530003A02F1CFEB8DEC0FFD2FF11DE35AFF4F87
:10054000F0829FB7F8940B8FEA89FB8980818062E3
:10055000CFCFCF93DF93EC01888D8823B9F0AA89A0
:10056000BB89E889F9898C9185FD03C0808186FD6E
:100570000DC00FB607FCF7CF8C9185FFF2CF8081BD
:1005800085FFEDCFCE010E943A02E9CFDF91CF91F6
:1005900008958FB7F8948091C8028FBF089561E0E5
:1005A000FC0184810E94F7008091C70281111092A2
:1005B000C70208958EBD00000DB407FEFDCF8EB5B5
:1005C00008958FEF0C94DA020F931F93CF93DF936C
:1005D000EC010E94AD018B010E94E1028F3F69F0A6
:1005E0000E94AD01601B710B6C177D07A8F380E0C2
:1005F000DF91CF911F910F91089581E0F9CF8CBDCC
:100600009DBD0895CF93DF93EC018091C7028111C6
:1006100009C081E08093C70280917E0590917F059B
:100620000E94FF0260E08C81DF91CF910C94F70073
:100630008F929F92AF92BF92FF920F931F93CF938F
:10064000DF93EC01F62E49015A018E81882389F04F
:100650008F8198859C012F5F3F4F38872F83823091
:10066000924018F40E94E102F3CFCE010E94CF0223
:100670001E82CE010E9402038CE291E00E94E402FD
:100680008F2D80640E94DA0208E110E0D501C401D8
:10069000002E04C0B695A795979587950A94D2F732
:1006A0000E94DA0208501109083F8FEF180771F70E
:1006B00085E9FF2021F028E087E8F2128FEF0E9401
:1006C000DA0210E00E94E1028A8787FF04C01F3F20
:1006D00011F01F5FF7CFDF91CF911F910F91FF9026
:1006E000BF90AF909F908F900895AF92BF92CF929E
:1006F000DF92EF92FF920F931F93CF93DF93EC0162
:100700006901C801820F931F8130924050F58E819C
:10071000882379F088819981AA81BB818417950704
:10072000A607B70731F48F819885C816D90608F057
:1007300042C0488359836A837B838B85833039F039
:1007400089E0440F551F661F771F8A95D1F79A01DC
:10075000AB0161E1CE010E941803882389F083E098
:100760008D83CE010E94CF0280E0DF91CF911F9157
:100770000F91FF90EF90DF90CF90BF90AF900895D2
:100780000E94AD015B010E94E1028A878F3F69F4FC
:100790000E94AD016A197B096D327140A0F38FE0B0
:1007A0008D83CE010E94CF02DCCF8E3F89F4188664
:1007B0001F8281E08E838F8198858C159D0550F472
:1007C0000E94E1028F819885019698878F83F3CFED
:1007D0008DE0E6CF6701E00EF11E0E94E102F60116
:1007E00081936F01EE15FF05C1F78F819885080F82
:1007F000191F18870F838985882319F00115124066
:10080000A0F08E81882389F08F8198859C012F5FCD
:100810003F4F38872F838230924018F40E94E102C4
:10082000F3CFCE010E94CF021E8281E09ECFCF92F5
:10083000DF92EF92FF920F93CF93DF93EC01690168
:1008400082E1411551056105710599F08B85833071
:1008500039F089E0440F551F661F771F8A95D1F73D
:100860009A01AB0168E1CE010E941803882319F0B8
:1008700084E08D832DC08EEF0E94DA0276018EEF28
:10088000D81AF70181917F010E94DA02EC14FD046D
:10089000C1F78FEF0E94DA028FEF0E94DA020E9406
:1008A000E1028A878F71853071F4011116C0CE0183
:1008B0000E94CF0281E0DF91CF910F91FF90EF90E6
:1008C000DF90CF90089581E18D83CE010E94CF0209
:1008D000CE010E94CF0280E0EECF88E592E00E9438
:1008E000E402811102C085E1C4CF20E030E0A9011B
:1008F0006DE0CE010E941803882311F084E1B9CF86
:100900000E94E1028111FACFD2CF0F934091C90228
:100910005091CA026091CB027091CC0241155105F1
:100920006105710599F0082F21EE32E08091DE0219
:100930009091DF020E941704882349F01092C902A7
:100940001092CA021092CB021092CC0281E00F9159
:1009500008950F93CF93C82F8091E002811105C0B5
:10096000C1E08C2FCF910F910895409100015091DB
:10097000010160910201709103010C2F21EE32E020
:100980008091DE029091DF020E941704811102C063
:10099000C0E0E7CFCC2321F381E00E9485048823C7
:1009A000B9F31092E002DDCF8F929F92AF92BF9287
:1009B000EF92FF920F931F93CF934B015C01C42FD3
:1009C0008091000190910101A0910201B091030179
:1009D00088159905AA05BB0551F181E00E94A9047B
:1009E00081110BC080E0CF911F910F91FF90EF908C
:1009F000BF90AF909F908F90089581EEE82E82E097
:100A0000F82E00E012E030E020E0B501A401809172
:100A1000DE029091DF020E947503882319F3809211
:100A2000000190920101A0920201B0920301409155
:100A3000E0024C2B4093E00281E0D5CF8F929F9251
:100A4000AF92BF92CF92DF92EF92FF92CF9320E8C6
:100A500035E03093DF022093DE02882309F46DC075
:100A600040E060E070E0CB010E94D40481110BC033
:100A700080E0CF91FF90EF90DF90CF90BF90AF904C
:100A80009F908F90089580919F048F7789F7809130
:100A9000AB049091AC04A091AD04B091AE04843647
:100AA0009105A105B10520F3C090A704D090A8043A
:100AB000E090A904F090AA04C114D104E104F10467
:100AC000B9F240E0C701B6010E94D404882381F244
:100AD0008091EC029091ED028115924049F6A0912F
:100AE000F102AA2329F26091EF027091F0026115E0
:100AF000710509F4BDCF2091EE02222309F4B8CF8D
:100B0000A0939E052093900590E080E030E0E1E026
:100B1000F0E0C82FAF01082E02C0440F551F0A9401
:100B2000E2F72417350769F041E0480F0196893054
:100B3000910579F7409399059BCFC12CD12C760173
:100B4000C0CF809399052091F7023091F80250E0D0
:100B500040E02115310541F4209105033091060351
:100B6000409107035091080320939105309392051B
:100B7000409393055093940546015701860E971EA6
:100B8000A11CB11C80929F059092A005A092A10586
:100B9000B092A205E091F202F091F302F093A50564
:100BA000E093A405B0E00E94B41CDC01CB01880DE9
:100BB000991DAA1DBB1D8093A6059093A705A09320
:100BC000A805B093A90525E0EE0FFF1F2A95E1F7D0
:100BD000E150FE4FEF2FFF27E6958E0F9F1FA11DBF
:100BE000B11D80939A0590939B05A0939C05B093AB
:100BF0009D058090F4029090F502B12CA12C8114F7
:100C0000910441F48090010390900203A0900303AB
:100C1000B0900403C81AD90AEA0AFB0AC80CD91C06
:100C2000EA1CFB1C04C0F694E794D794C794CA95B9
:100C3000D2F7C0929505D0929605E0929705F09272
:100C4000980585EFC8168FE0D806E104F10428F472
:100C50008CE08093A30581E00CCF80E125EFC216E4
:100C60002FEFD206E104F104A0F380910D039091DF
:100C70000E03A0910F03B09110038093A6059093EB
:100C8000A705A093A805B093A90580E2E2CF4F92F3
:100C90005F926F927F928F929F92AF92BF92CF920C
:100CA000DF92EF92FF920F931F93CF93DF93EC01AC
:100CB000423051056105710590F480E0DF91CF91DC
:100CC0001F910F91FF90EF90DF90CF90BF90AF906A
:100CD0009F908F907F906F905F904F90089589853F
:100CE0009A85AB85BC850196A11DB11D841795071A
:100CF000A607B70710F3CB88DC88ED88FE888F89BC
:100D0000803109F042C0BB27A72F962F852F4801BD
:100D100059012A013B01C80ED91EEA1EFB1E809113
:100D2000000190910101A0910201B0910301C81648
:100D3000D906EA06FB0699F58F898031C1F5B30122
:100D4000A201552766277727440F551F4F515D4F46
:100D5000FA01918280828091E00281608093E002BA
:100D60008A89823080F08D819E81AF81B8858C0D1B
:100D70009D1DAE1DBF1D8093C9029093CA02A09312
:100D8000CB02B093CC0281E099CFDB01CA01E7E04E
:100D9000B695A79597958795EA95D1F7B8CF40E096
:100DA000C701B6010E94D4048111C6CF86CFB3011A
:100DB000A2014F77552766277727440F551F440F09
:100DC000551F4F515D4FFA0180829182A282B382FA
:100DD000C2CF8F929F92AF92BF92CF92DF92EF924B
:100DE000FF920F931F93CF93DF93FC018185928530
:100DF000A385B4850196A11DB11D84179507A6078B
:100E0000B70770F480E0DF91CF911F910F91FF90B1
:100E1000EF90DF90CF90BF90AF909F908F9008950C
:100E200083889488A588B6888789803189F5BB270F
:100E3000A72F962F852FE9016A017B018F01BC0145
:100E4000CD01680D791D8A1D9B1D80900001909039
:100E50000101A0900201B090030186169706A80632
:100E6000B90601F5F8018789803111F5DD24EE24FA
:100E7000FF24F601EE0FFF1FEF51FD4F808191819E
:100E8000B0E0A0E088839983AA83BB8381E0BBCFD5
:100E9000DB01CA01C7E0B695A79597958795CA95D6
:100EA000D1F7C9CF40E00E94D4048111DBCFAACF93
:100EB000E894C7F8DD24EE24FF24F601EE0FFF1FAF
:100EC000EE0FFF1FEF51FD4F80819181A281B38111
:100ED000BF70D8CF4F925F926F927F92AF92BF92C6
:100EE000CF92DF92EF92FF920F931F93CF93DF93F6
:100EF00000D000D0CDB7DEB78C0149835A836B8315
:100F00007C835901C12CD12C7601412C82E0582ED2
:100F1000612C712C49815A816B817C819E012F5FEC
:100F20003F4FC8010E94E906882339F1F801858501
:100F3000A301920104C0220F331F441F551F8A953D
:100F4000D2F7DA01C901C80ED91EEA1EFB1E49817B
:100F50005A816B817C818789803111F188EF9FEF05
:100F6000AFEFBFE0481759076A077B0798F2F50112
:100F7000C082D182E282F38281E00F900F900F90C5
:100F80000F90DF91CF911F910F91FF90EF90DF9025
:100F9000CF90BF90AF907F906F905F904F900895EB
:100FA00088EF9FEFA0E0B0E0DDCFCF93DF93FC01AF
:100FB0002581222321F080E0DF91CF910895EC017B
:100FC0008091A305803159F582E08583178A108EC0
:100FD000118E128E8091A4059091A505B0E0A0E03D
:100FE00025E0880F991FAA1FBB1F2A95D1F7838B75
:100FF000948BA58BB68B8CE895E09C8F8B8F81E0D2
:101000008C831E821F82188619861A861B861C8670
:101010001D861E861F86188A198A1A8ACDCF8032AD
:1010200051F683E085834091A6055091A705609114
:10103000A8057091A905478B508F618F728F9F0112
:101040002D5E3F4F8CE895E00E946A078111D3CF57
:10105000B2CF8F929F92AF92BF92CF92DF92EF92D8
:10106000FF920F931F93CF93DF93EC018D8181113A
:101070000EC080E0DF91CF911F910F91FF90EF9014
:10108000DF90CF90BF90AF909F908F9008950B8985
:101090001C892D893E89041715072607370748F351
:1010A0004A015B01823031F48A869B86AC86BD861C
:1010B00081E0E0CF81149104A104B10449F41E82BF
:1010C0001F82188619861A861B861C861D86F0CFFD
:1010D0000A851B852C853D85EB8DFC8D858590E0F3
:1010E0000996B901A8014150510961097109082EF9
:1010F00004C076956795579547950A94D2F7750180
:101100006401E1E0CE1AD108E108F10804C0F694C8
:10111000E794D794C7948A95D2F7C416D506E60605
:10112000F70620F0012B022B032B11F58F89988DE8
:10113000A98DBA8D8E839F83A887B9878E010A5F98
:101140001F4FC114D104E104F10409F4ADCF4E8165
:101150005F816885798598018B8D9C8D0E94E90659
:1011600091E0C91AD108E108F1088111EACF81CFD5
:10117000C41AD50AE60AF70AE1CF3F924F925F926E
:101180006F927F928F929F92AF92BF92CF92DF9297
:10119000EF92FF920F931F93CF93DF93CDB7DEB7FC
:1011A0002C970FB6F894DEBF0FBECDBF5C01DC01FB
:1011B0005B968D909C905C9716964D905D906D908F
:1011C0007C901997411451046104710409F468C0BA
:1011D000BFEF4B1A5B0A6B0A7B0A312CF401818545
:1011E0009285A385B4859C01AD012F5F3F4F4F4F82
:1011F0005F4F29873A874B875C87730162011D82A5
:101200001E821F821886F40181859285A385B4858C
:101210002D813E814F815885281739074A075B0782
:1012200008F056C089859A85AB85BC858C159D05CF
:10123000AE05BF0550F482E0C82ED12CE12CF12C74
:1012400092E0492E512C612C712C9E012F5F3F4F53
:10125000B701A601C4010E94E9068823C9F189816A
:101260009A81AB81BC81892B8A2B8B2B09F12601BA
:1012700037019FEF491A590A690A790A2D813E817F
:101280004F8158852F5F3F4F4F4F5F4F2D833E83D8
:101290004F8358873FEFC31AD30AE30AF30AB3CF49
:1012A000F40140805180628073803324339496CF60
:1012B000C414D504E604F70409F70FEF1FEF2FEF6E
:1012C0003FE0B701A601C4010E944706811119C081
:1012D00080E02C960FB6F894DEBF0FBECDBFDF9135
:1012E000CF911F910F91FF90EF90DF90CF90BF9023
:1012F000AF909F908F907F906F905F904F903F90B6
:101300000895D50116964D915D916D917C91199737
:10131000411551056105710539F097018601C40138
:101320000E9447068823A1F2D5011696CD92DD9240
:10133000ED92FC921997332051F0D701C601019626
:10134000A11DB11DF40180839183A283B383F501B4
:101350008789908DA18DB28D892B8A2B8B2B39F4A7
:101360008481C78AD08EE18EF28E80688483F501F5
:1013700084818062848381E0ACCF1F93CF93DF931D
:10138000FC0125812223D1F1162FEC01848187FFF6
:101390002AC0668577858089918941E00E94D404BE
:1013A000882361F1EA8980E2E89FF0011124EF517E
:1013B000FD4F309719F18D81823040F48B899C89E3
:1013C000AD89BE89848F958FA68FB78F8F89988DB1
:1013D000938F828F8F89988DA98DBA8DB58BA48BB1
:1013E0008C818F778C83111103C08C818F7E8C83CD
:1013F000812FDF91CF911F910C94A90480E0DF91A0
:10140000CF911F910895FF920F931F93CF93DF9376
:10141000EC018D81813041F090E080E0DF91CF914F
:101420001F910F91FF9008958C8181FFF5CF82FD70
:101430001BC00091DE021091DF02C8010E9402036E
:101440000E94E102F82EC8010E94CF028FEFF8122D
:10145000E3CF8C8185FF1BC060E0CE010E94BD09F7
:101460008C818F7D8C83D8CF4B895C896D897E89F7
:101470008A859B85AC85BD8584179507A607B70728
:10148000C1F2CE010E9429088111D3CFC5CF40916E
:10149000C9025091CA026091CB027091CC02452BD7
:1014A000462B472B21F080E00E948504B5CF806158
:1014B0008C832A853B85317080E092E0821B930B00
:1014C000ADCFCF93DF93EC0161E00E94BD0988238B
:1014D00011F01D8281E0DF91CF9108952F923F920C
:1014E0004F925F926F927F928F929F92AF92BF9234
:1014F000CF92DF92EF92FF920F931F93CF93DF93E0
:1015000000D000D01F92CDB7DEB77C015B01342E36
:101510005D83DC0115968C911597813009F0CEC062
:1015200014962C9021FECAC022FCB4C0C32CDD80CE
:1015300022947FE027222094B22DB1702B2ED70168
:101540001A964D915D916D917C911D97C114D104B6
:1015500009F428C15B968D919C915C97FC01748085
:101560007A948A019B0169E036952795179507952E
:101570006A95D1F770228A011170711020C001158F
:101580001105E9F416964D915D916D917C91199735
:10159000411551056105710509F099C057968D9166
:1015A0009D910D90BC91A02D0097A105B10509F06A
:1015B000B0C0C7010E94BD08882309F47FC080E045
:1015C00092E0801B910B46018C159D0508F44C019F
:1015D000D7015B964D915C915C9716968D919D918C
:1015E0000D90BC91A02D0297A109B109FA012585A2
:1015F00004C0880F991FAA1FBB1F2A95D2F74685E2
:10160000578560897189840F951FA61FB71F9C019C
:10161000AD01270D311D411D511D29013A018114D4
:1016200032E0930609F07BC08091000190910101A6
:10163000A0910201B091030184159505A605B70597
:1016400059F48FEF9FEFDC0180930001909301012B
:10165000A0930201B0930301022D9501B301A201F1
:101660008091DE029091DF020E941704882331F1FD
:101670009EEFB91AC818D908F70182859385A48509
:10168000B585880D991DA11DB11D82879387A487FB
:10169000B58755CFF7014389548965897689828555
:1016A0009385A485B585481759076A077B0709F410
:1016B0003DCFC7010E942908811138CF81E090E019
:1016C000D70113969C938E93129780E007C09E01DA
:1016D0002F5F3F4F0E94E906811102C090E079C060
:1016E00089819A81AB81BC81F701238D348DF90109
:1016F000278948EF5FEF60E070E0203121F048EF8C
:101700005FEF6FEF7FE084179507A607B70708F034
:1017100050CFF70186839783A087B18750CF0115FB
:10172000110599F5D7011A964D915D916D917C91B6
:101730001D9753968D919D910D90BC91A02D4817AA
:1017400059076A077B0708F181E00E94A9048823F2
:1017500009F4B4CF4092000150920101609202015D
:10176000709203018091E00281608093E002C801E1
:101770008F519D4FD5019C01280D391DFC012E175D
:101780003F0759F04D914193FACF41E0C301B201B7
:101790000E94D4048111EBCF91CF281B390BA20EEC
:1017A000B31E68CFF70183899489A589B689841708
:1017B0009507A607B70738F48481438B548B658B54
:1017C000768B80688483F701848183FD1AC0832D22
:1017D0009D810F900F900F900F900F90DF91CF9100
:1017E0001F910F91FF90EF90DF90CF90BF90AF903F
:1017F0009F908F907F906F905F904F903F902F9031
:10180000089561E0C7010E94BD09882309F456CFFD
:10181000DECFCF93DF931F92CDB7DEB7698341E070
:1018200050E0BE016F5F7F4F0E946E0A0F90DF9104
:10183000CF910895FC01DB0112968D919C91139735
:10184000938382838AE491E09183808314968C91C0
:101850001497848315968C911597858316964D91D0
:101860005D916D917C91199746835783608771874D
:101870001A964D915D916D917C911D97428753878A
:10188000648775871E964D915D916D917C915197FE
:1018900046875787608B718B52968C915297828BBB
:1018A00053964D915D916D917C915697438B548BDE
:1018B000658B768B57964D915D916D917C915A9782
:1018C000478B508F618F728F5B968D919C91948F17
:1018D000838F0895FC01818D928D009719F061E04E
:1018E0000C94BD090895DC015996ED91FC91309757
:1018F000B9F083899489A589B68942855385648521
:101900007585841B950BA60BB70B811520E89207F4
:10191000A105B10538F08FEF9FE7A0E0B0E0089592
:1019200090E080E00895DC0159968D919C9100979C
:1019300039F0DC01ED91FC910480F581E02D0994F2
:1019400090E080E00895CF93DF93EC01E98DFA8D6C
:10195000309749F481E090E09B838A8390E080E0B7
:10196000DF91CF91089513821282898D9A8D0E9402
:101970006E0AE98DFA8D22813381232B59F7F0CF3E
:10198000CF93DF931F92CDB7DEB76983DC01ED9172
:10199000FC910280F381E02D41E050E0BE016F5FD9
:1019A0007F4F09950F90DF91CF9108952F923F922D
:1019B0004F925F926F927F928F929F92AF92BF925F
:1019C000CF92DF92EF92FF920F931F93CF93DF930B
:1019D00000D01F92CDB7DEB7FC018581811118C000
:1019E0008FEF9FEF0F900F900F90DF91CF911F918E
:1019F0000F91FF90EF90DF90CF90BF90AF909F90AE
:101A00008F907F906F905F904F903F902F900895B0
:101A1000848180FFE5CF43895489658976898285F1
:101A20009385A485B585312C212C481759076A0761
:101A30007B0719F022242394312C6F012101CE0160
:101A400001963C01DF011696BB83AA834114510421
:101A500009F4C5C0F60142855385648575854A0140
:101A6000F1E09F22D6015B968D919C915C978A0153
:101A70009B01E9E03695279517950795EA95D1F7EB
:101A80001596EC91E230E9F5FC01628D738D848D41
:101A9000958D600F711F821F931FA12C22E0B22E23
:101AA000A818B9084A145B0408F45201F60124810D
:101AB00026FD04C0A114F2E0BF0671F400910001FC
:101AC00010910101209102013091030106171707BF
:101AD0002807390709F05EC040E00E94D40488233B
:101AE00009F47ECFC4018F519D4FD3019C012A0D73
:101AF0003B1DFC012E173F0709F46CC041914D932B
:101B0000F9CFDC011496BC90BA94B02281149104F0
:101B100079F4B1100DC0452B462B472B69F5F60122
:101B20008789908DA18DB28D86839783A087B18799
:101B3000D6015B96ED91FC915C9716966D917D9127
:101B40008D919C91199762507109810991092585A0
:101B500004C0660F771F881F991F2A95D2F7068544
:101B6000178520893189600F711F821F931F6B0DAC
:101B7000711D811D911D91CFD60116964D915D91DC
:101B80006D917C9119972A813B810E94E906811110
:101B9000CFCF26CF730185019401AB01BC018091A9
:101BA000DE029091DF020E947503882309F418CFAA
:101BB0006A0C7B1CF60182859385A485B5858A0D08
:101BC0009B1DA11DB11D82879387A487B5874A18E5
:101BD0005B083CCF281B390B620E731EEBCF2A9497
:101BE000232809F0FDCE898190E0FCCEFC01818D97
:101BF000928D009711F00C94D60C8FEF9FEF089503
:101C00000F931F93CF93DF93EC010E94AD01688780
:101C100079878A879B87CE010E94F60D97FF15C0B2
:101C20000E94AD01088519852A853B85601B710BD3
:101C3000820B930B0C811D812E813F8160177107F0
:101C40008207930740F38FEF9FEFDF91CF911F91B2
:101C50000F9108950F931F93CF93DF93EC01898D1C
:101C60009A8D10E000E0009799F00E94D60C8C014C
:101C70000F3F100769F0898D9A8DFC0142855385CD
:101C80006485758541505109610971090E942908CF
:101C9000C801DF91CF911F910F91089520917D028E
:101CA000260F3327331F21323105ECF42091A10296
:101CB000FC0190E080E0243069F082E00895A0917A
:101CC0007D022191AC01435A5D4FA40FB52FB11D88
:101CD0002C930196861798F380917D02680F60938C
:101CE0007D0280E0089581E008951092A10281E0D4
:101CF0008093A3021092A20261E082E10E94F700A9
:101D000061E083E10E94F700E9EBF0E080818E7FE3
:101D1000808380818D7F808388E48093B80085E410
:101D20008093BC000895CF93DF9391E090935C0281
:101D30008823B9F0C091B800D091BA008091BC005E
:101D40008A7B8093BC0060E082E10E94F70060E043
:101D500083E10E94F7000E94750ED093BA00C093F1
:101D6000B800DF91CF9108950895E091D402809159
:101D7000D302E81730F4F0E0E95CFD4F808190E099
:101D800008958FEF9FEF08959091D4028091D30230
:101D90002FEF3FEF981748F4E92FF0E0E95CFD4F93
:101DA000208130E09F5F9093D402C9010895809113
:101DB000D3029091D402891B990B0895CF92DF92A0
:101DC000EF92FF920F931F93CF93DF937C01CB0190
:101DD0008A0120913602222389F0EB016B01C40EA7
:101DE000D51ECC15DD0569F06991D701ED91FC9107
:101DF0000190F081E02DC7010995F3CF642F0E9477
:101E00004E0EC801DF91CF911F910F91FF90EF907F
:101E1000DF90CF900895CF93DF931F92CDB7DEB7B9
:101E20006983209136022223F9F02091D1022032D9
:101E300058F021E030E0FC013383228390E080E021
:101E40000F90DF91CF9108958091D202E82FF0E0BA
:101E5000EA5EFD4F998190838F5F8093D2028093D9
:101E6000D10281E090E0ECCF61E0CE0101960E94CA
:101E70004E0EF7CFCF92DF92EF92FF920F931F9308
:101E8000CF93DF93FC01C48121E020933602C093FD
:101E900015021092D2021092D1028385682B89EC30
:101EA00095E00E940B0FD091D102D13208F092C080
:101EB0000E9456016B017C018091A102811165C0D5
:101EC00082E08093A10281E08093A3028FEF809350
:101ED000A0021092C502D093C402A6E1B2E0E4EAE7
:101EE000F2E080E0D81385C01092C6028091C6024D
:101EF000CC0FC82BC093C6028091A202813009F09A
:101F00007CC01092A2020E9456016B017C0180915C
:101F1000C6028093BB008091580290915902A09113
:101F20005A02B0915B02892B8A2B8B2B99F00E946D
:101F30005601009158021091590220915A02309195
:101F40005B026C197D098E099F0906171707280780
:101F50003907E0F18091BC0083FDD9CF85EC8093F7
:101F6000BC000E9456016B017C018091A10282306D
:101F700009F445C08091A0028F3F61F18091A002D9
:101F8000803241F18091A00225C080915802909149
:101F90005902A0915A02B0915B02892B8A2B8B2B9C
:101FA00009F48ACF0E9456010091580210915902FB
:101FB00020915A0230915B026C197D098E099F09AC
:101FC000061717072807390708F076CF80915702C0
:101FD0000E94930E1092D2021092D10210923602F9
:101FE000DF91CF911F910F91FF90EF90DF90CF90F5
:101FF00008959D9191938F5F75CF85EEB0CF8091BD
:10200000580290915902A0915A02B0915B02892B1B
:102010008A2B8B2B09F4A9CF0E94560100915802FC
:102020001091590220915A0230915B026C197D097E
:102030008E099F09061717072807390708F095CF5B
:10204000C5CF28E0FC01238760E00C943A0F90E0B4
:1020500080E00895CF93DF9387E00E94CE00D0E028
:10206000C0E0892B11F4C8E0D0E086E00E94CE00E9
:10207000892BE1F090E080E0C82BD92B85E00E940D
:10208000CE00892BB1F090E080E0C82BD92B84E002
:102090000E94CE0021E030E0892B11F030E020E0FA
:1020A000C9018C2B9D2BDF91CF91089584E090E0A6
:1020B000E3CF82E090E0E9CF0F931F93CF93DF93BC
:1020C000EC0180E2689FF0011124EF51FD4F6A8B13
:1020D0008091000190910101A0910201B091030152
:1020E0008E879F87A88BB98B0489158930E020E003
:1020F0009801112700270F8B188F298F3A8F828D17
:10210000938DB0E0A0E0AC01BD01402B512B622BC0
:10211000732B4F8B588F698F7A8F83858871A9F4C1
:10212000848D958DA68DB78D8B8B9C8BAD8BBE8B47
:1021300081E08D8381E08C831E821F821886198640
:102140001A861B861C861D8603C0803131F080E014
:10215000DF91CF911F910F9108959E012D5E3F4F0A
:102160008B8D9C8D0E946A07882389F384E0E1CFE0
:102170000F931F93CF938C01C62F0E943A0F6C2FA1
:102180006460C8010E943A0F6C2F6B7FC8010E94E7
:102190003A0F83EC90E00197F1F7CF911F910F91E7
:1021A00008950F931F93CF93DF938C01D62FC42FE5
:1021B000607F642B0E94B81080E1D89FB001112489
:1021C0006C2BC801DF91CF911F910F910C94B81027
:1021D000CF93DF93CDB7DEB728970FB6F894DEBF65
:1021E0000FBECDBF28E0EEE0F1E0DE0111960190D8
:1021F0000D922A95E1F7FC012085241708F44FEF92
:1022000050E0440F551F21E030E02C0F3D1F420FDE
:10221000531FFA012081620F606840E028960FB6D4
:10222000F894DEBF0FBECDBFDF91CF910C94D110DB
:1022300040E061E00E94D1108BE39FE10197F1F74C
:10224000089541E00E94D11081E090E00895AF929E
:10225000BF92CF92DF92EF92FF920F931F93CF9393
:10226000DF93CDB7DEB72B970FB6F894DEBF0FBE66
:10227000CDBF6C01FE013196CE010C967F0120E2AC
:102280002193E817F907E1F7DA0120E037E09D91A3
:10229000B92E9923A9F19E32B9F43A3091F480E035
:1022A0002B960FB6F894DEBF0FBECDBFDF91CF9156
:1022B0001F910F91FF90EF90DF90CF90BF90AF9064
:1022C000089528E03AE0E3CFE2ECF0E0849188233F
:1022D00021F031969813FACFE2CF321700F38FED49
:1022E000890F8E35E0F68FE9890F8A3118F440EEB8
:1022F000B42EB90EF701E20FF11DB0822F5FC7CFE8
:102300008981803261F28B01FB01838D948DF6010E
:10231000948F838FFB011682178210861186128696
:10232000138614861586F80182859385A485B58564
:10233000438954896589768984179507A607B70765
:1023400008F0ADCF25E0B695A795979587952A9586
:10235000D1F7F82FFF70AF2EF8018581823008F495
:102360009ECFC8010E94D60C97FD99CFF8018285B7
:102370009385A485B5854F96A11DB11D828793874E
:10238000A487B587F0E2AF9EB00111246F517D4F55
:102390006115710509F483CFFB018081882309F160
:1023A000853E19F4B11032C01EC04BE050E0C701A9
:1023B0000E94311F892B09F0B6CF6A2DC6012B96DA
:1023C0000FB6F894DEBF0FBECDBFDF91CF911F9146
:1023D0000F91FF90EF90DF90CF90BF90AF900C9453
:1023E0005C10B1105CCFF601A28A8091000190913F
:1023F0000101A0910201B091030186879787A08B0C
:10240000B18BFB018081882309F449CFBB24B394AD
:102410008ACFFC0180819181009711F00C94D11D2D
:102420000895FB0101900020E9F73197AF01461BA9
:10243000570BDC01ED91FC910280F381E02D0994B2
:102440004F925F926F927F92AF92BF92CF92DF9244
:10245000EF92FF920F931F93CF93DF93CDB7DEB729
:10246000A1970FB6F894DEBF0FBECDBF5C016A0125
:102470007B01F7FE47C0DC01ED91FC910190F081FA
:10248000E02D6DE209958C0122273327A9012C1933
:102490003D094E095F0919A2FE01B1967F019AE03C
:1024A000492E512C612C712CCA01B901A301920152
:1024B0000E94FE1C605DD7016E937D0121153105E0
:1024C0004105510589F790E080E0109721F0BD01AA
:1024D000C5010E941112800F911FA1960FB6F894AA
:1024E000DEBF0FBECDBFDF91CF911F910F91FF9047
:1024F000EF90DF90CF90BF90AF907F906F905F9004
:102500004F900895AB01960119A28E010F5D1F4FE8
:102510008AE0C82ED12CE12CF12CCA01B901A70107
:1025200096010E94FE1C605DF80162938F012115E7
:1025300031054105510589F790E080E0309769F257
:10254000BF01C5010E941112C8CF0C9411120F9344
:102550001F93CF93DF93EC0188819981009759F005
:102560002A813B812617370730F081E0DF91CF9138
:102570001F910F9108958B016F5F7F4F0E945A1E2C
:10258000009759F0998388831B830A832C813D81AE
:10259000232B59F7FC011082E8CF80E0E7CFEF92C0
:1025A000FF920F931F93CF93DF93EC017B018A017E
:1025B000BA010E94A71228813981811114C0211506
:1025C000310519F0C9010E94D11D198218821D829E
:1025D0001C821B821A82CE01DF91CF911F910F9135
:1025E000FF90EF9008951D830C83B701C9010E94ED
:1025F0005B1FF1CFFB0101900020E9F73197AF019C
:10260000461B570B0C94CF12EF92FF920F931F9320
:10261000CF93DF93EC017B018A011B821A8288EE43
:1026200093E0A0E0B0E08C839D83AE83BF8386E21D
:1026300091E0998388838DE190E00E94351D9A8F07
:10264000898F009779F02DE1F701DC0101900D925F
:102650002A95E1F74CE050E0B801CE010C960E94BB
:10266000621F188EDF91CF911F910F91FF90EF9015
:10267000089585ED8093BC00809158029091590295
:10268000A0915A02B0915B020796A11DB11D23E0F3
:10269000B695A795979587952A95D1F72091BC0077
:1026A00024FD03C01092A102089540915802509158
:1026B000590260915A0270915B02452B462B472BC1
:1026C00069F30097A105B10541F02AE22A95F1F7D7
:1026D00000C00197A109B109E1CF809157020C9484
:1026E000930E2F923F924F925F926F927F928F92B2
:1026F0009F92AF92BF92CF92DF92EF92FF920F9391
:102700001F93CF93DF93CDB7DEB7C457D1090FB670
:10271000F894DEBF0FBECDBF5C017B018091AF0599
:10272000882321F08AEA95E00E94610A10928B05C5
:102730001092890510928605109285058AE0809393
:1027400084050E94AD018B0161E0809184050E94A7
:10275000250161E0809184050E94F700DFB6F894BE
:1027600080911402811127C0E0E9F0E08491E4EA4D
:10277000F0E09491E82FF0E0EE0FFF1FE859FF4FD3
:10278000A591B491EC91E92321F461E08AE00E94E3
:10279000F70061E08AE00E9425018CB580618CBD64
:1027A0008CB580648CBD61E08DE00E94250161E004
:1027B0008BE00E942501809114028F5F80931402A8
:1027C000DFBE82E580937E0510927F0580917E05B5
:1027D00090917F050E94FF022AE0D22E8FEF0E9487
:1027E000DA02DA94D110FACF80E895E00E94020371
:1027F00020E030E0A90160E080E895E00E94180345
:10280000D82E80938A0581E0D816A9F00E94AD01E8
:10281000601B710B613D774058F381E08093850523
:1028200080E895E00E94CF0264E671E081EE94E0DA
:102830000E94A512FFCF2AEA31E040E050E068E0B4
:1028400080E895E00E94180382FF2AC0D0928B0591
:1028500080918B05412C512C3201823029F4412C7E
:10286000512C612C80E4782E20E030E0A90167E350
:1028700080E895E00E941803A301920169E280E8D4
:1028800095E00E94180380938A058823D1F00E9466
:10289000AD01601B710B613D774030F388E0BECF26
:1028A00094E0D92E0E94E10280938A05DA94D11037
:1028B000F9CF8A3A11F082E0B1CF82E080938B05A4
:1028C000C7CF80918B058230D1F420E030E0A901A0
:1028D0006AE380E895E00E941803882311F086E0FF
:1028E0009DCF0E94E102807C803C19F483E08093BC
:1028F0008B050E94E1020E94E1020E94E10280E851
:1029000095E00E94CF0280E580937E0510927F05BE
:1029100081E00E941E058823E9F18AEA95E00E9481
:10292000D507882309F480CFF7016080718019A250
:1029300018A28AE491E09F8F8E8F1BA21C821B82BB
:102940009A8389831E824E01FEE18F0E911CC40181
:102950000E94D50763018E010F5F1F4F24011801EC
:102960006FE270E0C6010E94471F009709F465C03E
:10297000D6012C912F32A9F4BFEFCB1ADB0A902F8E
:10298000812F8201492E582E942D852D2801092F43
:10299000182FE6CF80E00E941E05882309F444CF5B
:1029A000BCCF8C198D3008F08CE0E82EF12CA701FB
:1029B000B601CE01885A9F4F0E94621FE8E5F0E001
:1029C000EC0FFD1FEE0DFF1D1082C8010E94610A71
:1029D000F8018581882311F11EAE1DAE8AE491E0D5
:1029E0009CAF8BAF21961FAE2197E596AEADBFADE4
:1029F000E5976A0E7B1EF301808181112BC0BE0119
:102A0000655C7F4FC1010E941A0C41E851E0B101A1
:102A1000CE01885A9F4F0E94041343C0AE01485A0A
:102A20005F4FB201C8010E9427118823A9F2CE0C82
:102A3000DF1CC2010E94610AA7CFC601861997094F
:102A4000E5969FAF8EAFE597B201CE01CB960E947F
:102A50001A0CCBCF19A218A28AE491E09F8F8E8F17
:102A60001BA221968FAD219781115BC06C961FAE82
:102A70001EAE6C9788EE93E0A0E0B0E0A0968CAF1D
:102A80009DAFAEAFBFAFA09786E291E06A969FAFD1
:102A90008EAF6A97E3961FAE1EAEE397A5961FAE64
:102AA000A5976C968EAD9FAD6C97D50113969C93B0
:102AB0008E931297A0968CAD9DADAEADBFADA09795
:102AC000F50184839583A683B783A4968CAD9DADD1
:102AD000AEADBFADA49780879187A287B3873C96A0
:102AE000A8E5B0E0AC0FBD1F1C96C50149962D911D
:102AF0002193E817F907D9F7E396EEADFFADE39719
:102B0000D5015A96FC93EE935997309719F0858129
:102B100081111BC063E871E081EE94E00E94A51270
:102B2000FFCFA301BE01655C7F4FC4010E94271146
:102B3000882309F49BCFCE01CB960E94610AB40191
:102B4000C1010E941A0CA30162CFCC58DF4F0FB60F
:102B5000F894DEBF0FBECDBFDF91CF911F910F91D3
:102B6000FF90EF90DF90CF90BF90AF909F908F90AD
:102B70007F906F905F904F903F902F9008951F929D
:102B80000F920FB60F9211242F933F938F939F9321
:102B9000AF93BF938091D6029091D702A091D802B3
:102BA000B091D9023091D50223E0230F2D3758F58B
:102BB0000196A11DB11D2093D5028093D60290935A
:102BC000D702A093D802B093D9028091DA029091F3
:102BD000DB02A091DC02B091DD020196A11DB11DC6
:102BE0008093DA029093DB02A093DC02B093DD02C3
:102BF000BF91AF919F918F913F912F910F900FBEF9
:102C00000F901F90189526E8230F0296A11DB11D65
:102C1000D2CF1F920F920FB60F9211242F933F9392
:102C20004F935F936F937F938F939F93AF93BF93D4
:102C3000EF93FF9381EE94E00E943A02FF91EF91AF
:102C4000BF91AF919F918F917F916F915F914F91C4
:102C50003F912F910F900FBE0F901F9018951F92CC
:102C60000F920FB60F9211242F938F939F93EF9390
:102C7000FF93E091F104F091F2048081E091F70478
:102C8000F091F80482FD1BC090818091FA048F5F5F
:102C90008F732091FB04821741F0E091FA04F0E079
:102CA000EF51FB4F958F8093FA04FF91EF919F9125
:102CB0008F912F910F900FBE0F901F9018958081CC
:102CC000F4CF1F920F920FB60F9211242F933F93C0
:102CD0004F935F936F937F938F939F93AF93BF9324
:102CE000EF93FF938091B900887F803609F44AC042
:102CF000F0F5883209F4A7C018F5803109F49BC0BB
:102D0000B8F4882309F4F9C0883009F494C0FF911D
:102D1000EF91BF91AF919F918F917F916F915F9153
:102D20004F913F912F910F900FBE0F901F901895CC
:102D3000883109F488C0803251F78093A00214C012
:102D4000803409F49DC040F48033B9F38833F9F638
:102D50008093A00285ECB0C0803509F485C0883529
:102D600009F496C0883499F60E943913D0CF883977
:102D700009F48CC038F5883729F050F4883611F002
:102D8000803729F683E08093A10210929F0257C0FA
:102D9000883809F47BC0803919F0803809F0B7CF42
:102DA00080919F02803208F071C0E0919F0281E023
:102DB0008E0F80939F028091BB00F0E0E158FD4FA1
:102DC00080833DC0803B39F0E0F4803A09F479C05B
:102DD000883A09F09CCF84E08093A10210927E0291
:102DE00010927D02E091CF02F091D002099580917E
:102DF0007D0281110FC081E080937D0210925D02FF
:102E000009C0803C09F4A6CF883C09F4A3CF883BD5
:102E100009F07DCFE0917E0281E08E0F80937E02EB
:102E2000F0E0E35AFD4F80818093BB0090917E02D9
:102E300080917D0229C08091C6028093BB0085EC01
:102E40008093BC0064CF9091C5028091C402981712
:102E500058F5E091C50281E08E0F8093C502F0E045
:102E6000EC55FD4F8081E9CFE091C50281E08E0FE6
:102E70008093C5028091BB00F0E0EC55FD4F80834C
:102E80009091C5028091C4029817C8F285E8D8CF06
:102E9000E091C50281E08E0F8093C5028091BB0056
:102EA000F0E0EC55FD4F80838091A30281115CCF4F
:102EB00081E08093A20284EA8093BC001092A10278
:102EC00026CF85EC8093BC001092A10280919F02D6
:102ED000803230F4E0919F02F0E0E158FD4F108223
:102EE00060919F0270E0E091CD02F091CE028FE7F9
:102EF00092E0099510929F020ACF1092A00234CF5F
:102F0000E1EEF4E01382128288EE93E0A0E0B0E0FC
:102F100084839583A683B78328E331E031832083BC
:102F200025EC30E03587248724EC30E0378726878E
:102F300020EC30E0318B208B21EC30E0338B228B86
:102F400022EC30E0358B248B26EC30E0378B268B5F
:102F5000118E128E138E148EEEE7F5E020E520839D
:102F60001182E0E8F5E0158216821186138642E0B0
:102F700050E060E070E0448755876687778713A24A
:102F800015A614A62AE431E033A722A717A6E9EC78
:102F9000F5E01382128284839583A683B78386E546
:102FA00091E0918380830895CF93DF93CDB7DEB70F
:102FB000C354D1090FB6F894DEBF0FBECDBF7894CD
:102FC00084B5826084BD84B5816084BD85B582602E
:102FD00085BD85B5816085BD80916E0081608093DF
:102FE0006E00109281008091810082608093810048
:102FF0008091810081608093810080918000816058
:10300000809380008091B10084608093B1008091B2
:10301000B00081608093B00080917A0084608093DA
:103020007A0080917A00826080937A0080917A00A1
:10303000816080937A0080917A00806880937A0022
:103040001092C100E091F104F091F20492E09083BB
:10305000E091ED04F091EE041082E091EF04F09124
:10306000F00420E120831092F904E091F504F0913E
:10307000F60486E08083E091F304F091F40480810B
:1030800080618083E091F304F091F4048081886092
:103090008083E091F304F091F40480818068808360
:1030A000E091F304F091F40480818F7D80831F8E82
:1030B0001E8E4AE151E05D8F4C8F87E288A32DA3DD
:1030C0009EA31FA261E08AE00E94250160E087E0E4
:1030D0000E94250160E086E00E94250160E085E015
:1030E0000E94250160E084E00E9425011092D40234
:1030F0001092D3021092D2021092D1020E94750E49
:1031000089EB91E09093D0028093CF028AEB91E01B
:103110009093CE028093CD0219A28EA1823010F03E
:1031200098E099A38CA362E370E080E090E00E94B5
:103130007B016FA1CE014C960E943A0F68EE73E0BE
:1031400080E090E00E947B0160E3CE014C960E94FB
:10315000B8100BE416E4C8010197F1F760E3CE0163
:103160004C960E94B810C8010197F1F760E3CE01B8
:103170004C960E94B81083E592E00197F1F760E267
:10318000CE014C960E94B81069A1606240E0CE0169
:103190004C960E94D11084E08AA340E06CE0CE01FE
:1031A0004C960E94D110CE014C960E94181182E0DC
:1031B0008BA340E066E0CE014C960E94D11040E027
:1031C00062E0CE014C960E94D1108BE39FE1019703
:1031D000F1F7CE014C960E9421101BAE1AAE1DAE27
:1031E0001CAE1FAE1EAE66EE71E0CE01CA960E9406
:1031F000FA121C821B8288EE93E0A0E0B0E08D837F
:103200009E83AF83B88786E291E09A8389831B8E81
:103210001A8E1D8619A618A61BA61AA61DA61CA6E0
:1032200069E971E0CE0188960E94FA12BE01685DDC
:103230007F4FCE0101960E947113CE0188960E94A5
:103240000912CE014C960E941811CE014C960E9494
:10325000211040E060E0CE014C960E94E81063EA45
:1032600071E0CE014C960E94A51241E060E0CE01D3
:103270004C960E94E8106DEA71E0CE014C960E94D7
:10328000A5120E942A10892BE1F3CE014C960E94D0
:10329000181164EF71E080E090E00E947B01CE01A4
:1032A0004C960E94211040E060E0CE014C960E94B6
:1032B000E8106DEB71E0CE014C960E94A51202E081
:1032C00010E040E06EE0CE014C960E94E810A801AC
:1032D000012E000C660B770BCE014C960E9420123B
:1032E0000E942A100097E1F381FF09C00F5F1F4F72
:1032F00064EF71E080E090E00E947B01E2CF80FF0C
:1033000006C00230110519F001501109F1CF82FFFA
:10331000EFCF64EF71E080E090E00E947B01CE018E
:103320004C960E941811CE014C960E94211040E04C
:1033300060E0CE014C960E94E81068EC71E0CE018E
:103340004C960E94A512EE24E394F12C40E06EE02E
:10335000CE014C960E94E810A7010F2C000C660BC2
:10336000770BCE014C960E9420120E942A100097E3
:10337000E1F381FF0DC0E016F10654F42FEFE21ADD
:10338000F20A64EF71E080E090E00E947B01DECF02
:1033900080FF08C031E0E316F10421F041E0E41AB7
:1033A000F108EFCF82FFEDCF64EF71E080E090E0B5
:1033B0000E947B01412C512CC80101969C01990F60
:1033C000440B550B24962CAF3DAF4EAF5FAF249707
:1033D00033243394C8010E94351D3C01FC01800F49
:1033E000911F1192E817F907E1F7D12CC12C0E9427
:1033F0009400BC01990F880B990B6115710581052B
:10340000910511F00E948C1C0E943D1C24962CAD4D
:103410003DAD4EAD5FAD24970E94951CF301E60FC4
:10342000F71F8081811101C030823FEFC31AD30A98
:10343000EC14FD04E1F6EA8DFB8D309709F416C11A
:103440008581882309F412C11FA61EA619AA18AAED
:103450001BAA1AAA66EE71E0CE018E960E94FA129D
:103460000E949400BC01990F880B990B611571059E
:103470008105910511F00E948C1C0E943D1C24EBDB
:1034800034E040E050E00E94951C6F5F7F4F8F4F0B
:103490009F4F6B01912C812C8C149D040CF064C007
:1034A00019A618A61BA61AA61DA61CA666EE71E0F4
:1034B000CE0188960E94FA12CE0101960E94000E5B
:1034C00097FD1FC08A309105E1F08CAB1DAAACA41A
:1034D000BDA44FEFA41AB40AB501CE0188960E948C
:1034E000A712882349F328A539A58CA59DA5BE015F
:1034F0006C5C7F4F820F931F0E945B1FBDA6ACA622
:10350000DBCF8EA59FA50097F1F068A579A5611581
:103510007105B9F048A959A92CA53DA54217530733
:1035200080F00E945B1F8CA59DA59BAB8AAB1DA65E
:103530001CA6CE0188960E9409125FEF851A950A93
:10354000ABCF0E94D11D88A599A59FA78EA78AA55C
:103550009BA599AB88AB8CA59DA59BAB8AAB19A607
:1035600018A61BA61AA6E3CFCEA4DFA45201A1146D
:10357000B10409F06EC084E090E00E94351D5C014A
:10358000892B51F0F50142825382C6010E94171F18
:10359000F501918380832501DDAACCAA88A999A988
:1035A0009FAB8EAB8AA99BA999AF88AF1FA61EA619
:1035B00019AA18AA1BAA1AAACE018E960E9409124D
:1035C0001FA61EA619AA18AA1BAA1AAA6CA97DA929
:1035D0006115710531F048AD59ADCE018E960E944E
:1035E000CF12CE014C960E942110912CD12CC12CCF
:1035F0000E942A100097E1F382FFDDC05601FFEF21
:10360000AF1ABF0A992009F454C019A618A61BA620
:103610001AA61DA61CA66EA57FA56115710531F021
:103620004AA95BA9CE0188960E94CF12F301EC0D46
:10363000FD1D80818823A1F167EE71E0CE014C96DB
:103640000E94A512CE0188960E9409126501912C54
:1036500056C0B601F501808191810E94521F892BCD
:1036600009F4FECEF501A280B38081CF60ED71E058
:1036700081EE94E00E94111264EE71E081EE94E01C
:103680000E9411128A8D9B8D009709F499CF0E9498
:10369000610A8A8D9B8D0E94D11D1B8E1A8E90CF40
:1036A0004CA55DA568A579A5CE014C960E94BC01EC
:1036B000C9CFCE014C960E94181140E060E0CE01C7
:1036C0004C960E94E8106DEE71E0CE014C960E947F
:1036D000A51240E06BE0CE014C960E94E810A501D7
:1036E000BB0C660B770BCE014C960E94201241E07A
:1036F00060E0CE014C960E94E8109924939467EF05
:1037000071E081EE94E00E94A512A6010D2C000C40
:10371000660B770B81EE94E00E94201264EE71E05C
:1037200081EE94E00E94111264EF71E080E090E07D
:103730000E947B01C016D1060CF45ACF64EF71E0F1
:1037400080E090E00E947B01CE018E960E940912DB
:1037500064EF71E080E090E00E947B01CE014C9626
:103760000E941811CE014C960E9421106CEF71E05E
:10377000CE014C960E94A51241E060E0CE014C962D
:103780000E94E81069E072E0CE014C960E94A512FA
:103790000E942A1082FFFCCF64EF71E080E090E08D
:1037A0000E947B01CE014C960E941811CE01C49656
:1037B0000E9409120FCE83FFA2CFC114D10409F4D5
:1037C0009ECFCE014C960E94181121E0C216D10462
:1037D00021F032E0C31AD1083ACF912CD12CC12C60
:1037E0008ECF8F929F92AF92BF92CF92DF92EF9245
:1037F000FF92CF93DF93EC01688179818A819B816D
:10380000611571058105910521F464E279ED8BE57F
:1038100097E02DE133EF41E050E00E94951C490113
:103820005A019B01AC01A7EAB1E40E94B41C6B01F0
:103830007C01ACEEB4EFA50194010E94C21CC60E3F
:10384000D71EE81EF91EF7FE06C081E0C81AD1088F
:10385000E10880E8F80AC882D982EA82FB82C701BF
:10386000B6019F77DF91CF91FF90EF90DF90CF90DF
:10387000BF90AF909F908F9008958F929F92AF923C
:10388000BF92CF92DF92EF92FF926091040170910C
:10389000050180910601909107016115710581056F
:1038A000910521F464E279ED8BE597E02DE133EFAA
:1038B00041E050E00E94951C49015A019B01AC0176
:1038C000A7EAB1E40E94B41C6B017C01ACEEB4EF3A
:1038D000A50194010E94C21CC60ED71EE81EF91E47
:1038E000F7FE06C081E0C81AD108E10880E8F80AAE
:1038F000C0920401D0920501E0920601F092070106
:10390000C701B6019F77FF90EF90DF90CF90BF90F7
:10391000AF909F908F90089560930401709305017C
:1039200080930601909307010895052E97FB1EF4DE
:1039300000940E94AC1C57FD07D00E94FE1C07FC9F
:1039400003D04EF40C94AC1C5095409530952195C5
:103950003F4F4F4F5F4F08959095809570956195BB
:103960007F4F8F4F9F4F08950E94201DA59F900D60
:10397000B49F900DA49F800D911D11240895B7FF51
:103980000C94B41C0E94B41C821B930B08952F92BC
:103990003F924F925F926F927F928F929F92AF92DF
:1039A000BF92CF92DF92EF92FF920F931F93CF932C
:1039B000DF93CDB7DEB7CA1BDB0B0FB6F894DEBFC3
:1039C0000FBECDBF09942A88398848885F846E84E9
:1039D0007D848C849B84AA84B984C884DF80EE8033
:1039E000FD800C811B81AA81B981CE0FD11D0FB63C
:1039F000F894DEBF0FBECDBFED010895A1E21A2EEF
:103A0000AA1BBB1BFD010DC0AA1FBB1FEE1FFF1F82
:103A1000A217B307E407F50720F0A21BB30BE40BD2
:103A2000F50B661F771F881F991F1A9469F7609519
:103A30007095809590959B01AC01BD01CF010895D3
:103A4000A29FB001B39FC001A39F700D811D1124DF
:103A5000911DB29F700D811D1124911D0895EE0FCF
:103A6000FF1F0590F491E02D09940F931F93CF93BE
:103A7000DF938230910510F482E090E0E091D70569
:103A8000F091D80530E020E0B0E0A0E0309799F464
:103A90002115310509F44AC0281B390B24303105A2
:103AA000D8F58A819B816115710589F1FB019383AA
:103AB0008283FE0111C04081518102811381481728
:103AC0005907E0F04817590799F4109761F01296DA
:103AD0000C93129713961C933296CF01DF91CF91DE
:103AE0001F910F9108950093D7051093D805F4CF37
:103AF0002115310551F04217530738F0A901DB01B8
:103B00009A01BD01DF01F801C1CFEF01F9CF909318
:103B1000D8058093D705CDCFFE01E20FF31F819327
:103B200091932250310939832883D7CF2091D5052D
:103B30003091D605232B41F420910A0130910B01DD
:103B40003093D6052093D5052091080130910901C5
:103B50002115310541F42DB73EB740910C0150912C
:103B60000D01241B350BE091D505F091D605E21728
:103B7000F307A0F42E1B3F0B2817390778F0AC0190
:103B80004E5F5F4F2417350748F04E0F5F1F50936D
:103B9000D6054093D505819391939FCFF0E0E0E067
:103BA0009CCFCF93DF930097E9F0FC01329713820B
:103BB0001282A091D705B091D805ED0130E020E048
:103BC0001097A1F420813181820F931F2091D50598
:103BD0003091D6052817390709F061C0F093D60552
:103BE000E093D505DF91CF910895EA01CE17DF0765
:103BF000E8F54A815B819E0141155105B1F7E90164
:103C0000FB83EA8349915991C40FD51FEC17FD0737
:103C100061F4808191810296840F951FE901998357
:103C20008883828193819B838A83F0E0E0E012960F
:103C30008D919C9113970097B9F52D913C91119717
:103C4000CD010296820F931F2091D5053091D605A4
:103C50002817390739F6309751F51092D805109288
:103C6000D705B093D605A093D505BCCFD383C28327
:103C700040815181840F951FC817D90761F44E5FA9
:103C80005F4F88819981480F591F518340838A81F2
:103C90009B81938382832115310509F0B0CFF09386
:103CA000D805E093D7059ECFFD01DC01C0CF13827C
:103CB0001282D7CFB0E0A0E0E0E6FEE10C94C91C90
:103CC0008C01009751F4CB010E94351D8C01C80175
:103CD000CDB7DEB7E0E10C94E51CFC01E60FF71F61
:103CE0009C0122503109E217F30708F49DC0D90165
:103CF000CD91DC911197C617D70798F0C530D10543
:103D000030F3CE0104978617970708F3C61BD70B2D
:103D10002297C193D1936D937C93CF010E94D11DC3
:103D2000D6CF5B01AC1ABD0A4C018C0E9D1EA09132
:103D3000D705B091D805512C412CF12CE12C1097CE
:103D400031F58091D5059091D6058815990509F032
:103D50005CC04616570608F058C080910801909143
:103D60000901009741F48DB79EB740910C01509125
:103D70000D01841B950BE817F90708F055C0F09367
:103D8000D605E093D505F90171836083A0CF8D91AD
:103D90009C91119712966C90129713967C901397A2
:103DA000A815B90559F56C0142E0C40ED11CCA141E
:103DB000DB0420F1AC014A195B09DA011296159770
:103DC00080F06282738251834083D9016D937C932A
:103DD000E114F10471F0D7011396FC93EE9312975E
:103DE00076CF22968C0F9D1FF90191838083F3017A
:103DF000EFCFF093D805E093D70569CF4816590661
:103E000008F42C017D01D3019ACFCB010E94351D0E
:103E10007C01009749F0AE01B8010E943E1FC80125
:103E20000E94D11D870153CF10E000E050CF0F93C7
:103E30001F93CF93DF938C01FC0101900020E9F7E1
:103E4000CF01801B910B0E94351DEC01009719F0EA
:103E5000B8010E945B1FCE01DF91CF911F910F919E
:103E60000895FB01DC0104C08D910190801921F4BB
:103E700041505040C8F7881B990B0895FB01DC01A5
:103E800002C001900D9241505040D8F70895FC01B6
:103E90008191861721F08823D9F7992708953197C2
:103EA000CF010895FB01DC018D9101908019011073
:103EB000D9F3990B0895FB01DC0101900D920020CC
:103EC000E1F70895FB01DC014150504048F00190BA
:103ED0000D920020C9F701C01D9241505040E0F7FB
:103EE0000895F894FFCFFFFFFFFF010000000000DE
:103EF000D9058000000040001400540000000000BC
:103F00002111BC012710BB0100000000C00CA30C54
:103F1000930C6A0C730CF60D2A0E000000005C0274
:103F2000BC01E901A9021A02F8010C02000000001C
:103F3000090CBC01030ABB01000000000B0FDE0EE0
:103F40002710B40ED70EC40EB50E4661696C6564B9
:103F500020696E697469616C697A696E672053447F
:103F600020636172640A002F0046696C65206F70DF
:103F7000656E696E67206661696C6564210A006E12
:103F80006F756E732E7478740050726573696F6EFE
:103F90006172006375616C717569657220626F741E
:103FA0006F6E004A756761646F7265733A0045739E
:103FB000706961733A0046696C6520726561646975
:103FC0006E67206661696C6564000D0A0045737058
:103FD0006961004A756761646F723A200069203D2B
:103FE000200070726573696F6E6172202D3E0070E3
:0A3FF000617261206F7472610000BD
:107E0000112484B714BE81FFF0D085E080938100F7
:107E100082E08093C00088E18093C10086E0809377
:107E2000C20080E18093C4008EE0C9D0259A86E02C
:107E300020E33CEF91E0309385002093840096BBD3
:107E4000B09BFECF1D9AA8958150A9F7CC24DD24C4
:107E500088248394B5E0AB2EA1E19A2EF3E0BF2EE7
:107E6000A2D0813461F49FD0082FAFD0023811F036
:107E7000013811F484E001C083E08DD089C08234E0
:107E800011F484E103C0853419F485E0A6D080C0E4
:107E9000853579F488D0E82EFF2485D0082F10E0AE
:107EA000102F00270E291F29000F111F8ED06801E7
:107EB0006FC0863521F484E090D080E0DECF843638
:107EC00009F040C070D06FD0082F6DD080E0C81688
:107ED00080E7D80618F4F601B7BEE895C0E0D1E017
:107EE00062D089930C17E1F7F0E0CF16F0E7DF06D8
:107EF00018F0F601B7BEE89568D007B600FCFDCFD4
:107F0000A601A0E0B1E02C9130E011968C91119780
:107F100090E0982F8827822B932B1296FA010C0160
:107F200087BEE89511244E5F5F4FF1E0A038BF0790
:107F300051F7F601A7BEE89507B600FCFDCF97BE46
:107F4000E89526C08437B1F42ED02DD0F82E2BD052
:107F50003CD0F601EF2C8F010F5F1F4F84911BD097
:107F6000EA94F801C1F70894C11CD11CFA94CF0C13
:107F7000D11C0EC0853739F428D08EE10CD085E9AC
:107F80000AD08FE07ACF813511F488E018D01DD067
:107F900080E101D065CF982F8091C00085FFFCCF94
:107FA0009093C60008958091C00087FFFCCF809118
:107FB000C00084FD01C0A8958091C6000895E0E648
:107FC000F0E098E1908380830895EDDF803219F02E
:107FD00088E0F5DFFFCF84E1DECF1F93182FE3DFCA
:107FE0001150E9F7F2DF1F91089580E0E8DFEE27F6
:047FF000FF270994CA
:027FFE00040479
:00000001FF
