:100000000C946A000C9492000C9492000C94920050
:100010000C9492000C9492000C9492000C94920018
:100020000C9492000C9492000C9492000C94920008
:100030000C9492000C9492000C9492000C949200F8
:100040000C9487150C9492000C94F7150C94D11510
:100050000C9492000C9492000C9492000C949200D8
:100060000C9429160C949200000000002400270034
:100070002A0000000000250028002B0000000000DE
:1000800023002600290004040404040404040202DA
:100090000202020203030303030301020408102007
:1000A0004080010204081020010204081020000012
:1000B0000008000201000003040700000000000027
:1000C00000007C3C3E5E2B3D3F2F5B5D3B2C2A229B
:1000D0005C000B1911241FBECFEFD8E0DEBFCDBFEF
:1000E00011E0A0E0B1E0EAE7F3E402C005900D9270
:1000F000A63FB107D9F725E0A6EFB1E001C01D92F8
:10010000AB3BB207E1F710E0CAE6D0E004C02197AC
:10011000FE010E94791FC936D107C9F70E945F19F5
:100120000C94BB210C940000833081F028F48130C2
:1001300099F08230A9F008958730A9F08830C9F08D
:100140008430B1F4809180008F7D03C08091800065
:100150008F7780938000089584B58F7784BD08954C
:1001600084B58F7DFBCF8091B0008F778093B000F6
:1001700008958091B0008F7DF9CFCF93DF93282F22
:1001800030E0F901E255FF4F8491F901E656FF4F47
:10019000D491F901EA57FF4FC491CC23A1F081110A
:1001A0000E949400EC2FF0E0EE0FFF1FE458FF4F89
:1001B000A591B491EC91ED2381E090E009F480E009
:1001C000DF91CF91089580E090E0FACF1F93CF9315
:1001D000DF93282F30E0F901E255FF4F8491F901B8
:1001E000E656FF4FD491F901EA57FF4FC491CC2353
:1001F000A9F0162F81110E949400EC2FF0E0EE0F71
:10020000FF1FEE58FF4FA591B4918FB7F894EC9172
:10021000111108C0D095DE23DC938FBFDF91CF9101
:100220001F910895DE2BF8CFCF93DF9390E0FC0170
:10023000E656FF4F24918A579F4FFC0184918823F3
:10024000D1F090E0880F991FFC01E859FF4FA5916C
:10025000B491FC01EE58FF4FC591D49161110EC0CD
:100260009FB7F8948C91E22FE0958E238C93288190
:10027000E223E8839FBFDF91CF9108958FB7F89471
:10028000EC91E22BEC938FBFF6CF3FB7F8948091BF
:10029000BC029091BD02A091BE02B091BF0226B5F2
:1002A000A89B05C02F3F19F00196A11DB11D3FBFAE
:1002B000BA2FA92F982F8827BC01CD01620F711D7D
:1002C000811D911D42E0660F771F881F991F4A9577
:1002D000D1F708958F929F92AF92BF92CF92DF9203
:1002E000EF92FF924B015C010E9445016B017C0182
:1002F0000E9445016C197D098E099F09683E734073
:1003000081059105A8F321E0821A9108A108B1089E
:1003100088EEC80E83E0D81EE11CF11C8114910404
:10032000A104B10429F7FF90EF90DF90CF90BF9028
:10033000AF909F908F9008952FB7F8946091B80276
:100340007091B9028091BA029091BB022FBF0895BB
:100350000895AF92BF92CF92DF92EF92FF920F93E8
:100360001F93CF93DF936C017B018B01040F151F4B
:10037000EB015E01AE18BF08C017D10759F06991B3
:10038000D601ED91FC910190F081E02DC601099517
:10039000892B79F7C501DF91CF911F910F91FF90C4
:1003A000EF90DF90CF90BF90AF900895FC01538DF8
:1003B000448D252F30E0842F90E0821B930B54173F
:1003C00010F0CF96089501970895FC01918D828DCC
:1003D000981761F0A28DAE0FBF2FB11D5D968C9165
:1003E000928D9F5F9F73928F90E008958FEF9FEFA4
:1003F0000895FC01918D828D981731F0828DE80F60
:10040000F11D858D90E008958FEF9FEF0895FC0119
:10041000918D228D892F90E0805C9F4F821B9109E6
:100420008F739927089583EC94E00E94070221E0DE
:10043000892B09F420E0822F089580E090E0892B39
:1004400029F00E94130281110C9400000895FC0110
:10045000A48DA80FB92FB11DA35ABF4F2C91848D25
:1004600090E001968F739927848FA689B7892C9382
:10047000A089B1898C91837080648C93938D848DD5
:10048000981306C00288F389E02D80818F7D8083D8
:100490000895EF92FF920F931F93CF93DF93EC0198
:1004A00081E0888F9B8D8C8D98131AC0E889F9891B
:1004B000808185FF15C09FB7F894EE89FF8960831E
:1004C000E889F98980818370806480839FBF81E09F
:1004D00090E0DF91CF911F910F91FF90EF900895E1
:1004E000F62E0B8D10E00F5F1F4F0F731127E02EBC
:1004F0008C8D8E110CC00FB607FCFACFE889F989F4
:10050000808185FFF5CFCE010E942702F1CFEB8DD0
:10051000EC0FFD2FF11DE35AFF4FF0829FB7F894C7
:100520000B8FEA89FB8980818062CFCFCF93DF93E5
:10053000EC01888D8823B9F0AA89BB89E889F989FB
:100540008C9185FD03C0808186FD0DC00FB607FC30
:10055000F7CF8C9185FFF2CF808185FFEDCFCE0163
:100560000E942702E9CFDF91CF9108958FB7F894C9
:100570008091B2028FBF089561E0FC0184810E94E6
:10058000E6008091B10281111092B10208958EBDF2
:1005900000000DB407FEFDCF8EB508958FEF0C94CB
:1005A000C7020F931F93CF93DF93EC010E949C012E
:1005B0008B010E94CE028F3F69F00E949C01601B5C
:1005C000710B6C177D07A8F380E0DF91CF911F912D
:1005D0000F91089581E0F9CF8CBD9DBD0895CF9313
:1005E000DF93EC018091B102811109C081E0809319
:1005F000B10280916005909161050E94EC0260E07B
:100600008C81DF91CF910C94E6008F929F92AF92F4
:10061000BF92FF920F931F93CF93DF93EC01F62EBF
:1006200049015A018E81882389F08F8198859C0128
:100630002F5F3F4F38872F838230924018F40E94FB
:10064000CE02F3CFCE010E94BC021E82CE010E94D8
:10065000EF028CE291E00E94D1028F2D80640E9413
:10066000C70208E110E0D501C401002E04C0B69510
:10067000A795979587950A94D2F70E94C7020850CC
:100680001109083F8FEF180771F785E9FF2021F066
:1006900028E087E8F2128FEF0E94C70210E00E9464
:1006A000CE028A8787FF04C01F3F11F01F5FF7CF7C
:1006B000DF91CF911F910F91FF90BF90AF909F90CE
:1006C0008F900895AF92BF92CF92DF92EF92FF92F8
:1006D0000F931F93CF93DF93EC016901C801820F41
:1006E000931F8130924050F58E81882379F0888164
:1006F0009981AA81BB8184179507A607B70731F4B2
:100700008F819885C816D90608F042C0488359835E
:100710006A837B838B85833039F089E0440F551FD2
:10072000661F771F8A95D1F79A01AB0161E1CE016F
:100730000E940503882389F083E08D83CE010E9407
:10074000BC0280E0DF91CF911F910F91FF90EF905D
:10075000DF90CF90BF90AF9008950E949C015B0105
:100760000E94CE028A878F3F69F40E949C016A1919
:100770007B096D327140A0F38FE08D83CE010E9422
:10078000BC02DCCF8E3F89F418861F8281E08E8305
:100790008F8198858C159D0550F40E94CE028F8123
:1007A0009885019698878F83F3CF8DE0E6CF670118
:1007B000E00EF11E0E94CE02F60181936F01EE154C
:1007C000FF05C1F78F819885080F191F18870F83C0
:1007D0008985882319F001151240A0F08E818823A5
:1007E00089F08F8198859C012F5F3F4F38872F8339
:1007F0008230924018F40E94CE02F3CFCE010E94C4
:10080000BC021E8281E09ECFCF92DF92EF92FF92D8
:100810000F93CF93DF93EC01690182E141155105FC
:100820006105710599F08B85833039F089E0440FBB
:10083000551F661F771F8A95D1F79A01AB0168E1B2
:10084000CE010E940503882319F084E08D832DC01A
:100850008EEF0E94C70276018EEFD81AF7018191C0
:100860007F010E94C702EC14FD04C1F78FEF0E94C4
:10087000C7028FEF0E94C7020E94CE028A878F7143
:10088000853071F4011116C0CE010E94BC0281E0D6
:10089000DF91CF910F91FF90EF90DF90CF9008956F
:1008A00081E18D83CE010E94BC02CE010E94BC0278
:1008B00080E0EECF88E592E00E94D102811102C073
:1008C00085E1C4CF20E030E0A9016DE0CE010E94B7
:1008D0000503882311F084E1B9CF0E94CE02811173
:1008E000FACFD2CF0F934091B3025091B4026091EE
:1008F000B5027091B602411551056105710599F077
:10090000082F23EC32E08091C0029091C1020E9436
:100910000404882349F01092B3021092B40210929A
:10092000B5021092B60281E00F9108950F93CF9314
:10093000C82F8091C202811105C0C1E08C2FCF91D8
:100940000F910895409100015091010160910201C1
:10095000709103010C2F23EC32E08091C002909142
:10096000C1020E940404811102C0C0E0E7CFCC2381
:1009700021F381E00E9472048823B9F31092C2022D
:10098000DDCF8F929F92AF92BF92EF92FF920F9323
:100990001F93CF934B015C01C42F80910001909174
:1009A0000101A0910201B091030188159905AA05E2
:1009B000BB0551F181E00E94960481110BC080E0DB
:1009C000CF911F910F91FF90EF90BF90AF909F90AC
:1009D0008F90089583ECE82E82E0F82E00E012E07C
:1009E00030E020E0B501A4018091C0029091C102E5
:1009F0000E946203882319F3809200019092010102
:100A0000A0920201B09203014091C2024C2B40938C
:100A1000C20281E0D5CF8F929F92AF92BF92CF92C8
:100A2000DF92EF92FF92CF9322E635E03093C1023E
:100A30002093C002882309F46DC040E060E070E0BC
:100A4000CB010E94C10481110BC080E0CF91FF90C7
:100A5000EF90DF90CF90BF90AF909F908F900895D0
:100A6000809181048F7789F780918D0490918E0415
:100A7000A0918F04B091900484369105A105B10531
:100A800020F3C0908904D0908A04E0908B04F09009
:100A90008C04C114D104E104F104B9F240E0C701AF
:100AA000B6010E94C104882381F28091CE02909108
:100AB000CF028115924049F6A091D302AA2329F2D0
:100AC0006091D1027091D2026115710509F4BDCF18
:100AD0002091D002222309F4B8CFA093800520935F
:100AE000720590E080E030E0E1E0F0E0C82FAF0177
:100AF000082E02C0440F551F0A94E2F72417350749
:100B000069F041E0480F01968930910579F74093EB
:100B10007B059BCFC12CD12C7601C0CF80937B0568
:100B20002091D9023091DA0250E040E021153105E0
:100B300041F42091E7023091E8024091E90250919E
:100B4000EA02209373053093740540937505509322
:100B5000760546015701860E971EA11CB11C809296
:100B6000810590928205A0928305B0928405E09160
:100B7000D402F091D502F0938705E0938605B0E0AA
:100B80000E94FE1EDC01CB01880D991DAA1DBB1D14
:100B90008093880590938905A0938A05B0938B056F
:100BA00025E0EE0FFF1F2A95E1F7E150FE4FEF2FF2
:100BB000FF27E6958E0F9F1FA11DB11D80937C0519
:100BC00090937D05A0937E05B0937F058090D6021B
:100BD0009090D702B12CA12C8114910441F4809003
:100BE000E3029090E402A090E502B090E602C81AF9
:100BF000D90AEA0AFB0AC80CD91CEA1CFB1C04C06F
:100C0000F694E794D794C794CA95D2F7C092770523
:100C1000D0927805E0927905F0927A0585EFC816B2
:100C20008FE0D806E104F10428F48CE08093850578
:100C300081E00CCF80E125EFC2162FEFD206E10450
:100C4000F104A0F38091EF029091F002A091F102E3
:100C5000B091F2028093880590938905A0938A054C
:100C6000B0938B0580E2E2CF4F925F926F927F92BA
:100C70008F929F92AF92BF92CF92DF92EF92FF92AC
:100C80000F931F93CF93DF93EC0142305105610521
:100C9000710590F480E0DF91CF911F910F91FF904B
:100CA000EF90DF90CF90BF90AF909F908F907F900C
:100CB0006F905F904F90089589859A85AB85BC852C
:100CC0000196A11DB11D84179507A607B70710F35C
:100CD000CB88DC88ED88FE888F89803109F042C09E
:100CE000BB27A72F962F852F480159012A013B01C9
:100CF000C80ED91EEA1EFB1E8091000190910101D1
:100D0000A0910201B0910301C816D906EA06FB06BC
:100D100099F58F898031C1F5B301A2015527662766
:100D20007727440F551F4D535D4FFA019182808202
:100D30008091C20281608093C2028A89823080F0F1
:100D40008D819E81AF81B8858C0D9D1DAE1DBF1D0F
:100D50008093B3029093B402A093B502B093B6020D
:100D600081E099CFDB01CA01E7E0B695A795979599
:100D70008795EA95D1F7B8CF40E0C701B6010E9448
:100D8000C1048111C6CF86CFB301A2014F77552789
:100D900066277727440F551F440F551F4D535D4F4E
:100DA000FA0180829182A282B382C2CF8F929F92F7
:100DB000AF92BF92CF92DF92EF92FF920F931F9369
:100DC000CF93DF93FC0181859285A385B48501963D
:100DD000A11DB11D84179507A607B70770F480E021
:100DE000DF91CF911F910F91FF90EF90DF90CF9007
:100DF000BF90AF909F908F90089583889488A58826
:100E0000B6888789803189F5BB27A72F962F852F34
:100E1000E9016A017B018F01BC01CD01680D791DDB
:100E20008A1D9B1D8090000190900101A0900201FD
:100E3000B090030186169706A806B90601F5F801D9
:100E40008789803111F5DD24EE24FF24F601EE0FB1
:100E5000FF1FED53FD4F80819181B0E0A0E08883BA
:100E60009983AA83BB8381E0BBCFDB01CA01C7E0C2
:100E7000B695A79597958795CA95D1F7C9CF40E0C4
:100E80000E94C1048111DBCFAACFE894C7F8DD240A
:100E9000EE24FF24F601EE0FFF1FEE0FFF1FED53B0
:100EA000FD4F80819181A281B381BF70D8CF4F92D5
:100EB0005F926F927F92AF92BF92CF92DF92EF924A
:100EC000FF920F931F93CF93DF9300D000D0CDB745
:100ED000DEB78C0149835A836B837C835901C12C13
:100EE000D12C7601412C82E0582E612C712C498145
:100EF0005A816B817C819E012F5F3F4FC8010E9408
:100F0000D606882339F1F8018585A301920104C032
:100F1000220F331F441F551F8A95D2F7DA01C901EA
:100F2000C80ED91EEA1EFB1E49815A816B817C8145
:100F30008789803111F188EF9FEFAFEFBFE048174D
:100F400059076A077B0798F2F501C082D182E282D5
:100F5000F38281E00F900F900F900F90DF91CF916F
:100F60001F910F91FF90EF90DF90CF90BF90AF90C7
:100F70007F906F905F904F90089588EF9FEFA0E073
:100F8000B0E0DDCFCF93DF93FC012581222321F058
:100F900080E0DF91CF910895EC018091850580314B
:100FA00059F582E08583178A108E118E128E8091FA
:100FB000860590918705B0E0A0E025E0880F991F95
:100FC000AA1FBB1F2A95D1F7838B948BA58BB68B59
:100FD0008EE695E09C8F8B8F81E08C831E821F8232
:100FE000188619861A861B861C861D861E861F86F5
:100FF000188A198A1A8ACDCF803251F683E0858308
:10100000409188055091890560918A0570918B0502
:10101000478B508F618F728F9F012D5E3F4F8EE601
:1010200095E00E9457078111D3CFB2CF8F929F9244
:10103000AF92BF92CF92DF92EF92FF920F931F93E6
:10104000CF93DF93EC018D8181110EC080E0DF91A1
:10105000CF911F910F91FF90EF90DF90CF90BF90B5
:10106000AF909F908F9008950B891C892D893E89A0
:10107000041715072607370748F34A015B0182303A
:1010800031F48A869B86AC86BD8681E0E0CF8114F0
:101090009104A104B10449F41E821F8218861986A6
:1010A0001A861B861C861D86F0CF0A851B852C851B
:1010B0003D85EB8DFC8D858590E00996B901A801F1
:1010C0004150510961097109082E04C07695679550
:1010D000579547950A94D2F775016401E1E0CE1A5D
:1010E000D108E108F10804C0F694E794D794C794B6
:1010F0008A95D2F7C416D506E606F70620F0012B2E
:10110000022B032B11F58F89988DA98DBA8D8E83B3
:101110009F83A887B9878E010A5F1F4FC114D1042E
:10112000E104F10409F4ADCF4E815F8168857985D2
:1011300098018B8D9C8D0E94D60691E0C91AD1082A
:10114000E108F1088111EACF81CFC41AD50AE60A75
:10115000F70AE1CF3F924F925F926F927F928F9208
:101160009F92AF92BF92CF92DF92EF92FF920F9336
:101170001F93CF93DF93CDB7DEB72C970FB6F894BC
:10118000DEBF0FBECDBF5C01DC015B968D909C90F5
:101190005C9716964D905D906D907C9019974114D8
:1011A00051046104710409F468C0BFEF4B1A5B0A73
:1011B0006B0A7B0A312CF40181859285A385B48565
:1011C0009C01AD012F5F3F4F4F4F5F4F29873A87FB
:1011D0004B875C87730162011D821E821F82188605
:1011E000F40181859285A385B4852D813E814F814F
:1011F0005885281739074A075B0708F056C08985C4
:101200009A85AB85BC858C159D05AE05BF0550F450
:1012100082E0C82ED12CE12CF12C92E0492E512CE9
:10122000612C712C9E012F5F3F4FB701A601C401B5
:101230000E94D6068823C9F189819A81AB81BC813D
:10124000892B8A2B8B2B09F1260137019FEF491A35
:10125000590A690A790A2D813E814F8158852F5F8D
:101260003F4F4F4F5F4F2D833E834F8358873FEF54
:10127000C31AD30AE30AF30AB3CFF40140805180C2
:10128000628073803324339496CFC414D504E6046B
:10129000F70409F70FEF1FEF2FEF3FE0B701A601AB
:1012A000C4010E943406811119C080E02C960FB64B
:1012B000F894DEBF0FBECDBFDF91CF911F910F918C
:1012C000FF90EF90DF90CF90BF90AF909F908F9066
:1012D0007F906F905F904F903F900895D501169644
:1012E0004D915D916D917C91199741155105610565
:1012F000710539F097018601C4010E9434068823E4
:10130000A1F2D5011696CD92DD92ED92FC9219973D
:10131000332051F0D701C6010196A11DB11DF40182
:1013200080839183A283B383F5018789908DA18DFA
:10133000B28D892B8A2B8B2B39F48481C78AD08E6E
:10134000E18EF28E80688483F501848180628483DB
:1013500081E0ACCF1F93CF93DF93FC012581222343
:10136000D1F1162FEC01848187FF2AC0668577852D
:101370008089918941E00E94C104882361F1EA8952
:1013800080E2E89FF0011124ED53FD4F309719F1F1
:101390008D81823040F48B899C89AD89BE89848F90
:1013A000958FA68FB78F8F89988D938F828F8F8916
:1013B000988DA98DBA8DB58BA48B8C818F778C83FA
:1013C000111103C08C818F7E8C83812FDF91CF918F
:1013D0001F910C94960480E0DF91CF911F910895A6
:1013E000FF920F931F93CF93DF93EC018D81813098
:1013F00041F090E080E0DF91CF911F910F91FF903D
:1014000008958C8181FFF5CF82FD1BC00091C00241
:101410001091C102C8010E94EF020E94CE02F82E74
:10142000C8010E94BC028FEFF812E3CF8C8185FFC8
:101430001BC060E0CE010E94AA098C818F7D8C8345
:10144000D8CF4B895C896D897E898A859B85AC85DF
:10145000BD8584179507A607B707C1F2CE010E9484
:1014600016088111D3CFC5CF4091B3025091B40279
:101470006091B5027091B602452B462B472B21F0A7
:1014800080E00E947204B5CF80618C832A853B8501
:10149000317080E092E0821B930BADCFCF93DF934E
:1014A000EC0161E00E94AA09882311F01D8281E00D
:1014B000DF91CF9108952F923F924F925F926F925A
:1014C0007F928F929F92AF92BF92CF92DF92EF92D4
:1014D000FF920F931F93CF93DF9300D000D01F9202
:1014E000CDB7DEB77C015B01342E5D83DC01159640
:1014F0008C911597813009F0CEC014962C9021FE66
:10150000CAC022FCB4C0C32CDD8022947FE0272215
:101510002094B22DB1702B2ED7011A964D915D916A
:101520006D917C911D97C114D10409F428C15B967B
:101530008D919C915C97FC0174807A948A019B0147
:1015400069E036952795179507956A95D1F770222A
:101550008A011170711020C001151105E9F4169669
:101560004D915D916D917C911997411551056105E2
:10157000710509F099C057968D919D910D90BC9180
:10158000A02D0097A105B10509F0B0C0C7010E94C8
:10159000AA08882309F47FC080E092E0801B910BA9
:1015A00046018C159D0508F44C01D7015B964D91C1
:1015B0005C915C9716968D919D910D90BC91A02D9C
:1015C0000297A109B109FA01258504C0880F991F66
:1015D000AA1FBB1F2A95D2F7468557856089718956
:1015E000840F951FA61FB71F9C01AD01270D311D4C
:1015F000411D511D29013A01811432E0930609F081
:101600007BC08091000190910101A0910201B091F5
:10161000030184159505A605B70559F48FEF9FEFD3
:10162000DC018093000190930101A0930201B0932B
:101630000301022D9501B301A2018091C002909196
:10164000C1020E940404882331F19EEFB91AC81820
:10165000D908F70182859385A485B585880D991DE4
:10166000A11DB11D82879387A487B58755CFF70148
:10167000438954896589768982859385A485B58552
:10168000481759076A077B0709F43DCFC7010E9435
:101690001608811138CF81E090E0D70113969C9312
:1016A0008E93129780E007C09E012F5F3F4F0E94EC
:1016B000D606811102C090E079C089819A81AB8100
:1016C000BC81F701238D348DF901278948EF5FEF45
:1016D00060E070E0203121F048EF5FEF6FEF7FE0D6
:1016E00084179507A607B70708F050CFF701868340
:1016F0009783A087B18750CF0115110599F5D701C0
:101700001A964D915D916D917C911D9753968D9197
:101710009D910D90BC91A02D481759076A077B0732
:1017200008F181E00E949604882309F4B4CF409226
:1017300000015092010160920201709203018091B8
:10174000C20281608093C202C8018D539D4FD501B2
:101750009C01280D391DFC012E173F0759F04D91B2
:101760004193FACF41E0C301B2010E94C10481114B
:10177000EBCF91CF281B390BA20EB31E68CFF70118
:1017800083899489A589B68984179507A607B70721
:1017900038F48481438B548B658B768B806884838B
:1017A000F701848183FD1AC0832D9D810F900F90D6
:1017B0000F900F900F90DF91CF911F910F91FF909D
:1017C000EF90DF90CF90BF90AF909F908F907F90E1
:1017D0006F905F904F903F902F90089561E0C70108
:1017E0000E94AA09882309F456CFDECFCF93DF9356
:1017F0001F92CDB7DEB7698341E050E0BE016F5F55
:101800007F4F0E945B0A0F90DF91CF910895FC01FA
:10181000818D928D009719F061E00C94AA090895CA
:10182000DC015996ED91FC913097B9F08389948948
:10183000A589B6894285538564857585841B950B7A
:10184000A60BB70B811520E89207A105B10538F06A
:101850008FEF9FE7A0E0B0E0089590E080E008956A
:10186000DC0159968D919C91009739F0DC01ED9146
:10187000FC910480F581E02D099490E080E00895CA
:10188000CF93DF93EC01E98DFA8D309749F481E035
:1018900090E09B838A8390E080E0DF91CF91089570
:1018A00013821282898D9A8D0E945B0AE98DFA8DCE
:1018B00022813381232B59F7F0CFCF93DF931F92EF
:1018C000CDB7DEB76983DC01ED91FC910280F38135
:1018D000E02D41E050E0BE016F5F7F4F09950F9012
:1018E000DF91CF9108952F923F924F925F926F9226
:1018F0007F928F929F92AF92BF92CF92DF92EF92A0
:10190000FF920F931F93CF93DF9300D01F92CDB719
:10191000DEB7FC018581811118C08FEF9FEF0F901A
:101920000F900F90DF91CF911F910F91FF90EF904B
:10193000DF90CF90BF90AF909F908F907F906F90EF
:101940005F904F903F902F900895848180FFE5CF66
:10195000438954896589768982859385A485B5856F
:10196000312C212C481759076A077B0719F02224CC
:101970002394312C6F012101CE0101963C01DF013E
:101980001696BB83AA834114510409F4C5C0F6011D
:1019900042855385648575854A01F1E09F22D60111
:1019A0005B968D919C915C978A019B01E9E036954D
:1019B000279517950795EA95D1F71596EC91E230A2
:1019C000E9F5FC01628D738D848D958D600F711F1B
:1019D000821F931FA12C22E0B22EA818B9084A1426
:1019E0005B0408F45201F601248126FD04C0A11411
:1019F000F2E0BF0671F40091000110910101209105
:101A0000020130910301061717072807390709F06B
:101A10005EC040E00E94C104882309F47ECFC40167
:101A20008D539D4FD3019C012A0D3B1DFC012E17A8
:101A30003F0709F46CC041914D93F9CFDC01149636
:101A4000BC90BA94B0228114910479F4B1100DC005
:101A5000452B462B472B69F5F6018789908DA18D83
:101A6000B28D86839783A087B187D6015B96ED916F
:101A7000FC915C9716966D917D918D919C91199733
:101A80006250710981099109258504C0660F771F8D
:101A9000881F991F2A95D2F70685178520893189D5
:101AA000600F711F821F931F6B0D711D811D911D92
:101AB00091CFD60116964D915D916D917C911997BC
:101AC0002A813B810E94D6068111CFCF26CF730198
:101AD00085019401AB01BC018091C0029091C102CB
:101AE0000E946203882309F418CF6A0C7B1CF6015C
:101AF00082859385A485B5858A0D9B1DA11DB11D89
:101B000082879387A487B5874A185B083CCF281B38
:101B1000390B620E731EEBCF2A94232809F0FDCEF9
:101B2000898190E0FCCEFC01818D928D009711F0AF
:101B30000C94730C8FEF9FEF08950F931F93CF9327
:101B4000DF93EC010E949C01688779878A879B87D5
:101B5000CE010E94930D97FF15C00E949C0108853D
:101B600019852A853B85601B710B820B930B0C81B9
:101B70001D812E813F81601771078207930740F313
:101B80008FEF9FEFDF91CF911F910F9108950F93EA
:101B90001F93CF93DF93EC01898D9A8D10E000E0C5
:101BA000009799F00E94730C8C010F3F100769F0A9
:101BB000898D9A8DFC0142855385648575854150D8
:101BC0005109610971090E941608C801DF91CF917E
:101BD0001F910F91089520916502260F3327331F1F
:101BE00021323105ECF420918B02FC0190E080E081
:101BF000243069F082E00895A09165022191AC0142
:101C00004D5B5D4FA40FB52FB11D2C930196861728
:101C100098F380916502680F6093650280E00895F3
:101C200081E0089510928B0281E080938D021092E2
:101C30008C0261E082E10E94E60061E083E10E94A3
:101C4000E600E9EBF0E080818E7F808380818D7FEC
:101C5000808388E48093B80085E48093BC00089575
:101C6000CF93DF9391E0909342028823B9F0C09123
:101C7000B800D091BA008091BC008A7B8093BC00F0
:101C800060E082E10E94E60060E083E10E94E600FD
:101C90000E94120ED093BA00C093B800DF91CF918A
:101CA0000895089508950895E0913A0280913902C7
:101CB000E81730F4F0E0E75EFD4F808190E0089592
:101CC0008FEF9FEF089590913A02809139022FEFA4
:101CD0003FEF981748F4E92FF0E0E75EFD4F2081D1
:101CE00030E09F5F90933A02C901089580913902D4
:101CF00090913A02891B990B0895CF92DF92EF924F
:101D0000FF920F931F93CF93DF937C01CB018A0146
:101D100020911802222389F0EB016B01C40ED51E1D
:101D2000CC15DD0569F06991D701ED91FC91019029
:101D3000F081E02DC7010995F3CF642F0E94EB0DD0
:101D4000C801DF91CF911F910F91FF90EF90DF902D
:101D5000CF900895CF93DF931F92CDB7DEB76983FD
:101D6000209118022223F9F020913B02203258F0F2
:101D700021E030E0FC013383228390E080E00F908B
:101D8000DF91CF91089580913C02E82FF0E0E85078
:101D9000FE4F998190838F5F80933C0280933B023A
:101DA00081E090E0ECCF61E0CE0101960E94EB0D66
:101DB000F7CFCF92DF92EF92FF920F931F93CF93C3
:101DC000DF93FC01C48121E020931802C093F70146
:101DD00010923C0210923B028385682B8BEA95E0BF
:101DE0000E94AA0ED0913B02D13208F092C00E940C
:101DF00045016B017C0180918B02811165C082E0FD
:101E000080938B0281E080938D028FEF80938A0212
:101E10001092AF02D093AE02A8EFB1E0EEE8F2E08C
:101E200080E0D81385C01092B0028091B002CC0F30
:101E3000C82BC093B00280918C02813009F07CC025
:101E400010928C020E9445016B017C018091B002CE
:101E50008093BB0080913E0290913F02A09140028E
:101E6000B0914102892B8A2B8B2B99F00E9445015E
:101E700000913E0210913F022091400230914102B8
:101E80006C197D098E099F0906171707280739075E
:101E9000E0F18091BC0083FDD9CF85EC8093BC003C
:101EA0000E9445016B017C0180918B02823009F414
:101EB00045C080918A028F3F61F180918A02803211
:101EC00041F180918A0225C080913E0290913F02AB
:101ED000A0914002B0914102892B8A2B8B2B09F4EF
:101EE0008ACF0E94450100913E0210913F0220914D
:101EF0004002309141026C197D098E099F09061735
:101F000017072807390708F076CF80913D020E9415
:101F1000300E10923C0210923B0210921802DF9198
:101F2000CF911F910F91FF90EF90DF90CF90089588
:101F30009D9191938F5F75CF85EEB0CF80913E02DA
:101F400090913F02A0914002B0914102892B8A2BCF
:101F50008B2B09F4A9CF0E94450100913E021091FC
:101F60003F0220914002309141026C197D098E0997
:101F70009F09061717072807390708F095CFC5CF1F
:101F800028E0FC01238760E00C94D90E90E080E00B
:101F90000895CF93DF9387E00E94BD00D0E0C0E0BA
:101FA000892B11F4C8E0D0E086E00E94BD00892BA7
:101FB000E1F090E080E0C82BD92B85E00E94BD00C5
:101FC000892BB1F090E080E0C82BD92B84E00E94EF
:101FD000BD0021E030E0892B11F030E020E0C901A4
:101FE0008C2B9D2BDF91CF91089584E090E0E3CF7F
:101FF00082E090E0E9CF0F931F93CF938C01C62F1F
:102000000E94D90E6C2F6460C8010E94D90E6C2FFB
:102010006B7FC8010E94D90E83EC90E00197F1F725
:10202000CF911F910F9108950F931F93CF93DF933B
:102030008C01D62FC42F607F642B0E94FB0F80E1A0
:10204000D89FB00111246C2BC801DF91CF911F9153
:102050000F910C94FB0F41E00E94141081E090E07E
:102060000895CF93DF93CDB7DEB728970FB6F894D6
:10207000DEBF0FBECDBF28E0EEE0F1E0DE0111963D
:1020800001900D922A95E1F7FC012085241708F4B0
:102090004FEF50E0440F551F21E030E02C0F3D1F63
:1020A000420F531FFA012081620F606840E02896BA
:1020B0000FB6F894DEBF0FBECDBFDF91CF910C9469
:1020C000141040E061E00E9414108BE39FE101973F
:1020D000F1F708950F931F93CF93DF93EC011092C4
:1020E0003A021092390210923C0210923B020E9476
:1020F000120E81E59EE0909364028093630282E574
:102100009EE090936802809367021D828A858230E8
:1021100010F098E09D83888762E370E080E090E0B3
:102120000E946A016B85CE010E94D90E68EE73E0B1
:1021300080E090E00E946A0160E3CE010E94FB0F04
:102140000BE416E4C8010197F1F760E3CE010E94A9
:10215000FB0FC8010197F1F760E3CE010E94FB0F6E
:1021600083E592E00197F1F760E2CE010E94FB0F58
:102170006D81606240E0CE010E94141084E08E8385
:1021800040E06CE0CE010E941410CE010E9461106C
:1021900082E08F8340E066E0CE010E94141040E0B0
:1021A00062E0CE010E9414108BE39FE10197F1F7EA
:1021B000DF91CF911F910F910895FC018081918152
:1021C000009711F00C941B2008950F931F93CF9349
:1021D000DF938C01F801C081D181209729F4DF9130
:1021E000CF911F910F9108958A819B81F80191836E
:1021F0008083888199810E941B20CE010E941B2030
:10220000E9CF0F931F93CF93DF938C01EB01FC0178
:10221000808191810097E1F0688179816115710574
:10222000A9F0428153812C813D814217530770F000
:102230000E94A5218C819D81F801958384831D8254
:102240001C82DF91CF911F910F9108950E941B2056
:1022500088819981F801918380838A819B8193830E
:1022600082838C819D8195838483198218821B824D
:102270001A82E5CF0F931F93CF93DF93EC018881F0
:102280009981009759F02A813B812617370730F052
:1022900081E0DF91CF911F910F9108958B016F5FC6
:1022A0007F4F0E94A420009759F0998388831B8355
:1022B0000A832C813D81232B59F7FC011082E8CF42
:1022C00080E0E7CFEF92FF920F931F93CF93DF93BE
:1022D000EC017B018A01BA010E943A1128813981FF
:1022E000811114C02115310519F0C9010E941B206C
:1022F000198218821D821C821B821A82CE01DF91F4
:10230000CF911F910F91FF90EF9008951D830C8343
:10231000B701C9010E94A521F1CFFC0111821082F1
:102320001382128215821482FB0101900020E9F7CA
:102330003197AF01461B570B0C9462118F929F92FD
:10234000AF92BF92EF92FF920F931F93CF93DF93C1
:10235000CDB7DEB7A1970FB6F894DEBF0FBECDBFE5
:102360007C01FA01CB0119A2223008F42AE08E0187
:102370000F5D1F4F822E912CB12CA12CBF01A50106
:1023800094010E94481FF901CA016A304CF5605D52
:10239000D8016E938D01232B242B252B79F790E008
:1023A00080E0109761F0FD0101900020E9F731977E
:1023B000AF014A1B5B0BBD01C7010E94A901A19699
:1023C0000FB6F894DEBF0FBECDBFDF91CF911F9146
:1023D0000F91FF90EF90BF90AF909F908F900895D6
:1023E000695CD6CFCF92DF92EF92FF92CF93DF93CB
:1023F00077FF1AC06A017B01EC0141E06DE20E94A7
:10240000141044275527BA014C195D096E097F093C
:102410002AE0CE010E949E110196DF91CF91FF909C
:10242000EF90DF90CF9008952AE0DF91CF91FF9059
:10243000EF90DF90CF900C949E11FB010190002053
:10244000E9F73197AF01461B570B0C94A90185EDB5
:102450008093BC0080913E0290913F02A091400287
:10246000B09141020796A11DB11D23E0B695A79535
:10247000979587952A95D1F72091BC0024FD03C03C
:1024800010928B02089540913E0250913F0260915C
:10249000400270914102452B462B472B69F3009770
:1024A000A105B10541F02AE22A95F1F700C0019794
:1024B000A109B109E1CF80913D020C94300E2F9219
:1024C0003F924F925F926F927F928F929F92AF92C4
:1024D000BF92CF92DF92EF92FF920F931F93CF9311
:1024E000DF93CDB7DEB72E970FB6F894DEBF0FBEE1
:1024F000CDBF8C017B012A014901DB015996ED9189
:10250000FC91309709F49EC08581882309F49AC014
:1025100061EF71E0CE0101960E948D11BFEF4B1A61
:102520005B0A052C000C66087708E1E04E1A51089A
:10253000610871080E94871EA30192010E94DF1E9C
:102540006F5F7F4F8F4F9F4F1B01B12CA12CA214A7
:10255000B304CCF561EF71E0CE0107960E948D11B6
:10256000C7010E949D0D97FD1FC08A309105E1F0C3
:102570008D871E86CB84DC84FFEFCF1ADF0AB6017D
:10258000CE0107960E943A11882351F32F81388596
:102590008B859C85BE01635F7F4F820F931F0E94D6
:1025A000A521DC86CB86DCCFBE01695F7F4FCE01E3
:1025B00001960E940111CE0107960E94DD108FEF57
:1025C000A81AB80AC4CFD70159968D919C9100974B
:1025D00029F040E050E0BA010E941608A980BA80B4
:1025E000F40130802180E32DF22DC280D380C1140C
:1025F000D10409F041C084E090E00E947F1F7C017B
:10260000892B79F0D70112963C92129713962C924F
:10261000C5010E946121F70191838083D401ED926D
:10262000FC92F801118210821382128215821482A8
:10263000BE016F5F7F4FC8010E940111CE0101965C
:102640000E94DD10C8012E960FB6F894DEBF0FBEB3
:10265000CDBFDF91CF911F910F91FF90EF90DF9051
:10266000CF90BF90AF909F908F907F906F905F9032
:102670004F903F902F900895B501808191810E94E5
:102680009C21F601892B09F0B0CF54CF2F923F92B5
:102690004F925F926F927F928F929F92AF92BF9272
:1026A000CF92DF92EF92FF920F931F93CF93DF931E
:1026B000CDB7DEB7C457D1090FB6F894DEBF0FBE51
:1026C000CDBF5C017B0180919105882321F08CE8CE
:1026D00095E00E944E0A10926D0510926B051092C3
:1026E0006805109267058AE0809366050E949C0148
:1026F0008B0161E0809166050E94140161E0809188
:1027000066050E94E600DFB6F8948091F60181111B
:1027100027C0E0E9F0E08491E4EAF0E09491E82F4A
:10272000F0E0EE0FFF1FE859FF4FA591B491EC9137
:10273000E92321F461E08AE00E94E60061E08AE09A
:102740000E9414018CB580618CBD8CB580648CBDF9
:1027500061E08DE00E94140161E08BE00E941401B1
:102760008091F6018F5F8093F601DFBE82E5809352
:1027700060051092610580916005909161050E944D
:10278000EC022AE0D22E8FEF0E94C702DA94D11019
:10279000FACF82E695E00E94EF0220E030E0A90146
:1027A00060E082E695E00E940503D82E80936C05D8
:1027B00081E0D81679F00E949C01601B710B613D8D
:1027C000774058F381E08093670582E695E00E94A8
:1027D000BC02FFCF2AEA31E040E050E068E082E648
:1027E00095E00E94050382FF2AC0D0926D0580917A
:1027F0006D05412C512C3201823029F4412C512C91
:10280000612C80E4782E20E030E0A90167E382E6C5
:1028100095E00E940503A301920169E282E695E03A
:102820000E94050380936C058823D1F00E949C01CF
:10283000601B710B613D774030F388E0C4CF94E0BA
:10284000D92E0E94CE0280936C05DA94D110F9CF74
:102850008A3A11F082E0B7CF82E080936D05C7CF4E
:1028600080916D058230D1F420E030E0A9016AE367
:1028700082E695E00E940503882311F086E0A3CF4D
:102880000E94CE02807C803C19F483E080936D0529
:102890000E94CE020E94CE020E94CE0282E695E005
:1028A0000E94BC0280E5809360051092610581E082
:1028B0000E940B05882339F08CE895E00E94C2073E
:1028C000811107C086CF80E00E940B058111F4CFF3
:1028D00080CFF7016080718019A218A28AE491E08C
:1028E0009F8F8E8F1BA21C821B829A8389831E82DC
:1028F0004E01FEE18F0E911CC4010E94C2076301CC
:102900008E010F5F1F4F240118016FE270E0C601B6
:102910000E949121009709F45EC0D6012C912F32BC
:1029200071F4BFEFCB1ADB0A902F812F8201492E61
:10293000582E942D852D2801092F182FE6CF8C199C
:102940008D3008F08CE0E82EF12CA701B601CE0105
:10295000885A9F4F0E94AC21E8E5F0E0EC0FFD1F84
:10296000EE0DFF1D1082C8010E944E0AF8018581FC
:10297000882311F11EAE1DAE8AE491E09CAF8BAFAF
:1029800021961FAE2197E596AEADBFADE5976A0ED5
:102990007B1EF301808181112BC0BE01655C7F4FDE
:1029A000C1010E94481744E651E0B101CE01885AA6
:1029B0009F4F0E94D61843C0AE01485A5F4FB201E4
:1029C000C8010E94F4178823A9F2CE0CDF1CC201B3
:1029D0000E944E0AAECFC60186199709E5969FAFB1
:1029E0008EAFE597B201CE01CB960E944817CBCFB0
:1029F00019A218A28AE491E09F8F8E8F1BA22196C4
:102A00008FAD2197811155C06C961FAE1EAE6C978D
:102A100088EE93E0A0E0B0E0A0968CAF9DAFAEAFA3
:102A2000BFAFA09786E291E06A969FAF8EAF6A979C
:102A3000E3961FAE1EAEE397A5961FAEA5976C96C4
:102A40008EAD9FAD6C97D50113969C938E93129784
:102A5000A0968CAD9DADAEADBFADA097F5018483C2
:102A60009583A683B783A4968CAD9DADAEADBFAD67
:102A7000A49780879187A287B3873C96A8E5B0E0AA
:102A8000AC0FBD1F1C96C50149962D9121938E1741
:102A90009F07D9F7E396EEADFFADE397D5015A96C0
:102AA000FC93EE935997309719F08581811115C0E9
:102AB000FFCFA301BE01655C7F4FC4010E94F417E4
:102AC000882309F4A1CFCE01CB960E944E0AB4010F
:102AD000C1010E944817A30168CFCC58DF4F0FB641
:102AE000F894DEBF0FBECDBFDF91CF911F910F9144
:102AF000FF90EF90DF90CF90BF90AF909F908F901E
:102B00007F906F905F904F903F902F9008951F920D
:102B10000F920FB60F9211242F933F938F939F9391
:102B2000AF93BF938091B8029091B902A091BA027D
:102B3000B091BB023091B70223E0230F2D3758F537
:102B40000196A11DB11D2093B7028093B802909306
:102B5000B902A093BA02B093BB028091BC029091DB
:102B6000BD02A091BE02B091BF020196A11DB11D90
:102B70008093BC029093BD02A093BE02B093BF02AB
:102B8000BF91AF919F918F913F912F910F900FBE69
:102B90000F901F90189526E8230F0296A11DB11DD6
:102BA000D2CF1F920F920FB60F9211242F933F9303
:102BB0004F935F936F937F938F939F93AF93BF9345
:102BC000EF93FF9383EC94E00E942702FF91EF9133
:102BD000BF91AF919F918F917F916F915F914F9135
:102BE0003F912F910F900FBE0F901F9018951F923D
:102BF0000F920FB60F9211242F938F939F93EF9301
:102C0000FF93E091D304F091D4048081E091D90442
:102C1000F091DA0482FD1BC090818091DC048F5F0B
:102C20008F732091DD04821741F0E091DC04F0E025
:102C3000ED53FB4F958F8093DC04FF91EF919F91B3
:102C40008F912F910F900FBE0F901F90189580813C
:102C5000F4CF1F920F920FB60F9211242F933F9330
:102C60004F935F936F937F938F939F93AF93BF9394
:102C7000EF93FF938091B900887F803609F44AC0B2
:102C8000F0F5883209F4A7C018F5803109F49BC02B
:102C9000B8F4882309F4F9C0883009F494C0FF918E
:102CA000EF91BF91AF919F918F917F916F915F91C4
:102CB0004F913F912F910F900FBE0F901F9018953D
:102CC000883109F488C0803251F780938A0214C099
:102CD000803409F49DC040F48033B9F38833F9F6A9
:102CE00080938A0285ECB0C0803509F485C08835B0
:102CF00009F496C0883499F60E942712D0CF8839FB
:102D000009F48CC038F5883729F050F4883611F072
:102D1000803729F683E080938B021092890257C096
:102D2000883809F47BC0803919F0803809F0B7CFB2
:102D300080918902803208F071C0E091890281E0BF
:102D40008E0F809389028091BB00F0E0E759FD4F20
:102D500080833DC0803B39F0E0F4803A09F479C0CB
:102D6000883A09F09CCF84E080938B02109266022F
:102D700010926502E0916302F091640209958091DE
:102D8000650281110FC081E08093650210924302B9
:102D900009C0803C09F4A6CF883C09F4A3CF883B46
:102DA00009F07DCFE091660281E08E0F809366028C
:102DB000F0E0ED5BFD4F80818093BB009091660257
:102DC0008091650229C08091B0028093BB0085ECA0
:102DD0008093BC0064CF9091AF028091AE029817AF
:102DE00058F5E091AF0281E08E0F8093AF02F0E0E2
:102DF000E257FD4F8081E9CFE091AF0281E08E0F75
:102E00008093AF028091BB00F0E0E257FD4F8083DA
:102E10009091AF028091AE029817C8F285E8D8CFA2
:102E2000E091AF0281E08E0F8093AF028091BB00F2
:102E3000F0E0E257FD4F808380918D0281115CCFDD
:102E400081E080938C0284EA8093BC0010928B0214
:102E500026CF85EC8093BC0010928B028091890272
:102E6000803230F4E0918902F0E0E759FD4F1082A2
:102E70006091890270E0E0916702F091680289E652
:102E800092E00995109289020ACF10928A0234CFFB
:102E9000FC01DB0112968D919C91139793838283A1
:102EA0008AE491E09183808314968C9114978483B3
:102EB00015968C911597858316964D915D916D9120
:102EC0007C91199746835783608771871A964D9135
:102ED0005D916D917C911D974287538764877587BB
:102EE0001E964D915D916D917C91519746875787C4
:102EF000608B718B52968C915297828B53964D9129
:102F00005D916D917C915697438B548B658B768B3D
:102F100057964D915D916D917C915A97478B508F4B
:102F2000618F728F5B968D919C91948F838F0895A2
:102F30000F931F93CF93DF93EC0180E2689FF00122
:102F40001124ED53FD4F6A8B809100019091010196
:102F5000A0910201B09103018E879F87A88BB98B46
:102F60000489158930E020E09801112700270F8B94
:102F7000188F298F3A8F828D938DB0E0A0E0AC013D
:102F8000BD01402B512B622B732B4F8B588F698FB8
:102F90007A8F83858871A9F4848D958DA68DB78DE0
:102FA0008B8B9C8BAD8BBE8B81E08D8381E08C8382
:102FB0001E821F82188619861A861B861C861D860D
:102FC00003C0803131F080E0DF91CF911F910F91EC
:102FD00008959E012D5E3F4F8B8D9C8D0E9457075B
:102FE000882389F384E0E1CFAF92BF92CF92DF9242
:102FF000EF92FF920F931F93CF93DF93CDB7DEB77E
:103000002B970FB6F894DEBF0FBECDBF6C01FE014B
:103010003196CE010C967F0120E22193E817F90743
:10302000E1F7DA0120E037E09D91B92E9923A9F16B
:103030009E32B9F43A3091F480E02B960FB6F894B2
:10304000DEBF0FBECDBFDF91CF911F910F91FF90DB
:10305000EF90DF90CF90BF90AF90089528E03AE0D6
:10306000E3CFE2ECF0E08491882321F031969813CD
:10307000FACFE2CF321700F38FED890F8E35E0F6ED
:103080008FE9890F8A3118F440EEB42EB90EF7019A
:10309000E20FF11DB0822F5FC7CF8981803261F2CC
:1030A0008B01FB01838D948DF601948F838FFB013F
:1030B000168217821086118612861386148615864C
:1030C000F80182859385A485B585438954896589EE
:1030D000768984179507A607B70708F0ADCF25E0D6
:1030E000B695A795979587952A95D1F7F82FFF70F4
:1030F000AF2EF8018581823008F49ECFC8010E946E
:10310000730C97FD99CFF80182859385A485B585C9
:103110004F96A11DB11D82879387A487B587F0E2E2
:10312000AF9EB00111246D537D4F6115710509F4F7
:1031300083CFFB018081882309F1853E19F4B1100A
:1031400032C01EC04BE050E0C7010E947B21892B9A
:1031500009F0B6CF6A2DC6012B960FB6F894DEBFE4
:103160000FBECDBFDF91CF911F910F91FF90EF90D8
:10317000DF90CF90BF90AF900C949817B1105CCFB8
:10318000F601A28A8091000190910101A0910201B3
:10319000B091030186879787A08BB18BFB0180815B
:1031A000882309F449CFBB24B3948ACFEF92FF92CE
:1031B0000F931F93CF93DF93EC017B018A011B8256
:1031C0001A8288EE93E0A0E0B0E08C839D83AE830A
:1031D000BF8386E291E0998388838DE190E00E942D
:1031E0007F1F9A8F898F009779F02DE1F701DC011D
:1031F00001900D922A95E1F74CE050E0B801CE0124
:103200000C960E94AC21188EDF91CF911F910F91E7
:10321000FF90EF900895E3ECF4E01382128288EEC1
:1032200093E0A0E0B0E084839583A683B78328E38E
:1032300031E03183208325EC30E03587248724EC8E
:1032400030E03787268720EC30E0318B208B21EC73
:1032500030E0338B228B22EC30E0358B248B26EC54
:1032600030E0378B268B118E128E138E148EE0E693
:10327000F5E020E520831182E2E6F5E01582168272
:103280001186138642E050E060E070E04487558785
:103290006687778713A215A614A62AE431E033A720
:1032A00022A717A6EBEAF5E01382128284839583A6
:1032B000A683B78386E591E0918380830895CF93B9
:1032C000DF93CDB7DEB7C056D1090FB6F894DEBF95
:1032D0000FBECDBF789484B5826084BD84B5816013
:1032E00084BD85B5826085BD85B5816085BD8091D1
:1032F0006E00816080936E00109281008091810049
:103300008260809381008091810081608093810040
:10331000809180008160809380008091B100846002
:103320008093B1008091B00081608093B000809163
:103330007A00846080937A0080917A008260809322
:103340007A0080917A00816080937A0080917A007F
:10335000806880937A001092C100E091D304F091CC
:10336000D40492E09083E091CF04F091D0041082D5
:10337000E091D104F091D20420E120831092DB048B
:10338000E091D704F091D80486E08083E091D504E1
:10339000F091D604808180618083E091D504F09122
:1033A000D604808188608083E091D504F091D604B2
:1033B000808180688083E091D504F091D60480817B
:1033C0008F7D80831AAE19AE4AE151E058AF4FAB02
:1033D00087E28BAF21962FAF219722969FAF22973E
:1033E00023961FAE2397CE01C7960E946A10CE0186
:1033F000C7960E94611061E08AE00E94140160E0BB
:1034000087E00E94140160E086E00E94140160E001
:1034100085E00E94140160E084E00E9414011F8E88
:103420001E8E38EEC32E33E0D32EE12CF12CC8A231
:10343000D9A2EAA2FBA206E211E01D8F0C8F1EAA00
:103440001DAA18A666E671E0CE0101960E948D11B4
:10345000BE016F5F7F4FCE014C960E944613CE0196
:1034600001960E94DD101C821B82CD82DE82EF82DB
:10347000F8861A8309831B8E1A8E1D868E010D5BBA
:103480001F4F60E771E0C8010E948D11B801CE01A5
:1034900001960E944613C8010E94DD10CE01C79616
:1034A0000E94C00F40E060E0CE01C7960E9431103C
:1034B0006AE771E0CE01C7960E941D1241E060E00C
:1034C000CE01C7960E94311063E871E0CE01C79625
:1034D0000E941D120E94C90F0097E1F383FF5FC095
:1034E00064EF71E080E090E00E946A01312C212CB1
:1034F0000E949C01611571058105910511F00E94E2
:10350000D61E21E02216310409F0BCC10E949C01A4
:10351000611571058105910511F00E94D61ECE013D
:10352000C7960E946110CE01C7960E94C00FC12CA1
:10353000D12C7601CE01C7960E94611040E060E078
:10354000CE01C7960E9431106DE871E0CE01C7969A
:103550000E941D1240E06DE0CE01C7960E9431101E
:103560002AE0B701A601CE01C7960E949E110E94D3
:10357000C90F0097E1F380FF1EC0ABE0CA16D1046B
:10358000E104F104C0F0BAE0CB1AD108E108F10877
:1035900064EF71E080E090E00E946A01CBCF82FF8F
:1035A00099CF64EF71E080E090E00E946A012224EC
:1035B0002394312C9DCF81FF0DC0EDEDCE16E3E0BD
:1035C000DE06E104F10430F4FAE0CF0ED11CE11C78
:1035D000F11CDECF82FFDCCF64EF71E080E090E091
:1035E0000E946A01CE01C7960E946110CE01C79663
:1035F0000E94C00F40E060E0CE01C7960E943110EB
:1036000065E971E0CE01C7960E941D1241E060E0BD
:10361000CE01C7960E94311062EA71E0CE01C796D2
:103620000E941D1290E080E0009719F40E94C90FDB
:10363000FBCF82FFF9CF64EF71E080E090E00E9461
:103640006A01A8EEB3E0A70196010E94FE1E4B019D
:103650005C0161EF71E0CE01875B9F4F0E948D118D
:10366000CE01C7960E946110CE01C7960E94C00F7E
:1036700061961FAE1EAE61970E949C012B013C011A
:10368000F12CE12C0E949C016419750986099709A7
:1036900086169706A806B90608F46CC00E949C011D
:1036A000CE01C7960E94C00FCE01C7960E9461103E
:1036B00040E060E0CE01C7960E9431106FEA71E0F1
:1036C000CE01C7960E941D1241E060E0CE01C79670
:1036D0000E9431100E94871E23EF31E040E050E04D
:1036E0000E94DF1E6F5F7F4F8F4F9F4F9E01215BB8
:1036F0003F4F60FF2EC04CE755E0BE01645E7F4F38
:10370000C8010E945F12B801CE01875B9F4F0E94E3
:103710000111C8010E94DD102F964EAD5FAD2F97AD
:103720002B966EAD7FAD2B97CE01C7960E94A90157
:103730000E94C90F0097E1F381FF11C064EF71E0AF
:1037400080E090E00E946A0181E090E0E80EF91EBE
:1037500099CF4AE854E0BE016F5F7F4FD1CF80FF21
:10376000E7CF64EF71E080E090E00E946A0190E0B2
:1037700080E0ECCFCE01815B9F4F0E94E510CE012F
:10378000875B9F4F0E94DD10CE01C7960E9461109B
:10379000CE01C7960E94C00F40E060E0CE01C79600
:1037A0000E94311068EB71E0CE01C7960E941D1295
:1037B00041E060E0CE01C7960E94311062EC71E0FA
:1037C000CE01C7960E941D1241E06AE0CE01C79665
:1037D0000E943110A701FF0C660B770BCE01C79634
:1037E0000E94F21190E080E0009719F40E94C90F46
:1037F000FBCF82FFF9CF64EF71E080E090E00E94A0
:103800006A01CE01C7960E946110CE01C7960E9440
:10381000C00F40E060E0CE01C7960E9431106BEC13
:1038200071E0CE01C7960E941D1241E06CE0CE010E
:10383000C7960E94311061ED71E0CE01C7960E94DB
:103840001D1290E080E0009719F40E94C90FFBCF91
:1038500082FF07C064EF71E080E090E00E946A019F
:10386000F8CE83FFF0CF64EF71E080E090E00E943B
:103870006A01CE01C7960E946110CE01C7960E94D0
:10388000C00F0CCECE01C7960E946A10CE01C7961B
:103890000E94C00F6D961FAE1EAE6D9761EF71E076
:1038A000CE018B5A9F4F0E948D11CE01C7960E9468
:1038B000C00F40E060E0CE01C7960E94311065ED78
:1038C00071E0CE01C7960E941D1292E0C92ED12C44
:1038D00040E06EE0CE01C7960E943110C6010D2C6B
:1038E000000CAA0BBB0BA1968CAF9DAFAEAFBFAFC8
:1038F000A197AC01BD01CE01C7960E94F2110E94B2
:10390000C90F0097E1F381FF0AC09FEFC91AD90AD6
:1039100064EF71E080E090E00E946A01D9CF80FFFF
:1039200008C0A2E0CA16D10421F0B1E0CB1AD10838
:10393000EFCF82FFEDCF64EF71E080E090E00E9476
:103940006A01CE01C7960E946110CE01C7960E94FF
:10395000C00F40E060E0CE01C7960E94311060EEDB
:1039600071E0CE01C7960E941D12AA24A394B12C27
:1039700040E06EE0CE01C7960E943110A5010B2CED
:10398000000C660B770BCE01C7960E94F2110E94C5
:10399000C90F0097E1F381FF0DC0AC14BD0454F4CE
:1039A000EFEFAE1ABE0A64EF71E080E090E00E9493
:1039B0006A01DECF80FF08C0F1E0AF16B10421F04C
:1039C00021E0A21AB108EFCF82FFEDCF64EF71E0E2
:1039D00080E090E00E946A010E949C0161157105DF
:1039E0008105910511F00E94D61E44244394CE0116
:1039F000C7960E946110CE01C7960E94C00F0E9418
:103A00009C01611571058105910511F00E94D61E7A
:103A1000C6010E947F1F4C01FC018C0D9D1D11925F
:103A20008E179F07E1F77101AE14BF04A9F00E9441
:103A3000871EA1962CAD3DAD4EAD5FADA1970E9406
:103A4000DF1EF401E60FF71F80818111EDCF408268
:103A50008FEFE81AF80AE8CF9E01255A3F4F4CE74E
:103A600055E0BE01645E7F4FCE01815B9F4F0E9497
:103A70005F122B961FAE1EAE2B972D961FAE1EAE5D
:103A80002D972F961FAE1EAE2F9761966EAD7FAD10
:103A900061976115710549F065964EAD5FAD65970B
:103AA000CE01875B9F4F0E946211CE01C7960E9494
:103AB000C00F7101512C0E94C90F0097E1F382FFE2
:103AC000B8C037019FEF691A790A5520C1F12596D0
:103AD0001FAE1EAE259727961FAE1EAE27972996BE
:103AE0001FAE1EAE29972B966EAD7FAD2B9761153D
:103AF000710539F02F964EAD5FAD2F97C8010E942A
:103B00006211F401EE0DFF1D8081882361F06DE7E5
:103B100071E0CE01C7960E941D12C8010E94DD10FF
:103B20007301512C32C0D80114964D915C911597B8
:103B30006D917C91CE01C7960E94A901EECFCE0176
:103B4000C7960E94611040E060E0CE01C7960E94D7
:103B5000311068EE71E0CE01C7960E941D1240E060
:103B60006BE0CE01C7960E943110A301770C660B63
:103B7000770BCE01C7960E94F21141E060E0CE01C2
:103B8000C7960E9431105524539464EF71E080E091
:103B900090E00E946A01EC14FD040CF48CCF64EFF9
:103BA00071E080E090E00E946A01CE01875B9F4F48
:103BB0000E94DD1064EF71E080E090E00E946A01F5
:103BC000CE01C7960E946110CE01C7960E94C00F19
:103BD0006BEC71E0CE01C7960E941D1241E06CE0D3
:103BE000CE01C7960E94311062EF71E0CE01C796F8
:103BF0000E941D120E94C90F0097E1F383FF2DC0A0
:103C000064EF71E080E090E00E946A01C4010E94CC
:103C10001B20CE01815B9F4F0E94DD10CE01855A93
:103C20009F4F0E94E510CE018B5A9F4F0E94DD10DE
:103C300020CE83FFAACFE114F10409F4A6CFCE0170
:103C4000C7960E946110B1E0EB16F10421F0E2E0AA
:103C5000EE1AF10866CF710164CF82FFCDCF64EF19
:103C600071E080E090E00E946A01CE01815B9F4F8D
:103C70000E94DD10BCCE8F929F92AF92BF92CF92E6
:103C8000DF92EF92FF92CF93DF93EC01688179810D
:103C90008A819B81611571058105910521F464E29A
:103CA00079ED8BE597E02DE133EF41E050E00E94A4
:103CB000DF1E49015A019B01AC01A7EAB1E40E9451
:103CC000FE1E6B017C01ACEEB4EFA50194010E94D5
:103CD0000C1FC60ED71EE81EF91EF7FE06C081E0B7
:103CE000C81AD108E10880E8F80AC882D982EA82B5
:103CF000FB82C701B6019F77DF91CF91FF90EF90D4
:103D0000DF90CF90BF90AF909F908F9008958F924B
:103D10009F92AF92BF92CF92DF92EF92FF9260910B
:103D200004017091050180910601909107016115D0
:103D300071058105910521F464E279ED8BE597E049
:103D40002DE133EF41E050E00E94DF1E49015A01AE
:103D50009B01AC01A7EAB1E40E94FE1E6B017C014D
:103D6000ACEEB4EFA50194010E940C1FC60ED71E45
:103D7000E81EF91EF7FE06C081E0C81AD108E10866
:103D800080E8F80AC0920401D0920501E092060191
:103D9000F0920701C701B6019F77FF90EF90DF9087
:103DA000CF90BF90AF909F908F9008956093040143
:103DB0007093050180930601909307010895052EE5
:103DC00097FB1EF400940E94F61E57FD07D00E9438
:103DD000481F07FC03D04EF40C94F61E50954095F6
:103DE000309521953F4F4F4F5F4F089590958095A7
:103DF000709561957F4F8F4F9F4F08950E946A1F66
:103E0000A59F900DB49F900DA49F800D911D11242E
:103E10000895B7FF0C94FE1E0E94FE1E821B930B9A
:103E200008952F923F924F925F926F927F928F925E
:103E30009F92AF92BF92CF92DF92EF92FF920F9339
:103E40001F93CF93DF93CDB7DEB7CA1BDB0B0FB643
:103E5000F894DEBF0FBECDBF09942A883988488800
:103E60005F846E847D848C849B84AA84B984C88496
:103E7000DF80EE80FD800C811B81AA81B981CE0F8D
:103E8000D11D0FB6F894DEBF0FBECDBFED01089572
:103E9000A1E21A2EAA1BBB1BFD010DC0AA1FBB1F4E
:103EA000EE1FFF1FA217B307E407F50720F0A21BC0
:103EB000B30BE40BF50B661F771F881F991F1A942D
:103EC00069F760957095809590959B01AC01BD0157
:103ED000CF010895A29FB001B39FC001A39F700DB1
:103EE000811D1124911DB29F700D811D1124911D02
:103EF0000895EE0FFF1F0590F491E02D09940F93A4
:103F00001F93CF93DF938230910510F482E090E00D
:103F1000E091B905F091BA0530E020E0B0E0A0E012
:103F2000309799F42115310509F44AC0281B390B43
:103F300024303105D8F58A819B816115710589F19D
:103F4000FB0193838283FE0111C040815181028174
:103F5000138148175907E0F04817590799F410974B
:103F600061F012960C93129713961C933296CF0120
:103F7000DF91CF911F910F9108950093B905109390
:103F8000BA05F4CF2115310551F04217530738F027
:103F9000A901DB019A01BD01DF01F801C1CFEF01E9
:103FA000F9CF9093BA058093B905CDCFFE01E20F0A
:103FB000F31F819391932250310939832883D7CFFE
:103FC0002091B7053091B805232B41F420910A01C7
:103FD00030910B013093B8052093B705209108016B
:103FE000309109012115310541F42DB73EB74091BB
:103FF0000C0150910D01241B350BE091B705F09198
:10400000B805E217F307A0F42E1B3F0B281739075A
:1040100078F0AC014E5F5F4F2417350748F04E0F24
:104020005F1F5093B8054093B705819391939FCF3D
:10403000F0E0E0E09CCFCF93DF930097E9F0FC0144
:10404000329713821282A091B905B091BA05ED01A1
:1040500030E020E01097A1F420813181820F931F7E
:104060002091B7053091B8052817390709F061C0CC
:10407000F093B805E093B705DF91CF910895EA0179
:10408000CE17DF07E8F54A815B819E014115510596
:10409000B1F7E901FB83EA8349915991C40FD51F18
:1040A000EC17FD0761F4808191810296840F951FC2
:1040B000E90199838883828193819B838A83F0E0DD
:1040C000E0E012968D919C9113970097B9F52D9190
:1040D0003C911197CD010296820F931F2091B70555
:1040E0003091B8052817390739F6309751F51092F5
:1040F000BA051092B905B093B805A093B705BCCF27
:10410000D383C28340815181840F951FC817D9077B
:1041100061F44E5F5F4F88819981480F591F518329
:1041200040838A819B81938382832115310509F025
:10413000B0CFF093BA05E093B9059ECFFD01DC0145
:10414000C0CF13821282D7CFB0E0A0E0EAEAF0E25B
:104150000C94131F8C01009751F4CB010E947F1F18
:104160008C01C801CDB7DEB7E0E10C942F1FFC0134
:10417000E60FF71F9C0122503109E217F30708F4FC
:104180009DC0D901CD91DC911197C617D70798F042
:10419000C530D10530F3CE0104978617970708F391
:1041A000C61BD70B2297C193D1936D937C93CF01FC
:1041B0000E941B20D6CF5B01AC1ABD0A4C018C0EAD
:1041C0009D1EA091B905B091BA05512C412CF12C3E
:1041D000E12C109731F58091B7059091B8058815BD
:1041E000990509F05CC04616570608F058C0809142
:1041F000080190910901009741F48DB79EB7409155
:104200000C0150910D01841B950BE817F90708F07C
:1042100055C0F093B805E093B705F9017183608349
:10422000A0CF8D919C91119712966C901297139636
:104230007C901397A815B90559F56C0142E0C40E9E
:10424000D11CCA14DB0420F1AC014A195B09DA0164
:104250001296159780F06282738251834083D90150
:104260006D937C93E114F10471F0D7011396FC93E4
:10427000EE93129776CF22968C0F9D1FF9019183B2
:104280008083F301EFCFF093BA05E093B90569CFCE
:104290004816590608F42C017D01D3019ACFCB01B1
:1042A0000E947F1F7C01009749F0AE01B8010E9477
:1042B0008821C8010E941B20870153CF10E000E035
:1042C00050CF0F931F93CF93DF938C01FC0101908C
:1042D0000020E9F7CF01801B910B0E947F1FEC01AA
:1042E000009719F0B8010E94A521CE01DF91CF916E
:1042F0001F910F910895FB01DC0104C08D91019085
:10430000801921F441505040C8F7881B990B08953B
:10431000FB01DC0102C001900D9241505040D8F7E2
:104320000895FC018191861721F08823D9F79927F8
:1043300008953197CF010895FB01DC018D91019023
:1043400080190110D9F3990B0895FB01DC0101904C
:104350000D920020E1F70895FB01DC01415050402F
:1043600048F001900D920020C9F701C01D92415004
:0A4370005040E0F70895F894FFCFE5
:10437A00FFFFFFFF010000000000BB0580000000F6
:10438A00400014005400000000002B10A901C60FC1
:10439A00A801000000005D0C400C300C070C100C4A
:1043AA00930DC70D000000004902A901D60196022B
:1043BA000702E501F90100000000F60BA901F00966
:1043CA00A80100000000AA0E7D0EC60F530E760E3D
:1043DA00630E540E2F006E6F756E732E7478740010
:1043EA0076657262732E747874003C2D2045737062
:1043FA006961002D3E20446967616C6F00546965EC
:10440A006D706F3A002B20706172612073756D6157
:10441A0072002D20706172612070617361720050A8
:10442A00616C616272613A00536520616361626F17
:10443A00210050756E74616A653A004F7472613F6B
:10444A00003B2D29004A756761646F7265733A00F3
:10445A004573706961733A004A756761646F723AAD
:06446A0020003A2D29009C
:00000001FF
