:100000000C946A000C9492000C9492000C94920050
:100010000C9492000C9492000C9492000C94920018
:100020000C9492000C9492000C9492000C94920008
:100030000C9492000C9492000C9492000C949200F8
:100040000C94BF150C9492000C942F160C94091666
:100050000C9492000C9492000C9492000C949200D8
:100060000C9461160C9492000000000024002700FC
:100070002A0000000000250028002B0000000000DE
:1000800023002600290004040404040404040202DA
:100090000202020203030303030301020408102007
:1000A0004080010204081020010204081020000012
:1000B0000008000201000003040700000000000027
:1000C00000007C3C3E5E2B3D3F2F5B5D3B2C2A229B
:1000D0005C00801711241FBECFEFD8E0DEBFCDBF7C
:1000E00012E0A0E0B1E0E0E0FFE302C005900D9275
:1000F000AA30B107D9F725E0AAE0B2E001C01D920D
:10010000AF3CB207E1F710E0CAE6D0E004C02197A7
:10011000FE010E943C1DC936D107C9F70E94D417C1
:100120000C947E1F0C94000080E480937C008091EE
:100130007A00806480937A0080917A0086FDFCCFFB
:1001400080917800909179000895833081F028F4AF
:10015000813099F08230A9F008958730A9F0883075
:10016000C9F08430B1F4809180008F7D03C080910C
:1001700080008F7780938000089584B58F7784BD49
:10018000089584B58F7DFBCF8091B0008F778093E9
:10019000B00008958091B0008F7DF9CFCF93DF93A9
:1001A000282F30E0F901E255FF4F8491F901E6561E
:1001B000FF4FD491F901EA57FF4FC491CC23A1F02E
:1001C00081110E94A500EC2FF0E0EE0FFF1FE45814
:1001D000FF4FA591B491EC91ED2381E090E009F4FB
:1001E00080E0DF91CF91089580E090E0FACF1F93F7
:1001F000CF93DF93282F30E0F901E255FF4F849130
:10020000F901E656FF4FD491F901EA57FF4FC49127
:10021000CC23A9F0162F81110E94A500EC2FF0E04D
:10022000EE0FFF1FEE58FF4FA591B4918FB7F894D2
:10023000EC91111108C0D095DE23DC938FBFDF91C4
:10024000CF911F910895DE2BF8CFCF93DF9390E0ED
:10025000FC01E656FF4F24918A579F4FFC01849181
:100260008823D1F090E0880F991FFC01E859FF4FD7
:10027000A591B491FC01EE58FF4FC591D491611145
:100280000EC09FB7F8948C91E22FE0958E238C934B
:100290002881E223E8839FBFDF91CF9108958FB734
:1002A000F894EC91E22BEC938FBFF6CF3FB7F89424
:1002B0008091D0029091D102A091D202B091D3024C
:1002C00026B5A89B05C02F3F19F00196A11DB11DB1
:1002D0003FBFBA2FA92F982F8827BC01CD01620FED
:1002E000711D811D911D42E0660F771F881F991FA8
:1002F0004A95D1F708958F929F92AF92BF92CF9275
:10030000DF92EF92FF924B015C010E9456016B015C
:100310007C010E9456016C197D098E099F09683E77
:10032000734081059105A8F321E0821A9108A10884
:10033000B10888EEC80E83E0D81EE11CF11C8114C0
:100340009104A104B10429F7FF90EF90DF90CF90C2
:10035000BF90AF909F908F9008952FB7F8946091C1
:10036000CC027091CD028091CE029091CF022FBF2E
:1003700008950895089508950895AF92BF92CF9279
:10038000DF92EF92FF920F931F93CF93DF936C0155
:100390007B018B01040F151FEB015E01AE18BF0836
:1003A000C017D10759F06991D601ED91FC910190E8
:1003B000F081E02DC6010995892B79F7C501DF9100
:1003C000CF911F910F91FF90EF90DF90CF90BF9052
:1003D000AF900895FC01538D448D252F30E0842F7C
:1003E00090E0821B930B541710F0CF96089501975D
:1003F0000895FC01918D828D981761F0A28DAE0F4A
:10040000BF2FB11D5D968C91928D9F5F9F73928FD0
:1004100090E008958FEF9FEF0895FC01918D828DFC
:10042000981731F0828DE80FF11D858D90E00895C9
:100430008FEF9FEF0895FC01918D228D892F90E021
:10044000805C9F4F821B91098F739927089587EDD8
:1004500094E00E941B0221E0892B09F420E0822F06
:10046000089580E090E0892B29F00E9427028111F5
:100470000C9400000895FC01A48DA80FB92FB11DA4
:10048000A35ABF4F2C91848D90E001968F739927CA
:10049000848FA689B7892C93A089B1898C918370A8
:1004A00080648C93938D848D981306C00288F389A1
:1004B000E02D80818F7D80830895EF92FF920F93CE
:1004C0001F93CF93DF93EC0181E0888F9B8D8C8D00
:1004D00098131AC0E889F989808185FF15C09FB7F4
:1004E000F894EE89FF896083E889F98980818370B7
:1004F000806480839FBF81E090E0DF91CF911F9166
:100500000F91FF90EF900895F62E0B8D10E00F5F86
:100510001F4F0F731127E02E8C8D8E110CC00FB65C
:1005200007FCFACFE889F989808185FFF5CFCE01F4
:100530000E943B02F1CFEB8DEC0FFD2FF11DE35A32
:10054000FF4FF0829FB7F8940B8FEA89FB89808177
:100550008062CFCFCF93DF93EC01888D8823B9F0F1
:10056000AA89BB89E889F9898C9185FD03C08081BE
:1005700086FD0DC00FB607FCF7CF8C9185FFF2CF3B
:10058000808185FFEDCFCE010E943B02E9CFDF9154
:10059000CF9108958FB7F8948091BE028FBF0895D0
:1005A00061E0FC0184810E94F7008091BD0281110D
:1005B0001092BD0208958EBD00000DB407FEFDCF60
:1005C0008EB508958FEF0C94DB020F931F93CF939A
:1005D000DF93EC010E94AD018B010E94E2028F3F8C
:1005E00069F00E94AD01601B710B6C177D07A8F3C9
:1005F00080E0DF91CF911F910F91089581E0F9CFB5
:100600008CBD9DBD0895CF93DF93EC018091BD0219
:10061000811109C081E08093BD02809174059091A1
:1006200075050E94000360E08C81DF91CF910C94EE
:10063000F7008F929F92AF92BF92FF920F931F93FA
:10064000CF93DF93EC01F62E49015A018E81882366
:1006500089F08F8198859C012F5F3F4F38872F83CA
:100660008230924018F40E94E202F3CFCE010E9441
:10067000D0021E82CE010E9403038CE291E00E9410
:10068000E5028F2D80640E94DB0208E110E0D501B5
:10069000C401002E04C0B695A795979587950A9436
:1006A000D2F70E94DB0208501109083F8FEF1807AC
:1006B00071F785E9FF2021F028E087E8F2128FEF3B
:1006C0000E94DB0210E00E94E2028A8787FF04C0DA
:1006D0001F3F11F01F5FF7CFDF91CF911F910F9157
:1006E000FF90BF90AF909F908F900895AF92BF9270
:1006F000CF92DF92EF92FF920F931F93CF93DF93EE
:10070000EC016901C801820F931F8130924050F5BE
:100710008E81882379F088819981AA81BB81841791
:100720009507A607B70731F48F819885C816D906B3
:1007300008F042C0488359836A837B838B8583306A
:1007400039F089E0440F551F661F771F8A95D1F74E
:100750009A01AB0161E1CE010E941903882389F05F
:1007600083E08D83CE010E94D00280E0DF91CF91A3
:100770001F910F91FF90EF90DF90CF90BF90AF90BF
:1007800008950E94AD015B010E94E2028A878F3FBB
:1007900069F40E94AD016A197B096D327140A0F3C2
:1007A0008FE08D83CE010E94D002DCCF8E3F89F492
:1007B00018861F8281E08E838F8198858C159D0518
:1007C00050F40E94E2028F819885019698878F836A
:1007D000F3CF8DE0E6CF6701E00EF11E0E94E2024A
:1007E000F60181936F01EE15FF05C1F78F819885A2
:1007F000080F191F18870F838985882319F00115A1
:100800001240A0F08E81882389F08F8198859C0109
:100810002F5F3F4F38872F838230924018F40E9419
:10082000E202F3CFCE010E94D0021E8281E09ECF71
:10083000CF92DF92EF92FF920F93CF93DF93EC0171
:10084000690182E1411551056105710599F08B85BA
:10085000833039F089E0440F551F661F771F8A9552
:10086000D1F79A01AB0168E1CE010E9419038823F8
:1008700019F084E08D832DC08EEF0E94DB0276019B
:100880008EEFD81AF70181917F010E94DB02EC14F0
:10089000FD04C1F78FEF0E94DB028FEF0E94DB02A5
:1008A0000E94E2028A878F71853071F4011116C0AF
:1008B000CE010E94D00281E0DF91CF910F91FF9095
:1008C000EF90DF90CF90089581E18D83CE010E945B
:1008D000D002CE010E94D00280E0EECF88E592E007
:1008E0000E94E502811102C085E1C4CF20E030E022
:1008F000A9016DE0CE010E941903882311F084E163
:10090000B9CF0E94E2028111FACFD2CF0F9340916A
:10091000BF025091C0026091C1027091C2024115A4
:1009200051056105710599F0082F27ED32E080919E
:10093000D4029091D5020E941804882349F01092A5
:10094000BF021092C0021092C1021092C20281E056
:100950000F9108950F93CF93C82F8091D6028111E4
:1009600005C0C1E08C2FCF910F91089540910001F7
:100970005091010160910201709103010C2F27ED4C
:1009800032E08091D4029091D5020E941804811126
:1009900002C0C0E0E7CFCC2321F381E00E948604AF
:1009A0008823B9F31092D602DDCF8F929F92AF9237
:1009B000BF92EF92FF920F931F93CF934B015C0175
:1009C000C42F8091000190910101A0910201B0918A
:1009D000030188159905AA05BB0551F181E00E9424
:1009E000AA0481110BC080E0CF911F910F91FF905D
:1009F000EF90BF90AF909F908F90089587EDE82E75
:100A000082E0F82E00E012E030E020E0B501A40121
:100A10008091D4029091D5020E947603882319F325
:100A20008092000190920101A0920201B092030114
:100A30004091D6024C2B4093D60281E0D5CF8F92C5
:100A40009F92AF92BF92CF92DF92EF92FF92CF939D
:100A500026E735E03093D5022093D402882309F4A9
:100A60006DC040E060E070E0CB010E94D5048111D0
:100A70000BC080E0CF91FF90EF90DF90CF90BF90C0
:100A8000AF909F908F900895809195048F7789F70C
:100A90008091A1049091A204A091A304B091A40418
:100AA00084369105A105B10520F3C0909D04D09036
:100AB0009E04E0909F04F090A004C114D104E104CE
:100AC000F104B9F240E0C701B6010E94D5048823C1
:100AD00081F28091E2029091E3028115924049F601
:100AE000A091E702AA2329F26091E5027091E60243
:100AF0006115710509F4BDCF2091E402222309F4A8
:100B0000B8CFA09394052093860590E080E030E074
:100B1000E1E0F0E0C82FAF01082E02C0440F551FDE
:100B20000A94E2F72417350769F041E0480F01966F
:100B30008930910579F740938F059BCFC12CD12C3B
:100B40007601C0CF80938F052091ED023091EE02A7
:100B500050E040E02115310541F42091FB02309135
:100B6000FC024091FD025091FE02209387053093D4
:100B700088054093890550938A0546015701860EE2
:100B8000971EA11CB11C8092950590929605A0928B
:100B90009705B0929805E091E802F091E902F09390
:100BA0009B05E0939A05B0E00E94C11CDC01CB01DB
:100BB000880D991DAA1DBB1D80939C0590939D05D2
:100BC000A0939E05B0939F0525E0EE0FFF1F2A9589
:100BD000E1F7E150FE4FEF2FFF27E6958E0F9F1FA5
:100BE000A11DB11D8093900590939105A09392054E
:100BF000B09393058090EA029090EB02B12CA12C67
:100C00008114910441F48090F7029090F802A09032
:100C1000F902B090FA02C81AD90AEA0AFB0AC80C0B
:100C2000D91CEA1CFB1C04C0F694E794D794C79423
:100C3000CA95D2F7C0928B05D0928C05E0928D05B3
:100C4000F0928E0585EFC8168FE0D806E104F10416
:100C500028F48CE08093990581E00CCF80E125EFAA
:100C6000C2162FEFD206E104F104A0F38091030332
:100C700090910403A0910503B091060380939C0515
:100C800090939D05A0939E05B0939F0580E2E2CFCF
:100C90004F925F926F927F928F929F92AF92BF928C
:100CA000CF92DF92EF92FF920F931F93CF93DF9338
:100CB000EC01423051056105710590F480E0DF914F
:100CC000CF911F910F91FF90EF90DF90CF90BF9049
:100CD000AF909F908F907F906F905F904F9008950E
:100CE00089859A85AB85BC850196A11DB11D8417A8
:100CF0009507A607B70710F3CB88DC88ED88FE8838
:100D00008F89803109F042C0BB27A72F962F852FEE
:100D1000480159012A013B01C80ED91EEA1EFB1EDB
:100D20008091000190910101A0910201B091030115
:100D3000C816D906EA06FB0699F58F898031C1F5F8
:100D4000B301A201552766277727440F551F495243
:100D50005D4FFA01918280828091D60281608093FA
:100D6000D6028A89823080F08D819E81AF81B885DC
:100D70008C0D9D1DAE1DBF1D8093BF029093C002C0
:100D8000A093C102B093C20281E099CFDB01CA01F6
:100D9000E7E0B695A79597958795EA95D1F7B8CFEF
:100DA00040E0C701B6010E94D5048111C6CF86CFAD
:100DB000B301A2014F77552766277727440F551FA8
:100DC000440F551F49525D4FFA0180829182A282E1
:100DD000B382C2CF8F929F92AF92BF92CF92DF9297
:100DE000EF92FF920F931F93CF93DF93FC018185C6
:100DF0009285A385B4850196A11DB11D8417950721
:100E0000A607B70770F480E0DF91CF911F910F9193
:100E1000FF90EF90DF90CF90BF90AF909F908F901A
:100E2000089583889488A588B6888789803189F554
:100E3000BB27A72F962F852FE9016A017B018F0120
:100E4000BC01CD01680D791D8A1D9B1D809000019C
:100E500090900101A0900201B090030186169706C0
:100E6000A806B90601F5F8018789803111F5DD245E
:100E7000EE24FF24F601EE0FFF1FE952FD4F8081A3
:100E80009181B0E0A0E088839983AA83BB8381E04D
:100E9000BBCFDB01CA01C7E0B695A79597958795AB
:100EA000CA95D1F7C9CF40E00E94D5048111DBCFAC
:100EB000AACFE894C7F8DD24EE24FF24F601EE0F54
:100EC000FF1FEE0FFF1FE952FD4F80819181A2812C
:100ED000B381BF70D8CF4F925F926F927F92AF92E3
:100EE000BF92CF92DF92EF92FF920F931F93CF9317
:100EF000DF9300D000D0CDB7DEB78C0149835A8391
:100F00006B837C835901C12CD12C7601412C82E06A
:100F1000582E612C712C49815A816B817C819E01F4
:100F20002F5F3F4FC8010E94EA06882339F1F8017C
:100F30008585A301920104C0220F331F441F551F52
:100F40008A95D2F7DA01C901C80ED91EEA1EFB1E26
:100F500049815A816B817C818789803111F188EFC9
:100F60009FEFAFEFBFE0481759076A077B0798F27A
:100F7000F501C082D182E282F38281E00F900F906E
:100F80000F900F90DF91CF911F910F91FF90EF90F5
:100F9000DF90CF90BF90AF907F906F905F904F9019
:100FA000089588EF9FEFA0E0B0E0DDCFCF93DF930F
:100FB000FC012581222321F080E0DF91CF9108956B
:100FC000EC0180919905803159F582E08583178A7B
:100FD000108E118E128E80919A0590919B05B0E033
:100FE000A0E025E0880F991FAA1FBB1F2A95D1F703
:100FF000838B948BA58BB68B82E895E09C8F8B8F2F
:1010000081E08C831E821F82188619861A861B86B1
:101010001C861D861E861F86188A198A1A8ACDCFBD
:10102000803251F683E0858340919C0550919D0567
:1010300060919E0570919F05478B508F618F728FD5
:101040009F012D5E3F4F82E895E00E946B07811162
:10105000D3CFB2CF8F929F92AF92BF92CF92DF92B7
:10106000EF92FF920F931F93CF93DF93EC018D814B
:1010700081110EC080E0DF91CF911F910F91FF9001
:10108000EF90DF90CF90BF90AF909F908F9008959A
:101090000B891C892D893E890417150726073707F8
:1010A00048F34A015B01823031F48A869B86AC8624
:1010B000BD8681E0E0CF81149104A104B10449F41C
:1010C0001E821F82188619861A861B861C861D861C
:1010D000F0CF0A851B852C853D85EB8DFC8D8585A4
:1010E00090E00996B901A8014150510961097109BF
:1010F000082E04C076956795579547950A94D2F7C0
:1011000075016401E1E0CE1AD108E108F10804C0DC
:10111000F694E794D794C7948A95D2F7C416D50667
:10112000E606F70620F0012B022B032B11F58F8921
:10113000988DA98DBA8D8E839F83A887B9878E01DC
:101140000A5F1F4FC114D104E104F10409F4ADCFCB
:101150004E815F816885798598018B8D9C8D0E9479
:10116000EA0691E0C91AD108E108F1088111EACF35
:1011700081CFC41AD50AE60AF70AE1CF3F924F920F
:101180005F926F927F928F929F92AF92BF92CF9217
:10119000DF92EF92FF920F931F93CF93DF93CDB720
:1011A000DEB72C970FB6F894DEBF0FBECDBF5C0143
:1011B000DC015B968D909C905C9716964D905D90AF
:1011C0006D907C901997411451046104710409F4E5
:1011D00068C0BFEF4B1A5B0A6B0A7B0A312CF40123
:1011E00081859285A385B4859C01AD012F5F3F4F1A
:1011F0004F4F5F4F29873A874B875C8773016201A6
:101200001D821E821F821886F40181859285A38526
:10121000B4852D813E814F815885281739074A07AB
:101220005B0708F056C089859A85AB85BC858C150F
:101230009D05AE05BF0550F482E0C82ED12CE12CEF
:10124000F12C92E0492E512C612C712C9E012F5FC4
:101250003F4FB701A601C4010E94EA068823C9F1E5
:1012600089819A81AB81BC81892B8A2B8B2B09F1D7
:10127000260137019FEF491A590A690A790A2D8117
:101280003E814F8158852F5F3F4F4F4F5F4F2D83DA
:101290003E834F8358873FEFC31AD30AE30AF30A0A
:1012A000B3CFF40140805180628073803324339443
:1012B00096CFC414D504E604F70409F70FEF1FEF27
:1012C0002FEF3FE0B701A601C4010E94480681113B
:1012D00019C080E02C960FB6F894DEBF0FBECDBFCC
:1012E000DF91CF911F910F91FF90EF90DF90CF9002
:1012F000BF90AF909F908F907F906F905F904F9036
:101300003F900895D50116964D915D916D917C9118
:101310001997411551056105710539F0970186014D
:10132000C4010E9448068823A1F2D5011696CD92E9
:10133000DD92ED92FC921997332051F0D701C6014E
:101340000196A11DB11DF40180839183A283B38313
:10135000F5018789908DA18DB28D892B8A2B8B2BDE
:1013600039F48481C78AD08EE18EF28E80688483BE
:10137000F50184818062848381E0ACCF1F93CF9399
:10138000DF93FC0125812223D1F1162FEC0184810A
:1013900087FF2AC0668577858089918941E00E9410
:1013A000D504882361F1EA8980E2E89FF0011124E5
:1013B000E952FD4F309719F18D81823040F48B89CD
:1013C0009C89AD89BE89848F958FA68FB78F8F89B1
:1013D000988D938F828F8F89988DA98DBA8DB58BBB
:1013E000A48B8C818F778C83111103C08C818F7EAD
:1013F0008C83812FDF91CF911F910C94AA0480E000
:10140000DF91CF911F910895FF920F931F93CF9378
:10141000DF93EC018D81813041F090E080E0DF913D
:10142000CF911F910F91FF9008958C8181FFF5CF8F
:1014300082FD1BC00091D4021091D502C8010E9408
:1014400003030E94E202F82EC8010E94D0028FEF2F
:10145000F812E3CF8C8185FF1BC060E0CE010E94B3
:10146000BE098C818F7D8C83D8CF4B895C896D8937
:101470007E898A859B85AC85BD8584179507A607DF
:10148000B707C1F2CE010E942A088111D3CFC5CF80
:101490004091BF025091C0026091C1027091C2029E
:1014A000452B462B472B21F080E00E948604B5CFC8
:1014B00080618C832A853B85317080E092E0821BBD
:1014C000930BADCFCF93DF93EC0161E00E94BE0997
:1014D000882311F01D8281E0DF91CF9108952F9232
:1014E0003F924F925F926F927F928F929F92AF92B4
:1014F000BF92CF92DF92EF92FF920F931F93CF9301
:10150000DF9300D000D01F92CDB7DEB77C015B0126
:10151000342E5D83DC0115968C911597813009F08E
:10152000CEC014962C9021FECAC022FCB4C0C32C9D
:10153000DD8022947FE027222094B22DB1702B2EE3
:10154000D7011A964D915D916D917C911D97C114B3
:10155000D10409F428C15B968D919C915C97FC01A4
:1015600074807A948A019B0169E0369527951795D6
:1015700007956A95D1F770228A011170711020C009
:1015800001151105E9F416964D915D916D917C91CF
:101590001997411551056105710509F099C05796D4
:1015A0008D919D910D90BC91A02D0097A105B10545
:1015B00009F0B0C0C7010E94BE08882309F47FC0AB
:1015C00080E092E0801B910B46018C159D0508F48C
:1015D0004C01D7015B964D915C915C9716968D916D
:1015E0009D910D90BC91A02D0297A109B109FA011E
:1015F000258504C0880F991FAA1FBB1F2A95D2F703
:101600004685578560897189840F951FA61FB71F6E
:101610009C01AD01270D311D411D511D29013A01CC
:10162000811432E0930609F07BC080910001909113
:101630000101A0910201B091030184159505A60551
:10164000B70559F48FEF9FEFDC0180930001909371
:101650000101A0930201B0930301022D9501B30192
:10166000A2018091D4029091D5020E94180488238F
:1016700031F19EEFB91AC818D908F7018285938510
:10168000A485B585880D991DA11DB11D82879387FD
:10169000A487B58755CFF701438954896589768931
:1016A00082859385A485B585481759076A077B0706
:1016B00009F43DCFC7010E942A08811138CF81E08B
:1016C00090E0D70113969C938E93129780E007C009
:1016D0009E012F5F3F4F0E94EA06811102C090E0F9
:1016E00079C089819A81AB81BC81F701238D348DCA
:1016F000F901278948EF5FEF60E070E0203121F0C9
:1017000048EF5FEF6FEF7FE084179507A607B707F5
:1017100008F050CFF70186839783A087B18750CF19
:101720000115110599F5D7011A964D915D916D91AD
:101730007C911D9753968D919D910D90BC91A02DFC
:10174000481759076A077B0708F181E00E94AA043D
:10175000882309F4B4CF40920001509201016092B5
:101760000201709203018091D60281608093D602BB
:10177000C80189529D4FD5019C01280D391DFC01DE
:101780002E173F0759F04D914193FACF41E0C30125
:10179000B2010E94D5048111EBCF91CF281B390BE8
:1017A000A20EB31E68CFF70183899489A589B689F3
:1017B00084179507A607B70738F48481438B548BA9
:1017C000658B768B80688483F701848183FD1AC0E2
:1017D000832D9D810F900F900F900F900F90DF91B0
:1017E000CF911F910F91FF90EF90DF90CF90BF901E
:1017F000AF909F908F907F906F905F904F903F90B1
:101800002F90089561E0C7010E94BE09882309F462
:1018100056CFDECFCF93DF931F92CDB7DEB769836C
:1018200041E050E0BE016F5F7F4F0E946F0A0F9052
:10183000DF91CF910895FC01DB0112968D919C916F
:101840001397938382838AE491E091838083149633
:101850008C911497848315968C9115978583169691
:101860004D915D916D917C91199746835783608767
:1018700071871A964D915D916D917C911D9742876C
:101880005387648775871E964D915D916D917C910C
:10189000519746875787608B718B52968C915297E0
:1018A000828B53964D915D916D917C915697438BB0
:1018B000548B658B768B57964D915D916D917C9194
:1018C0005A97478B508F618F728F5B968D919C9149
:1018D000948F838F0895FC01818D928D009719F06C
:1018E00061E00C94BE090895DC015996ED91FC91DC
:1018F0003097B9F083899489A589B6894285538543
:1019000064857585841B950BA60BB70B811520E8A4
:101910009207A105B10538F08FEF9FE7A0E0B0E096
:10192000089590E080E00895DC0159968D919C9196
:10193000009739F0DC01ED91FC910480F581E02DF8
:10194000099490E080E00895CF93DF93EC01E98D56
:10195000FA8D309749F481E090E09B838A8390E090
:1019600080E0DF91CF91089513821282898D9A8D44
:101970000E946F0AE98DFA8D22813381232B59F75A
:10198000F0CFCF93DF931F92CDB7DEB76983DC0131
:10199000ED91FC910280F381E02D41E050E0BE0129
:1019A0006F5F7F4F09950F90DF91CF9108952F9230
:1019B0003F924F925F926F927F928F929F92AF92DF
:1019C000BF92CF92DF92EF92FF920F931F93CF932C
:1019D000DF9300D01F92CDB7DEB7FC018581811166
:1019E00018C08FEF9FEF0F900F900F90DF91CF9166
:1019F0001F910F91FF90EF90DF90CF90BF90AF902D
:101A00009F908F907F906F905F904F903F902F901E
:101A10000895848180FFE5CF43895489658976895B
:101A200082859385A485B585312C212C48175907CB
:101A30006A077B0719F022242394312C6F012101BE
:101A4000CE0101963C01DF011696BB83AA834114A7
:101A5000510409F4C5C0F601428553856485758536
:101A60004A01F1E09F22D6015B968D919C915C9793
:101A70008A019B01E9E03695279517950795EA9528
:101A8000D1F71596EC91E230E9F5FC01628D738D8A
:101A9000848D958D600F711F821F931FA12C22E0F2
:101AA000B22EA818B9084A145B0408F45201F601D2
:101AB000248126FD04C0A114F2E0BF0671F4009158
:101AC00000011091010120910201309103010617DC
:101AD00017072807390709F05EC040E00E94D504C7
:101AE000882309F47ECFC40189529D4FD3019C0104
:101AF0002A0D3B1DFC012E173F0709F46CC04191D4
:101B00004D93F9CFDC011496BC90BA94B0228114A5
:101B1000910479F4B1100DC0452B462B472B69F584
:101B2000F6018789908DA18DB28D86839783A087DA
:101B3000B187D6015B96ED91FC915C9716966D91FD
:101B40007D918D919C91199762507109810991093C
:101B5000258504C0660F771F881F991F2A95D2F725
:101B60000685178520893189600F711F821F931F99
:101B70006B0D711D811D911D91CFD60116964D9152
:101B80005D916D917C9119972A813B810E94EA06B3
:101B90008111CFCF26CF730185019401AB01BC0128
:101BA0008091D4029091D5020E947603882309F493
:101BB00018CF6A0C7B1CF60182859385A485B585B8
:101BC0008A0D9B1DA11DB11D82879387A487B587B0
:101BD0004A185B083CCF281B390B620E731EEBCFF3
:101BE0002A94232809F0FDCE898190E0FCCEFC01E7
:101BF000818D928D009711F00C94D70C8FEF9FEF91
:101C000008950F931F93CF93DF93EC010E94AD01D2
:101C1000688779878A879B87CE010E94F70D97FF97
:101C200015C00E94AD01088519852A853B85601B7A
:101C3000710B820B930B0C811D812E813F816017EC
:101C400071078207930740F38FEF9FEFDF91CF91EA
:101C50001F910F9108950F931F93CF93DF93EC0182
:101C6000898D9A8D10E000E0009799F00E94D70CC2
:101C70008C010F3F100769F0898D9A8DFC01428518
:101C800053856485758541505109610971090E9428
:101C90002A08C801DF91CF911F910F9108952091DB
:101CA0007302260F3327331F21323105ECF42091C4
:101CB0009702FC0190E080E0243069F082E0089512
:101CC000A09173022191AC014D5A5D4FA40FB52F25
:101CD000B11D2C930196861798F380917302680FBB
:101CE0006093730280E0089581E008951092970256
:101CF00081E0809399021092980261E082E10E9453
:101D0000F70061E083E10E94F700E9EBF0E08081F9
:101D10008E7F808380818D7F808388E48093B8006C
:101D200085E48093BC000895CF93DF9391E0909376
:101D300052028823B9F0C091B800D091BA008091C6
:101D4000BC008A7B8093BC0060E082E10E94F700C7
:101D500060E083E10E94F7000E94760ED093BA0003
:101D6000C093B800DF91CF910895E091CA028091AD
:101D7000C902E81730F4F0E0E35DFD4F808190E0A8
:101D800008958FEF9FEF08959091CA028091C90244
:101D90002FEF3FEF981748F4E92FF0E0E35DFD4F98
:101DA000208130E09F5F9093CA02C901089580911D
:101DB000C9029091CA02891B990B0895CF92DF92B4
:101DC000EF92FF920F931F93CF93DF937C01CB0190
:101DD0008A0120912C02222389F0EB016B01C40EB1
:101DE000D51ECC15DD0569F06991D701ED91FC9107
:101DF0000190F081E02DC7010995F3CF642F0E9477
:101E00004F0EC801DF91CF911F910F91FF90EF907E
:101E1000DF90CF900895CF93DF931F92CDB7DEB7B9
:101E2000698320912C022223F9F02091C7022032ED
:101E300058F021E030E0FC013383228390E080E021
:101E40000F90DF91CF9108958091C802E82FF0E0C4
:101E5000E45FFD4F998190838F5F8093C8028093E8
:101E6000C70281E090E0ECCF61E0CE0101960E94D4
:101E70004F0EF7CFCF92DF92EF92FF920F931F9307
:101E8000CF93DF93FC01C48121E020932C02C09307
:101E90000B021092C8021092C7028385682B8FEB49
:101EA00095E00E940B0FD091C702D13208F092C08A
:101EB0000E9456016B017C0180919702811165C0DF
:101EC00082E08093970281E0809399028FEF809364
:101ED00096021092BB02D093BA02ACE0B2E0EAE9FB
:101EE000F2E080E0D81385C01092BC028091BC0261
:101EF000CC0FC82BC093BC0280919802813009F0AE
:101F00007CC0109298020E9456016B017C01809166
:101F1000BC028093BB0080914E0290914F02A09131
:101F20005002B0915102892B8A2B8B2B99F00E9481
:101F3000560100914E0210914F02209150023091B3
:101F400051026C197D098E099F090617170728078A
:101F50003907E0F18091BC0083FDD9CF85EC8093F7
:101F6000BC000E9456016B017C0180919702823077
:101F700009F445C0809196028F3F61F180919602ED
:101F8000803241F18091960225C080914E0290915D
:101F90004F02A0915002B0915102892B8A2B8B2BBA
:101FA00009F48ACF0E94560100914E0210914F020F
:101FB00020915002309151026C197D098E099F09C0
:101FC000061717072807390708F076CF80914D02CA
:101FD0000E94940E1092C8021092C70210922C0216
:101FE000DF91CF911F910F91FF90EF90DF90CF90F5
:101FF00008959D9191938F5F75CF85EEB0CF8091BD
:102000004E0290914F02A0915002B0915102892B43
:102010008A2B8B2B09F4A9CF0E94560100914E0206
:1020200010914F0220915002309151026C197D099C
:102030008E099F09061717072807390708F095CF5B
:10204000C5CF28E0FC01238760E00C943A0F90E0B4
:1020500080E00895CF93DF9387E00E94CE00D0E028
:10206000C0E0892B11F4C8E0D0E086E00E94CE00E9
:10207000892BE1F090E080E0C82BD92B85E00E940D
:10208000CE00892BB1F090E080E0C82BD92B84E002
:102090000E94CE0021E030E0892B11F030E020E0FA
:1020A000C9018C2B9D2BDF91CF91089584E090E0A6
:1020B000E3CF82E090E0E9CF0F931F93CF93DF93BC
:1020C000EC0180E2689FF0011124E952FD4F6A8B18
:1020D0008091000190910101A0910201B091030152
:1020E0008E879F87A88BB98B0489158930E020E003
:1020F0009801112700270F8B188F298F3A8F828D17
:10210000938DB0E0A0E0AC01BD01402B512B622BC0
:10211000732B4F8B588F698F7A8F83858871A9F4C1
:10212000848D958DA68DB78D8B8B9C8BAD8BBE8B47
:1021300081E08D8381E08C831E821F821886198640
:102140001A861B861C861D8603C0803131F080E014
:10215000DF91CF911F910F9108959E012D5E3F4F0A
:102160008B8D9C8D0E946B07882389F384E0E1CFDF
:102170000F931F93CF938C01C62F0E943A0F6C2FA1
:102180006460C8010E943A0F6C2F6B7FC8010E94E7
:102190003A0F83EC90E00197F1F7CF911F910F91E7
:1021A00008950F931F93CF93DF938C01D62FC42FE5
:1021B000607F642B0E94B81080E1D89FB001112489
:1021C0006C2BC801DF91CF911F910F910C94B81027
:1021D000CF93DF93CDB7DEB728970FB6F894DEBF65
:1021E0000FBECDBF28E0EEE0F1E0DE0111960190D8
:1021F0000D922A95E1F7FC012085241708F44FEF92
:1022000050E0440F551F21E030E02C0F3D1F420FDE
:10221000531FFA012081620F606840E028960FB6D4
:10222000F894DEBF0FBECDBFDF91CF910C94D110DB
:1022300040E061E00E94D1108BE39FE10197F1F74C
:10224000089541E00E94D11081E090E00895AF929E
:10225000BF92CF92DF92EF92FF920F931F93CF9393
:10226000DF93CDB7DEB72B970FB6F894DEBF0FBE66
:10227000CDBF6C01FE013196CE010C967F0120E2AC
:102280002193E817F907E1F7DA0120E037E09D91A3
:10229000B92E9923A9F19E32B9F43A3091F480E035
:1022A0002B960FB6F894DEBF0FBECDBFDF91CF9156
:1022B0001F910F91FF90EF90DF90CF90BF90AF9064
:1022C000089528E03AE0E3CFE2ECF0E0849188233F
:1022D00021F031969813FACFE2CF321700F38FED49
:1022E000890F8E35E0F68FE9890F8A3118F440EEB8
:1022F000B42EB90EF701E20FF11DB0822F5FC7CFE8
:102300008981803261F28B01FB01838D948DF6010E
:10231000948F838FFB011682178210861186128696
:10232000138614861586F80182859385A485B58564
:10233000438954896589768984179507A607B70765
:1023400008F0ADCF25E0B695A795979587952A9586
:10235000D1F7F82FFF70AF2EF8018581823008F495
:102360009ECFC8010E94D70C97FD99CFF8018285B6
:102370009385A485B5854F96A11DB11D828793874E
:10238000A487B587F0E2AF9EB001112469527D4F5A
:102390006115710509F483CFFB018081882309F160
:1023A000853E19F4B11032C01EC04BE050E0C701A9
:1023B0000E943E1F892B09F0B6CF6A2DC6012B96CD
:1023C0000FB6F894DEBF0FBECDBFDF91CF911F9146
:1023D0000F91FF90EF90DF90CF90BF90AF900C9453
:1023E0005C10B1105CCFF601A28A8091000190913F
:1023F0000101A0910201B091030186879787A08B0C
:10240000B18BFB018081882309F449CFBB24B394AD
:102410008ACFFC0180819181009711F00C94DE1D20
:102420000895FB0101900020E9F73197AF01461BA9
:10243000570BDC01ED91FC910280F381E02D0994B2
:102440004F925F926F927F92AF92BF92CF92DF9244
:10245000EF92FF920F931F93CF93DF93CDB7DEB729
:10246000A1970FB6F894DEBF0FBECDBF5C016A0125
:102470007B01F7FE47C0DC01ED91FC910190F081FA
:10248000E02D6DE209958C0122273327A9012C1933
:102490003D094E095F0919A2FE01B1967F019AE03C
:1024A000492E512C612C712CCA01B901A301920152
:1024B0000E940B1D605DD7016E937D0121153105D2
:1024C0004105510589F790E080E0109721F0BD01AA
:1024D000C5010E941112800F911FA1960FB6F894AA
:1024E000DEBF0FBECDBFDF91CF911F910F91FF9047
:1024F000EF90DF90CF90BF90AF907F906F905F9004
:102500004F900895AB01960119A28E010F5D1F4FE8
:102510008AE0C82ED12CE12CF12CCA01B901A70107
:1025200096010E940B1D605DF80162938F012115D9
:1025300031054105510589F790E080E0309769F257
:10254000BF01C5010E941112C8CF0C9411120F9344
:102550001F93CF93DF93EC0188819981009759F005
:102560002A813B812617370730F081E0DF91CF9138
:102570001F910F9108958B016F5F7F4F0E94671E1F
:10258000009759F0998388831B830A832C813D81AE
:10259000232B59F7FC011082E8CF80E0E7CFEF92C0
:1025A000FF920F931F93CF93DF93EC017B018A017E
:1025B000BA010E94A71228813981811114C0211506
:1025C000310519F0C9010E94DE1D198218821D8291
:1025D0001C821B821A82CE01DF91CF911F910F9135
:1025E000FF90EF9008951D830C83B701C9010E94ED
:1025F000681FF1CFFB0101900020E9F73197AF018F
:10260000461B570B0C94CF12EF92FF920F931F9320
:10261000CF93DF93EC017B018A011B821A8288EE43
:1026200093E0A0E0B0E08C839D83AE83BF8386E21D
:1026300091E0998388838DE190E00E94421D9A8FFA
:10264000898F009779F02DE1F701DC0101900D925F
:102650002A95E1F74CE050E0B801CE010C960E94BB
:102660006F1F188EDF91CF911F910F91FF90EF9008
:10267000089585ED8093BC0080914E0290914F02A9
:10268000A0915002B09151020796A11DB11D23E007
:10269000B695A795979587952A95D1F72091BC0077
:1026A00024FD03C010929702089540914E0250916C
:1026B0004F026091500270915102452B462B472BDF
:1026C00069F30097A105B10541F02AE22A95F1F7D7
:1026D00000C00197A109B109E1CF80914D020C948E
:1026E000940E2F923F924F925F926F927F928F92B1
:1026F0009F92AF92BF92CF92DF92EF92FF920F9391
:102700001F93CF93DF93CDB7DEB7C457D1090FB670
:10271000F894DEBF0FBECDBF5C017B018091A505A3
:10272000882321F080EA95E00E94620A10928105D8
:1027300010927F0510927C0510927B058AE08093B1
:102740007A050E94AD018B0161E080917A050E94BB
:10275000250161E080917A050E94F700DFB6F894C8
:1027600080910A02811127C0E0E9F0E08491E4EA57
:10277000F0E09491E82FF0E0EE0FFF1FE859FF4FD3
:10278000A591B491EC91E92321F461E08AE00E94E3
:10279000F70061E08AE00E9425018CB580618CBD64
:1027A0008CB580648CBD61E08DE00E94250161E004
:1027B0008BE00E94250180910A028F5F80930A02BC
:1027C000DFBE82E5809374051092750580917405D3
:1027D000909175050E9400032AE0D22E8FEF0E948F
:1027E000DB02DA94D110FACF86E795E00E9403036A
:1027F00020E030E0A90160E086E795E00E9419033F
:10280000D82E8093800581E0D816A9F00E94AD01F2
:10281000601B710B613D774058F381E080937B052D
:1028200086E795E00E94D00264E671E087ED94E0CF
:102830000E94A512FFCF2AEA31E040E050E068E0B4
:1028400086E795E00E94190382FF2AC0D092810595
:1028500080918105412C512C3201823029F4412C88
:10286000512C612C80E4782E20E030E0A90167E350
:1028700086E795E00E941903A301920169E286E7C9
:1028800095E00E941903809380058823D1F00E946F
:10289000AD01601B710B613D774030F388E0BECF26
:1028A00094E0D92E0E94E20280938005DA94D11040
:1028B000F9CF8A3A11F082E0B1CF82E080938105AE
:1028C000C7CF809181058230D1F420E030E0A901AA
:1028D0006AE386E795E00E941903882311F086E0F9
:1028E0009DCF0E94E202807C803C19F483E08093BB
:1028F00081050E94E2020E94E2020E94E20286E753
:1029000095E00E94D00280E58093740510927505D1
:1029100081E00E941F058823E9F180EA95E00E948A
:10292000D607882309F480CFF7016080718019A24F
:1029300018A28AE491E09F8F8E8F1BA21C821B82BB
:102940009A8389831E824E01FEE18F0E911CC40181
:102950000E94D60763018E010F5F1F4F24011801EB
:102960006FE270E0C6010E94541F009709F465C031
:10297000D6012C912F32A9F4BFEFCB1ADB0A902F8E
:10298000812F8201492E582E942D852D2801092F43
:10299000182FE6CF80E00E941F05882309F444CF5A
:1029A000BCCF8C198D3008F08CE0E82EF12CA701FB
:1029B000B601CE01885A9F4F0E946F1FE8E5F0E0F4
:1029C000EC0FFD1FEE0DFF1D1082C8010E94620A70
:1029D000F8018581882311F11EAE1DAE8AE491E0D5
:1029E0009CAF8BAF21961FAE2197E596AEADBFADE4
:1029F000E5976A0E7B1EF301808181112BC0BE0119
:102A0000655C7F4FC1010E941B0C41E851E0B101A0
:102A1000CE01885A9F4F0E94041343C0AE01485A0A
:102A20005F4FB201C8010E9427118823A9F2CE0C82
:102A3000DF1CC2010E94620AA7CFC601861997094E
:102A4000E5969FAF8EAFE597B201CE01CB960E947F
:102A50001B0CCBCF19A218A28AE491E09F8F8E8F16
:102A60001BA221968FAD219781115BC06C961FAE82
:102A70001EAE6C9788EE93E0A0E0B0E0A0968CAF1D
:102A80009DAFAEAFBFAFA09786E291E06A969FAFD1
:102A90008EAF6A97E3961FAE1EAEE397A5961FAE64
:102AA000A5976C968EAD9FAD6C97D50113969C93B0
:102AB0008E931297A0968CAD9DADAEADBFADA09795
:102AC000F50184839583A683B783A4968CAD9DADD1
:102AD000AEADBFADA49780879187A287B3873C96A0
:102AE000A8E5B0E0AC0FBD1F1C96C50149962D911D
:102AF0002193E817F907D9F7E396EEADFFADE39719
:102B0000D5015A96FC93EE935997309719F0858129
:102B100081111BC063E871E087ED94E00E94A5126B
:102B2000FFCFA301BE01655C7F4FC4010E94271146
:102B3000882309F49BCFCE01CB960E94620AB40190
:102B4000C1010E941B0CA30162CFCC58DF4F0FB60E
:102B5000F894DEBF0FBECDBFDF91CF911F910F91D3
:102B6000FF90EF90DF90CF90BF90AF909F908F90AD
:102B70007F906F905F904F903F902F9008951F929D
:102B80000F920FB60F9211242F933F938F939F9321
:102B9000AF93BF938091CC029091CD02A091CE02D1
:102BA000B091CF023091CB0223E0230F2D3758F59F
:102BB0000196A11DB11D2093CB028093CC0290936E
:102BC000CD02A093CE02B093CF028091D00290911B
:102BD000D102A091D202B091D3020196A11DB11DE4
:102BE0008093D0029093D102A093D202B093D302EB
:102BF000BF91AF919F918F913F912F910F900FBEF9
:102C00000F901F90189526E8230F0296A11DB11D65
:102C1000D2CF1F920F920FB60F9211242F933F9392
:102C20004F935F936F937F938F939F93AF93BF93D4
:102C3000EF93FF9387ED94E00E943B02FF91EF91A9
:102C4000BF91AF919F918F917F916F915F914F91C4
:102C50003F912F910F900FBE0F901F9018951F92CC
:102C60000F920FB60F9211242F938F939F93EF9390
:102C7000FF93E091E704F091E8048081E091ED0496
:102C8000F091EE0482FD1BC090818091F0048F5F73
:102C90008F732091F104821741F0E091F004F0E08D
:102CA000E952FB4F958F8093F004FF91EF919F9134
:102CB0008F912F910F900FBE0F901F9018958081CC
:102CC000F4CF1F920F920FB60F9211242F933F93C0
:102CD0004F935F936F937F938F939F93AF93BF9324
:102CE000EF93FF938091B900887F803609F44AC042
:102CF000F0F5883209F4A7C018F5803109F49BC0BB
:102D0000B8F4882309F4F9C0883009F494C0FF911D
:102D1000EF91BF91AF919F918F917F916F915F9153
:102D20004F913F912F910F900FBE0F901F901895CC
:102D3000883109F488C0803251F78093960214C01C
:102D4000803409F49DC040F48033B9F38833F9F638
:102D50008093960285ECB0C0803509F485C0883533
:102D600009F496C0883499F60E943913D0CF883977
:102D700009F48CC038F5883729F050F4883611F002
:102D8000803729F683E0809397021092950257C00E
:102D9000883809F47BC0803919F0803809F0B7CF42
:102DA00080919502803208F071C0E091950281E037
:102DB0008E0F809395028091BB00F0E0EB58FD4FA1
:102DC00080833DC0803B39F0E0F4803A09F479C05B
:102DD000883A09F09CCF84E08093970210927402A5
:102DE00010927302E091C502F091C602099580919C
:102DF000730281110FC081E080937302109253021D
:102E000009C0803C09F4A6CF883C09F4A3CF883BD5
:102E100009F07DCFE091740281E08E0F80937402FF
:102E2000F0E0ED5AFD4F80818093BB0090917402D9
:102E30008091730229C08091BC028093BB0085EC15
:102E40008093BC0064CF9091BB028091BA02981726
:102E500058F5E091BB0281E08E0F8093BB02F0E059
:102E6000E656FD4F8081E9CFE091BB0281E08E0FF5
:102E70008093BB028091BB00F0E0E656FD4F80835B
:102E80009091BB028091BA029817C8F285E8D8CF1A
:102E9000E091BB0281E08E0F8093BB028091BB006A
:102EA000F0E0E656FD4F80838091990281115CCF5E
:102EB00081E08093980284EA8093BC00109297028C
:102EC00026CF85EC8093BC001092970280919502EA
:102ED000803230F4E0919502F0E0EB58FD4F108223
:102EE0006091950270E0E091C302F091C40285E721
:102EF00092E00995109295020ACF1092960234CF73
:102F0000E7EDF4E01382128288EE93E0A0E0B0E0F7
:102F100084839583A683B78328E331E031832083BC
:102F200025EC30E03587248724EC30E0378726878E
:102F300020EC30E0318B208B21EC30E0338B228B86
:102F400022EC30E0358B248B26EC30E0378B268B5F
:102F5000118E128E138E148EE4E7F5E020E52083A7
:102F60001182E6E7F5E0158216821186138642E0AB
:102F700050E060E070E0448755876687778713A24A
:102F800015A614A62AE431E033A722A717A6EFEB73
:102F9000F5E01382128284839583A683B78386E546
:102FA00091E0918380830895CF93DF93CDB7DEB70F
:102FB000C354D1090FB6F894DEBF0FBECDBF7894CD
:102FC00084B5826084BD84B5816084BD85B582602E
:102FD00085BD85B5816085BD80916E0081608093DF
:102FE0006E00109281008091810082608093810048
:102FF0008091810081608093810080918000816058
:10300000809380008091B10084608093B1008091B2
:10301000B00081608093B00080917A0084608093DA
:103020007A0080917A00826080937A0080917A00A1
:10303000816080937A0080917A00806880937A0022
:103040001092C100E091E704F091E80492E09083CF
:10305000E091E304F091E4041082E091E504F09142
:10306000E60420E120831092EF04E091EB04F0915C
:10307000EC0486E08083E091E904F091EA04808129
:1030800080618083E091E904F091EA0480818860A6
:103090008083E091E904F091EA0480818068808374
:1030A000E091E904F091EA0480818F7D80831F8E96
:1030B0001E8E4AE151E05D8F4C8F87E288A32DA3DD
:1030C0009EA31FA261E08AE00E94250160E087E0E4
:1030D0000E94250160E086E00E94250160E085E015
:1030E0000E94250160E084E00E942501CE014C96FB
:1030F0000E94211040E060E0CE014C960E94E81052
:1031000069E971E0CE014C960E94A51241E060E0B1
:10311000CE014C960E94E81062EA71E0CE014C9616
:103120000E94A5120E942A100097E1F383FD5AC362
:1031300082FFF8CF1092CA021092C9021092C80200
:103140001092C7020E94760E89EB91E09093C6021E
:103150008093C5028AEB91E09093C4028093C302EE
:1031600019A28EA1823010F098E099A38CA362E39B
:1031700070E080E090E00E947B016FA1CE014C9650
:103180000E943A0F68EE73E080E090E00E947B01BD
:1031900060E3CE014C960E94B8100BE416E4C8011F
:1031A0000197F1F760E3CE014C960E94B810C80178
:1031B0000197F1F760E3CE014C960E94B81083E5C9
:1031C00092E00197F1F760E2CE014C960E94B810B0
:1031D00069A1606240E0CE014C960E94D11084E06B
:1031E0008AA340E06CE0CE014C960E94D110CE0143
:1031F0004C960E94181182E08BA340E066E0CE015D
:103200004C960E94D11040E062E0CE014C960E94A4
:10321000D1108BE39FE10197F1F7CE014C960E940C
:1032200021101BAE1AAE1DAE1CAE1FAE1EAE63EE5D
:1032300071E0CE01CA960E94FA121C821B8288EEAF
:1032400093E0A0E0B0E08D839E83AF83B88786E2F1
:1032500091E09A8389831B8E1A8E1D8619A618A663
:103260001BA61AA61DA61CA660EB71E0CE018896CF
:103270000E94FA12BE01685D7F4FCE0101960E9446
:103280007113CE0188960E940912CE014C960E94BD
:10329000211040E060E0CE014C960E94E8106AEBFD
:1032A00071E0CE014C960E94A51202E010E040E0D1
:1032B0006EE0CE014C960E94E810A801012E000C91
:1032C000660B770BCE014C960E9420120E942A10AA
:1032D0000097E1F381FF09C00F5F1F4F64EF71E0BA
:1032E00080E090E00E947B01E2CF80FF06C00230C8
:1032F000110519F001501109F1CF82FFEFCF64EFF2
:1033000071E080E090E00E947B01CE014C960E942B
:103310001811CE014C960E94211040E060E0CE01D1
:103320004C960E94E81065EC71E0CE014C960E942C
:10333000A512EE24E394F12C40E06EE0CE014C9611
:103340000E94E810A7010F2C000C660B770BCE0132
:103350004C960E9420120E942A100097E1F381FFF0
:103360000DC0E016F10654F42FEFE21AF20A64EFF2
:1033700071E080E090E00E947B01DECF80FF08C01A
:1033800031E0E316F10421F041E0E41AF108EFCF57
:1033900082FFEDCF64EF71E080E090E00E947B015E
:1033A000412C512CC8010196092E000CAA0BBB0B15
:1033B0009C01AD01215031094109510924962CAFDE
:1033C0003DAF4EAF5FAF249733243394C8010E94C2
:1033D000421D3C01FC01C801860D971D1192E817A2
:1033E000F907E1F7D12CC12C0E949400BC01990F80
:1033F000880B990B611571058105910511F00E94EB
:10340000991C0E944A1C24962CAD3DAD4EAD5FAD7B
:1034100024970E94A21C6F5F7F4F8F4F9F4FF30135
:10342000E60FF71F8081811101C030823FEFC31A80
:10343000D30AEC14FD04C1F6EA8DFB8D309709F434
:1034400016C18581882309F412C11FA61EA619AAD8
:1034500018AA1BAA1AAA63EE71E0CE018E960E94EA
:10346000FA120E949400BC01990F880B990B611508
:1034700071058105910511F00E94991C0E944A1C5A
:1034800024EB34E040E050E00E94A21C6F5F7F4FCD
:103490008F4F9F4F6B01912C812C8C149D040CF04D
:1034A00064C019A618A61BA61AA61DA61CA663EE24
:1034B00071E0CE0188960E94FA12CE0101960E9418
:1034C000010E97FD1FC08A309105E1F08CAB1DAA5B
:1034D000ACA4BDA44FEFA41AB40AB501CE018896DE
:1034E0000E94A712882349F328A539A58CA59DA57C
:1034F000BE016C5C7F4F820F931F0E94681FBDA6A8
:10350000ACA6DBCF8EA59FA50097F1F068A579A5A5
:1035100061157105B9F048A959A92CA53DA5421717
:10352000530780F00E94681F8CA59DA59BAB8AABBA
:103530001DA61CA6CE0188960E9409125FEF851A6F
:10354000950AABCF0E94DE1D88A599A59FA78EA7DF
:103550008AA59BA599AB88AB8CA59DA59BAB8AAB97
:1035600019A618A61BA61AA6E3CFCEA4DFA4520163
:10357000A114B10409F06EC084E090E00E94421DE5
:103580005C01892B51F0F50142825382C6010E94F1
:10359000241FF501918380832501DDAACCAA88A987
:1035A00099A99FAB8EAB8AA99BA999AF88AF1FA69B
:1035B0001EA619AA18AA1BAA1AAACE018E960E94A4
:1035C00009121FA61EA619AA18AA1BAA1AAA6CA934
:1035D0007DA96115710531F048AD59ADCE018E96CA
:1035E0000E94CF12CE014C960E942110912CD12C1A
:1035F000C12C0E942A100097E1F382FFDDC0560122
:10360000FFEFAF1ABF0A992009F454C019A618A6F3
:103610001BA61AA61DA61CA66EA57FA56115710581
:1036200031F04AA95BA9CE0188960E94CF12F3011E
:10363000EC0DFD1D80818823A1F16CE971E0CE01C4
:103640004C960E94A512CE0188960E94091265012F
:10365000912C56C0B601F501808191810E945F1FB7
:10366000892B09F4FECEF501A280B38081CF6DECE9
:1036700071E087ED94E00E94111261EE71E087ED38
:1036800094E00E9411128A8D9B8D009709F499CFC6
:103690000E94620A8A8D9B8D0E94DE1D1B8E1A8EEF
:1036A00090CF4CA55DA568A579A5CE014C960E944A
:1036B000BD01C9CFCE014C960E94181140E060E0D8
:1036C000CE014C960E94E81064EE71E0CE014C965B
:1036D0000E94A51240E06BE0CE014C960E94E810DB
:1036E000A501BB0C660B770BCE014C960E942012F5
:1036F00041E060E0CE014C960E94E810992493943A
:103700006EEE71E087ED94E00E94A512A6010D2CEB
:10371000000C660B770B87ED94E00E94201261EE9F
:1037200071E087ED94E00E94111264EF71E080E097
:1037300090E00E947B01C016D1060CF45ACF64EFD2
:1037400071E080E090E00E947B01CE018E960E94A5
:10375000091264EF71E080E090E00E947B01CE01ED
:103760004C960E941811CE014C960E94211063EFD6
:1037700071E0CE014C960E94A51241E060E0CE01BE
:103780004C960E94E81060E072E0CE014C960E94D8
:10379000A5120E942A1082FFFCCF64EF71E080E046
:1037A00090E00E947B01CE014C960E941811CE0140
:1037B000C4960E9409120ACE83FFA2CFC114D1047D
:1037C00009F49ECFCE014C960E94181121E0C2163A
:1037D000D10421F032E0C31AD1083ACF912CD12C78
:1037E000C12C8ECF00E010E001151105E9F30E9415
:1037F00027028823C9F30E940000F6CF8F929F9280
:10380000AF92BF92CF92DF92EF92FF92CF93DF936E
:10381000EC01688179818A819B816115710581053F
:10382000910521F464E279ED8BE597E02DE133EF2A
:1038300041E050E00E94A21C49015A019B01AC01E9
:10384000A7EAB1E40E94C11C6B017C01ACEEB4EFAD
:10385000A50194010E94CF1CC60ED71EE81EF91EBA
:10386000F7FE06C081E0C81AD108E10880E8F80A2E
:10387000C882D982EA82FB82C701B6019F77DF91B5
:10388000CF91FF90EF90DF90CF90BF90AF909F903F
:103890008F9008958F929F92AF92BF92CF92DF92B6
:1038A000EF92FF92609104017091050180910601F1
:1038B00090910701611571058105910521F464E27C
:1038C00079ED8BE597E02DE133EF41E050E00E9488
:1038D000A21C49015A019B01AC01A7EAB1E40E9474
:1038E000C11C6B017C01ACEEB4EFA50194010E94F8
:1038F000CF1CC60ED71EE81EF91EF7FE06C081E0DB
:10390000C81AD108E10880E8F80AC0920401D092F0
:103910000501E0920601F0920701C701B6019F7709
:10392000FF90EF90DF90CF90BF90AF909F908F90DF
:1039300008956093040170930501809306019093AC
:1039400007010895052E97FB1EF400940E94B91CF0
:1039500057FD07D00E940B1D07FC03D04EF40C94BA
:10396000B91C50954095309521953F4F4F4F5F4F73
:10397000089590958095709561957F4F8F4F9F4FDB
:1039800008950E942D1DA59F900DB49F900DA49F9A
:10399000800D911D11240895B7FF0C94C11C0E9445
:1039A000C11C821B930B08952F923F924F925F92FE
:1039B0006F927F928F929F92AF92BF92CF92DF923F
:1039C000EF92FF920F931F93CF93DF93CDB7DEB7A4
:1039D000CA1BDB0B0FB6F894DEBF0FBECDBF099438
:1039E0002A88398848885F846E847D848C849B848F
:1039F000AA84B984C884DF80EE80FD800C811B819D
:103A0000AA81B981CE0FD11D0FB6F894DEBF0FBECB
:103A1000CDBFED010895A1E21A2EAA1BBB1BFD012B
:103A20000DC0AA1FBB1FEE1FFF1FA217B307E4079D
:103A3000F50720F0A21BB30BE40BF50B661F771FF5
:103A4000881F991F1A9469F76095709580959095D5
:103A50009B01AC01BD01CF010895A29FB001B39FAE
:103A6000C001A39F700D811D1124911DB29F700D87
:103A7000811D1124911D0895EE0FFF1F0590F491F3
:103A8000E02D09940F931F93CF93DF93823091051C
:103A900010F482E090E0E091CD05F091CE0530E0A9
:103AA00020E0B0E0A0E0309799F42115310509F449
:103AB0004AC0281B390B24303105D8F58A819B81F7
:103AC0006115710589F1FB0193838283FE0111C0A9
:103AD000408151810281138148175907E0F048174E
:103AE000590799F4109761F012960C931297139658
:103AF0001C933296CF01DF91CF911F910F910895C2
:103B00000093CD051093CE05F4CF2115310551F06A
:103B10004217530738F0A901DB019A01BD01DF010B
:103B2000F801C1CFEF01F9CF9093CE058093CD0579
:103B3000CDCFFE01E20FF31F819391932250310903
:103B400039832883D7CF2091CB053091CC05232B07
:103B500041F420910A0130910B013093CC05209360
:103B6000CB0520910801309109012115310541F45F
:103B70002DB73EB740910C0150910D01241B350B20
:103B8000E091CB05F091CC05E217F307A0F42E1BD2
:103B90003F0B2817390778F0AC014E5F5F4F2417B1
:103BA000350748F04E0F5F1F5093CC054093CB056F
:103BB000819391939FCFF0E0E0E09CCFCF93DF9390
:103BC0000097E9F0FC01329713821282A091CD0593
:103BD000B091CE05ED0130E020E01097A1F42081F6
:103BE0003181820F931F2091CB053091CC0528178E
:103BF000390709F061C0F093CC05E093CB05DF9164
:103C0000CF910895EA01CE17DF07E8F54A815B817D
:103C10009E0141155105B1F7E901FB83EA83499102
:103C20005991C40FD51FEC17FD0761F48081918174
:103C30000296840F951FE90199838883828193817D
:103C40009B838A83F0E0E0E012968D919C9113971C
:103C50000097B9F52D913C911197CD010296820FF5
:103C6000931F2091CB053091CC052817390739F6E1
:103C7000309751F51092CE051092CD05B093CC053A
:103C8000A093CB05BCCFD383C28340815181840FE5
:103C9000951FC817D90761F44E5F5F4F88819981DE
:103CA000480F591F518340838A819B81938382836C
:103CB0002115310509F0B0CFF093CE05E093CD0585
:103CC0009ECFFD01DC01C0CF13821282D7CFB0E0BE
:103CD000A0E0EDE6FEE10C94D61C8C01009751F4B7
:103CE000CB010E94421D8C01C801CDB7DEB7E0E1D7
:103CF0000C94F21CFC01E60FF71F9C0122503109C5
:103D0000E217F30708F49DC0D901CD91DC9111971A
:103D1000C617D70798F0C530D10530F3CE01049708
:103D20008617970708F3C61BD70B2297C193D19329
:103D30006D937C93CF010E94DE1DD6CF5B01AC1A40
:103D4000BD0A4C018C0E9D1EA091CD05B091CE05F3
:103D5000512C412CF12CE12C109731F58091CB05A1
:103D60009091CC058815990509F05CC04616570658
:103D700008F058C08091080190910901009741F422
:103D80008DB79EB740910C0150910D01841B950B8E
:103D9000E817F90708F055C0F093CC05E093CB0580
:103DA000F90171836083A0CF8D919C911197129638
:103DB0006C90129713967C901397A815B90559F536
:103DC0006C0142E0C40ED11CCA14DB0420F1AC012A
:103DD0004A195B09DA011296159780F062827382A4
:103DE00051834083D9016D937C93E114F10471F008
:103DF000D7011396FC93EE93129776CF22968C0FF1
:103E00009D1FF90191838083F301EFCFF093CE05DD
:103E1000E093CD0569CF4816590608F42C017D01C1
:103E2000D3019ACFCB010E94421D7C01009749F03B
:103E3000AE01B8010E944B1FC8010E94DE1D870120
:103E400053CF10E000E050CF0F931F93CF93DF9339
:103E50008C01FC0101900020E9F7CF01801B910B40
:103E60000E94421DEC01009719F0B8010E94681FE2
:103E7000CE01DF91CF911F910F910895FB01DC01DD
:103E800004C08D910190801921F441505040C8F731
:103E9000881B990B0895FB01DC0102C001900D9273
:103EA00041505040D8F70895FC018191861721F0C8
:103EB0008823D9F7992708953197CF010895FB01F9
:103EC000DC018D91019080190110D9F3990B0895AF
:103ED000FB01DC0101900D920020E1F70895FB0148
:103EE000DC014150504048F001900D920020C9F78C
:103EF00001C01D9241505040E0F70895F894FFCF63
:103F0000FFFFFFFF010000000000CF058000000060
:103F1000400014005400000000002111BD012710D2
:103F2000BC0100000000C10CA40C940C6B0C740CC0
:103F3000F70D2B0E000000005D02BD01EA01AA0290
:103F40001B02F9010D02000000000A0CBD01040A69
:103F5000BC01000000000B0FDE0E2710BB01D70EC6
:103F6000C40EB50E4661696C656420696E6974693A
:103F7000616C697A696E6720534420636172640AD8
:103F8000002F0046696C65206F70656E696E672052
:103F90006661696C6564210A003C2D204573706977
:103FA00061002D3E20446967616C6F202E2E2E002B
:103FB0006E6F756E732E747874004A756761646FE6
:103FC0007265733A004573706961733A0046696CB3
:103FD000652072656164696E67206661696C6564FD
:103FE000000D0A004A756761646F723A200069200B
:103FF0003D200070726573696F6E6172202D3E0006
:0A40000070617261206F747261003C
:00000001FF
