:100000000C946A000C9492000C9492000C94920050
:100010000C9492000C9492000C9492000C94920018
:100020000C9492000C9492000C9492000C94920008
:100030000C9492000C9492000C9492000C949200F8
:100040000C9430170C9492000C94A0170C947A170F
:100050000C9492000C9492000C9492000C949200D8
:100060000C94D2170C94920000000000240027008A
:100070002A0000000000250028002B0000000000DE
:1000800023002600290004040404040404040202DA
:100090000202020203030303030301020408102007
:1000A0004080010204081020010204081020000012
:1000B0000008000201000003040700000000000027
:1000C00000007C3C3E5E2B3D3F2F5B5D3B2C2A229B
:1000D0005C00F11811241FBECFEFD8E0DEBFCDBF0A
:1000E00012E0A0E0B1E0E8E5F3E402C005900D9273
:1000F000A435B107D9F726E0A4E5B2E001C01D920E
:10010000A931B207E1F710E0CAE6D0E004C02197B8
:10011000FE010E94681FC936D107C9F70E94451920
:100120000C94AA210C94000080E480937C008091C0
:100130007A00806480937A0080917A0086FDFCCFFB
:1001400080917800909179000895833081F028F4AF
:10015000813099F08230A9F008958730A9F0883075
:10016000C9F08430B1F4809180008F7D03C080910C
:1001700080008F7780938000089584B58F7784BD49
:10018000089584B58F7DFBCF8091B0008F778093E9
:10019000B00008958091B0008F7DF9CFCF93DF93A9
:1001A000282F30E0F901E255FF4F8491F901E6561E
:1001B000FF4FD491F901EA57FF4FC491CC23A1F02E
:1001C00081110E94A500EC2FF0E0EE0FFF1FE45814
:1001D000FF4FA591B491EC91ED2381E090E009F4FB
:1001E00080E0DF91CF91089580E090E0FACF1F93F7
:1001F000CF93DF93282F30E0F901E255FF4F849130
:10020000F901E656FF4FD491F901EA57FF4FC49127
:10021000CC23A9F0162F81110E94A500EC2FF0E04D
:10022000EE0FFF1FEE58FF4FA591B4918FB7F894D2
:10023000EC91111108C0D095DE23DC938FBFDF91C4
:10024000CF911F910895DE2BF8CFCF93DF9390E0ED
:10025000FC01E656FF4F24918A579F4FFC01849181
:100260008823D1F090E0880F991FFC01E859FF4FD7
:10027000A591B491FC01EE58FF4FC591D491611145
:100280000EC09FB7F8948C91E22FE0958E238C934B
:100290002881E223E8839FBFDF91CF9108958FB734
:1002A000F894EC91E22BEC938FBFF6CF3FB7F89424
:1002B00080911A0390911B03A0911C03B0911D0320
:1002C00026B5A89B05C02F3F19F00196A11DB11DB1
:1002D0003FBFBA2FA92F982F8827BC01CD01620FED
:1002E000711D811D911D42E0660F771F881F991FA8
:1002F0004A95D1F708958F929F92AF92BF92CF9275
:10030000DF92EF92FF924B015C010E9456016B015C
:100310007C010E9456016C197D098E099F09683E77
:10032000734081059105A8F321E0821A9108A10884
:10033000B10888EEC80E83E0D81EE11CF11C8114C0
:100340009104A104B10429F7FF90EF90DF90CF90C2
:10035000BF90AF909F908F9008952FB7F8946091C1
:1003600016037091170380911803909119032FBF02
:100370000895089508950895AF92BF92CF92DF92A5
:10038000EF92FF920F931F93CF93DF936C017B014A
:100390008B01040F151FEB015E01AE18BF08C017DB
:1003A000D10759F06991D601ED91FC910190F0814E
:1003B000E02DC6010995892B79F7C501DF91CF9111
:1003C0001F910F91FF90EF90DF90CF90BF90AF9073
:1003D0000895FC01538D448D252F30E0842F90E04B
:1003E000821B930B541710F0CF9608950197089530
:1003F000FC01918D828D981761F0A28DAE0FBF2FF9
:10040000B11D5D968C91928D9F5F9F73928F90E04E
:1004100008958FEF9FEF0895FC01918D828D9817BD
:1004200031F0828DE80FF11D858D90E008958FEFFA
:100430009FEF0895FC01918D228D892F90E0805CC3
:100440009F4F821B91098F739927089581E295E050
:100450000E941A0221E0892B09F420E0822F0895DE
:1004600080E090E0892B29F00E94260281110C94F3
:1004700000000895FC01A48DA80FB92FB11DA35A47
:10048000BF4F2C91848D90E001968F739927848FB4
:10049000A689B7892C93A089B1898C9183708064D7
:1004A0008C93938D848D981306C00288F389E02D78
:1004B00080818F7D80830895EF92FF920F931F9329
:1004C000CF93DF93EC0181E0888F9B8D8C8D981307
:1004D0001AC0E889F989808185FF15C09FB7F89413
:1004E000EE89FF896083E889F9898081837080645F
:1004F00080839FBF81E090E0DF91CF911F910F91AA
:10050000FF90EF900895F62E0B8D10E00F5F1F4FB8
:100510000F731127E02E8C8D8E110CC00FB607FCC7
:10052000FACFE889F989808185FFF5CFCE010E9455
:100530003A02F1CFEB8DEC0FFD2FF11DE35AFF4F87
:10054000F0829FB7F8940B8FEA89FB8980818062E3
:10055000CFCFCF93DF93EC01888D8823B9F0AA89A0
:10056000BB89E889F9898C9185FD03C0808186FD6E
:100570000DC00FB607FCF7CF8C9185FFF2CF8081BD
:1005800085FFEDCFCE010E943A02E9CFDF91CF91F6
:1005900008958FB7F894809108038FBF089561E0A4
:1005A000FC0184810E94F700809107038111109261
:1005B000070308958EBD00000DB407FEFDCF8EB574
:1005C00008958FEF0C94DA020F931F93CF93DF936C
:1005D000EC010E94AD018B010E94E1028F3F69F0A6
:1005E0000E94AD01601B710B6C177D07A8F380E0C2
:1005F000DF91CF911F910F91089581E0F9CF8CBDCC
:100600009DBD0895CF93DF93EC0180910703811185
:1006100009C081E0809307038091BE059091BF05DA
:100620000E94FF0260E08C81DF91CF910C94F70073
:100630008F929F92AF92BF92FF920F931F93CF938F
:10064000DF93EC01F62E49015A018E81882389F04F
:100650008F8198859C012F5F3F4F38872F83823091
:10066000924018F40E94E102F3CFCE010E94CF0223
:100670001E82CE010E9402038CE291E00E94E402FD
:100680008F2D80640E94DA0208E110E0D501C401D8
:10069000002E04C0B695A795979587950A94D2F732
:1006A0000E94DA0208501109083F8FEF180771F70E
:1006B00085E9FF2021F028E087E8F2128FEF0E9401
:1006C000DA0210E00E94E1028A8787FF04C01F3F20
:1006D00011F01F5FF7CFDF91CF911F910F91FF9026
:1006E000BF90AF909F908F900895AF92BF92CF929E
:1006F000DF92EF92FF920F931F93CF93DF93EC0162
:100700006901C801820F931F8130924050F58E819C
:10071000882379F088819981AA81BB818417950704
:10072000A607B70731F48F819885C816D90608F057
:1007300042C0488359836A837B838B85833039F039
:1007400089E0440F551F661F771F8A95D1F79A01DC
:10075000AB0161E1CE010E941803882389F083E098
:100760008D83CE010E94CF0280E0DF91CF911F9157
:100770000F91FF90EF90DF90CF90BF90AF900895D2
:100780000E94AD015B010E94E1028A878F3F69F4FC
:100790000E94AD016A197B096D327140A0F38FE0B0
:1007A0008D83CE010E94CF02DCCF8E3F89F4188664
:1007B0001F8281E08E838F8198858C159D0550F472
:1007C0000E94E1028F819885019698878F83F3CFED
:1007D0008DE0E6CF6701E00EF11E0E94E102F60116
:1007E00081936F01EE15FF05C1F78F819885080F82
:1007F000191F18870F838985882319F00115124066
:10080000A0F08E81882389F08F8198859C012F5FCD
:100810003F4F38872F838230924018F40E94E102C4
:10082000F3CFCE010E94CF021E8281E09ECFCF92F5
:10083000DF92EF92FF920F93CF93DF93EC01690168
:1008400082E1411551056105710599F08B85833071
:1008500039F089E0440F551F661F771F8A95D1F73D
:100860009A01AB0168E1CE010E941803882319F0B8
:1008700084E08D832DC08EEF0E94DA0276018EEF28
:10088000D81AF70181917F010E94DA02EC14FD046D
:10089000C1F78FEF0E94DA028FEF0E94DA020E9406
:1008A000E1028A878F71853071F4011116C0CE0183
:1008B0000E94CF0281E0DF91CF910F91FF90EF90E6
:1008C000DF90CF90089581E18D83CE010E94CF0209
:1008D000CE010E94CF0280E0EECF88E592E00E9438
:1008E000E402811102C085E1C4CF20E030E0A9011B
:1008F0006DE0CE010E941803882311F084E1B9CF86
:100900000E94E1028111FACFD2CF0F9340910903E7
:1009100050910A0360910B0370910C03411551052E
:100920006105710599F0082F21E233E080911E03E3
:1009300090911F030E941704882349F01092090325
:1009400010920A0310920B0310920C0381E00F9196
:1009500008950F93CF93C82F80912003811105C074
:10096000C1E08C2FCF910F910895409100015091DB
:10097000010160910201709103010C2F21E233E02B
:1009800080911E0390911F030E941704811102C0E1
:10099000C0E0E7CFCC2321F381E00E9485048823C7
:1009A000B9F310922003DDCF8F929F92AF92BF9246
:1009B000EF92FF920F931F93CF934B015C01C42FD3
:1009C0008091000190910101A0910201B091030179
:1009D00088159905AA05BB0551F181E00E94A9047B
:1009E00081110BC080E0CF911F910F91FF90EF908C
:1009F000BF90AF909F908F90089581E2E82E83E0A2
:100A0000F82E00E012E030E020E0B501A401809172
:100A10001E0390911F030E947503882319F380928F
:100A2000000190920101A0920201B0920301409155
:100A300020034C2B4093200381E0D5CF8F929F92CF
:100A4000AF92BF92CF92DF92EF92FF92CF9320ECC2
:100A500035E030931F0320931E03882309F46DC0F3
:100A600040E060E070E0CB010E94D40481110BC033
:100A700080E0CF91FF90EF90DF90CF90BF90AF904C
:100A80009F908F9008958091DF048F7789F78091F0
:100A9000EB049091EC04A091ED04B091EE04843647
:100AA0009105A105B10520F3C090E704D090E804BA
:100AB000E090E904F090EA04C114D104E104F104E7
:100AC000B9F240E0C701B6010E94D404882381F244
:100AD00080912C0390912D038115924049F6A091AD
:100AE0003103AA2329F260912F037091300361151D
:100AF000710509F4BDCF20912E03222309F4B8CF4C
:100B0000A093DE052093D00590E080E030E0E1E0A6
:100B1000F0E0C82FAF01082E02C0440F551F0A9401
:100B2000E2F72417350769F041E0480F0196893054
:100B3000910579F74093D9059BCFC12CD12C760133
:100B4000C0CF8093D905209137033091380350E00E
:100B500040E02115310541F42091450330914603D1
:100B600040914703509148032093D1053093D2051B
:100B70004093D3055093D40546015701860E971E26
:100B8000A11CB11C8092DF059092E005A092E105C6
:100B9000B092E205E0913203F0913303F093E50562
:100BA000E093E405B0E00E94ED1EDC01CB01880D6E
:100BB000991DAA1DBB1D8093E6059093E705A093A0
:100BC000E805B093E90525E0EE0FFF1F2A95E1F750
:100BD000E150FE4FEF2FFF27E6958E0F9F1FA11DBF
:100BE000B11D8093DA059093DB05A093DC05B093EB
:100BF000DD058090340390903503B12CA12C811435
:100C0000910441F48090410390904203A0904303EB
:100C1000B0904403C81AD90AEA0AFB0AC80CD91CC6
:100C2000EA1CFB1C04C0F694E794D794C794CA95B9
:100C3000D2F7C092D505D092D605E092D705F092B2
:100C4000D80585EFC8168FE0D806E104F10428F432
:100C50008CE08093E30581E00CCF80E125EFC216A4
:100C60002FEFD206E104F104A0F380914D0390919F
:100C70004E03A0914F03B09150038093E6059093EB
:100C8000E705A093E805B093E90580E2E2CF4F9233
:100C90005F926F927F928F929F92AF92BF92CF920C
:100CA000DF92EF92FF920F931F93CF93DF93EC01AC
:100CB000423051056105710590F480E0DF91CF91DC
:100CC0001F910F91FF90EF90DF90CF90BF90AF906A
:100CD0009F908F907F906F905F904F90089589853F
:100CE0009A85AB85BC850196A11DB11D841795071A
:100CF000A607B70710F3CB88DC88ED88FE888F89BC
:100D0000803109F042C0BB27A72F962F852F4801BD
:100D100059012A013B01C80ED91EEA1EFB1E809113
:100D2000000190910101A0910201B0910301C81648
:100D3000D906EA06FB0699F58F898031C1F5B30122
:100D4000A201552766277727440F551F4F5D5C4F3B
:100D5000FA01918280828091200381608093200338
:100D60008A89823080F08D819E81AF81B8858C0D1B
:100D70009D1DAE1DBF1D8093090390930A03A09390
:100D80000B03B0930C0381E099CFDB01CA01E7E0CC
:100D9000B695A79597958795EA95D1F7B8CF40E096
:100DA000C701B6010E94D4048111C6CF86CFB3011A
:100DB000A2014F77552766277727440F551F440F09
:100DC000551F4F5D5C4FFA0180829182A282B382EF
:100DD000C2CF8F929F92AF92BF92CF92DF92EF924B
:100DE000FF920F931F93CF93DF93FC018185928530
:100DF000A385B4850196A11DB11D84179507A6078B
:100E0000B70770F480E0DF91CF911F910F91FF90B1
:100E1000EF90DF90CF90BF90AF909F908F9008950C
:100E200083889488A588B6888789803189F5BB270F
:100E3000A72F962F852FE9016A017B018F01BC0145
:100E4000CD01680D791D8A1D9B1D80900001909039
:100E50000101A0900201B090030186169706A80632
:100E6000B90601F5F8018789803111F5DD24EE24FA
:100E7000FF24F601EE0FFF1FEF5DFC4F8081918193
:100E8000B0E0A0E088839983AA83BB8381E0BBCFD5
:100E9000DB01CA01C7E0B695A79597958795CA95D6
:100EA000D1F7C9CF40E00E94D4048111DBCFAACF93
:100EB000E894C7F8DD24EE24FF24F601EE0FFF1FAF
:100EC000EE0FFF1FEF5DFC4F80819181A281B38106
:100ED000BF70D8CF4F925F926F927F92AF92BF92C6
:100EE000CF92DF92EF92FF920F931F93CF93DF93F6
:100EF00000D000D0CDB7DEB78C0149835A836B8315
:100F00007C835901C12CD12C7601412C82E0582ED2
:100F1000612C712C49815A816B817C819E012F5FEC
:100F20003F4FC8010E94E906882339F1F801858501
:100F3000A301920104C0220F331F441F551F8A953D
:100F4000D2F7DA01C901C80ED91EEA1EFB1E49817B
:100F50005A816B817C818789803111F188EF9FEF05
:100F6000AFEFBFE0481759076A077B0798F2F50112
:100F7000C082D182E282F38281E00F900F900F90C5
:100F80000F90DF91CF911F910F91FF90EF90DF9025
:100F9000CF90BF90AF907F906F905F904F900895EB
:100FA00088EF9FEFA0E0B0E0DDCFCF93DF93FC01AF
:100FB0002581222321F080E0DF91CF910895EC017B
:100FC0008091E305803159F582E08583178A108E80
:100FD000118E128E8091E4059091E505B0E0A0E0BD
:100FE00025E0880F991FAA1FBB1F2A95D1F7838B75
:100FF000948BA58BB68B8CEC95E09C8F8B8F81E0CE
:101000008C831E821F82188619861A861B861C8670
:101010001D861E861F86188A198A1A8ACDCF8032AD
:1010200051F683E085834091E6055091E705609194
:10103000E8057091E905478B508F618F728F9F0192
:101040002D5E3F4F8CEC95E00E946A078111D3CF53
:10105000B2CF8F929F92AF92BF92CF92DF92EF92D8
:10106000FF920F931F93CF93DF93EC018D8181113A
:101070000EC080E0DF91CF911F910F91FF90EF9014
:10108000DF90CF90BF90AF909F908F9008950B8985
:101090001C892D893E89041715072607370748F351
:1010A0004A015B01823031F48A869B86AC86BD861C
:1010B00081E0E0CF81149104A104B10449F41E82BF
:1010C0001F82188619861A861B861C861D86F0CFFD
:1010D0000A851B852C853D85EB8DFC8D858590E0F3
:1010E0000996B901A8014150510961097109082EF9
:1010F00004C076956795579547950A94D2F7750180
:101100006401E1E0CE1AD108E108F10804C0F694C8
:10111000E794D794C7948A95D2F7C416D506E60605
:10112000F70620F0012B022B032B11F58F89988DE8
:10113000A98DBA8D8E839F83A887B9878E010A5F98
:101140001F4FC114D104E104F10409F4ADCF4E8165
:101150005F816885798598018B8D9C8D0E94E90659
:1011600091E0C91AD108E108F1088111EACF81CFD5
:10117000C41AD50AE60AF70AE1CF3F924F925F926E
:101180006F927F928F929F92AF92BF92CF92DF9297
:10119000EF92FF920F931F93CF93DF93CDB7DEB7FC
:1011A0002C970FB6F894DEBF0FBECDBF5C01DC01FB
:1011B0005B968D909C905C9716964D905D906D908F
:1011C0007C901997411451046104710409F468C0BA
:1011D000BFEF4B1A5B0A6B0A7B0A312CF401818545
:1011E0009285A385B4859C01AD012F5F3F4F4F4F82
:1011F0005F4F29873A874B875C87730162011D82A5
:101200001E821F821886F40181859285A385B4858C
:101210002D813E814F815885281739074A075B0782
:1012200008F056C089859A85AB85BC858C159D05CF
:10123000AE05BF0550F482E0C82ED12CE12CF12C74
:1012400092E0492E512C612C712C9E012F5F3F4F53
:10125000B701A601C4010E94E9068823C9F189816A
:101260009A81AB81BC81892B8A2B8B2B09F12601BA
:1012700037019FEF491A590A690A790A2D813E817F
:101280004F8158852F5F3F4F4F4F5F4F2D833E83D8
:101290004F8358873FEFC31AD30AE30AF30AB3CF49
:1012A000F40140805180628073803324339496CF60
:1012B000C414D504E604F70409F70FEF1FEF2FEF6E
:1012C0003FE0B701A601C4010E944706811119C081
:1012D00080E02C960FB6F894DEBF0FBECDBFDF9135
:1012E000CF911F910F91FF90EF90DF90CF90BF9023
:1012F000AF909F908F907F906F905F904F903F90B6
:101300000895D50116964D915D916D917C91199737
:10131000411551056105710539F097018601C40138
:101320000E9447068823A1F2D5011696CD92DD9240
:10133000ED92FC921997332051F0D701C601019626
:10134000A11DB11DF40180839183A283B383F501B4
:101350008789908DA18DB28D892B8A2B8B2B39F4A7
:101360008481C78AD08EE18EF28E80688483F501F5
:1013700084818062848381E0ACCF1F93CF93DF931D
:10138000FC0125812223D1F1162FEC01848187FFF6
:101390002AC0668577858089918941E00E94D404BE
:1013A000882361F1EA8980E2E89FF0011124EF5D72
:1013B000FC4F309719F18D81823040F48B899C89E4
:1013C000AD89BE89848F958FA68FB78F8F89988DB1
:1013D000938F828F8F89988DA98DBA8DB58BA48BB1
:1013E0008C818F778C83111103C08C818F7E8C83CD
:1013F000812FDF91CF911F910C94A90480E0DF91A0
:10140000CF911F910895FF920F931F93CF93DF9376
:10141000EC018D81813041F090E080E0DF91CF914F
:101420001F910F91FF9008958C8181FFF5CF82FD70
:101430001BC000911E0310911F03C8010E940203EC
:101440000E94E102F82EC8010E94CF028FEFF8122D
:10145000E3CF8C8185FF1BC060E0CE010E94BD09F7
:101460008C818F7D8C83D8CF4B895C896D897E89F7
:101470008A859B85AC85BD8584179507A607B70728
:10148000C1F2CE010E9429088111D3CFC5CF40916E
:10149000090350910A0360910B0370910C03452BD3
:1014A000462B472B21F080E00E948504B5CF806158
:1014B0008C832A853B85317080E092E0821B930B00
:1014C000ADCFCF93DF93EC0161E00E94BD0988238B
:1014D00011F01D8281E0DF91CF9108952F923F920C
:1014E0004F925F926F927F928F929F92AF92BF9234
:1014F000CF92DF92EF92FF920F931F93CF93DF93E0
:1015000000D000D01F92CDB7DEB77C015B01342E36
:101510005D83DC0115968C911597813009F0CEC062
:1015200014962C9021FECAC022FCB4C0C32CDD80CE
:1015300022947FE027222094B22DB1702B2ED70168
:101540001A964D915D916D917C911D97C114D104B6
:1015500009F428C15B968D919C915C97FC01748085
:101560007A948A019B0169E036952795179507952E
:101570006A95D1F770228A011170711020C001158F
:101580001105E9F416964D915D916D917C91199735
:10159000411551056105710509F099C057968D9166
:1015A0009D910D90BC91A02D0097A105B10509F06A
:1015B000B0C0C7010E94BD08882309F47FC080E045
:1015C00092E0801B910B46018C159D0508F44C019F
:1015D000D7015B964D915C915C9716968D919D918C
:1015E0000D90BC91A02D0297A109B109FA012585A2
:1015F00004C0880F991FAA1FBB1F2A95D2F74685E2
:10160000578560897189840F951FA61FB71F9C019C
:10161000AD01270D311D411D511D29013A018114D4
:1016200032E0930609F07BC08091000190910101A6
:10163000A0910201B091030184159505A605B70597
:1016400059F48FEF9FEFDC0180930001909301012B
:10165000A0930201B0930301022D9501B301A201F1
:1016600080911E0390911F030E941704882331F17B
:101670009EEFB91AC818D908F70182859385A48509
:10168000B585880D991DA11DB11D82879387A487FB
:10169000B58755CFF7014389548965897689828555
:1016A0009385A485B585481759076A077B0709F410
:1016B0003DCFC7010E942908811138CF81E090E019
:1016C000D70113969C938E93129780E007C09E01DA
:1016D0002F5F3F4F0E94E906811102C090E079C060
:1016E00089819A81AB81BC81F701238D348DF90109
:1016F000278948EF5FEF60E070E0203121F048EF8C
:101700005FEF6FEF7FE084179507A607B70708F034
:1017100050CFF70186839783A087B18750CF0115FB
:10172000110599F5D7011A964D915D916D917C91B6
:101730001D9753968D919D910D90BC91A02D4817AA
:1017400059076A077B0708F181E00E94A9048823F2
:1017500009F4B4CF4092000150920101609202015D
:101760007092030180912003816080932003C8015F
:101770008F5D9C4FD5019C01280D391DFC012E1752
:101780003F0759F04D914193FACF41E0C301B201B7
:101790000E94D4048111EBCF91CF281B390BA20EEC
:1017A000B31E68CFF70183899489A589B689841708
:1017B0009507A607B70738F48481438B548B658B54
:1017C000768B80688483F701848183FD1AC0832D22
:1017D0009D810F900F900F900F900F90DF91CF9100
:1017E0001F910F91FF90EF90DF90CF90BF90AF903F
:1017F0009F908F907F906F905F904F903F902F9031
:10180000089561E0C7010E94BD09882309F456CFFD
:10181000DECFCF93DF931F92CDB7DEB7698341E070
:1018200050E0BE016F5F7F4F0E946E0A0F90DF9104
:10183000CF910895FC01DB0112968D919C91139735
:10184000938382838AE491E09183808314968C91C0
:101850001497848315968C911597858316964D91D0
:101860005D916D917C91199746835783608771874D
:101870001A964D915D916D917C911D97428753878A
:10188000648775871E964D915D916D917C915197FE
:1018900046875787608B718B52968C915297828BBB
:1018A00053964D915D916D917C915697438B548BDE
:1018B000658B768B57964D915D916D917C915A9782
:1018C000478B508F618F728F5B968D919C91948F17
:1018D000838F0895FC01818D928D009719F061E04E
:1018E0000C94BD090895DC015996ED91FC91309757
:1018F000B9F083899489A589B68942855385648521
:101900007585841B950BA60BB70B811520E89207F4
:10191000A105B10538F08FEF9FE7A0E0B0E0089592
:1019200090E080E00895DC0159968D919C9100979C
:1019300039F0DC01ED91FC910480F581E02D0994F2
:1019400090E080E00895CF93DF93EC01E98DFA8D6C
:10195000309749F481E090E09B838A8390E080E0B7
:10196000DF91CF91089513821282898D9A8D0E9402
:101970006E0AE98DFA8D22813381232B59F7F0CF3E
:10198000CF93DF931F92CDB7DEB76983DC01ED9172
:10199000FC910280F381E02D41E050E0BE016F5FD9
:1019A0007F4F09950F90DF91CF9108952F923F922D
:1019B0004F925F926F927F928F929F92AF92BF925F
:1019C000CF92DF92EF92FF920F931F93CF93DF930B
:1019D00000D01F92CDB7DEB7FC018581811118C000
:1019E0008FEF9FEF0F900F900F90DF91CF911F918E
:1019F0000F91FF90EF90DF90CF90BF90AF909F90AE
:101A00008F907F906F905F904F903F902F900895B0
:101A1000848180FFE5CF43895489658976898285F1
:101A20009385A485B585312C212C481759076A0761
:101A30007B0719F022242394312C6F012101CE0160
:101A400001963C01DF011696BB83AA834114510421
:101A500009F4C5C0F60142855385648575854A0140
:101A6000F1E09F22D6015B968D919C915C978A0153
:101A70009B01E9E03695279517950795EA95D1F7EB
:101A80001596EC91E230E9F5FC01628D738D848D41
:101A9000958D600F711F821F931FA12C22E0B22E23
:101AA000A818B9084A145B0408F45201F60124810D
:101AB00026FD04C0A114F2E0BF0671F400910001FC
:101AC00010910101209102013091030106171707BF
:101AD0002807390709F05EC040E00E94D40488233B
:101AE00009F47ECFC4018F5D9C4FD3019C012A0D68
:101AF0003B1DFC012E173F0709F46CC041914D932B
:101B0000F9CFDC011496BC90BA94B02281149104F0
:101B100079F4B1100DC0452B462B472B69F5F60122
:101B20008789908DA18DB28D86839783A087B18799
:101B3000D6015B96ED91FC915C9716966D917D9127
:101B40008D919C91199762507109810991092585A0
:101B500004C0660F771F881F991F2A95D2F7068544
:101B6000178520893189600F711F821F931F6B0DAC
:101B7000711D811D911D91CFD60116964D915D91DC
:101B80006D917C9119972A813B810E94E906811110
:101B9000CFCF26CF730185019401AB01BC018091A9
:101BA0001E0390911F030E947503882309F418CF28
:101BB0006A0C7B1CF60182859385A485B5858A0D08
:101BC0009B1DA11DB11D82879387A487B5874A18E5
:101BD0005B083CCF281B390B620E731EEBCF2A9497
:101BE000232809F0FDCE898190E0FCCEFC01818D97
:101BF000928D009711F00C94D60C8FEF9FEF089503
:101C00000F931F93CF93DF93EC010E94AD01688780
:101C100079878A879B87CE010E94F60D97FF15C0B2
:101C20000E94AD01088519852A853B85601B710BD3
:101C3000820B930B0C811D812E813F8160177107F0
:101C40008207930740F38FEF9FEFDF91CF911F91B2
:101C50000F9108950F931F93CF93DF93EC01898D1C
:101C60009A8D10E000E0009799F00E94D60C8C014C
:101C70000F3F100769F0898D9A8DFC0142855385CD
:101C80006485758541505109610971090E942908CF
:101C9000C801DF91CF911F910F9108952091BD024E
:101CA000260F3327331F21323105ECF42091E10256
:101CB000FC0190E080E0243069F082E00895A0917A
:101CC000BD022191AC0143565D4FA40FB52FB11D4C
:101CD0002C930196861798F38091BD02680F60934C
:101CE000BD0280E0089581E008951092E10281E054
:101CF0008093E3021092E20261E082E10E94F70029
:101D000061E083E10E94F700E9EBF0E080818E7FE3
:101D1000808380818D7F808388E48093B80085E410
:101D20008093BC000895CF93DF9391E090939C0241
:101D30008823B9F0C091B800D091BA008091BC005E
:101D40008A7B8093BC0060E082E10E94F70060E043
:101D500083E10E94F7000E94750ED093BA00C093F1
:101D6000B800DF91CF9108950895E0911403809118
:101D70001303E81730F4F0E0E958FD4F808190E05C
:101D800008958FEF9FEF08959091140380911303AE
:101D90002FEF3FEF981748F4E92FF0E0E958FD4F97
:101DA000208130E09F5F90931403C90108958091D2
:101DB000130390911403891B990B0895CF92DF921E
:101DC000EF92FF920F931F93CF93DF937C01CB0190
:101DD0008A0120917602222389F0EB016B01C40E67
:101DE000D51ECC15DD0569F06991D701ED91FC9107
:101DF0000190F081E02DC7010995F3CF642F0E9477
:101E00004E0EC801DF91CF911F910F91FF90EF907F
:101E1000DF90CF900895CF93DF931F92CDB7DEB7B9
:101E20006983209176022223F9F020911103203258
:101E300058F021E030E0FC013383228390E080E021
:101E40000F90DF91CF91089580911203E82FF0E079
:101E5000EA5AFD4F998190838F5F8093120380939C
:101E6000110381E090E0ECCF61E0CE0101960E9489
:101E70004E0EF7CFCF92DF92EF92FF920F931F9308
:101E8000CF93DF93FC01C48121E020937602C093BD
:101E9000550210921203109211038385682B89E07A
:101EA00096E00E940B0FD0911103D13208F092C03E
:101EB0000E9456016B017C018091E102811165C095
:101EC00082E08093E10281E08093E3028FEF8093D0
:101ED000E00210920503D0930403A6E5B2E0E4EE1D
:101EE000F2E080E0D81385C01092060380910603CB
:101EF000CC0FC82BC09306038091E202813009F019
:101F00007CC01092E2020E9456016B017C0180911C
:101F100006038093BB008091980290919902A09152
:101F20009A02B0919B02892B8A2B8B2B99F00E94ED
:101F30005601009198021091990220919A023091D5
:101F40009B026C197D098E099F0906171707280740
:101F50003907E0F18091BC0083FDD9CF85EC8093F7
:101F6000BC000E9456016B017C018091E10282302D
:101F700009F445C08091E0028F3F61F18091E00259
:101F8000803241F18091E00225C0809198029091C9
:101F90009902A0919A02B0919B02892B8A2B8B2BDC
:101FA00009F48ACF0E94560100919802109199027B
:101FB00020919A0230919B026C197D098E099F092C
:101FC000061717072807390708F076CF8091970280
:101FD0000E94930E10921203109211031092760237
:101FE000DF91CF911F910F91FF90EF90DF90CF90F5
:101FF00008959D9191938F5F75CF85EEB0CF8091BD
:10200000980290919902A0919A02B0919B02892B1B
:102010008A2B8B2B09F4A9CF0E94560100919802BC
:102020001091990220919A0230919B026C197D09BE
:102030008E099F09061717072807390708F095CF5B
:10204000C5CF28E0FC01238760E00C943A0F90E0B4
:1020500080E00895CF93DF9387E00E94CE00D0E028
:10206000C0E0892B11F4C8E0D0E086E00E94CE00E9
:10207000892BE1F090E080E0C82BD92B85E00E940D
:10208000CE00892BB1F090E080E0C82BD92B84E002
:102090000E94CE0021E030E0892B11F030E020E0FA
:1020A000C9018C2B9D2BDF91CF91089584E090E0A6
:1020B000E3CF82E090E0E9CF0F931F93CF93DF93BC
:1020C000EC0180E2689FF0011124EF5DFC4F6A8B08
:1020D0008091000190910101A0910201B091030152
:1020E0008E879F87A88BB98B0489158930E020E003
:1020F0009801112700270F8B188F298F3A8F828D17
:10210000938DB0E0A0E0AC01BD01402B512B622BC0
:10211000732B4F8B588F698F7A8F83858871A9F4C1
:10212000848D958DA68DB78D8B8B9C8BAD8BBE8B47
:1021300081E08D8381E08C831E821F821886198640
:102140001A861B861C861D8603C0803131F080E014
:10215000DF91CF911F910F9108959E012D5E3F4F0A
:102160008B8D9C8D0E946A07882389F384E0E1CFE0
:102170000F931F93CF938C01C62F0E943A0F6C2FA1
:102180006460C8010E943A0F6C2F6B7FC8010E94E7
:102190003A0F83EC90E00197F1F7CF911F910F91E7
:1021A00008950F931F93CF93DF938C01D62FC42FE5
:1021B000607F642B0E94B81080E1D89FB001112489
:1021C0006C2BC801DF91CF911F910F910C94B81027
:1021D000CF93DF93CDB7DEB728970FB6F894DEBF65
:1021E0000FBECDBF28E0EEE0F1E0DE0111960190D8
:1021F0000D922A95E1F7FC012085241708F44FEF92
:1022000050E0440F551F21E030E02C0F3D1F420FDE
:10221000531FFA012081620F606840E028960FB6D4
:10222000F894DEBF0FBECDBFDF91CF910C94D110DB
:1022300040E061E00E94D1108BE39FE10197F1F74C
:10224000089541E00E94D11081E090E00895AF929E
:10225000BF92CF92DF92EF92FF920F931F93CF9393
:10226000DF93CDB7DEB72B970FB6F894DEBF0FBE66
:10227000CDBF6C01FE013196CE010C967F0120E2AC
:102280002193E817F907E1F7DA0120E037E09D91A3
:10229000B92E9923A9F19E32B9F43A3091F480E035
:1022A0002B960FB6F894DEBF0FBECDBFDF91CF9156
:1022B0001F910F91FF90EF90DF90CF90BF90AF9064
:1022C000089528E03AE0E3CFE2ECF0E0849188233F
:1022D00021F031969813FACFE2CF321700F38FED49
:1022E000890F8E35E0F68FE9890F8A3118F440EEB8
:1022F000B42EB90EF701E20FF11DB0822F5FC7CFE8
:102300008981803261F28B01FB01838D948DF6010E
:10231000948F838FFB011682178210861186128696
:10232000138614861586F80182859385A485B58564
:10233000438954896589768984179507A607B70765
:1023400008F0ADCF25E0B695A795979587952A9586
:10235000D1F7F82FFF70AF2EF8018581823008F495
:102360009ECFC8010E94D60C97FD99CFF8018285B7
:102370009385A485B5854F96A11DB11D828793874E
:10238000A487B587F0E2AF9EB00111246F5D7C4F4A
:102390006115710509F483CFFB018081882309F160
:1023A000853E19F4B11032C01EC04BE050E0C701A9
:1023B0000E946A21892B09F0B6CF6A2DC6012B969F
:1023C0000FB6F894DEBF0FBECDBFDF91CF911F9146
:1023D0000F91FF90EF90DF90CF90BF90AF900C9453
:1023E0005C10B1105CCFF601A28A8091000190913F
:1023F0000101A0910201B091030186879787A08B0C
:10240000B18BFB018081882309F449CFBB24B394AD
:102410008ACFFC0180819181009711F00C940A20F1
:1024200008950F931F93CF93DF938C01EB01FC0171
:10243000808191810097E1F0688179816115710552
:10244000A9F0428153812C813D814217530770F0DE
:102450000E9494218C819D81F801958384831D8243
:102460001C82DF91CF911F910F9108950E940A2045
:1024700088819981F801918380838A819B819383EC
:1024800082838C819D8195838483198218821B822B
:102490001A82E5CF0F931F93CF93DF93EC018881CE
:1024A0009981009759F02A813B812617370730F030
:1024B00081E0DF91CF911F910F9108958B016F5FA4
:1024C0007F4F0E949320009759F0998388831B8344
:1024D0000A832C813D81232B59F7FC011082E8CF20
:1024E00080E0E7CFEF92FF920F931F93CF93DF939C
:1024F000EC017B018A01BA010E944A1228813981CC
:10250000811114C02115310519F0C9010E940A205A
:10251000198218821D821C821B821A82CE01DF91D1
:10252000CF911F910F91FF90EF9008951D830C8321
:10253000B701C9010E949421F1CFFC0111821082E0
:102540001382128215821482FB0101900020E9F7A8
:102550003197AF01461B570B0C947212FB0101908F
:102560000020E9F73197AF01461B570BDC01ED91D5
:10257000FC910280F381E02D09948F929F92AF929B
:10258000BF92EF92FF920F931F93CF93DF93CDB73C
:10259000DEB7A1970FB6F894DEBF0FBECDBF7C01AA
:1025A000FA01CB0119A2223008F42AE08E010F5D56
:1025B0001F4F822E912CB12CA12CBF01A50194019B
:1025C0000E94371FF901CA016A300CF5605DD8011D
:1025D0006E938D01232B242B252B79F790E080E03F
:1025E000109721F0BD01C7010E94AE12A1960FB64F
:1025F000F894DEBF0FBECDBFDF91CF911F910F9139
:10260000FF90EF90BF90AF909F908F900895695C7E
:10261000DECFCF92DF92EF92FF920F931F93CF9373
:10262000DF9377FF21C06A017B01EC01E881F9812A
:102630000190F081E02D6DE209958C01442755272A
:10264000BA014C195D096E097F092AE0CE010E948A
:10265000BD12800F911FDF91CF911F910F91FF90BD
:10266000EF90DF90CF9008952AE0DF91CF911F91F6
:102670000F91FF90EF90DF90CF900C94BD120C94CF
:10268000AE12CF93DF93EC010E94211040E060E096
:10269000CE010E94E81064E671E0CE010E943F1373
:1026A00041E060E0CE010E94E8106DE671E0CE01ED
:1026B0000E943F130E942A100097E1F383FD07C098
:1026C00082FFF8CF90E080E0DF91CF91089581E024
:1026D00090E0FACFEF92FF920F931F93CF93DF9387
:1026E000EC017B018A011B821A8288EE93E0A0E054
:1026F000B0E08C839D83AE83BF8386E291E09983B3
:1027000088838DE190E00E946E1F9A8F898F0097D9
:1027100079F02DE1F701DC0101900D922A95E1F7A6
:102720004CE050E0B801CE010C960E949B21188E1F
:10273000DF91CF911F910F91FF90EF90089585ED5C
:102740008093BC008091980290919902A0919A0286
:10275000B0919B020796A11DB11D23E0B695A795E8
:10276000979587952A95D1F72091BC0024FD03C049
:102770001092E1020895409198025091990260915F
:102780009A0270919B02452B462B472B69F30097C9
:10279000A105B10541F02AE22A95F1F700C00197A1
:1027A000A109B109E1CF809197020C94930E2F9269
:1027B0003F924F925F926F927F928F929F92AF92D1
:1027C000BF92CF92DF92EF92FF920F931F93CF931E
:1027D000DF93CDB7DEB72E970FB6F894DEBF0FBEEE
:1027E000CDBF8C017B012A014901DB015996ED9196
:1027F000FC91309709F4C9C08581882309F4C5C0CC
:1028000061E971E0CE0101960E949D12BFEF4B1A63
:102810005B0A052C000C66087708E1E04E1A5108A7
:10282000610871080E949400BC01990F880B990BF4
:10283000611571058105910511F00E94C51E0E9468
:10284000761EA30192010E94CE1E6F5F7F4F8F4FB5
:102850009F4F1B01B12CA12CA214B304CCF561E94C
:1028600071E0CE0107960E949D12C7010E94000EE2
:1028700097FD1FC08A309105E1F08D871E86CB84BD
:10288000DC84FFEFCF1ADF0AB601CE0107960E9463
:102890004A12882351F32F8138858B859C85BE0190
:1028A000635F7F4F820F931F0E949421DC86CB864B
:1028B000DCCFBE01695F7F4FCE0101960E941112ED
:1028C000CE0107960E9409128FEFA81AB80AC4CF4A
:1028D000A980BA80D4013C9011962C90C32CD22CA4
:1028E000C114D10409F043C084E090E00E946E1F3F
:1028F0007C01892B61F0F70132822382C5010E949D
:102900005021D7018D939C93F401F182E082D8018C
:1029100011961C921E9213961C921E921297159657
:102920001C921E921497BE016F5F7F4FC8010E94D8
:102930001112CE0101960E940912C8012E960FB6FF
:10294000F894DEBF0FBECDBFDF91CF911F910F91E5
:10295000FF90EF90DF90CF90BF90AF909F908F90BF
:102960007F906F905F904F903F902F900895B501AA
:10297000F601808191810E948B21892B09F452CF2D
:10298000D6011296CD90DC90ABCF6BE771E081E27F
:1029900095E00E94AE126FE871E081E295E00E943E
:1029A000AE12F701818D928D009739F20E94610A73
:1029B000D70159968D919C910E940A20F701128EA1
:1029C000118EBBCF2F923F924F925F926F927F9268
:1029D0008F929F92AF92BF92CF92DF92EF92FF922F
:1029E0000F931F93CF93DF93CDB7DEB7C457D109B1
:1029F0000FB6F894DEBF0FBECDBF5C017B018091A6
:102A0000EF05882321F08AEE95E00E94610A10927A
:102A1000CB051092C9051092C6051092C5058AE033
:102A20008093C4050E94AD018B0161E08091C405D3
:102A30000E94250161E08091C4050E94F700DFB685
:102A4000F89480915402811127C0E0E9F0E084916C
:102A5000E4EAF0E09491E82FF0E0EE0FFF1FE85970
:102A6000FF4FA591B491EC91E92321F461E08AE054
:102A70000E94F70061E08AE00E9425018CB5806128
:102A80008CBD8CB580648CBD61E08DE00E94250119
:102A900061E08BE00E942501809154028F5F80935A
:102AA0005402DFBE82E58093BE051092BF0580917F
:102AB000BE059091BF050E94FF022AE0D22E8FEF43
:102AC0000E94DA02DA94D110FACF80EC95E00E94ED
:102AD000020320E030E0A90160E080EC95E00E9474
:102AE0001803D82E8093CA0581E0D816A9F00E9459
:102AF000AD01601B710B613D774058F381E080931D
:102B0000C50580EC95E00E94CF0262E971E081E2A8
:102B100095E00E943F13FFCF2AEA31E040E050E009
:102B200068E080EC95E00E94180382FF2AC0D092F2
:102B3000CB058091CB05412C512C3201823029F4F8
:102B4000412C512C612C80E4782E20E030E0A9014A
:102B500067E380EC95E00E941803A301920169E20B
:102B600080EC95E00E9418038093CA058823D1F079
:102B70000E94AD01601B710B613D774030F388E02E
:102B8000BECF94E0D92E0E94E1028093CA05DA9468
:102B9000D110F9CF8A3A11F082E0B1CF82E0809370
:102BA000CB05C7CF8091CB058230D1F420E030E057
:102BB000A9016AE380EC95E00E941803882311F0D4
:102BC00086E09DCF0E94E102807C803C19F483E086
:102BD0008093CB050E94E1020E94E1020E94E10283
:102BE00080EC95E00E94CF0280E58093BE051092B4
:102BF000BF0581E00E941E058823E9F18AEE95E079
:102C00000E94D507882309F480CFF7016080718086
:102C100019A218A28AE491E09F8F8E8F1BA21C82BA
:102C20001B829A8389831E824E01FEE18F0E911CC6
:102C3000C4010E94D50763018E010F5F1F4F24015D
:102C400018016FE270E0C6010E948021009709F42C
:102C500065C0D6012C912F32A9F4BFEFCB1ADB0A45
:102C6000902F812F8201492E582E942D852D2801D9
:102C7000092F182FE6CF80E00E941E05882309F453
:102C800044CFBCCF8C198D3008F08CE0E82EF12CAD
:102C9000A701B601CE01885A9F4F0E949B21E8E50B
:102CA000F0E0EC0FFD1FEE0DFF1D1082C8010E9429
:102CB000610AF8018581882311F11EAE1DAE8AE4F8
:102CC00091E09CAF8BAF21961FAE2197E596AEADFC
:102CD000BFADE5976A0E7B1EF301808181112BC089
:102CE000BE01655C7F4FC1010E941A0C4FEA51E0A2
:102CF000B101CE01885A9F4F0E946A1343C0AE01B2
:102D0000485A5F4FB201C8010E9427118823A9F2D7
:102D1000CE0CDF1CC2010E94610AA7CFC601861932
:102D20009709E5969FAF8EAFE597B201CE01CB969E
:102D30000E941A0CCBCF19A218A28AE491E09F8FAF
:102D40008E8F1BA221968FAD219781115BC06C964F
:102D50001FAE1EAE6C9788EE93E0A0E0B0E0A096A8
:102D60008CAF9DAFAEAFBFAFA09786E291E06A9601
:102D70009FAF8EAF6A97E3961FAE1EAEE397A59600
:102D80001FAEA5976C968EAD9FAD6C97D50113962F
:102D90009C938E931297A0968CAD9DADAEADBFADBA
:102DA000A097F50184839583A683B783A4968CAD01
:102DB0009DADAEADBFADA49780879187A287B38745
:102DC0003C96A8E5B0E0AC0FBD1F1C96C501499626
:102DD0002D912193E817F907D9F7E396EEADFFADF2
:102DE000E397D5015A96FC93EE935997309719F0D3
:102DF000858181111BC061EB71E081E295E00E9449
:102E00003F13FFCFA301BE01655C7F4FC4010E9449
:102E10002711882309F49BCFCE01CB960E94610A2B
:102E2000B401C1010E941A0CA30162CFCC58DF4F3C
:102E30000FB6F894DEBF0FBECDBFDF91CF911F91CB
:102E40000F91FF90EF90DF90CF90BF90AF909F9049
:102E50008F907F906F905F904F903F902F9008954C
:102E60001F920F920FB60F9211242F933F938F93BF
:102E70009F93AF93BF938091160390911703A091F6
:102E80001803B09119033091150323E0230F2D3758
:102E900058F50196A11DB11D2093150380931603CB
:102EA00090931703A0931803B093190380911A030A
:102EB00090911B03A0911C03B0911D030196A11DCD
:102EC000B11D80931A0390931B03A0931C03B0932E
:102ED0001D03BF91AF919F918F913F912F910F90C3
:102EE0000FBE0F901F90189526E8230F0296A11D84
:102EF000B11DD2CF1F920F920FB60F9211242F93B4
:102F00003F934F935F936F937F938F939F93AF9371
:102F1000BF93EF93FF9381E295E00E943A02FF9105
:102F2000EF91BF91AF919F918F917F916F915F9141
:102F30004F913F912F910F900FBE0F901F901895BA
:102F40001F920F920FB60F9211242F938F939F937E
:102F5000EF93FF93E0913105F09132058081E0918C
:102F60003705F091380582FD1BC0908180913A05AC
:102F70008F5F8F7320913B05821741F0E0913A05F6
:102F8000F0E0EF5DFA4F958F80933A05FF91EF9156
:102F90009F918F912F910F900FBE0F901F901895BA
:102FA0008081F4CF1F920F920FB60F9211242F93AE
:102FB0003F934F935F936F937F938F939F93AF93C1
:102FC000BF93EF93FF938091B900887F803609F417
:102FD0004AC0F0F5883209F4A7C018F5803109F429
:102FE0009BC0B8F4882309F4F9C0883009F494C070
:102FF000FF91EF91BF91AF919F918F917F916F91D1
:103000005F914F913F912F910F900FBE0F901F90A6
:103010001895883109F488C0803251F78093E00216
:1030200014C0803409F49DC040F48033B9F3883370
:10303000F9F68093E00285ECB0C0803509F485C0D4
:10304000883509F496C0883499F60E949F13D0CF32
:10305000883909F48CC038F5883729F050F488365F
:1030600011F0803729F683E08093E1021092DF02AD
:1030700057C0883809F47BC0803919F0803809F0CE
:10308000B7CF8091DF02803208F071C0E091DF029B
:1030900081E08E0F8093DF028091BB00F0E0E1546D
:1030A000FD4F80833DC0803B39F0E0F4803A09F465
:1030B00079C0883A09F09CCF84E08093E1021092B5
:1030C000BE021092BD02E0910F03F091100309952A
:1030D0008091BD0281110FC081E08093BD021092EA
:1030E0009D0209C0803C09F4A6CF883C09F4A3CF17
:1030F000883B09F07DCFE091BE0281E08E0F809386
:10310000BE02F0E0E356FD4F80818093BB009091BA
:10311000BE028091BD0229C0809106038093BB004E
:1031200085EC8093BC0064CF9091050380910403EB
:10313000981758F5E091050381E08E0F8093050301
:10314000F0E0EC51FD4F8081E9CFE091050381E093
:103150008E0F809305038091BB00F0E0EC51FD4F92
:10316000808390910503809104039817C8F285E845
:10317000D8CFE091050381E08E0F80930503809105
:10318000BB00F0E0EC51FD4F80838091E3028111A0
:103190005CCF81E08093E20284EA8093BC001092CD
:1031A000E10226CF85EC8093BC001092E102809171
:1031B000DF02803230F4E091DF02F0E0E154FD4FB5
:1031C00010826091DF0270E0E0910D03F0910E0338
:1031D0008FEB92E009951092DF020ACF1092E00285
:1031E00034CFE1E2F5E01382128288EE93E0A0E0B2
:1031F000B0E084839583A683B78328E331E03183ED
:10320000208325EC30E03587248724EC30E03787B5
:10321000268720EC30E0318B208B21EC30E0338BA3
:10322000228B22EC30E0358B248B26EC30E0378B80
:10323000268B118E128E138E148EEEEBF5E020E5A8
:1032400020831182E0ECF5E0158216821186138648
:1032500042E050E060E070E04487558766877787FA
:1032600013A215A614A62AE431E033A722A717A6B5
:10327000E9E0F6E01382128284839583A683B78304
:1032800086E591E0918380830895CF93DF93CDB756
:10329000DEB7C655D1090FB6F894DEBF0FBECDBF5D
:1032A000789484B5826084BD84B5816084BD85B521
:1032B000826085BD85B5816085BD80916E0081602D
:1032C00080936E00109281008091810082608093D3
:1032D00081008091810081608093810080918000D5
:1032E0008160809380008091B10084608093B10000
:1032F0008091B00081608093B00080917A008460FA
:1033000080937A0080917A00826080937A00809125
:103310007A00816080937A0080917A00806880933F
:103320007A001092C100E0913105F091320592E0EF
:103330009083E0912D05F0912E051082E0912F05EC
:10334000F091300520E1208310923905E091350598
:10335000F091360586E08083E0913305F0913405E5
:10336000808180618083E0913305F0913405808114
:1033700088608083E0913305F09134058081806816
:103380008083E0913305F091340580818F7D8083C7
:103390001AAE19AE4AE151E058AF4FAB87E28BAF9E
:1033A00021962FAF219722969FAF229723961FAE8B
:1033B000239761E08AE00E94250160E087E00E9497
:1033C000250160E086E00E94250160E085E00E9422
:1033D000250160E084E00E942501CE01C7960E948D
:1033E000411328EEC22E23E0D22EE12CF12CCE0187
:1033F000C7960E944113019709F0B0C11F8E1E8E1F
:10340000C8A2D9A2EAA2FBA206E211E01D8F0C8F8E
:103410001EAA1DAA18A667EC71E0CE0101960E94B3
:103420009D12BE016F5F7F4FCE014C960E94E21449
:10343000CE0101960E9409121C821B82CD82DE827F
:10344000EF82F8861A8309831B8E1A8E1D866CED17
:1034500071E0CE018D5B9F4F0E949D12BE016D5B9E
:103460007F4FCE0101960E94E214CE018D5B9F4FEB
:103470000E940912CE01C7960E941811CE01C7966C
:103480000E94211040E060E0CE01C7960E94E81043
:1034900061EF71E0CE01C7960E943F1340E06DE0FE
:1034A000CE01C7960E94E81010E000E0812C912C1C
:1034B00054012AE0B501A401CE01C7960E94BD12B5
:1034C0000115110521F40E942A108C01F9CF00FF8B
:1034D00012C026E082169104A104B10460F085E0D8
:1034E000881A9108A108B10864EF71E080E090E0CB
:1034F0000E947B01DECF01FF0DC022EE821623E089
:103500009206A104B10430F485E0880E911CA11C40
:10351000B11CEACF02FFE8CF64EF71E080E090E0F9
:103520000E947B01A8EEB3E0A50194010E94ED1E6C
:103530004B015C0161E971E0CE01875B9F4F0E9406
:103540009D12CE01C7960E941811CE01C7960E9407
:10355000211061961FAE1EAE61970E94AD012B0136
:103560003C0110E000E00E94AD0164197509860974
:10357000970986169706A806B90608F480C0CE01FA
:10358000C7960E942110CE01C7960E94181140E0F4
:1035900060E0CE01C7960E94E81069EF71E0CE01AD
:1035A000C7960E943F1341E060E0CE01C7960E949B
:1035B000E8100E949400BC01990F880B990B6115CB
:1035C00071058105910511F00E94C51E0E94761EAD
:1035D00023EF31E040E050E00E94CE1E6F5F7F4F4E
:1035E0008F4F9F4F9E01215B3F4F60FF2AC04DE7E9
:1035F00055E0BE01645E7F4FCE018D5B9F4F0E9400
:10360000D713BE016D5B7F4FCE01875B9F4F0E943A
:103610001112CE018D5B9F4F0E9409122F964EAD65
:103620005FAD2F972B966EAD7FAD2B97CE01C796D2
:103630000E94BC0190E080E0009749F40E942A10AB
:10364000FBCF4BE854E0BE016F5F7F4FD5CF82FFC9
:103650000BC064EF71E080E090E00E947B0181E0AC
:1036600090E0080F191F7FCF83FFE6CF64EF71E072
:1036700080E090E00E947B0190E080E0F2CFCE01FC
:10368000875B9F4F0E940912CE01C7960E941811B6
:10369000CE01C7960E94211040E060E0CE01C7969F
:1036A0000E94E81062E072E0CE01C7960E943F13CC
:1036B00041E060E0CE01C7960E94E8106CE072E045
:1036C000CE01C7960E943F1341E06AE0CE01C79643
:1036D0000E94E810A801110F660B770BCE01C79668
:1036E0000E94091390E080E0009719F40E942A10CC
:1036F000FBCF82FFF9CF64EF71E080E090E00E94A1
:103700007B01CE01C7960E941811CE01C7960E9478
:10371000211040E060E0CE01C7960E94E81065E10C
:1037200072E0CE01C7960E943F1390E080E00097C0
:1037300019F40E942A10FBCF82FF07C064EF71E0EA
:1037400080E090E00E947B01F5CE83FFF0CF64EF34
:1037500071E080E090E00E947B0149CE109214035A
:103760001092130310921203109211030E94750E0F
:1037700089EB91E09093100380930F038AEB91E023
:1037800090930E0380930D031CAE22968FAD22976B
:10379000823010F098E09CAF8FAF62E370E080E081
:1037A00090E00E947B0123966FAD2397CE01C796D0
:1037B0000E943A0F68EE73E080E090E00E947B0187
:1037C00060E3CE01C7960E94B8100BE416E4C8016E
:1037D0000197F1F760E3CE01C7960E94B810C801C7
:1037E0000197F1F760E3CE01C7960E94B81083E518
:1037F00092E00197F1F760E2CE01C7960E94B810FF
:103800006CAD606240E0CE01C7960E94D11084E0AA
:103810008DAF40E06CE0CE01C7960E94D110CE0182
:10382000C7960E94181182E08EAF40E066E0CE019C
:10383000C7960E94D11040E062E0CE01C7960E9478
:10384000D1108BE39FE10197F1F7CE01C7960E945B
:10385000211067961FAE1EAE679761E971E0CE0139
:10386000815B9F4F0E949D121C821B8288EE93E019
:10387000A0E0B0E08D839E83AF83B88786E291E0BD
:103880009A8389831B8E1A8E1D8662ED71E0CE01AC
:103890004C960E949D12BE01645E7F4FCE01019640
:1038A0000E94E214CE014C960E940912CE01C796E6
:1038B0000E94211040E060E0CE01C7960E94E8100F
:1038C0006BE172E0CE01C7960E943F1392E0E92EB1
:1038D000F12C40E06EE0CE01C7960E94E810A701EF
:1038E0000F2C000C660B770BCE01C7960E940913B4
:1038F0000E942A100097E1F381FF0AC02FEFE21A1D
:10390000F20A64EF71E080E090E00E947B01E1CF79
:1039100080FF08C022E0E216F10421F081E0E81AFD
:10392000F108EFCF82FFEDCF64EF71E080E090E02F
:103930000E947B01CE01C7960E941811CE01C79646
:103940000E94211040E060E0CE01C7960E94E8107E
:1039500066E272E0CE01C7960E943F13CC24C39466
:10396000D12C40E06EE0CE01C7960E94E810A6017F
:103970000D2C000C660B770BCE01C7960E94091325
:103980000E942A100097E1F381FF0DC0CE14DF04DE
:1039900054F42FEFC21AD20A64EF71E080E090E095
:1039A0000E947B01DECF80FF08C021E0C216D10457
:1039B00021F081E0C81AD108EFCF82FFEDCF64EF8C
:1039C00071E080E090E00E947B0127012FEF421A16
:1039D000520A052C000C6608770881E0481A510845
:1039E0006108710833243394C7010E946E1F5C0183
:1039F000FC01C7018A0D9B1D1192E817F907E1F739
:103A000010E000E00E949400BC01990F880B990B14
:103A1000611571058105910511F00E94C51E0E9476
:103A2000761EA30192010E94CE1E6F5F7F4F8F4FC3
:103A30009F4FF501E60FF71F8081811101C0308291
:103A40000F5F1F4FC016D106E9F69E012B5A3F4F5C
:103A50004DE755E0BE016F5F7F4FCE01875B9F4F03
:103A60000E94D71325961FAE1EAE259727961FAE30
:103A70001EAE279729961FAE1EAE29972B966EADC8
:103A80007FAD2B976115710549F02F964EAD5FAD57
:103A90002F97CE018D5B9F4F0E947212CE01C79669
:103AA0000E942110212C10E000E00E942A100097B3
:103AB000E1F382FFBBC048012FEF821A920A222055
:103AC00089F11D8E1C8E1F8E1E8E19A218A225969E
:103AD0006EAD7FAD25976115710541F029964EAD0C
:103AE0005FAD2997CE014C960E947212F501E00F4E
:103AF000F11F8081882369F067E671E0CE01C796E7
:103B00000E943F13CE014C960E9409128401212C81
:103B10002FC048A159A16C8D7D8DCE01C7960E9402
:103B2000BC01F0CFCE01C7960E94181140E060E0C2
:103B3000CE01C7960E94E8106EE272E0CE01C796F1
:103B40000E943F1340E06BE0CE01C7960E94E81050
:103B5000A401990C660B770BCE01C7960E9409133E
:103B600041E060E0CE01C7960E94E8102224239431
:103B700068E372E081E295E00E943F13A801012E04
:103B8000000C660B770B81E295E00E9409136FE849
:103B900071E081E295E00E94AE1264EF71E080E096
:103BA00090E00E947B010E151F050CF47ECF64EFA0
:103BB00071E080E090E00E947B01CE018D5B9F4F21
:103BC0000E94091264EF71E080E090E00E947B01A6
:103BD000CE01C7960E941811CE01C7960E942110EF
:103BE0006DE372E0CE01C7960E943F1341E060E0B2
:103BF000CE01C7960E94E8106AE472E0CE01C79633
:103C00000E943F130E942A1082FFFCCF64EF71E0F4
:103C100080E090E00E947B01CE01C7960E941811BF
:103C2000CE01875B9F4F0E940912DECE83FFA0CF9B
:103C30000115110509F49CCFCE01C7960E941811F9
:103C40000130110519F00250110961CF212C10E04B
:103C500000E08ECF8F929F92AF92BF92CF92DF9271
:103C6000EF92FF92CF93DF93EC01688179818A8193
:103C70009B81611571058105910521F464E279ED5F
:103C80008BE597E02DE133EF41E050E00E94CE1E3E
:103C900049015A019B01AC01A7EAB1E40E94ED1E63
:103CA0006B017C01ACEEB4EFA50194010E94FB1EF8
:103CB000C60ED71EE81EF91EF7FE06C081E0C81A20
:103CC000D108E10880E8F80AC882D982EA82FB823A
:103CD000C701B6019F77DF91CF91FF90EF90DF9002
:103CE000CF90BF90AF909F908F9008958F929F92AA
:103CF000AF92BF92CF92DF92EF92FF926091040158
:103D0000709105018091060190910701611571057F
:103D10008105910521F464E279ED8BE597E02DE1D1
:103D200033EF41E050E00E94CE1E49015A019B0151
:103D3000AC01A7EAB1E40E94ED1E6B017C01ACEE80
:103D4000B4EFA50194010E94FB1EC60ED71EE81E0B
:103D5000F91EF7FE06C081E0C81AD108E10880E824
:103D6000F80AC0920401D0920501E0920601F09297
:103D70000701C701B6019F77FF90EF90DF90CF90CA
:103D8000BF90AF909F908F900895609304017093BF
:103D9000050180930601909307010895052E97FB76
:103DA0001EF400940E94E51E57FD07D00E94371FA5
:103DB00007FC03D04EF40C94E51E509540953095C9
:103DC00021953F4F4F4F5F4F089590958095709587
:103DD00061957F4F8F4F9F4F08950E94591FA59F58
:103DE000900DB49F900DA49F800D911D11240895F6
:103DF000B7FF0C94ED1E0E94ED1E821B930B0895DD
:103E00002F923F924F925F926F927F928F929F92EA
:103E1000AF92BF92CF92DF92EF92FF920F931F93D8
:103E2000CF93DF93CDB7DEB7CA1BDB0B0FB6F89489
:103E3000DEBF0FBECDBF09942A88398848885F84C9
:103E40006E847D848C849B84AA84B984C884DF803A
:103E5000EE80FD800C811B81AA81B981CE0FD11D1E
:103E60000FB6F894DEBF0FBECDBFED010895A1E2FD
:103E70001A2EAA1BBB1BFD010DC0AA1FBB1FEE1FE4
:103E8000FF1FA217B307E407F50720F0A21BB30B2F
:103E9000E40BF50B661F771F881F991F1A9469F7AB
:103EA00060957095809590959B01AC01BD01CF0107
:103EB0000895A29FB001B39FC001A39F700D811D03
:103EC0001124911DB29F700D811D1124911D089523
:103ED000EE0FFF1F0590F491E02D09940F931F93AF
:103EE000CF93DF938230910510F482E090E0E0916F
:103EF0001706F091180630E020E0B0E0A0E030971F
:103F000099F42115310509F44AC0281B390B2430D6
:103F10003105D8F58A819B816115710589F1FB0115
:103F200093838283FE0111C04081518102811381FC
:103F300048175907E0F04817590799F4109761F0AE
:103F400012960C93129713961C933296CF01DF9121
:103F5000CF911F910F9108950093170610931806A3
:103F6000F4CF2115310551F04217530738F0A9015C
:103F7000DB019A01BD01DF01F801C1CFEF01F9CFEB
:103F80009093180680931706CDCFFE01E20FF31F22
:103F9000819391932250310939832883D7CF20917F
:103FA000150630911606232B41F420910A01309119
:103FB0000B013093160620931506209108013091CD
:103FC00009012115310541F42DB73EB740910C018F
:103FD00050910D01241B350BE0911506F09116064A
:103FE000E217F307A0F42E1B3F0B2817390778F0D0
:103FF000AC014E5F5F4F2417350748F04E0F5F1F2F
:104000005093160640931506819391939FCFF0E04D
:10401000E0E09CCFCF93DF930097E9F0FC0132976B
:1040200013821282A0911706B0911806ED0130E0BC
:1040300020E01097A1F420813181820F931F2091FD
:104040001506309116062817390709F061C0F0935C
:104050001606E0931506DF91CF910895EA01CE1779
:10406000DF07E8F54A815B819E0141155105B1F7F3
:10407000E901FB83EA8349915991C40FD51FEC17DD
:10408000FD0761F4808191810296840F951FE901FB
:1040900099838883828193819B838A83F0E0E0E027
:1040A00012968D919C9113970097B9F52D913C91A3
:1040B0001197CD010296820F931F20911506309122
:1040C00016062817390739F6309751F51092180659
:1040D00010921706B0931606A0931506BCCFD38393
:1040E000C28340815181840F951FC817D90761F49D
:1040F0004E5F5F4F88819981480F591F51834083DC
:104100008A819B81938382832115310509F0B0CF89
:10411000F0931806E09317069ECFFD01DC01C0CF97
:1041200013821282D7CFB0E0A0E0E9E9F0E20C946C
:10413000021F8C01009751F4CB010E946E1F8C016D
:10414000C801CDB7DEB7E0E10C941E1FFC01E60FFD
:10415000F71F9C0122503109E217F30708F49DC0B4
:10416000D901CD91DC911197C617D70798F0C530CA
:10417000D10530F3CE0104978617970708F3C61BC5
:10418000D70B2297C193D1936D937C93CF010E945B
:104190000A20D6CF5B01AC1ABD0A4C018C0E9D1EC5
:1041A000A0911706B0911806512C412CF12CE12C4E
:1041B000109731F58091150690911606881599058E
:1041C00009F05CC04616570608F058C080910801F7
:1041D00090910901009741F48DB79EB740910C0171
:1041E00050910D01841B950BE817F90708F055C095
:1041F000F0931606E0931506F90171836083A0CF52
:104200008D919C91119712966C90129713967C90B9
:104210001397A815B90559F56C0142E0C40ED11CDD
:10422000CA14DB0420F1AC014A195B09DA011296C9
:10423000159780F06282738251834083D9016D9318
:104240007C93E114F10471F0D7011396FC93EE9383
:10425000129776CF22968C0F9D1FF9019183808350
:10426000F301EFCFF0931806E093170669CF4816D5
:10427000590608F42C017D01D3019ACFCB010E948D
:104280006E1F7C01009749F0AE01B8010E947721B2
:10429000C8010E940A20870153CF10E000E050CFF0
:1042A0000F931F93CF93DF938C01FC0101900020AB
:1042B000E9F7CF01801B910B0E946E1FEC01009764
:1042C00019F0B8010E949421CE01DF91CF911F9186
:1042D0000F910895FB01DC0104C08D9101908019BC
:1042E00021F441505040C8F7881B990B0895FB01F9
:1042F000DC0102C001900D9241505040D8F7089562
:10430000FC018191861721F08823D9F79927089518
:104310003197CF010895FB01DC018D910190801947
:104320000110D9F3990B0895FB01DC0101900D9266
:104330000020E1F70895FB01DC014150504048F0B6
:1043400001900D920020C9F701C01D9241505040CC
:08435000E0F70895F894FFCF97
:10435800FFFFFFFF010000000000190680000000B9
:10436800400014005400000000002111BC01271077
:10437800BB0100000000C00CA30C930C6A0C730C6A
:10438800F60D2A0E000000005C02BC01E901A9023A
:104398001A02F8010C0200000000090CBC01030A13
:1043A800BB01000000000B0FDE0E2710B40ED70E65
:1043B800C40EB50E3C2D204573706961002D3E205A
:1043C800446967616C6F202E2E2E0046696C65204B
:1043D80072656164696E67206661696C6564000D69
:1043E8000A004661696C656420696E697469616C6C
:1043F800697A696E6720534420636172640A002FEA
:104408000046696C65206F70656E696E672066612D
:10441800696C6564210A00756E7265706561746502
:10442800642D6E6F756E732E74787400756E726578
:104438007065617465642D76657262732E74787424
:10444800005469656D706F3A0050616C6162726109
:104458003A00536520616361626F210050756E7484
:10446800616A653A004F7472613F004A756761641A
:104478006F7265733A004573706961733A004A75E3
:104488006761646F723A200069203D200070726590
:1044980073696F6E6172202D3E0070617261206FCA
:0444A80074726100C9
:00000001FF
